:100000007FC20000AEC20000ACC20000AAC2000065
:10001000A8C20000A6C20000A4C20000A2C2000044
:10002000A0C200009EC200009CC200009AC2000054
:100030000C94DE1496C2000094C2000092C200002C
:1000400090C200008EC200008CC200008AC2000074
:1000500088C2000086C2000084C200000C946609B9
:1000600080C200000C9430090C9407097AC2000089
:1000700078C2000076C2000074C2000072C20000A4
:1000800070C200006EC200006CC200006AC20000B4
:1000900068C2000066C2000064C2000062C20000C4
:1000A00060C200005EC200005CC200005AC20000D4
:1000B00058C2000056C2000054C2000052C20000E4
:1000C00050C200004EC200004CC200004AC20000F4
:1000D00048C2000046C2000044C2000042C2000004
:1000E00040C20000000020002300260029002C0050
:1000F0002F00320000010000030106010901000089
:100100000A0B02090C0D0E08070304010000000091
:1001100000000000000000000000000000000000DF
:10012000000000000000000000001211100000009C
:1001300000000000000000000000000000000000BF
:100140000000000000002200250028002B002E00E7
:100150003100340002010000050108010B0100001C
:100160002100240027002A002D0030003300010167
:100170000000040107010A01050505050705080837
:100180000808020202020A0A080804040404010121
:100190000101010101010303030303030303040736
:1001A00007070C0C0C0C0C0C0C0C020202020606CD
:1001B0000606060606060B0B0B0B0B0B0B0B0102C0
:1001C0001020200808102040102040800201020169
:1001D0000804020101020408102040808040201021
:1001E000080402018004020180402010080402017A
:1001F00008040201010204081020408001020408E2
:1002000010204080CF93DF9300D01F921F92CDB774
:10021000DEB7E091DA02F091DB021081F12CE12CE3
:10022000112329F00580F681E02DE080F1800E9405
:10023000AA0A0E94A00A6C018091D6029091D7026E
:10024000C816D90608F04CC00E94E70FD092D7021A
:10025000C092D6020E94D10C50E040E0BE016F5F18
:100260007F4F8091E6029091E7020E943F10882321
:1002700081F2898187FDF0CF0C811D81F801828593
:100280009385892B21F0C80102960E94FB0A0E94E7
:10029000A00A7C018091D6029091D702E816F90657
:1002A00010F40E94E70FF092D702E092D602E981A3
:1002B000EA3090F60E2E000CFF0BD80152969C915E
:1002C0008827EA59FE4F8F4F0C941218140214021B
:1002D00014024D0238024702140214024D02380281
:1002E000D092D702C092D602112399F1CE14DF0426
:1002F000B8F10E94D10CE091DA02F091DB020580A6
:10030000F681E02D06811781C80102960E94FB0A42
:10031000D80152968C91529782FF17C01C966D910E
:100320007C916E0D7F1D9701A601C8010E94550B9F
:10033000882321F0B701C8010E94BF0FD801509651
:10034000ED91FC91C801199587CF8E7FF801828BC2
:10035000F5CFE091D802F091D902808161E081115E
:1003600060E00091E6021091E7020FB6F8940F9258
:10037000F801858D8F3F09F4158ED8015E968C911A
:100380005E978F3F11F45E961C920F900FBEF8019E
:10039000828D81113FC00288F389E02DA091B202C5
:1003A000B091B3021F96FC93EE931E97A091B202F8
:1003B000B091B3028481958151969C938E9350970E
:1003C0008091B2029091B302A481B5810C961396EC
:1003D0009C938E9312978091B2029091B3020C96E7
:1003E00095838483E091B202F091B302C8014196F3
:1003F000958B848BD80151968C9151978F5F519634
:100400008C93C7018C199D09662311F08FEF9FEF24
:100410000E947E0BC8010E94BB0A0E94D10C811170
:100420001BCF0E940B0C18CF9160F801928B2A8190
:100430003B8164857585620F731FA701C8010E9407
:10044000550B882309F408CFD8015096ED91FC9103
:10045000C8011995F801828982FFFECE6A817B81ED
:1004600084859585680F791FC8010E94BF0FF4CE5F
:100470009160F801928B6A817B81758764876E0D2C
:100480007F1D9701A701C8010E94550BE5CE91FD84
:1004900004C0C8010E94B712DFCE9E7FD8015296D9
:1004A0009C93DACE8091BA02811108C080911F031B
:1004B000823010F00E940B0C74D1F4CF0FB6F89478
:1004C0000F92E091FA02F091FB02C681D781CE0132
:1004D00002960E94FB0A80911B03815080931B03AC
:1004E0008091BA0281508093BA020F900FBE8F891B
:1004F000988D0E94B712CE010E94B712D3CFE0149C
:1005000011241FBECFEFD1E2DEBFCDBF00E00CBF94
:1005100012E0A0E0B2E0E8E5F0E300E00BBF02C0CB
:1005200007900D92A23BB107D9F723E0A2EBB2E00E
:1005300001C01D92AD3FB207E1F712E0C0E8D2E082
:1005400000E006C021970109802FFE010E941218C9
:10055000CF37D10780E00807A9F70E942A150C942D
:100560002A184ECD90E0FC01E254FE4F24918858A9
:100570009E4FFC018491882399F090E0880F991F89
:10058000FC01E25AFE4FA591B491FC01EC5BFE4FD9
:10059000859194918FB7F894EC91E22BEC938FBFF7
:1005A0000895AF92BF92CF92DF92EF92FF920F9396
:1005B0001F93CF93DF936C017B018B01040F151FF9
:1005C000EB015E01AE18BF08C017D10759F0699161
:1005D000D601ED91FC910190F081E02DC6011995B5
:1005E000892B79F7C501DF91CF911F910F91FF9072
:1005F000EF90DF90CF90BF90AF900895FC01538DA6
:10060000448D252F30E0842F90E0821B930B5417EC
:1006100010F0CF96089501970895FC01918D828D79
:10062000981761F0A28DAE0FBF2FB11D5D968C9112
:10063000928D9F5F9F73928F90E008958FEF9FEF51
:100640000895FC01918D828D981731F0828DE80F0D
:10065000F11D858D90E008958FEF9FEF0895FC01C7
:10066000918D228D892F90E0805C9F4F821B910994
:100670008F739927089584E493E0F1DF21E0892BBB
:1006800009F420E0822F0895FC01A48DA80FB92F52
:10069000B11DA35ABF4F2C91848D90E001968F73AA
:1006A0009927848FA689B7892C93A089B1898C91C9
:1006B000837080648C93938D848D981306C0028818
:1006C000F389E02D80818F7D80830895EF92FF92E2
:1006D0000F931F93CF93DF93EC0181E0888F9B8D65
:1006E0008C8D98131AC0E889F989808185FF15C01F
:1006F0009FB7F894EE89FF896083E889F989808142
:100700008370806480839FBF81E090E0DF91CF9110
:100710001F910F91FF90EF900895F62E0B8D10E032
:100720000F5F1F4F0F731127E02E8C8D8E110BC0A2
:100730000FB607FCFACFE889F989808185FFF5CFEC
:10074000CE01A2DFF2CFEB8DEC0FFD2FF11DE35AAE
:10075000FF4FF0829FB7F8940B8FEA89FB89808165
:100760008062D0CFCF93DF93EC01888D8823B1F0E6
:10077000AA89BB89E889F9898C9185FD03C08081AC
:1007800086FD0CC00FB607FCF7CF8C9185FFF2CF2A
:10079000808185FFEDCFCE0177DFEACFDF91CF916A
:1007A000089580E090E0892B21F065DF81110E949F
:1007B000000080E090E0892B49F080E090E0892BF8
:1007C00029F00E94000081110E94000080E090E06A
:1007D000892B49F080E090E0892B29F00E940000ED
:1007E00081110E94000080E090E0892B49F080E0B8
:1007F00090E0892B29F00E94000081110C940000E8
:1008000008958150823108F05AC0E82FF0E088271F
:10081000E35FFB4F8F4F0C9412182D0431041F041B
:10082000250429045F0434043A043E0444044804C3
:100830004C04520456045F045A046004640480911A
:1008400080008F77809380000895809180008F7D55
:10085000F9CF80918000877FF5CF84B58F7784BDF5
:10086000089584B58F7DFBCF8091B0008F77809302
:10087000B00008958091B0008F7DF9CF80919000F5
:100880008F77809390000895809190008F7DF9CFAD
:1008900080919000877FF5CF8091A0008F77809323
:1008A000A00008958091A0008F7DF9CF8091A000D5
:1008B000877FF5CF809120018F7780932001089565
:1008C000809120018F7DF9CF80912001877FF5CF26
:1008D0001F93CF93DF93282F30E0F901E250FF4FB1
:1008E0008491F901E254FE4FD491F901E858FE4F8A
:1008F000C491CC23A1F0162F811183DFEC2FF0E0FF
:10090000EE0FFF1FEC5BFE4FA591B4918FB7F894EB
:10091000EC91111108C0D095DE23DC938FBFDF91DD
:10092000CF911F910895DE2BF8CF1F93CF93DF93C4
:10093000182FEB0117DE209731F460E0812FDF9153
:10094000CF911F91C5CFCF3FD10511F461E0F6CF14
:10095000E12FF0E0E250FF4FE491E150E23108F086
:10096000B3C0F0E08827E854FB4F8F4F0C94121867
:10097000CA04D204D704E104EB046405F504FD04C1
:1009800005050F051905230532053C0564054605D7
:1009900050055A0584B5806884BDC7BDDF91CF91ED
:1009A0001F91089584B5806284BDC8BDF7CF809142
:1009B0008000806880938000D0938900C093880075
:1009C000EDCF80918000806280938000D0938B0077
:1009D000C0938A00E3CF809180008860809380007C
:1009E000D0938D00C0938C00D9CF8091B0008068E7
:1009F0008093B000C093B300D1CF8091B0008062EB
:100A00008093B000C093B400C9CF809190008068FB
:100A100080939000D0939900C0939800BFCF8091AD
:100A20009000806280939000D0939B00C0939A00C6
:100A3000B5CF80919000886080939000D0939D0006
:100A4000C0939C00ABCF8091A00080688093A000F1
:100A50008091A0008F7B8093A000D093A900C093C9
:100A6000A8009CCF8091A00080628093A000D093CA
:100A7000AB00C093AA0092CF8091A00088608093C1
:100A8000A000D093AD00C093AC0088CF809120012E
:100A9000806880932001D0932901C09328017ECFE4
:100AA00080912001806280932001D0932B01C0931C
:100AB0002A0174CF80912001886080932001D09317
:100AC0002D01C0932C016ACFC038D1050CF03ECF68
:100AD00034CF90917B00977F90937B008653806406
:100AE00080937C0080917A00806480937A0080916A
:100AF0007A0086FDFCCF809178009091790008956E
:100B0000089590E080E00895CF93DF93EC0160E0DA
:100B10008E81DEDE61E08E81DBDE60E08E81D8DEFC
:100B20008BE891E00197F1F7DF91CF910895CF9293
:100B3000DF92EF92FF920F931F93CF93DF936C019D
:100B40007C0187E0E80EF11CD0E0C0E0062F10E049
:100B5000B8010C2E02C0759567950A94E2F7617092
:100B6000F70181917F01B4DE2196C430D10581F770
:100B7000C601DF91CF911F910F91FF90EF90DF9011
:100B8000CF90C2CFCF92DF92EF92FF920F931F933D
:100B9000CF93DF93EC01F62E642F8C8199DE8D814B
:100BA0008F3F11F060E094DE0F2D10E08F8584FF01
:100BB00023C06E0187E0C80ED11CF12CE12CB801D6
:100BC0000E2C02C0759567950A94E2F76170F601E4
:100BD00081916F017DDEFFEFEF1AFF0A88E0E816D2
:100BE000F10469F7CE01DF91CF911F910F91FF9032
:100BF000EF90DF90CF9088CFB80184E0759567952E
:100C00008A95E1F7CE0193DF6F2DCE01DF91CF9171
:100C10001F910F91FF90EF90DF90CF9088CF40E031
:100C2000682F81EE93E0AECF9091F403691710F036
:100C30006FEF690FE62FF0E0EF51FC4F9489890FB9
:100C40008068EDCFCF93DF93823029F49091F00349
:100C500098609093F0038093F4031092F50380E47E
:100C60008093F60380E18093F70380E58093F80397
:100C70008091E50377DC8091E6038F3F09F072DC19
:100C80008091E7036FDCC1EED3E09E01215E33402B
:100C90008091F00384FD09C084E090E0219628173C
:100CA000390734F48E815EDCF0CF88E090E0F6CF37
:100CB0008BE39DE00197F1F760E08091E50308DEAA
:100CC00060E08091E70304DE8091E6038F3F11F03E
:100CD00060E0FEDD8091F00384FD31C063E081EED1
:100CE00093E025DFCBE4D6E4CE010197F1F763E092
:100CF00081EE93E01CDF2197F1F763E081EE93E052
:100D000016DF83E592E00197F1F762E081EE93E070
:100D10000EDF8091F003806282DF84E08093F10334
:100D20008CE07DDF81E07BDF8BE39FE10197F1F7D2
:100D300082E08093F20386E0DF91CF9170CF8062F2
:100D40006EDF8BE496E40197F1F78091F003806207
:100D500066DF83E592E00197F1F78091F00380620E
:100D60005EDFD7CF41E00EDF81E090E00895FB0128
:100D700001900020E9F73197AF01461B570BDC01CA
:100D8000ED91FC910280F381E02D19948F929F9256
:100D9000AF92BF92EF92FF920F931F93CF93DF9387
:100DA000CDB7DEB7A1970FB6F894DEBF0FBECDBFAB
:100DB0007C01FA01CB0119A2223008F42AE08E014D
:100DC0000F5D1F4F822E912CB12CA12CBF01A501CC
:100DD00094010E94F017F901CA016A3004F5605DC0
:100DE000D8016E938D01232B242B252B79F790E0CE
:100DF00080E0109719F0BD01C701B9DFA1960FB6C9
:100E0000F894DEBF0FBECDBFDF91CF911F910F9140
:100E1000FF90EF90BF90AF909F908F900895695C86
:100E2000DFCFCF93DF9300D000D01F921F92CDB7BA
:100E3000DEB71A8219821C821B821E821D8281E00B
:100E400090E098878F8387E344DEBC0190E080E0E8
:100E50000E94FF1620E030E04FE753E40E94651740
:100E600020E030E040E85AE30E9465170E94D31664
:100E70007A83698386E32DDEBC0190E080E00E94E6
:100E8000FF1620E030E04FE753E40E94651720E0B2
:100E900030E040E85AE30E9465170E94D3167E8333
:100EA0006D83AB0170E060E02AE084E493E06EDFE4
:100EB00065E272E084E493E05ADF4CE050E0BE016A
:100EC0006F5F7F4F8091B8029091B9022FD74CE0AD
:100ED00050E0BE016B5F7F4F8091B8029091B902E4
:100EE00025D781110AC068E272E084E493E03FDF15
:100EF00065E272E084E493E03ADF83E090E00E94F0
:100F00003110A1CFCF93DF9300D01F921F92CDB7A6
:100F1000DEB782E027DB82E095DE60E080E084DE01
:100F20006CE472E081EE93E022DF61E080E07CDE41
:100F30006AE572E081EE93E01ADF8CE790E00E94B0
:100F4000311081E06CDE8BE39FE10197F1F760E007
:100F500080E06ADE68E672E081EE93E008DF61E03F
:100F600080E062DE6EE672E081EE93E000DF61E039
:100F70008BE05ADE64E772E081EE93E0F8DE46E053
:100F800050E0BE016F5F7F4F8091B8029091B9022F
:100F90000E943F10813009F036C08B819C81892BE3
:100FA000B9F460E085E040DE6AE772E081EE93E04C
:100FB000DEDE60E085E038DE49815A8170E060E085
:100FC0002AE081EE93E0E2DE69817A8183E0ADDCA4
:100FD0008B819C810197B9F461E085E025DE6AE7A9
:100FE00072E081EE93E0C3DE61E085E01DDE4981C1
:100FF0005A8170E060E02AE081EE93E0C7DE69810B
:101000007A8182E092DC46E050E0BE016B5F7F4F68
:101010008091B6029091B7020E943F10813099F4FE
:1010200060E08DE001DE6AE772E081EE93E09FDE32
:1010300060E08DE0F9DD4D8150E070E060E02AE095
:1010400081EE93E0A3DE81E090E00E94311097CF23
:10105000CF93DF931F92CDB7DEB772D28C018DE0B4
:1010600081DA60E08DE034DC9BE0E92E91E0F92E3E
:101070002BECC22E21E0D22E35E8A32E31E0B32E88
:1010800046E050E0BE016F5F7F4F8091B6029091C5
:10109000B7024CD6813019F489818F5F8983F701BB
:1010A0008491F6019490F501849070E060E08820CE
:1010B00091F08111A6DBE82DF0E0EE0FFF1FEC515F
:1010C000FF4FA591B4918C91982291E080E009F4B2
:1010D00090E0692F782FF1E06F278DE0F9DB3AD2AD
:1010E00080911C0390911D0348012FE1820E911CF9
:1010F0008017910760F48016910618F488159905F9
:1011000048F04FD4811101C086D38401B9CF801635
:101110009106A0F760E0F401E81BF90BCF01EED2D5
:10112000F0CF0F931F93E0915403F091550382E0A9
:101130008083E0915003F09151031082E0915203BB
:10114000F09153038FEC808310925C03E09158037D
:10115000F091590386E08083E0915603F0915703A4
:10116000808180618083E0915603F09157038081F4
:1011700088608083E0915603F091570380818068F6
:101180008083E0915603F091570380818F7D8083A7
:1011900064E083E00E9407149093B9028093B80240
:1011A00061E085E00E9407149093B7028093B60235
:1011B0008091B8029091B902892BA1F010E000E073
:1011C00021E040E850E06BE872E081E197E00E94A6
:1011D000E21222E040E850E066E972E082E897E03F
:1011E0000E94E2128091B6029091B702892B59F0C9
:1011F00010E000E021E040E850E061EA72E088E2BF
:1012000098E00E94E2121F910F910C9449141F92D2
:101210000F920FB60F9211240BB60F922F933F939C
:101220004F935F936F937F938F939F93AF93BF93EE
:10123000EF93FF9384E493E027DAFF91EF91BF915E
:10124000AF919F918F917F916F915F914F913F915E
:101250002F910F900BBE0F900FBE0F901F901895FF
:101260001F920F920FB60F9211240BB60F922F936D
:101270008F939F93EF93FF93E0915403F091550365
:101280008081E0915A03F0915B0382FD1DC0908143
:1012900080915D038F5F8F7320915E03821741F011
:1012A000E0915D03F0E0EC5BFC4F958F80935D0374
:1012B000FF91EF919F918F912F910F900BBE0F9007
:1012C0000FBE0F901F9018958081F2CF1F920F9242
:1012D0000FB60F9211242F933F938F939F93AF9349
:1012E000BF938091E1029091E202A091E302B0915C
:1012F000E4023091E00223E0230F2D3758F50196E8
:10130000A11DB11D2093E0028093E1029093E202BF
:10131000A093E302B093E4028091DC029091DD029D
:10132000A091DE02B091DF020196A11DB11D809354
:10133000DC029093DD02A093DE02B093DF02BF9146
:10134000AF919F918F913F912F910F900FBE0F9072
:101350001F90189526E8230F0296A11DB11DD2CF2C
:10136000E091EA02F091EB028081811107C08FEFDA
:101370009FEF9093D5028093D4020895E091EA0202
:10138000F091EB020580F681E02D80819181F1CF13
:10139000FC01DB010FB6F8940F9240911C035091B1
:1013A0001D032D913C9111972F3F320711F181813F
:1013B000928160911E037081761749F04817590792
:1013C00030F01D921C9281E00F900FBE0895481BD3
:1013D000590B42175307A8F7241B350B2D933C9349
:1013E00080911E03808380911C0390911D03928342
:1013F000818380E0E9CFCF93DF93DC011596ED91F7
:10140000FC910680F781E02DA489B58986859785B2
:1014100020893189EC013D832C83C089D1899B834C
:101420008A83CF010C9611962D913C911297281723
:10143000390721F41296DC93CE931197158A148AFA
:101440002C9121502C932091E502211157C0A285A7
:10145000B3858481958126813781EC013D832C837E
:10146000C681D7819B838A83CF01029611962D91E5
:101470003C9112972817390721F41296DC93CE93EA
:101480001197138612862C9121502C93C689209196
:1014900043032C1710F4C093430329E02C9FE00171
:1014A0001124C15EDC4F0980DA81C02DD583C4834D
:1014B0004C815D8157834683AC81BD8113969C939B
:1014C0008E9312979D838C83A689A29FD0011124AD
:1014D000A15EBC4FB387A2878C918F5F8C93A09144
:1014E000B202B091B302968956968C91891730F565
:1014F00081E08093D302DF91CF910895A091FF0204
:10150000B0910003B787A68714962D913C9115974B
:10151000318B208B1496CD91DC9115979B838A8318
:1015200015969C938E9314978EEF92E0958B848BF7
:101530008091FE028F5F8093FE02D1CF80E0DBCFEF
:101540000FB6F8940F9280911C0390911D030F9099
:101550000FBE08958091E5028F5F8093E5020895A4
:101560000FB6F8940F92FC01928D0F900FBE81E0A0
:10157000911180E00895EF92FF920F931F93CF9304
:10158000DF93EC010FB6F8940F921E8D7C0181E180
:10159000E80EF11C01E01116D4F08FEF8E8F0F9042
:1015A0000FBE0FB6F8940F921D8D7E0188E0E80EF5
:1015B000F11C01E01116ACF08FEF8D8F0F900FBE74
:1015C000DF91CF911F910F91FF90EF90089589893E
:1015D000882319F3C7010FDF81110093D302115043
:1015E000DACF8885882341F3C70105DF8111009395
:1015F000D3021150DFCFCF93DF93FC01A085B185DB
:101600008281938124813581EC013D832C83C481C7
:10161000D5819B838A8311968D919C9112978E1709
:101620009F0721F41296DC93CE93119711861086B2
:101630008C9181508C938C91DF91CF9108950F9371
:101640001F93CF93DF938C01FB0180819181D8019F
:1016500013968F3F9807F1F4E801AF81B885129691
:101660008D919C91139793838283EC01FD83EC838E
:10167000B583A4831396FC93EE931297118700878A
:10168000F80180818F5F8083DF91CF911F910F914F
:101690000895D90112962D913C911397E901488143
:1016A000598184179507A8F7DACFFC017383628309
:1016B000918780874617570788F0421B530B848514
:1016C000958548175907C0F4BF016E5F7F4F809121
:1016D000D8029091D902B3DF80E0089542175307F2
:1016E00018F46217730740F4BF016E5F7F4F80915B
:1016F000DA029091DB02EFCF81E00895FF920F9321
:101700001F93CF93DF93EC01F62E00911C031091F1
:101710001D038091B2029091B30202966CDFCF3F1D
:10172000DC07E9F5FF20D9F1E091ED02F091EE023E
:10173000A091B202B091B3021596FC93EE93149768
:10174000A091B202B091B3028481958117969C93C7
:101750008E9316978091B2029091B302A481B581C5
:10176000029613969C938E9312978091B202909159
:10177000B302029695838483E091B202F091B302A2
:101780008CEE92E0938782878091EC028F5F80934A
:10179000EC02DF91CF911F910F91FF900895C00F40
:1017A000D11FE091B202F091B302D383C283609162
:1017B000B2027091B302C017D10760F48091E802C1
:1017C0009091E9026E5F7F4FDF91CF911F910F9152
:1017D000FF9035CF8091EA029091EB026E5F7F4FD0
:1017E0002EDF8091D4029091D502C817D90788F6D0
:1017F000D093D502C093D402CCCFFC010396928340
:1018000081832FEF3FEF34832383968385839087F3
:101810008783108208950F920FB6F8940F920BB63B
:101820000F920CB60F921F9211242F923F924F925B
:101830005F926F927F928F929F92AF92BF92CF9260
:10184000DF92EF92FF920F931F932F933F934F934B
:101850005F936F937F938F939F93AF93BF93CF9338
:10186000DF93EF93FF93A091B202B091B3020DB654
:101870000D920EB60D928091E502882321F081E051
:101880008093D3025FC01092D302A091B202B091B4
:10189000B302E091B202F091B3022D913C9187899D
:1018A000908D82179307A8F08091B2029091B302B5
:1018B0008091B2029091B302279A2F9A2FEF87EA74
:1018C00091E6215080409040E1F700C000001F9A4F
:1018D000F5CF2091430389E001C02150422F50E011
:1018E000849FF001859FF00D1124E15EFC4F9081F3
:1018F000992399F3A181B28112960D90BC91A02DEC
:10190000B283A183289FC00111248E5D9C4FA8172C
:10191000B90729F412968D919C919283818389E075
:10192000849FF001859FF00D1124E15EFC4F018042
:10193000F281E02D868197819093B3028093B20269
:1019400020934303A091B202B091B302CD91CDBFD9
:10195000DD91DEBFFF91EF91DF91CF91BF91AF910C
:101960009F918F917F916F915F914F913F912F91B7
:101970001F910F91FF90EF90DF90CF90BF90AF90AD
:101980009F908F907F906F905F904F903F902F909F
:101990001F900F900CBE0F900BBE0F900FBE0F90BC
:1019A00008958F929F92BF92CF92DF92EF92FF9213
:1019B0000F931F93CF93DF930FB6F8940F928091FC
:1019C000E50281508093E5028091E502882379F059
:1019D00080E00F900FBEDF91CF911F910F91FF908C
:1019E000EF90DF90CF90BF909F908F90089580915F
:1019F0001B03882369F3E0900303F0900403F0E0F5
:101A0000E0E039E041E08091FE0281115CC0EF2B03
:101A100009F0A6DCE090D102F090D202E114F104CA
:101A200009F47CC189E0D82ECC24C3940FEF1FEFBA
:101A30008091E502811160C1C0911C03D0911D030A
:101A40004E018FEF881A980A90921D0380921C0312
:101A500081149104B1F48091EA029091EB022091FB
:101A6000E8023091E9023093EB022093EA0290936E
:101A7000E9028093E80280911E038F5F80931E032A
:101A80006FDC8091D4029091D502B12C8816990612
:101A900008F026C1E091B202F091B302E689DE9E21
:101AA000F0011124E15EFC4F8081823010F0BB24F4
:101AB000B3948091D302811103C0BB2009F425C1E6
:101AC000C092D30222C1D7011696ED91FC91A48950
:101AD000B5896685778580899189EB019D838C83A3
:101AE00080899189EC017B836A83BF01645F7F4FAA
:101AF00011960D911C9112970617170721F4129653
:101B00009C938E931197158A148A8C9181508C9393
:101B1000A285B3858481958166817781EC017D837F
:101B20006C8366817781EB019B838A83CF01029668
:101B300011960D911C9112970817190721F412960E
:101B40007C936E931197138612862C9121502C93BF
:101B5000A689209143032A1710F4A09343033A9FC8
:101B6000D0011124A15EBC4F11960D90BC91A02D07
:101B7000B583A48314966D917C91159777836683C2
:101B800014966D917C911597EB019B838A83159632
:101B90009C938E9314979689939FD0011124A15EF4
:101BA000BC4FB387A2878C918F5F8C93A091B202B8
:101BB000B091B30256968C91981708F424CF4093B5
:101BC000D30221CFE091EA02F091EB020580F68189
:101BD000E02D0680F781E02D828193818816990699
:101BE00028F49093D5028093D40254CFC285D38534
:101BF0008481958126813781DC0115963C932E9353
:101C0000149726813781D90113969C938E9312974E
:101C1000CF01029649815A814817590711F43A8336
:101C2000298313861286288121502883A489B589A7
:101C30001097F9F02685378540895189E9015D8340
:101C40004C8340895189EA013B832A8311966D9127
:101C50007C9112979F01245F3F4F6217730721F415
:101C600012965C934E931197158A148A2C912150E9
:101C70002C93A689209143032A1710F4A0934303C1
:101C8000DA9ED0011124A15EBC4F11960D90BC913B
:101C9000A02DB583A48314962D913C91159737837D
:101CA000268314962D913C911597E9019B838A8395
:101CB00015969C938E93149796899D9DD00111241F
:101CC000A15EBC4FB387A2878C918F5F8C93E0910C
:101CD000B202F091B3028689981710F0BB24B39436
:101CE000E091EA02F091EB02808181116BCF1093B9
:101CF000D5020093D402CECE8091D1029091D2022F
:101D000001969093D2028093D102D1E0ED1AF108AE
:101D100009F08ECE1092D2021092D1028091D3029D
:101D2000882309F455CE77DD81E053CEAF92BF9280
:101D3000CF92DF92EF92FF920F931F93CF93DF9397
:101D400000D01F921F92CDB7DEB78C017B015D835F
:101D50004C8380E0680198E0C90ED11C0FB6F8945E
:101D60000F92D8015A962C915A975B969C915B974B
:101D7000291708F0ADC05A96DC905A975C964C91A2
:101D80005C9741118AC08D919C91892B11F080E064
:101D90000AC0F801E480F580E114F10429F580E03F
:101DA000F80115821482D394D8015A96DC925A977E
:101DB00051969C91992319F0C80141961CDB811121
:101DC0002ADD0F900FBE81E00F900F900F900F90C3
:101DD0000F90DF91CF911F910F91FF90EF90DF90C7
:101DE000CF90BF90AF900895D70192968C91929723
:101DF000815092968C93929756962C9156979196E5
:101E00009C91291761F28111CACF5701B2E0AB0E44
:101E1000B11CC501F0DBF70181A1868B482F50E092
:101E200024E030E0241B350B358724879091430351
:101E3000981710F48093430389E0849FD001859F15
:101E4000B00D1124A15EBC4F11960D90BC91A02D38
:101E5000F701B583A48314962D913C911597378390
:101E600026831496ED91FC911597B382A282159664
:101E7000BC92AE921497D7015696EC915697E89F74
:101E8000F0011124E15EFC4F1B96FC93EE931A9730
:101E900080818F5F808381E083CF50E0B70112960D
:101EA0008D919C910E941A18F801848D22813381B2
:101EB000820F932F911D9383828324813581821712
:101EC000930708F464CF80819181938382835FCFED
:101ED0002C813D81232B21F40F900FBE80E074CF25
:101EE000811109C080911E03898380911C03909108
:101EF0001D039B838A830F900FBE2CDB0FB6F894D3
:101F00000F92F801858D8F3F09F4158ED8015E96EA
:101F10008C915E978F3F11F45E961C920F900FBECE
:101F2000BE016C5F7F4FCE01019632DA811123C072
:101F30000FB6F8940F92F801928D838D0F900FBE1B
:101F4000981315C0AC80BD806091B2027091B3024D
:101F5000645F7F4FC60173DB61E0C501CFDBC80161
:101F60000ADB1FDD811101C056DC81E0F7CEC8011C
:101F700002DB17DDFACFC801FEDA13DDAFCFCF9356
:101F8000DF9300D01F921F92CDB7DEB79C018091E6
:101F9000E6029091E7020097C1F019827B836A8381
:101FA0003D832C8320911A0350E040E0BE016F5F17
:101FB0007F4F21112091E502B9DE0F900F900F9015
:101FC0000F900F90DF91CF91089580E0F6CFEF92C0
:101FD000FF920F931F93CF93DF93E091DA02F0917A
:101FE000DB028081811113C08091D8029091D902C7
:101FF0009093DB028093DA02F093D902E093D80247
:10200000DF91CF911F910F91FF90EF900895058080
:10201000F681E02D00811181C681D7817E0182E0A9
:10202000E80EF11CC701E7DAE889F989CE011995B4
:102030008A8982FFD2CF8C859D85800F911F0817DA
:10204000190758F49B838A83D987C887B701809181
:10205000DA029091DB02F3DAC0CFB801CE018FDF54
:10206000BCCFCF93DF93EC0175DA60E0CE0146DBA5
:1020700098DC811101C0CFDBDF91CF910895AF9241
:10208000BF92CF92DF92EF92FF920F931F93CF9365
:10209000DF9300D01F921F92CDB7DEB78C016B018A
:1020A0005D834C8380E0580191E1A90EB11C0FB60D
:1020B000F8940F92F801F28CFF20B1F1448D442383
:1020C000A9F050E086819781840F951F97838683BE
:1020D000248135818217930720F080819181978335
:1020E0008683F80166817781C601A4D7FA94F80146
:1020F000F28E8085882329F0C80108967CD9811149
:102100008ADB0F900FBE81E00F900F900F900F9021
:102110000F90DF91CF911F910F91FF90EF90DF9083
:10212000CF90BF90AF9008952C813D81232B21F457
:102130000F900FBE80E0E8CF811109C080911E038F
:10214000898380911C0390911D039B838A830F9048
:102150000FBE00DA0FB6F8940F92F801858D8F3F0D
:1021600009F4158EF801868D8F3F09F4168E0F90B5
:102170000FBEBE016C5F7F4FCE01019609D9811160
:102180001DC0C801EDD98823A9F0EC80FD806091C5
:10219000B2027091B302645F7F4FC50150DA61E013
:1021A000C701ACDAC801E7D9FCDB811101C033DB20
:1021B00081E07DCFC801DFD9F4DBFACFC801DBD9DC
:1021C000F0DBC801CDD9882399F3B4CF0F920FB6B5
:1021D000F8940F920BB60F920CB60F921F92112427
:1021E0002F923F924F925F926F927F928F929F9227
:1021F000AF92BF92CF92DF92EF92FF920F931F9315
:102200002F933F934F935F936F937F938F939F93FE
:10221000AF93BF93CF93DF93EF93FF93A091B2025D
:10222000B091B3020DB60D920EB60D9213BE809111
:10223000E5028111F9C080911C0390911D03019664
:1022400090931D0380931C03009781F52091EA026F
:102250003091EB024091E8025091E9025093EB0279
:102260004093EA023093E9022093E80220911E0392
:102270002F5F20931E03E091EA02F091EB02208190
:10228000211107C02FEF3FEF3093D5022093D402E6
:102290000DC0E091EA02F091EB020580F681E02D9D
:1022A000208131813093D5022093D4022091D40231
:1022B0003091D5028217930710F420E0A1C020E0EE
:1022C00039E0D32EE091EA02F091EB023081311136
:1022D00007C08FEF9FEF9093D5028093D40290C0F8
:1022E000E091EA02F091EB020580F681E02D068094
:1022F000F781E02D428153818417950728F450938C
:10230000D5024093D4027CC0A285B3854481558117
:1023100066817781EA017D836C8366817781EB0139
:102320005B834A83AF014E5F5F4F11960D911C9105
:1023300012970417150721F412967C936E93119748
:10234000138612863C9131503C93A489B58910972D
:10235000F9F06685778500891189EB011D830C836F
:1023600000891189E8017B836A831196ED90FC90C6
:102370001297BF01645F7F4FE616F70621F41296AD
:102380001C930E931197158A148A3C9131503C93FB
:10239000A689309143033A1710F4A0934303DA9EC1
:1023A000D0011124A15EBC4F11960D90BC91A02DBF
:1023B000B583A48314966D917C911597778366837A
:1023C00014966D917C911597EB015B834A8315966A
:1023D0005C934E93149746894D9DD0011124A15EC4
:1023E000BC4FB387A2873C913F5F3C93E091B20220
:1023F000F091B3023689431708F464CF21E062CF2D
:10240000E091B202F091B302E689D9E0ED9FF001CC
:102410001124E15EFC4F8081823008F021E0809140
:10242000D30281110EC00AC08091D1029091D202D4
:1024300001969093D2028093D1026AC0222309F4BC
:1024400067C08091E502882321F081E08093D30268
:102450005FC01092D302A091B202B091B302E0919A
:10246000B202F091B3022D913C918789908D821731
:102470009307A8F08091B2029091B3028091B202CA
:102480009091B302279A2F9A2FEF87EA91E6215075
:1024900080409040E1F700C000001F9AF5CF2091E6
:1024A000430389E001C02150422F50E0849FF00196
:1024B000859FF00D1124E15EFC4F9081992399F3E3
:1024C000A181B28112960D90BC91A02DB283A183FF
:1024D000289FC00111248E5D9C4FA817B90729F4CD
:1024E00012968D919C919283818389E0849FF00163
:1024F000859FF00D1124E15EFC4F0180F281E02DFB
:10250000868197819093B3028093B2022093430314
:10251000A091B202B091B302CD91CDBFDD91DEBFEB
:10252000FF91EF91DF91CF91BF91AF919F918F91EB
:102530007F916F915F914F913F912F911F910F91DB
:10254000FF90EF90DF90CF90BF90AF909F908F90D3
:102550007F906F905F904F903F902F901F900F90C3
:102560000CBE0F900BBE0F900FBE0F900895CF932F
:10257000DF93009741F0EC010E94AA0ACE018AD3B2
:10258000DF91CF910ECADF91CF910895CF93DF9362
:10259000EC010E94AA0ACE01E1D2EC0102DA2097F6
:1025A00069F4279A2F9A2FEF80E792E0215080401C
:1025B0009040E1F700C000001F9AF5CFCE01DF91F7
:1025C000CF9108957F928F929F92AF92BF92CF92B8
:1025D000DF92EF92FF920F931F93CF93DF93982E8A
:1025E000A92E762E872E7A01B22ECA01CFDF6C017A
:1025F000892B09F4EBC088E290E0C8DFEC01892B5D
:1026000009F4E2C0D88ECF8AA70165EA70E0C6015E
:102610001AD581E0E81AF108EF89F88DEE0DFF1D5B
:10262000672D782DCE0149969B01285F3F4FDB0136
:102630004D91BD01DC014D93CD01AB0141505109DC
:10264000DA014C91442319F06217730781F718A23D
:10265000BE8AB9A21AA21B861A861D8A1C8AD9872D
:10266000C88784E090E08B1991099D878C87DB8B6C
:10267000CA8B84E09E012D5D3F4FD9011D928A9542
:10268000E9F71FA29082DF011197AC9211971C927B
:1026900011971C92119780E88C9311971C921197B7
:1026A0001C9211971C9257971C9211971C92B697E7
:1026B000F983E8830115110519F0F801D183C0836E
:1026C0000FB6F8940F9280911B038F5F80931B03CA
:1026D0008091B2029091B302892B09F086C0D09309
:1026E000B302C093B20280911B03813039F58FE1B0
:1026F00093E083D888E293E080D881E393E07DD8AB
:102700008AE393E07AD880E193E077D887E093E09A
:1027100074D88EEF92E071D885EF92E06ED88CEE8F
:1027200092E06BD880E193E09093EB028093EA0211
:1027300087E093E09093E9028093E8028091190387
:102740008F5F80931903AE89809143038A1710F439
:10275000A093430329E02A9FD0011124A15EBC4F1E
:1027600011960D90BC91A02DBD83AC8314968D91D4
:102770009C9115979F838E831496ED91FC911597EC
:10278000CE0102969383828315969C938E93149721
:10279000EE89E29FF0011124E15EFC4FFB87EA879E
:1027A00080818F5F80830F900FBE80911A038823F2
:1027B00049F0E091B202F091B30296898E899817A0
:1027C00008F429D881E003C0C601D1DE8FEFDF9184
:1027D000CF911F910F91FF90EF90DF90CF90BF901E
:1027E000AF909F908F907F90089580911A038111F0
:1027F000A5CFE091B202F091B30296898E89891734
:1028000008F49CCFD093B302C093B20297CF0F933A
:102810001F93CF93DF93082F162F869FC00111249B
:102820004F96B4DEEC01009771F14F96998388833F
:102830000B8F1C8F0FB6F8940F92888199812B8D86
:102840004C8DBC01249F600D711D11247D836C8310
:102850001A8E9B838A832150330B429FB001439F82
:10286000700D1124860F971F9F838E838FEF8D8F9E
:102870008E8FCE0108960E94FD0BCE0141960E94DC
:10288000FD0B0F900FBECE01DF91CF911F910F91E5
:1028900008950F931F930FEC12E020E040EC50E0FE
:1028A0006EE772E082E592E08DDE813009F081C052
:1028B0000FB6F8940F928091E6029091E702892B6F
:1028C000D9F484EC92E00E94FD0B8BEB92E00E9425
:1028D000FD0B84EC92E09093DB028093DA028BEBA9
:1028E00092E09093D9028093D80265E08AE08FDF6E
:1028F0009093E7028093E6020F900FBE8091E6026C
:102900009091E702892B09F454C00DEC12E023E00A
:1029100045E550E063E872E082E091E053DE81300B
:1029200009F047C0F8942FEF3FEF3093D502209382
:10293000D40280931A0310921D0310921C03A895D1
:1029400088E190EC0FB6F894A895809360000FBED4
:1029500090936000A091B202B091B302CD91CDBF2F
:10296000DD91DEBFFF91EF91DF91CF91BF91AF91EC
:102970009F918F917F916F915F914F913F912F9197
:102980001F910F91FF90EF90DF90CF90BF90AF908D
:102990009F908F907F906F905F904F903F902F907F
:1029A0001F900F900CBE0F900BBE0F900FBE0F909C
:1029B0000895809100021F910F91089507DC1895EA
:1029C000E4E4F3E01382128288EE93E0A0E0B0E04A
:1029D00084839583A683B7838BE092E09183808381
:1029E00085EC90E09587848784EC90E097878687D4
:1029F00080EC90E0918B808B81EC90E0938B828BCC
:102A000082EC90E0958B848B86EC90E0978B868BA4
:102A1000118E128E138E148EE1EEF3E01382128269
:102A20008DE192E09183808384E284838FEF8583BC
:102A300085E2868386E2878387E280878EE28187CC
:102A40008FE282871386148615861686178681E0A4
:102A50000C942206789484B5826084BD84B581602C
:102A600084BD85B5826085BD85B5816085BD809159
:102A70006E00816080936E001092810080918100D1
:102A800082608093810080918100816080938100C9
:102A9000809180008160809380008091B10084608B
:102AA0008093B1008091B00081608093B0008091EC
:102AB0009100826080939100809191008160809369
:102AC0009100809190008160809390008091A1009E
:102AD00082608093A1008091A10081608093A10019
:102AE0008091A00081608093A0008091210182608C
:102AF0008093210180912101816080932101809147
:102B0000200181608093200180917A00846080930D
:102B10007A0080917A00826080937A0080917A00B6
:102B2000816080937A0080917A00806880937A0037
:102B30001092C10020910502309106028FEF91E2C0
:102B4000821B930B90930202809301020E949108D2
:102B5000A0DE0E9491080E94D103FDCF0F931F9326
:102B6000CF93DF938230910510F482E090E0E09102
:102B7000FB03F091FC0330E020E0B0E0A0E03097F0
:102B800099F42115310509F44AC0281B390B24306A
:102B90003105D8F58A819B816115710589F1FB01A9
:102BA00093838283FE0111C0408151810281138190
:102BB00048175907E0F04817590799F4109761F042
:102BC00012960C93129713961C933296CF01DF91B5
:102BD000CF911F910F9108950093FB031093FC0375
:102BE000F4CF2115310551F04217530738F0A901F0
:102BF000DB019A01BD01DF01F801C1CFEF01F9CF7F
:102C00009093FC038093FB03CDCFFE01E20FF31FF3
:102C1000819391932250310939832883D7CF209112
:102C2000F9033091FA03232B41F4209103023091F0
:102C300004023093FA032093F903209101023091AA
:102C400002022115310541F42DB73EB7409105022E
:102C500050910602241B350BE091F903F091FA0321
:102C6000E217F307A0F42E1B3F0B2817390778F063
:102C7000AC014E5F5F4F2417350748F04E0F5F1FC2
:102C80005093FA034093F903819391939FCFF0E01F
:102C9000E0E09CCFCF93DF930097E9F0FC013297FF
:102CA00013821282A091FB03B091FC03ED0130E08E
:102CB00020E01097A1F420813181820F931F209191
:102CC000F9033091FA032817390709F061C0F0932E
:102CD000FA03E093F903DF91CF910895EA01CE174B
:102CE000DF07E8F54A815B819E0141155105B1F787
:102CF000E901FB83EA8349915991C40FD51FEC1771
:102D0000FD0761F4808191810296840F951FE9018E
:102D100099838883828193819B838A83F0E0E0E0BA
:102D200012968D919C9113970097B9F52D913C9136
:102D30001197CD010296820F931F2091F9033091D4
:102D4000FA032817390739F6309751F51092FC032A
:102D50001092FB03B093FA03A093F903BCCFD38383
:102D6000C28340815181840F951FC817D90761F430
:102D70004E5F5F4F88819981480F591F518340836F
:102D80008A819B81938382832115310509F0B0CF1D
:102D9000F093FC03E093FB039ECFFD01DC01C0CF69
:102DA00013821282D7CF70D088F09F5790F0B92F3E
:102DB0009927B751A0F0D1F0660F771F881F991F90
:102DC0001AF0BA95C9F712C0B13081F077D0B1E0EE
:102DD000089574C0672F782F8827B85F39F0B93FFE
:102DE000CCF3869577956795B395D9F73EF4909592
:102DF0008095709561957F4F8F4F9F4F0895E89410
:102E000009C097FB3EF490958095709561957F4F32
:102E10008F4F9F4F9923A9F0F92F96E9BB279395E0
:102E2000F695879577956795B795F111F8CFFAF4F0
:102E3000BB0F11F460FF1BC06F5F7F4F8F4F9F4F21
:102E400016C0882311F096E911C0772321F09EE87F
:102E5000872F762F05C0662371F096E8862F70E0E5
:102E600060E02AF09A95660F771F881FDAF7880FBF
:102E70009695879597F9089557FD9058440F551FDB
:102E800059F05F3F71F04795880F97FB991F61F0EC
:102E90009F3F79F087950895121613061406551F63
:102EA000F2CF4695F1DF08C0161617061806991FCF
:102EB000F1CF86957105610508940895E894BB27C4
:102EC00066277727CB0197F908950BD078C069D092
:102ED00028F06ED018F0952309F05AC05FC0112475
:102EE000EECFCADFA0F3959FD1F3950F50E0551FA9
:102EF000629FF001729FBB27F00DB11D639FAA274F
:102F0000F00DB11DAA1F649F6627B00DA11D661F9D
:102F1000829F2227B00DA11D621F739FB00DA11DBE
:102F2000621F839FA00D611D221F749F3327A00D78
:102F3000611D231F849F600D211D822F762F6A2F14
:102F400011249F5750408AF0E1F088234AF0EE0F99
:102F5000FF1FBB1F661F771F881F91505040A9F7A6
:102F60009E3F510570F014C0AACF5F3FECF3983E2E
:102F7000DCF3869577956795B795F795E7959F5F0D
:102F8000C1F7FE2B880F911D9695879597F90895A7
:102F900097F99F6780E870E060E008959FEF80EC0C
:102FA000089500240A9416161706180609060895AF
:102FB00000240A9412161306140605060895092E15
:102FC0000394000C11F4882352F0BB0F40F4BF2B84
:102FD00011F460FF04C06F5F7F4F8F4F9F4F0895C4
:102FE000A1E21A2EAA1BBB1BFD010DC0AA1FBB1F0D
:102FF000EE1FFF1FA217B307E407F50720F0A21B7F
:10300000B30BE40BF50B661F771F881F991F1A94EB
:1030100069F760957095809590959B01AC01BD0115
:10302000CF010895EE0FFF1F881F8BBF0790F69109
:10303000E02D1994FB01DC0102C001900D9241507A
:103040005040D8F70895DC0101C06D9341505040C5
:08305000E0F70895F894FFCFAA
:10305800030000FD038000000000006603D102FEAB
:1030680002B2032F030D03210300000000B206D1B2
:1030780002810580050D0A004E6F20667565207077
:103088006F7369626C6520656E7669617220656C24
:10309800206164632064652070776D004672656501
:1030A80052544F5320456A2E3300436F6C6120649D
:1030B80065204461746F730050776D323A00507721
:1030C8006D313A00343930487A00202020004944D4
:1030D8004C4500546D72205376630050776D416EF5
:1030E800644672657100446973706C61794C6364FD
:1030F80000436F756E746572416E64426C696E6BE5
:023108000000C5
:020000023000CC
:10E000000D9489F10D94B2F10D94B2F10D94B2F129
:10E010000D94B2F10D94B2F10D94B2F10D94B2F1F0
:10E020000D94B2F10D94B2F10D94B2F10D94B2F1E0
:10E030000D94B2F10D94B2F10D94B2F10D94B2F1D0
:10E040000D94B2F10D94B2F10D94B2F10D94B2F1C0
:10E050000D94B2F10D94B2F10D94B2F10D94B2F1B0
:10E060000D94B2F10D94B2F10D94B2F10D94B2F1A0
:10E070000D94B2F10D94B2F10D94B2F10D94B2F190
:10E080000D94B2F10D94B2F10D94B2F10D94B2F180
:10E090000D94B2F10D94B2F10D94B2F10D94B2F170
:10E0A0000D94B2F10D94B2F10D94B2F10D94B2F160
:10E0B0000D94B2F10D94B2F10D94B2F10D94B2F150
:10E0C0000D94B2F10D94B2F10D94B2F10D94B2F140
:10E0D0000D94B2F10D94B2F10D94B2F10D94B2F130
:10E0E0000D94B2F141546D656761323536300041AF
:10E0F000726475696E6F206578706C6F72657220DE
:10E1000073746B3530305632206279204D4C530099
:10E11000426F6F746C6F616465723E004875683F52
:10E1200000436F6D70696C6564206F6E203D200048
:10E130004350552054797065202020203D20005FF9
:10E140005F4156525F415243485F5F3D2000415658
:10E1500052204C696243205665723D20004743437C
:10E160002056657273696F6E203D20004350552024
:10E1700049442020202020203D20004C6F7720663D
:10E18000757365202020203D20004869676820665F
:10E190007573652020203D200045787420667573D6
:10E1A00065202020203D20004C6F636B2066757336
:10E1B000652020203D20004D617220203720323024
:10E1C000313300312E362E3800342E332E350056A2
:10E1D00023202020414444522020206F7020636F70
:10E1E00064652020202020696E73747275637469E1
:10E1F0006F6E2061646472202020496E74657272B3
:10E20000757074006E6F20766563746F7200726A49
:10E210006D702020006A6D70200057686174207056
:10E220006F72743A00506F7274206E6F7420737541
:10E2300070706F72746564004D7573742062652030
:10E2400061206C6574746572002000577269747483
:10E25000696E672045450052656164696E672045B7
:10E26000450045452065727220636E743D00504F35
:10E27000525400303D5A65726F2061646472003FF1
:10E280003D43505520737461747300403D454550C3
:10E29000524F4D207465737400423D426C696E6B41
:10E2A000204C454400453D44756D70204545505215
:10E2B0004F4D00463D44756D7020464C415348001B
:10E2C000483D48656C70004C3D4C69737420492F83
:10E2D0004F20506F72747300513D51756974005234
:10E2E0003D44756D702052414D00563D73686F7707
:10E2F00020696E7465727275707420566563746FF0
:10E30000727300593D506F727420626C696E6B00BD
:10E310002A0011241FBECFEFD1E2DEBFCDBF01E046
:10E320000CBF12E0A0E0B2E0EEE1FDEF03E00BBFB6
:10E3300002C007900D92A030B107D9F712E0A0E01B
:10E34000B2E001C01D92AE30B107E1F70F9460F367
:10E350000D948DFE01E20EBF0FEF0DBF11241FBE05
:10E360000D9460F30D9400F020E030E040ED57E0B4
:10E3700005C0FA013197F1F72F5F3F4F2817390792
:10E38000C0F308959C01260F311DC901A0E0B0E043
:10E390002F5F3F4FABBFFC018791882361F08093D3
:10E3A000C6008091C00086FFFCCF8091C0008064D1
:10E3B0008093C000EACF08958DE08093C6008091DD
:10E3C000C00086FFFCCF8091C00080648093C000B5
:10E3D0008AE08093C6008091C00086FFFCCF8091C8
:10E3E000C00080648093C00008950F94C2F10F9420
:10E3F000DCF10895FC019081992359F09093C600B7
:10E400008091C00086FFFCCF8091C0008064809323
:10E41000C0003196992379F70895282F982F929567
:10E420009F70892F805D8A3308F0895F8093C600D2
:10E430008091C00086FFFCCF8091C00080648093F3
:10E44000C000822F8F70982F905D9A3308F0995FEB
:10E450009093C6008091C00086FFFCCF8091C000E1
:10E4600080648093C00008959C01FB01853691056E
:10E470001CF46330710594F0C90164E670E00F94F8
:10E480002EFE605D7F4F6093C6008091C00086FFC6
:10E49000FCCF8091C00080648093C0002B30310598
:10E4A00014F43297B4F0C90164E670E00F942EFEC4
:10E4B0006AE070E00F942EFE605D7F4F6093C600AF
:10E4C0008091C00086FFFCCF8091C0008064809363
:10E4D000C000C9016AE070E00F942EFEC0968093E0
:10E4E000C6008091C00086FFFCCF8091C000806490
:10E4F0008093C00008951F93182F8EE692EE60E07F
:10E500000F94C2F11093C6008091C00086FFFCCF2B
:10E510008091C00080648093C0000F94DCF11F9153
:10E5200008952F923F924F925F926F927F928F92B7
:10E530009F92AF92BF92CF92DF92EF92FF920F9392
:10E540001F93DF93CF93CDB7DEB762970FB6F894E2
:10E55000DEBF0FBECDBF382E622ECA01DB015C01CB
:10E560006D01772420E2222E2E010894411C511CBB
:10E570008BC081E0A81680E0B80681E0C80680E084
:10E58000D80628F0C601AA27BB270F940DF2BB2797
:10E59000AD2D9C2D8B2D0F940DF28A2D0F940DF225
:10E5A0002092C6008091C00086FFFCCF8091C00001
:10E5B00080648093C0009DE29093C6008091C0006B
:10E5C00086FFFCCF8091C00080648093C0002092C1
:10E5D000C6008091C00086FFFCCF8091C00080649F
:10E5E0008093C00019828601750188249924A1E0D6
:10E5F0003A1651F03A1620F0B2E03B1661F409C029
:10E600000BBFF701779007C0C7010F9477FE782EF4
:10E6100002C0F7017080872D0F940DF22092C60082
:10E620008091C00086FFFCCF8091C0008064809301
:10E63000C000872D8052F401EF70F0708F3520F408
:10E64000E40DF51D708204C0E40DF51D8EE280839B
:10E650000894E11CF11C011D111D0894811C911CE2
:10E6600090E18916910409F0C2CF80E190E0A0E02A
:10E67000B0E0A80EB91ECA1EDB1E198AC2010F9493
:10E68000FAF10F94DCF16A94662009F072CF629679
:10E690000FB6F894DEBF0FBECDBFCF91DF911F91B3
:10E6A0000F91FF90EF90DF90CF90BF90AF909F9031
:10E6B0008F907F906F905F904F903F902F90089534
:10E6C0002F923F924F925F926F927F928F929F9282
:10E6D000AF92BF92CF92DF92EF92FF920F931F9370
:10E6E000DF93CF93CDB7DEB7CD53D1400FB6F894BB
:10E6F000DEBF0FBECDBF01E20EBF0FEF0DBF94B75F
:10E70000F894A89514BE80916000886180936000A1
:10E7100010926000789493FF05C0E0910002F091A0
:10E7200001021995279A2F9A8091C00082608093E8
:10E73000C00080E18093C40088E18093C1000000A4
:10E74000EE24FF24870144E0A42EB12CCC24DD2448
:10E7500024C0C5010197F1F70894E11CF11C011DCB
:10E76000111D21E2E2162EE4F20620E0020720E06D
:10E77000120718F031E0C32ED12CC801B70127ECE5
:10E780003BE140E050E00F9441FE611571058105C9
:10E79000910519F485B1805885B98091C00087FD35
:10E7A00003C0C114D104A9F2A6014F5F5F4FC25E3E
:10E7B000DE4F59834883CE51D140C25EDE4F8881FF
:10E7C0009981CE51D140019711F00D9410FEC05D9A
:10E7D000DE4F19821882C053D14060E0C15DDE4F28
:10E7E0001882CF52D14088249924C35DDE4F19820C
:10E7F0001882CD52D140C05EDE4F188219821A8233
:10E800001B82C052D140CE5CDE4F188219821A8220
:10E810001B82C253D140EE24FF2487010BBFF701B6
:10E8200007911691C45CDE4F19830883CC53D14005
:10E830000D940BFEC25EDE4F28813981CE51D1404E
:10E840002130310509F52091C600C25EDE4F1982E4
:10E850001882CE51D14022C02F5F3F4F4F4F5F4FA4
:10E86000213082E138078AE7480780E0580780F0C6
:10E87000C45CDE4FE881F981CC53D140EF5FFF4F9C
:10E8800019F0EE27FF27099420E030E040E050E047
:10E890008091C00087FFE0CF2091C600C35DDE4FAE
:10E8A00048815981CD52D1404F5F5F4FC35DDE4FEC
:10E8B00059834883CD52D140213209F063C64A3092
:10E8C000510508F05FC60894811C911C53E0851621
:10E8D000910409F059C600E010E018C081E280936D
:10E8E000C6008091C00086FFFCCF8091C00080648C
:10E8F0008093C0002F5F3F4F2931310579F70F9486
:10E90000DCF10F5F1F4F0530110519F020E030E0FA
:10E91000E5CF10920A0210920B0210920C02109294
:10E920000D02109206021092070210920802109235
:10E930000902109202021092030210920402109235
:10E9400005028FEE90EE60E00F94F5F180E191EE1C
:10E9500060E00F94C2F18091C00087FFFCCF9091DE
:10E96000C600903608F09F759032B8F09093C600BC
:10E970008091C00086FFFCCF8091C00080648093AE
:10E98000C000A0E2A093C6008091C00086FFFCCF2B
:10E990008091C00080648093C000983409F4D7C18E
:10E9A0009934B8F4923409F459C1933458F490333B
:10E9B00019F1903308F4E3C59F33A1F1903409F0C5
:10E9C000DEC5BDC0953409F470C1963409F0D7C5D1
:10E9D00098C1923509F42BC2933538F49C3409F46C
:10E9E000F5C1913509F0CBC518C2963509F445C279
:10E9F000993509F0C4C567C483E792EE62E00F94CD
:10EA0000F5F110920602109207021092080210927D
:10EA1000090210920A0210920B0210920C0210923C
:10EA20000D0213C18FE792EE62E00F94F5F18FEEC5
:10EA300090EE60E00F94F5F181E291EE60E00F94CA
:10EA4000C2F187EB91EE60E00F94F5F180E391EE77
:10EA500060E00F94C2F184EE90EE60E00F94F5F167
:10EA60008FE391EE60E00F94C2F186E090E061E008
:10EA700070E00F9434F20F94DCF18DE591EE60E0DC
:10EA80000F94C2F189EC91EE60E00F94F5F18EE401
:10EA900091EE60E00F94C2F183EC91EE60E00F9490
:10EAA000F5F18CE691EE60E00F94C2F18EE10F94E7
:10EAB0000DF288E90F940DF281E00F940DF20F949E
:10EAC000DCF18BE791EE60E00F94C2F119E0E0E039
:10EAD000F0E010935700E4918E2F0F940DF20F94F5
:10EAE000DCF18AE891EE60E00F94C2F1E3E0F0E03F
:10EAF00010935700E4918E2F0F940DF20F94DCF1D8
:10EB000089E991EE60E00F94C2F1E2E0F0E0109349
:10EB10005700E4918E2F0F940DF20F94DCF188EAE8
:10EB200091EE60E00F94C2F1E1E0F0E01093570045
:10EB30001491812F0F940DF20F94DCF107CF8BE825
:10EB400092EE62E00F94F5F18BE492EE60E00F94A8
:10EB5000F5F10F94DCF100E010E019C0C8016F2D51
:10EB60000F947FFEFF2031F489E492EE60E00F9471
:10EB7000C2F10BC0F092C6008091C00086FFFCCFAE
:10EB80008091C00080648093C0000F5F1F4FC80158
:10EB900081519F41A0E0B0E0ABBFFC01F790BAE229
:10EBA000FB1621F0E2E000301E07C1F60F94DCF105
:10EBB0000F94DCF187E592EE60E00F94F5F10F948D
:10EBC000DCF1CC24DD2400E010E01EC0C8010F946D
:10EBD00077FEF82E882331F489E492EE60E00F94FA
:10EBE000C2F10BC08093C6008091C00086FFFCCFAD
:10EBF0008091C00080648093C000FE1419F00894D6
:10EC0000C11CD11C0F5F1F4FC80181519F41A0E063
:10EC1000B0E0ABBFFC01E790FAE2EF1621F022E092
:10EC20000030120799F60F94DCF10F94DCF182E6C4
:10EC300092EE60E00F94C2F1C60161E070E00F94C3
:10EC400034F20F94DCF10F94DCF110920202109276
:10EC50000302109204021092050278CE89E992EE26
:10EC600062E00F94F5F1279A2F9A16C02F9880E052
:10EC700090E0E0EDF7E03197F1F7019684369105E9
:10EC8000C1F72F9A80E090E0E0EDF7E03197F1F7DF
:10EC9000019684369105C1F78091C00087FFE6CFC9
:10ECA0008091C00087FFFCCF64C485EA92EE62E0E9
:10ECB0000F94F5F140910202509103026091040219
:10ECC0007091050281E020E10F9491F2809102029F
:10ECD00090910302A0910402B091050280509F4FD1
:10ECE000AF4FBF4F8093020290930302A0930402A0
:10ECF000B093050280509041A040B04008F426CE69
:10ED0000A4CF83EB92EE62E00F94F5F140910602FE
:10ED100050910702609108027091090280E020E1A1
:10ED20000F9491F28091060290910702A09108023F
:10ED3000B091090280509F4FAF4FBF4F80930602A2
:10ED400090930702A0930802B0930902FFCD80ECD4
:10ED500092EE62E00F94F5F183E792EE60E00F949B
:10ED6000F5F18FE792EE60E00F94F5F18BE892EE0B
:10ED700060E00F94F5F189E992EE60E00F94F5F10F
:10ED800085EA92EE60E00F94F5F183EB92EE60E09D
:10ED90000F94F5F180EC92EE60E00F94F5F187ECC2
:10EDA00092EE60E00F94F5F188ED92EE60E00F9442
:10EDB000F5F18FED92EE60E00F94F5F18AEE92EEB0
:10EDC00060E00F94F5F183E093EEBDCD87EC92EE19
:10EDD00062E00F94F5F181E40F947BF282E40F94EA
:10EDE0007BF283E40F947BF284E40F947BF285E45E
:10EDF0000F947BF286E40F947BF287E40F947BF20E
:10EE000088E40F947BF28AE40F947BF28BE40F94F6
:10EE10007BF28CE40F947BF299CD88ED92EE62E068
:10EE20000F94F5F1772473948824992409C48FED05
:10EE300092EE62E00F94F5F140910A0250910B02BC
:10EE400060910C0270910D0282E020E10F9491F22A
:10EE500080910A0290910B02A0910C02B0910D02D8
:10EE600080509F4FAF4FBF4F80930A0290930B0289
:10EE7000A0930C02B0930D0269CD8AEE92EE62E08F
:10EE80000F94F5F184EE90EE60E00F94F5F18FECC5
:10EE900091EE60E00F94F5F1662477244301CC5D98
:10EEA000DE4F19821882C452D140D401C301B695F5
:10EEB000A79597958795CA5DDE4F88839983AA8326
:10EEC000BB83C652D140CC5DDE4FA881B981C4520C
:10EED000D1401196CC5DDE4FB983A883C452D14096
:10EEE000CD0162E070E00F9434F2B0E2B093C6005E
:10EEF0008091C00086FFFCCF8091C0008064809329
:10EF0000C000EDE2E093C6008091C00086FFFCCF18
:10EF10008091C00080648093C000F0E2F093C6004E
:10EF20008091C00086FFFCCF8091C00080648093F8
:10EF3000C000CA5DDE4FE880F9800A811B81C6529D
:10EF4000D140BB27A12F902F8F2D0F940DF2CA5DBA
:10EF5000DE4F8881C652D1400F940DF2B0E2FB2EF5
:10EF6000F092C6008091C00086FFFCCF8091C00067
:10EF700080648093C0000DE30093C6008091C000C0
:10EF800086FFFCCF8091C00080648093C00010E2B7
:10EF90001093C6008091C00086FFFCCF8091C00016
:10EFA00080648093C0008BBEF3012791C65DDE4F65
:10EFB0002883CA52D140A22EBB24CC24DD2408943D
:10EFC000611C711C811C911C8BBEF3018791282E42
:10EFD0003324442455240894611C711C811C911C09
:10EFE0008BBEF3013791C55DDE4F3883CB52D140E4
:10EFF0000894611C711C811C911C8BBEF30147910C
:10F00000C45DDE4F4883CC52D140ADEFEA2EAFEF66
:10F01000FA2EAFEF0A2FAFEF1A2F6E0C7F1C801E57
:10F02000911E142D032DF22CEE24EA0CFB1C0C1D5A
:10F030001D1D0F940DF220E22093C6008091C000A8
:10F0400086FFFCCF8091C00080648093C000C65DC5
:10F05000DE4F8881CA52D1400F940DF230E23093D6
:10F06000C6008091C00086FFFCCF8091C000806404
:10F070008093C000C45DDE4F8881CC52D1400F9494
:10F080000DF240E24093C6008091C00086FFFCCFA5
:10F090008091C00080648093C000C55DDE4F888190
:10F0A000CB52D1400F940DF250E25093C6008091A4
:10F0B000C00086FFFCCF8091C00080648093C000B8
:10F0C0008FEFE8168FEFF80680E0080780E018075A
:10F0D00031F484E092EE60E00F94C2F1DFC0D80119
:10F0E000C7018070907CA070B0708050904CA040A0
:10F0F000B040D1F52FEF3FE340E050E0E222F322B1
:10F1000004231523CA5DDE4FA880B980CA80DB8046
:10F11000C652D140AE0CBF1CC01ED11EAA0CBB1CD7
:10F12000CC1CDD1C8EE092EE60E00F94C2F1BB2798
:10F13000A12F902F8F2D0F940DF28E2D0F940DF285
:10F1400030E23093C6008091C00086FFFCCF8091F2
:10F15000C00080648093C0004EE34093C60080915D
:10F16000C00086FFFCCF87C08EE09EEFA0E0B0E03D
:10F17000E822F9220A231B239CE0E91694E9F90608
:10F1800090E0090790E0190709F088C0C45DDE4FE0
:10F19000A881CC52D140EA2EFF2400E010E0102FCD
:10F1A0000F2DFE2CEE24C55DDE4FB881CB52D14031
:10F1B000EB0EF11C011D111DD601C501817090706F
:10F1C000A070B070DC0199278827E80EF91E0A1F8D
:10F1D0001B1F20EF30E040E050E0A222B322C42207
:10F1E000D52241E1AA0CBB1CCC1CDD1C4A95D1F7F1
:10F1F000EA0CFB1C0C1D1D1D81E090E0A0E0B0E0BE
:10F20000282239224A225B2235E1220C331C441C7D
:10F21000551C3A95D1F7E20CF31C041D151D57013E
:10F220006801AA0CBB1CCC1CDD1C85E192EE60E0E1
:10F230000F94C2F1C801AA27BB270F940DF2BB2778
:10F24000A12F902F8F2D0F940DF28E2D0F940DF274
:10F2500090E29093C6008091C00086FFFCCF809121
:10F26000C00080648093C000AEE3A093C60080918C
:10F27000C00086FFFCCF8091C00080648093C000F6
:10F28000C601AA27BB270F940DF2BB27AD2D9C2DDD
:10F290008B2D0F940DF28A2D0F940DF20F94DCF14B
:10F2A000CC5DDE4FE881F981C452D140F99709F471
:10F2B0004DCBF4E0EF2EF12C012D112D6E0C7F1CA7
:10F2C000801E911EF2CD83E093EE62E00F94F5F183
:10F2D0008AE192EE60E00F94C2F18091C00087FF56
:10F2E000FCCF1091C6001F751093C6008091C0001E
:10F2F00086FFFCCF8091C00080648093C0000F9493
:10F30000DCF1812F81548A3108F036C1163409F4BA
:10F3100095C0173490F4133409F44EC0143430F40B
:10F320001134F1F0123409F01DC130C0143409F465
:10F3300059C0153409F016C16BC01A3409F4C4C0A1
:10F340001B3438F4173409F48FC0183409F00AC19B
:10F35000A1C01B3409F4D2C01C3409F003C1E8C0B9
:10F360008FEF81B90DC082B1809582B980E090E0C5
:10F37000E0EDF7E03197F1F70196883C9105C1F790
:10F380008091C00087FFEFCF12B8EFC08FEF84B934
:10F390000DC085B1809585B980E090E0E0EDF7E0A3
:10F3A0003197F1F70196883C9105C1F78091C00033
:10F3B00087FFEFCF15B8D9C08FEF87B90DC088B1DF
:10F3C000809588B980E090E0E0EDF7E03197F1F7C3
:10F3D0000196883C9105C1F78091C00087FFEFCF6F
:10F3E00018B8C3C08FEF8AB90DC08BB180958BB9A7
:10F3F00080E090E0E0EDF7E03197F1F70196883C8E
:10F400009105C1F78091C00087FFEFCF1BB8ADC059
:10F410008FEF8DB90DC08EB180958EB980E090E0F0
:10F42000E0EDF7E03197F1F70196883C9105C1F7DF
:10F430008091C00087FFEFCF1EB897C08FEF80BBD1
:10F440000DC081B3809581BB80E090E0E0EDF7E0F6
:10F450003197F1F70196883C9105C1F78091C00082
:10F4600087FFEFCF11BA81C08FEF83BB0DC084B38C
:10F47000809584BB80E090E0E0EDF7E03197F1F714
:10F480000196883C9105C1F78091C00087FFEFCFBE
:10F4900014BA6BC08FEF809301010FC080910201FD
:10F4A00080958093020180E090E0E0EDF7E03197F5
:10F4B000F1F70196883C9105C1F78091C00087FF64
:10F4C000EDCF1092020151C08FEF809304010FC065
:10F4D0008091050180958093050180E090E0E0ED4A
:10F4E000F7E03197F1F70196883C9105C1F78091DB
:10F4F000C00087FFEDCF1092050137C08FEF8093DA
:10F5000007010FC08091080180958093080180E079
:10F5100090E0E0EDF7E03197F1F70196883C910536
:10F52000C1F78091C00087FFEDCF109208011DC088
:10F530008FEF80930A010FC080910B01809580931B
:10F540000B0180E090E0E0EDF7E03197F1F70196F4
:10F55000883C9105C1F78091C00087FFEDCF1092E4
:10F560000B0103C085E292EEEEC98091C00087FFD7
:10F57000FCCF8091C600EAC988E392EEE4C98CE131
:10F5800091EEE1C988249924933011F1943028F444
:10F59000913089F09230B8F408C0953061F195301F
:10F5A000F0F0963009F048C043C02B3109F042C951
:10F5B00091E06BE13FC96227C15DDE4F2883CF52E6
:10F5C000D14092E037C9B22FA0E0622793E032C960
:10F5D000822F90E0A82BB92B622794E02BC92E3004
:10F5E00009F039C3622795E0C05DDE4F19821882A9
:10F5F000C053D1401FC9E1E0F0E0EC0FFD1FC05D3A
:10F60000DE4F08811981C053D140E00FF11F2083E4
:10F610000F5F1F4FC05DDE4F19830883C053D14079
:10F6200062270A171B0709F005C9D80196E002C92D
:10F63000261709F010C303C0973009F0FBC87724E0
:10F640009981933109F412C19431C8F4963009F4C8
:10F65000D8C0973050F4923009F406C1933009F4C1
:10F660006DC0913009F059C253C0913109F477C08F
:10F67000923108F0BBC0903109F04FC2F5C098310B
:10F6800009F487C0993150F4953109F4EFC09531F0
:10F6900008F4C6C1963109F040C2C2C19A3109F4DA
:10F6A0006CC09A3108F491C09B3109F45BC09D3164
:10F6B00009F033C29D81903359F48F81882311F46E
:10F6C0009EE11CC0813011F091E018C098E916C08D
:10F6D000892F807591F0903539F4E0E0F0E089E011
:10F6E0008093570094910AC0983539F4E3E0F0E034
:10F6F00089E080935700949101C090E01A821B82A8
:10F700008D818C831D829E831F8227E030E009C299
:10F710001A8288E08B8381E48C8386E58D8382E581
:10F720008E8389E48F8383E5888780E589878FE5E9
:10F730008A8782E38B872BE030E0F3C18A818139AD
:10F7400041F0823941F0803911F48FE005C080E04A
:10F7500003C082E001C08AE01A828B8344C0772410
:10F76000739482C08D81882311F48EE12CC0813086
:10F7700011F081E028C088E926C01A82E1E0F0E0BB
:10F7800089E08093570084918B831C8224E030E0D1
:10F79000C8C18B81803589F48C81883039F4E2E0EE
:10F7A000F0E089E08093570084910DC0E0E0F0E044
:10F7B00089E080935700849106C0E3E0F0E089E09F
:10F7C0008093570084911A82DFCF8D81836C99E0FA
:10F7D000E1E0F0E0082E90935700E89507B600FCB2
:10F7E000FDCF1A821B8223E030E09BC180EC8A832C
:10F7F000CE5CDE4F188219821A821B82C253D1401E
:10F800008EC18A8190E0A0E0B0E0582F44273327D2
:10F8100022278B8190E0A0E0B0E0DC0199278827C7
:10F82000282B392B4A2B5B2B8D8190E0A0E0B0E098
:10F83000282B392B4A2B5B2B8C8190E0A0E0B0E089
:10F84000BA2FA92F982F8827282B392B4A2B5B2BCF
:10F85000220F331F441F551FC05EDE4F288339839C
:10F860004A835B83C052D1401A8259C13A81C95C34
:10F87000DE4F3883C753D140CA5CDE4F1882C6536F
:10F88000D1408B81C82EDD24CA5CDE4F488159816E
:10F89000C653D140C42AD52A933109F082C0CE5C28
:10F8A000DE4F88819981AA81BB81C253D1408050AB
:10F8B000904CA340B04030F583E0CE5CDE4FE88052
:10F8C000F9800A811B81C253D140F70100935B008C
:10F8D00080935700E89507B600FCFDCFCE5CDE4F65
:10F8E000088119812A813B81C253D14000501F4FAA
:10F8F0002F4F3F4FCE5CDE4F088319832A833B8313
:10F90000C253D140C05EDE4F488159816A817B81FC
:10F91000C052D140DE011B9631E08C9111962C91A2
:10F9200011971296C75CDE4F2883C953D140C85C3B
:10F93000DE4F1882C853D14090E0C85CDE4FE881AA
:10F94000F981C853D1408E2B9F2B0C01FA01609393
:10F950005B0030935700E89511244E5F5F4F6F4F67
:10F960007F4F0EEFE02E0FEFF02ECE0CDF1CC114F8
:10F97000D10499F685E0C05EDE4F088119812A81A5
:10F980003B81C052D140F80120935B008093570027
:10F99000E89507B600FCFDCF81E180935700E8951C
:10F9A00035C0C05EDE4F88819981AA81BB81C0527B
:10F9B000D140B695A795979587957C018601ABE0D8
:10F9C000AA2EB12CAC0EBD1E0BC0D5016D915D01F0
:10F9D000C7010F947FFE0894E11CF11C01501040F8
:10F9E0000115110591F7A60160E070E0440F551F65
:10F9F000661F771FC05EDE4FE880F9800A811B8199
:10FA0000C052D1404E0D5F1D601F711F1A82C05E33
:10FA1000DE4F488359836A837B83C052D1407FC0C5
:10FA2000FA80C55CDE4FF882CB53D140C65CDE4F16
:10FA30001882CA53D1408B81C82EDD24C65CDE4FAC
:10FA400008811981CA53D140C02AD12A1A828981DA
:10FA5000BE016D5F7F4F843121F59601C05EDE4FA0
:10FA6000E880F9800A811B81C052D1400BBFF701A9
:10FA700087919691DB018C9311969C936E5F7F4FDB
:10FA8000D801C7010296A11DB11DC05EDE4F88835B
:10FA90009983AA83BB83C052D14022503040F1F6F3
:10FAA00036C0C05EDE4F288139814A815B81C052F9
:10FAB000D1400894C108D108760100E010E0089414
:10FAC000C11CD11C0894E11CF11C011D111DE20E8A
:10FAD000F31E041F151F21BDBB27A52F942F832FB5
:10FAE00082BD2F5F3F4F4F4F5F4FF89A80B5DB01CC
:10FAF0008D93BD012E153F054007510761F7C05E8C
:10FB0000DE4F288339834A835B83C052D1409601FC
:10FB10002D5F3F4FFB01108204C080EC8A8322E0FE
:10FB200030E08BE18093C6008091C00086FFFCCF5F
:10FB30008091C00080648093C000C15DDE4FF88179
:10FB4000CF52D140F093C6008091C00086FFFCCF19
:10FB50008091C00080648093C000432F3093C60022
:10FB60008091C00086FFFCCF8091C00080648093AC
:10FB7000C000922F2093C6008091C00086FFFCCF6A
:10FB80008091C00080648093C0008EE08093C600A6
:10FB90008091C00086FFFCCF8091C000806480937C
:10FBA000C00065E1C15DDE4FE880CF52D1406E25D7
:10FBB00069276427FE01319610C090819093C6009A
:10FBC0008091C00086FFFCCF31968091C000806498
:10FBD0008093C0006927215030402115310569F715
:10FBE0006093C6008091C00086FFFCCF8091C0006A
:10FBF00080648093C00085B1805885B9772081F4F6
:10FC0000C15DDE4F0881CF52D1400F5FC15DDE4F35
:10FC10000883CF52D14090E0A0E0B0E00D941AF4F8
:10FC200027982F9880E090E020ED37E0F901319798
:10FC3000F1F7019684369105C9F700008091C00064
:10FC40008D7F8093C00081E180935700E895EE2777
:10FC5000FF270994FFCF90E00D941AF497FB092E2B
:10FC600007260AD077FD04D02ED006D000201AF443
:10FC7000709561957F4F0895F6F7909581959F4F08
:10FC80000895A1E21A2EAA1BBB1BFD010DC0AA1FDD
:10FC9000BB1FEE1FFF1FA217B307E407F50720F0F5
:10FCA000A21BB30BE40BF50B661F771F881F991F70
:10FCB0001A9469F760957095809590959B01AC01B9
:10FCC000BD01CF010895AA1BBB1B51E107C0AA1FAC
:10FCD000BB1FA617B70710F0A61BB70B881F991FED
:10FCE0005A95A9F780959095BC01CD010895F99991
:10FCF000FECF92BD81BDF89A992780B50895262F31
:10FD0000F999FECF1FBA92BD81BD20BD0FB6F89400
:0EFD1000FA9AF99A0FBE01960895F894FFCF63
:040000033000E000E9
:00000001FF