:100000007FC20000AEC20000ACC20000AAC2000065
:10001000A8C20000A6C20000A4C20000A2C2000044
:10002000A0C200009EC200009CC200009AC2000054
:100030000C949D1496C2000094C2000092C200006D
:1000400090C200008EC200008CC200008AC2000074
:1000500088C2000086C2000084C200000C942509FA
:1000600080C200000C94EF080C94C6087AC200000D
:1000700078C2000076C2000074C2000072C20000A4
:1000800070C200006EC200006CC200006AC20000B4
:1000900068C2000066C2000064C2000062C20000C4
:1000A00060C200005EC200005CC200005AC20000D4
:1000B00058C2000056C2000054C2000052C20000E4
:1000C00050C200004EC200004CC200004AC20000F4
:1000D00048C2000046C2000044C2000042C2000004
:1000E00040C20000000020002300260029002C0050
:1000F0002F00320000010000030106010901000089
:100100000A0B02090C0D0E08070304010000000091
:1001100000000000000000000000000000000000DF
:10012000000000000000000000001211100000009C
:1001300000000000000000000000000000000000BF
:100140000000000000002200250028002B002E00E7
:100150003100340002010000050108010B0100001C
:100160002100240027002A002D0030003300010167
:100170000000040107010A01050505050705080837
:100180000808020202020A0A080804040404010121
:100190000101010101010303030303030303040736
:1001A00007070C0C0C0C0C0C0C0C020202020606CD
:1001B0000606060606060B0B0B0B0B0B0B0B0102C0
:1001C0001020200808102040102040800201020169
:1001D0000804020101020408102040808040201021
:1001E000080402018004020180402010080402017A
:1001F00008040201010204081020408001020408E2
:1002000010204080CF93DF9300D01F921F92CDB774
:10021000DEB7E091E002F091E1021081F12CE12CD7
:10022000112329F00580F681E02DE080F1800E9405
:10023000690A0E945F0A6C018091DC029091DD02E4
:10024000C816D90608F04CC00E94A60FD092DD0255
:10025000C092DC020E94900C50E040E0BE016F5F53
:100260007F4F8091EC029091ED020E94FE0F882357
:1002700081F2898187FDF0CF0C811D81F801828593
:100280009385892B21F0C80102960E94BA0A0E9428
:100290005F0A7C018091DC029091DD02E816F9068C
:1002A00010F40E94A60FF092DD02E092DC02E981D8
:1002B000EA3090F60E2E000CFF0BD80152969C915E
:1002C0008827EA59FE4F8F4F0C94D117140214025D
:1002D00014024D0238024702140214024D02380281
:1002E000D092DD02C092DC02112399F1CE14DF041A
:1002F000B8F10E94900CE091E002F091E1020580DB
:10030000F681E02D06811781C80102960E94BA0A83
:10031000D80152968C91529782FF17C01C966D910E
:100320007C916E0D7F1D9701A601C8010E94140BE0
:10033000882321F0B701C8010E947E0FD801509692
:10034000ED91FC91C801199587CF8E7FF801828BC2
:10035000F5CFE091DE02F091DF02808161E0811152
:1003600060E00091EC021091ED020FB6F8940F924C
:10037000F801858D8F3F09F4158ED8015E968C911A
:100380005E978F3F11F45E961C920F900FBEF8019E
:10039000828D81113FC00288F389E02DA091B802BF
:1003A000B091B9021F96FC93EE931E97A091B802EC
:1003B000B091B9028481958151969C938E93509708
:1003C0008091B8029091B902A481B5810C961396E0
:1003D0009C938E9312978091B8029091B9020C96DB
:1003E00095838483E091B802F091B902C8014196E7
:1003F000958B848BD80151968C9151978F5F519634
:100400008C93C7018C199D09662311F08FEF9FEF24
:100410000E943D0BC8010E947A0A0E94900C811133
:100420001BCF0E94CA0B18CF9160F801928B2A81D2
:100430003B8164857585620F731FA701C8010E9407
:10044000140B882309F408CFD8015096ED91FC9144
:10045000C8011995F801828982FFFECE6A817B81ED
:1004600084859585680F791FC8010E947E0FF4CEA0
:100470009160F801928B6A817B81758764876E0D2C
:100480007F1D9701A701C8010E94140BE5CE91FDC5
:1004900004C0C8010E947612DFCE9E7FD80152961A
:1004A0009C93DACE8091C002811108C0809125030F
:1004B000823010F00E94CA0B74D1F4CF0FB6F894BA
:1004C0000F92E0910003F0910103C681D781CE0124
:1004D00002960E94BA0A80912103815080932103E1
:1004E0008091C00281508093C0020F900FBE8F890F
:1004F000988D0E947612CE010E947612D3CF9F145F
:1005000011241FBECFEFD1E2DEBFCDBF00E00CBF94
:1005100012E0A0E0B2E0E6EDFFE200E00BBF02C0B7
:1005200007900D92A83BB107D9F724E0A8EBB2E001
:1005300001C01D92A330B207E1F712E0C0E8D2E09B
:1005400000E006C021970109802FFE010E94D1170B
:10055000CF37D10780E00807A9F70E94E9140C946F
:10056000E9174ECD90E0FC01E254FE4F24918858EB
:100570009E4FFC018491882399F090E0880F991F89
:10058000FC01E25AFE4FA591B491FC01EC5BFE4FD9
:10059000859194918FB7F894EC91E22BEC938FBFF7
:1005A0000895AF92BF92CF92DF92EF92FF920F9396
:1005B0001F93CF93DF936C017B018B01040F151FF9
:1005C000EB015E01AE18BF08C017D10759F0699161
:1005D000D601ED91FC910190F081E02DC6011995B5
:1005E000892B79F7C501DF91CF911F910F91FF9072
:1005F000EF90DF90CF90BF90AF900895FC01538DA6
:10060000448D252F30E0842F90E0821B930B5417EC
:1006100010F0CF96089501970895FC01918D828D79
:10062000981761F0A28DAE0FBF2FB11D5D968C9112
:10063000928D9F5F9F73928F90E008958FEF9FEF51
:100640000895FC01918D828D981731F0828DE80F0D
:10065000F11D858D90E008958FEF9FEF0895FC01C7
:10066000918D228D892F90E0805C9F4F821B910994
:100670008F73992708958AE493E0F1DF21E0892BB5
:1006800009F420E0822F0895FC01A48DA80FB92F52
:10069000B11DA35ABF4F2C91848D90E001968F73AA
:1006A0009927848FA689B7892C93A089B1898C91C9
:1006B000837080648C93938D848D981306C0028818
:1006C000F389E02D80818F7D80830895EF92FF92E2
:1006D0000F931F93CF93DF93EC0181E0888F9B8D65
:1006E0008C8D98131AC0E889F989808185FF15C01F
:1006F0009FB7F894EE89FF896083E889F989808142
:100700008370806480839FBF81E090E0DF91CF9110
:100710001F910F91FF90EF900895F62E0B8D10E032
:100720000F5F1F4F0F731127E02E8C8D8E110BC0A2
:100730000FB607FCFACFE889F989808185FFF5CFEC
:10074000CE01A2DFF2CFEB8DEC0FFD2FF11DE35AAE
:10075000FF4FF0829FB7F8940B8FEA89FB89808165
:100760008062D0CFCF93DF93EC01888D8823B1F0E6
:10077000AA89BB89E889F9898C9185FD03C08081AC
:1007800086FD0CC00FB607FCF7CF8C9185FFF2CF2A
:10079000808185FFEDCFCE0177DFEACFDF91CF916A
:1007A000089580E090E0892B21F065DF81110E949F
:1007B000000080E090E0892B49F080E090E0892BF8
:1007C00029F00E94000081110E94000080E090E06A
:1007D000892B49F080E090E0892B29F00E940000ED
:1007E00081110E94000080E090E0892B49F080E0B8
:1007F00090E0892B29F00E94000081110C940000E8
:1008000008958150823108F05AC0E82FF0E088271F
:10081000E35FFB4F8F4F0C94D1172D0431041F045D
:10082000250429045F0434043A043E0444044804C3
:100830004C04520456045F045A046004640480911A
:1008400080008F77809380000895809180008F7D55
:10085000F9CF80918000877FF5CF84B58F7784BDF5
:10086000089584B58F7DFBCF8091B0008F77809302
:10087000B00008958091B0008F7DF9CF80919000F5
:100880008F77809390000895809190008F7DF9CFAD
:1008900080919000877FF5CF8091A0008F77809323
:1008A000A00008958091A0008F7DF9CF8091A000D5
:1008B000877FF5CF809120018F7780932001089565
:1008C000809120018F7DF9CF80912001877FF5CF26
:1008D0001F93CF93DF93282F30E0F901E250FF4FB1
:1008E0008491F901E254FE4FD491F901E858FE4F8A
:1008F000C491CC23A1F0162F811183DFEC2FF0E0FF
:10090000EE0FFF1FEC5BFE4FA591B4918FB7F894EB
:10091000EC91111108C0D095DE23DC938FBFDF91DD
:10092000CF911F910895DE2BF8CF089590E080E0DD
:100930000895CF93DF93EC0160E08E81C9DF61E021
:100940008E81C6DF60E08E81C3DF8BE891E0019786
:10095000F1F7DF91CF910895CF92DF92EF92FF925E
:100960000F931F93CF93DF936C017C0187E0E80E18
:10097000F11CD0E0C0E0062F10E0B8010C2E02C040
:10098000759567950A94E2F76170F70181917F018F
:100990009FDF2196C430D10581F7C601DF91CF9149
:1009A0001F910F91FF90EF90DF90CF90C2CFCF9229
:1009B000DF92EF92FF920F931F93CF93DF93EC019F
:1009C000F62E642F8C8184DF8D818F3F11F060E0E3
:1009D0007FDF0F2D10E08F8584FF23C06E0187E03D
:1009E000C80ED11CF12CE12CB8010E2C02C075955B
:1009F00067950A94E2F76170F60181916F0168DFF3
:100A0000FFEFEF1AFF0A88E0E816F10469F7CE015C
:100A1000DF91CF911F910F91FF90EF90DF90CF90DA
:100A200088CFB80184E0759567958A95E1F7CE0186
:100A300093DF6F2DCE01DF91CF911F910F91FF902A
:100A4000EF90DF90CF9088CF40E0682F87EE93E063
:100A5000AECF9091FA03691710F06FEF690FE62F90
:100A6000F0E0E951FC4F9489890F8068EDCFCF9376
:100A7000DF93823029F49091F60398609093F60307
:100A80008093FA031092FB0380E48093FC0380E1DF
:100A90008093FD0380E58093FE038091EB0362DD8C
:100AA0008091EC038F3F09F05DDD8091ED035ADD0D
:100AB000C7EED3E09E01275E33408091F60384FDAC
:100AC00009C084E090E021962817390734F48E811C
:100AD00049DDF0CF88E090E0F6CF8BE39DE0019711
:100AE000F1F760E08091EB03F3DE60E08091ED03CD
:100AF000EFDE8091EC038F3F11F060E0E9DE809142
:100B0000F60384FD31C063E087EE93E025DFCBE49C
:100B1000D6E4CE010197F1F763E087EE93E01CDFA6
:100B20002197F1F763E087EE93E016DF83E592E02B
:100B30000197F1F762E087EE93E00EDF8091F60314
:100B4000806282DF84E08093F7038CE07DDF81E0C8
:100B50007BDF8BE39FE10197F1F782E08093F8035D
:100B600086E0DF91CF9170CF80626EDF8BE496E4F8
:100B70000197F1F78091F603806266DF83E592E0EA
:100B80000197F1F78091F60380625EDFD7CF41E0F5
:100B90000EDF81E090E00895FB0101900020E9F76D
:100BA0003197AF01461B570BDC01ED91FC910280A0
:100BB000F381E02D19948F929F92AF92BF92EF92A2
:100BC000FF920F931F93CF93DF93CDB7DEB7A1971B
:100BD0000FB6F894DEBF0FBECDBF7C01FA01CB018A
:100BE00019A2223008F42AE08E010F5D1F4F822ED9
:100BF000912CB12CA12CBF01A50194010E94AF172B
:100C0000F901CA016A3004F5605DD8016E938D0167
:100C1000232B242B252B79F790E080E0109719F0F7
:100C2000BD01C701B9DFA1960FB6F894DEBF0FBEB4
:100C3000CDBFDF91CF911F910F91FF90EF90BF90AB
:100C4000AF909F908F900895695CDFCFCF93DF9333
:100C500000D000D01F921F92CDB7DEB71A82198242
:100C60001C821B821E821D8281E090E098878F8308
:100C700010E480917B00877F80937B0010937C0041
:100C800080917A00806480937A0080917A0086FD5A
:100C9000FCCF8091780060917900762F682F90E0EA
:100CA00080E00E94BE1620E030E04FE753E40E944F
:100CB000241720E030E040E85AE30E9424170E9405
:100CC00092167E836D83AB0170E060E02AE08AE4D7
:100CD00093E071DF65E272E08AE493E05DDF4CE06F
:100CE00050E0BE016B5F7F4F8091BE029091BF02CA
:100CF000DCD781110AC068E272E08AE493E04CDF3D
:100D000065E272E08AE493E047DF83E090E00E94CE
:100D1000F00FAFCFCF93DF9300D01F921F92CDB7CC
:100D2000DEB782E01FDC82E0A2DE60E080E091DEE0
:100D30006CE472E087EE93E02FDF61E080E089DE13
:100D40006AE572E087EE93E027DF8CE790E00E948F
:100D5000F00F81E079DE8BE39FE10197F1F760E02E
:100D600080E077DE68E672E087EE93E015DF60E012
:100D700087E06FDE6FE672E087EE93E00DDF61E003
:100D800080E067DE66E772E087EE93E005DF61E012
:100D90008BE05FDE6BE772E087EE93E0FDDE80E0E4
:100DA000E82E81E0F82E46E050E0BE016F5F7F4FF5
:100DB0008091BE029091BF020E94FE0F813009F522
:100DC0008B819C810197E9F461E084E042DE61E877
:100DD00072E087EE93E0E0DE61E084E03ADE498194
:100DE0005A8170E060E02AE087EE93E0E4DE09815A
:100DF0001A8182E0B7DB0115110541F560E082E060
:100E000067DD46E050E0BE016B5F7F4F8091BC0222
:100E10009091BD020E94FE0F813099F460E08DE058
:100E200018DE61E872E087EE93E0B6DE60E08DE008
:100E300010DE4D8150E070E060E02AE087EE93E044
:100E4000BADE81E090E00E94F00FADCF0F3F1105B8
:100E500011F461E0D4CFF7018491EFEFE80FE231B4
:100E600008F0B0C0F0E08827E75CF84F8F4F0C9493
:100E7000D1174B07500755075F076907E20773074C
:100E80007B0783078D079707A107B007BA07E2071B
:100E9000C407CE07D80784B5806884BD07BDB1CF2D
:100EA00084B5806284BD08BDACCF8091800080682D
:100EB000809380001093890000938800A2CF8091D6
:100EC000800080628093800010938B0000938A00E2
:100ED00098CF8091800088608093800010938D006F
:100EE00000938C008ECF8091B00080688093B0001A
:100EF0000093B30086CF8091B00080628093B000F1
:100F00000093B4007ECF8091900080688093900021
:100F1000109399000093980074CF809190008062A4
:100F20008093900010939B0000939A006ACF809169
:100F3000900088608093900010939D0000939C0027
:100F400060CF8091A00080688093A0008091A00075
:100F50008F7B8093A0001093A9000093A80051CF2D
:100F60008091A00080628093A0001093AB0000935A
:100F7000AA0047CF8091A00088608093A0001093C2
:100F8000AD000093AC003DCF80912001806880933C
:100F90002001109329010093280133CF8091200173
:100FA00080628093200110932B0100932A0129CFA6
:100FB0008091200188608093200110932D0100937F
:100FC0002C011FCF003811050CF043CF17CFCF9362
:100FD000DF931F92CDB7DEB772D28C018DE0C2DAFB
:100FE00060E08DE075DC9BE0E92E91E0F92E2BECC2
:100FF000C22E21E0D22E35E8A32E31E0B32E46E0FA
:1010000050E0BE016F5F7F4F8091BC029091BD02A6
:101010004CD6813019F489818F5F8983F7018491DF
:10102000F6019490F501849070E060E0882091F0E2
:101030008111E7DBE82DF0E0EE0FFF1FEC51FF4FD1
:10104000A591B4918C91982291E080E009F490E010
:10105000692F782FF1E06F278DE03ADC3AD280914A
:1010600022039091230348012FE1820E911C8017E7
:10107000910760F48016910618F48815990548F0D8
:101080004FD4811101C086D38401B9CF8016910657
:10109000A0F760E0F401E81BF90BCF01EED2F0CF2E
:1010A0000F931F93E0915A03F0915B0382E08083DA
:1010B000E0915603F09157031082E0915803F091AC
:1010C00059038FEC808310926203E0915E03F091EC
:1010D0005F0386E08083E0915C03F0915D03808193
:1010E00080618083E0915C03F0915D038081886082
:1010F0008083E0915C03F0915D0380818068808350
:10110000E0915C03F0915D0380818F7D808364E0DA
:1011100083E00E94C6139093BF028093BE0261E0F9
:1011200085E00E94C6139093BD028093BC0280911B
:10113000BE029091BF02892BA1F010E000E021E0F7
:1011400040E850E062E972E086E296E00E94A11277
:1011500022E040E850E06DE972E08AE896E00E9403
:10116000A1128091BC029091BD02892B59F010E030
:1011700000E021E040E850E068EA72E087EE97E0A6
:101180000E94A1121F910F910C9408141F920F92AC
:101190000FB60F9211240BB60F922F933F934F93DC
:1011A0005F936F937F938F939F93AF93BF93EF93CF
:1011B000FF938AE493E068DAFF91EF91BF91AF91DA
:1011C0009F918F917F916F915F914F913F912F915F
:1011D0000F900BBE0F900FBE0F901F9018951F928F
:1011E0000F920FB60F9211240BB60F922F938F937D
:1011F0009F93EF93FF93E0915A03F0915B038081FB
:10120000E0916003F091610382FD1DC090818091A7
:1012100063038F5F8F7320916403821741F0E09125
:101220006303F0E0E65BFC4F958F80936303FF91CF
:10123000EF919F918F912F910F900BBE0F900FBE4A
:101240000F901F9018958081F2CF1F920F920FB6CA
:101250000F9211242F933F938F939F93AF93BF933C
:101260008091E7029091E802A091E902B091EA0230
:101270003091E60223E0230F2D3758F50196A11D8A
:10128000B11D2093E6028093E7029093E802A093B9
:10129000E902B093EA028091E2029091E302A09108
:1012A000E402B091E5020196A11DB11D8093E20216
:1012B0009093E302A093E402B093E502BF91AF9153
:1012C0009F918F913F912F910F900FBE0F901F9084
:1012D000189526E8230F0296A11DB11DD2CFE091EB
:1012E000F002F091F1028081811107C08FEF9FEF32
:1012F0009093DB028093DA020895E091F002F0917E
:10130000F1020580F681E02D80819181F1CFFC0111
:10131000DB010FB6F8940F92409122035091230302
:101320002D913C9111972F3F320711F181819281CC
:10133000609124037081761749F04817590730F0FF
:101340001D921C9281E00F900FBE0895481B590B0F
:1013500042175307A8F7241B350B2D933C9380911C
:1013600024038083809122039091230392838183BD
:1013700080E0E9CFCF93DF93DC011596ED91FC91EE
:101380000680F781E02DA489B58986859785208917
:101390003189EC013D832C83C089D1899B838A8369
:1013A000CF010C9611962D913C9112972817390771
:1013B00021F41296DC93CE931197158A148A2C91FE
:1013C00021502C932091EB02211157C0A285B385A7
:1013D0008481958126813781EC013D832C83C681F0
:1013E000D7819B838A83CF01029611962D913C91E0
:1013F00012972817390721F41296DC93CE93119790
:10140000138612862C9121502C93C6892091490372
:101410002C1710F4C093490329E02C9FE0011124FC
:10142000CB5DDC4F0980DA81C02DD583C4834C812C
:101430005D8157834683AC81BD8113969C938E93C7
:1014400012979D838C83A689A29FD0011124AB5D46
:10145000BC4FB387A2878C918F5F8C93A091B80209
:10146000B091B902968956968C91891730F581E032
:101470008093D902DF91CF910895A0910503B09197
:101480000603B787A68714962D913C911597318B4B
:10149000208B1496CD91DC9115979B838A831596AA
:1014A0009C938E93149784E093E0958B848B80912A
:1014B00004038F5F80930403D1CF80E0DBCF0FB6AE
:1014C000F8940F9280912203909123030F900FBE06
:1014D00008958091EB028F5F8093EB0208950FB621
:1014E000F8940F92FC01928D0F900FBE81E0911144
:1014F00080E00895EF92FF920F931F93CF93DF93B5
:10150000EC010FB6F8940F921E8D7C0181E1E80E7C
:10151000F11C01E01116D4F08FEF8E8F0F900FBEEB
:101520000FB6F8940F921D8D7E0188E0E80EF11C35
:1015300001E01116ACF08FEF8D8F0F900FBEDF9191
:10154000CF911F910F91FF90EF9008958989882383
:1015500019F3C7010FDF81110093D9021150DACFBF
:101560008885882341F3C70105DF81110093D902E3
:101570001150DFCFCF93DF93FC01A085B18582812D
:10158000938124813581EC013D832C83C481D581F5
:101590009B838A8311968D919C9112978E179F073A
:1015A00021F41296DC93CE931197118610868C91BC
:1015B00081508C938C91DF91CF9108950F931F935D
:1015C000CF93DF938C01FB0180819181D801139629
:1015D0008F3F9807F1F4E801AF81B88512968D919D
:1015E0009C91139793838283EC01FD83EC83B583F5
:1015F000A4831396FC93EE93129711870087F8014A
:1016000080818F5F8083DF91CF911F910F9108952B
:10161000D90112962D913C911397E9014881598186
:1016200084179507A8F7DACFFC017383628391874B
:1016300080874617570788F0421B530B8485958592
:1016400048175907C0F4BF016E5F7F4F8091DE02DB
:101650009091DF02B3DF80E008954217530718F43A
:101660006217730740F4BF016E5F7F4F8091E00205
:101670009091E102EFCF81E00895FF920F931F93C5
:10168000CF93DF93EC01F62E0091220310912303F8
:101690008091B8029091B90202966CDFCF3FDC07CF
:1016A000E9F5FF20D9F1E091F302F091F402A09165
:1016B000B802B091B9021596FC93EE931497A091DD
:1016C000B802B091B9028481958117969C938E934C
:1016D00016978091B8029091B902A481B5810296C3
:1016E00013969C938E9312978091B8029091B902B1
:1016F000029695838483E091B802F091B90282EF5B
:1017000092E0938782878091F2028F5F8093F2024A
:10171000DF91CF911F910F91FF900895C00FD11FBE
:10172000E091B802F091B902D383C2836091B8020C
:101730007091B902C017D10760F48091EE029091C8
:10174000EF026E5F7F4FDF91CF911F910F91FF905E
:1017500035CF8091F0029091F1026E5F7F4F2EDFC6
:101760008091DA029091DB02C817D90788F6D093EE
:10177000DB02C093DA02CCCFFC0103969283818313
:101780002FEF3FEF3483238396838583908787836E
:10179000108208950F920FB6F8940F920BB60F9225
:1017A0000CB60F921F9211242F923F924F925F928C
:1017B0006F927F928F929F92AF92BF92CF92DF9261
:1017C000EF92FF920F931F932F933F934F935F934B
:1017D0006F937F938F939F93AF93BF93CF93DF9339
:1017E000EF93FF93A091B802B091B9020DB60D929C
:1017F0000EB60D928091EB02882321F081E0809358
:10180000D9025FC01092D902A091B802B091B9027A
:10181000E091B802F091B9022D913C918789908DA9
:1018200082179307A8F08091B8029091B902809135
:10183000B8029091B902279A2F9A2FEF87EA91E682
:10184000215080409040E1F700C000001F9AF5CF82
:101850002091490389E001C02150422F50E0849F2C
:10186000F001859FF00D1124EB5DFC4F90819923D1
:1018700099F3A181B28112960D90BC91A02DB283F3
:10188000A183289FC0011124885D9C4FA817B90728
:1018900029F412968D919C919283818389E0849F93
:1018A000F001859FF00D1124EB5DFC4F0180F2816A
:1018B000E02D868197819093B9028093B80220939E
:1018C0004903A091B802B091B902CD91CDBFDD918D
:1018D000DEBFFF91EF91DF91CF91BF91AF919F91CB
:1018E0008F917F916F915F914F913F912F911F91B8
:1018F0000F91FF90EF90DF90CF90BF90AF909F90AF
:101900008F907F906F905F904F903F902F901F909F
:101910000F900CBE0F900BBE0F900FBE0F9008954E
:101920008F929F92BF92CF92DF92EF92FF920F938E
:101930001F93CF93DF930FB6F8940F928091EB0231
:1019400081508093EB028091EB02882379F080E054
:101950000F900FBEDF91CF911F910F91FF90EF90ED
:10196000DF90CF90BF909F908F900895809121033A
:10197000882369F3E0900903F0900A03F0E0E0E0C7
:1019800039E041E08091040381115CC0EF2B09F044
:10199000A6DCE090D702F090D802E114F10409F43B
:1019A0007CC189E0D82ECC24C3940FEF1FEF809127
:1019B000EB02811160C1C0912203D09123034E013B
:1019C0008FEF881A980A9092230380922203811441
:1019D0009104B1F48091F0029091F1022091EE0215
:1019E0003091EF023093F1022093F0029093EF02D6
:1019F0008093EE02809124038F5F809324036FDC39
:101A00008091DA029091DB02B12C8816990608F0D9
:101A100026C1E091B802F091B902E689DE9EF0019C
:101A20001124EB5DFC4F8081823010F0BB24B39415
:101A30008091D902811103C0BB2009F425C1C09255
:101A4000D90222C1D7011696ED91FC91A489B589DE
:101A50006685778580899189EB019D838C83808958
:101A60009189EC017B836A83BF01645F7F4F11968C
:101A70000D911C9112970617170721F412969C934B
:101A80008E931197158A148A8C9181508C93A2851C
:101A9000B3858481958166817781EC017D836C8338
:101AA00066817781EB019B838A83CF010296119631
:101AB0000D911C9112970817190721F412967C9327
:101AC0006E931197138612862C9121502C93A68920
:101AD000209149032A1710F4A09349033A9FD0019B
:101AE0001124AB5DBC4F11960D90BC91A02DB58318
:101AF000A48314966D917C911597778366831496D1
:101B00006D917C911597EB019B838A8315969C932D
:101B10008E9314979689939FD0011124AB5DBC4F8F
:101B2000B387A2878C918F5F8C93A091B802B091FC
:101B3000B90256968C91981708F424CF4093D90295
:101B400021CFE091F002F091F1020580F681E02DC5
:101B50000680F781E02D828193818816990628F40A
:101B60009093DB028093DA0254CFC285D3858481BF
:101B7000958126813781DC0115963C932E9314972D
:101B800026813781D90113969C938E931297CF01AA
:101B9000029649815A814817590711F43A832983DB
:101BA00013861286288121502883A489B58910972D
:101BB000F9F02685378540895189E9015D834C8399
:101BC00040895189EA013B832A8311966D917C916A
:101BD00012979F01245F3F4F6217730721F41296FB
:101BE0005C934E931197158A148A2C9121502C9353
:101BF000A689209149032A1710F4A0934903DA9E7D
:101C0000D0011124AB5DBC4F11960D90BC91A02D5D
:101C1000B583A48314962D913C9115973783268321
:101C200014962D913C911597E9019B838A83159613
:101C30009C938E93149796899D9DD0011124AB5D42
:101C4000BC4FB387A2878C918F5F8C93E091B802D1
:101C5000F091B9028689981710F0BB24B394E091F3
:101C6000F002F091F102808181116BCF1093DB02C1
:101C70000093DA02CECE8091D7029091D8020196DD
:101C80009093D8028093D702D1E0ED1AF10809F0C1
:101C90008ECE1092D8021092D7028091D90288235A
:101CA00009F455CE77DD81E053CEAF92BF92CF924B
:101CB000DF92EF92FF920F931F93CF93DF9300D0A9
:101CC0001F921F92CDB7DEB78C017B015D834C83E1
:101CD00080E0680198E0C90ED11C0FB6F8940F920D
:101CE000D8015A962C915A975B969C915B9729172D
:101CF00008F0ADC05A96DC905A975C964C915C9770
:101D000041118AC08D919C91892B11F080E00AC00D
:101D1000F801E480F580E114F10429F580E0F80190
:101D200015821482D394D8015A96DC925A97519610
:101D30009C91992319F0C80141961CDB81112ADD81
:101D40000F900FBE81E00F900F900F900F900F90AB
:101D5000DF91CF911F910F91FF90EF90DF90CF9087
:101D6000BF90AF900895D70192968C919297815031
:101D700092968C93929756962C91569791969C9109
:101D8000291761F28111CACF5701B2E0AB0EB11C25
:101D9000C501F0DBF70181A1868B482F50E024E0DC
:101DA00030E0241B350B3587248790914903981721
:101DB00010F48093490389E0849FD001859FB00D82
:101DC0001124AB5DBC4F11960D90BC91A02DF70175
:101DD000B583A48314962D913C9115973783268360
:101DE0001496ED91FC911597B382A2821596BC9240
:101DF000AE921497D7015696EC915697E89FF00152
:101E00001124EB5DFC4F1B96FC93EE931A97808197
:101E10008F5F808381E083CF50E0B70112968D9170
:101E20009C910E94D917F801848D22813381820F01
:101E3000932F911D93838283248135818217930789
:101E400008F464CF80819181938382835FCF2C815A
:101E50003D81232B21F40F900FBE80E074CF8111C0
:101E600009C08091240389838091220390912303E8
:101E70009B838A830F900FBE2CDB0FB6F8940F92D2
:101E8000F801858D8F3F09F4158ED8015E968C91EF
:101E90005E978F3F11F45E961C920F900FBEBE01AD
:101EA0006C5F7F4FCE01019632DA811123C00FB6ED
:101EB000F8940F92F801928D838D0F900FBE9813B6
:101EC00015C0AC80BD806091B8027091B902645FAA
:101ED0007F4FC60173DB61E0C501CFDBC8010ADBC0
:101EE0001FDD811101C056DC81E0F7CEC80102DBA5
:101EF00017DDFACFC801FEDA13DDAFCFCF93DF9342
:101F000000D01F921F92CDB7DEB79C018091EC02EA
:101F10009091ED020097C1F019827B836A833D8323
:101F20002C832091200350E040E0BE016F5F7F4F83
:101F300021112091EB02B9DE0F900F900F900F90BE
:101F40000F90DF91CF91089580E0F6CFEF92FF924E
:101F50000F931F93CF93DF93E091E002F091E102A2
:101F60008081811113C08091DE029091DF029093F5
:101F7000E1028093E002F093DF02E093DE02DF9162
:101F8000CF911F910F91FF90EF9008950580F681FA
:101F9000E02D00811181C681D7817E0182E0E80EAB
:101FA000F11CC701E7DAE889F989CE0119958A8918
:101FB00082FFD2CF8C859D85800F911F081719074E
:101FC00058F49B838A83D987C887B7018091E00240
:101FD0009091E102F3DAC0CFB801CE018FDFBCCF20
:101FE000CF93DF93EC0175DA60E0CE0146DB98DC3D
:101FF000811101C0CFDBDF91CF910895AF92BF92E5
:10200000CF92DF92EF92FF920F931F93CF93DF93C4
:1020100000D01F921F92CDB7DEB78C016B015D839C
:102020004C8380E0580191E1A90EB11C0FB6F894E1
:102030000F92F801F28CFF20B1F1448D4423A9F0F6
:1020400050E086819781840F951F97838683248132
:1020500035818217930720F0808191819783868351
:10206000F80166817781C601A4D7FA94F801F28E4F
:102070008085882329F0C80108967CD981118ADBE4
:102080000F900FBE81E00F900F900F900F900F9068
:10209000DF91CF911F910F91FF90EF90DF90CF9044
:1020A000BF90AF9008952C813D81232B21F40F9098
:1020B0000FBE80E0E8CF811109C08091240389839D
:1020C00080912203909123039B838A830F900FBEFC
:1020D00000DA0FB6F8940F92F801858D8F3F09F45E
:1020E000158EF801868D8F3F09F4168E0F900FBE66
:1020F000BE016C5F7F4FCE01019609D981111DC0D1
:10210000C801EDD98823A9F0EC80FD806091B80268
:102110007091B902645F7F4FC50150DA61E0C70179
:10212000ACDAC801E7D9FCDB811101C033DB81E007
:102130007DCFC801DFD9F4DBFACFC801DBD9F0DBF2
:10214000C801CDD9882399F3B4CF0F920FB6F89474
:102150000F920BB60F920CB60F921F9211242F9272
:102160003F924F925F926F927F928F929F92AF9227
:10217000BF92CF92DF92EF92FF920F931F932F9314
:102180003F934F935F936F937F938F939F93AF93FF
:10219000BF93CF93DF93EF93FF93A091B802B091D9
:1021A000B9020DB60D920EB60D9213BE8091EB02E0
:1021B0008111F9C08091220390912303019690939D
:1021C000230380932203009781F52091F002309140
:1021D000F1024091EE025091EF025093F1024093D0
:1021E000F0023093EF022093EE02209124032F5F40
:1021F00020932403E091F002F091F102208121115B
:1022000007C02FEF3FEF3093DB022093DA020DC0BF
:10221000E091F002F091F1020580F681E02D20813D
:1022200031813093DB022093DA022091DA0230917F
:10223000DB028217930710F420E0A1C020E039E010
:10224000D32EE091F002F091F1023081311107C0FC
:102250008FEF9FEF9093DB028093DA0290C0E091C2
:10226000F002F091F1020580F681E02D0680F78101
:10227000E02D428153818417950728F45093DB02A7
:102280004093DA027CC0A285B38544815581668182
:102290007781EA017D836C8366817781EB015B83C3
:1022A0004A83AF014E5F5F4F11960D911C911297BB
:1022B0000417150721F412967C936E9311971386D9
:1022C00012863C9131503C93A489B5891097F9F05E
:1022D0006685778500891189EB011D830C83008950
:1022E0001189E8017B836A831196ED90FC90129727
:1022F000BF01645F7F4FE616F70621F412961C9328
:102300000E931197158A148A3C9131503C93A689FB
:10231000309149033A1710F4A0934903DA9ED00193
:102320001124AB5DBC4F11960D90BC91A02DB583CF
:10233000A48314966D917C91159777836683149688
:102340006D917C911597EB015B834A8315965C93A5
:102350004E93149746894D9DD0011124AB5DBC4F1F
:10236000B387A2873C913F5F3C93E091B802F09124
:10237000B9023689431708F464CF21E062CFE091B7
:10238000B802F091B902E689D9E0ED9FF00111247D
:10239000EB5DFC4F8081823008F021E08091D90212
:1023A00081110EC00AC08091D7029091D802019687
:1023B0009093D8028093D7026AC0222309F467C0A1
:1023C0008091EB02882321F081E08093D9025FC0E5
:1023D0001092D902A091B802B091B902E091B8026E
:1023E000F091B9022D913C918789908D82179307C6
:1023F000A8F08091B8029091B9028091B8029091B2
:10240000B902279A2F9A2FEF87EA91E62150804050
:102410009040E1F700C000001F9AF5CF20914903DA
:1024200089E001C02150422F50E0849FF001859F38
:10243000F00D1124EB5DFC4F9081992399F3A1815C
:10244000B28112960D90BC91A02DB283A183289FDA
:10245000C0011124885D9C4FA817B90729F4129672
:102460008D919C919283818389E0849FF001859F67
:10247000F00D1124EB5DFC4F0180F281E02D86818F
:1024800097819093B9028093B80220934903A09159
:10249000B802B091B902CD91CDBFDD91DEBFFF9101
:1024A000EF91DF91CF91BF91AF919F918F917F91EC
:1024B0006F915F914F913F912F911F910F91FF90DD
:1024C000EF90DF90CF90BF90AF909F908F907F90D4
:1024D0006F905F904F903F902F901F900F900CBE89
:1024E0000F900BBE0F900FBE0F900895CF93DF9308
:1024F000009741F0EC010E94690ACE018AD3DF9176
:10250000CF910ECADF91CF910895CF93DF93EC0165
:102510000E94690ACE01E1D2EC0102DA209769F447
:10252000279A2F9A2FEF80E792E021508040904029
:10253000E1F700C000001F9AF5CFCE01DF91CF91E7
:1025400008957F928F929F92AF92BF92CF92DF9227
:10255000EF92FF920F931F93CF93DF93982EA92EA4
:10256000762E872E7A01B22ECA01CFDF6C01892B1D
:1025700009F4EBC088E290E0C8DFEC01892B09F494
:10258000E2C0D88ECF8AA70165EA70E0C6011AD5ED
:1025900081E0E81AF108EF89F88DEE0DFF1D672D37
:1025A000782DCE0149969B01285F3F4FDB014D916D
:1025B000BD01DC014D93CD01AB0141505109DA0160
:1025C0004C91442319F06217730781F718A2BE8A51
:1025D000B9A21AA21B861A861D8A1C8AD987C887A7
:1025E00084E090E08B1991099D878C87DB8BCA8BE7
:1025F00084E09E012D5D3F4FD9011D928A95E9F738
:102600001FA29082DF011197AC9211971C92119733
:102610001C92119780E88C9311971C9211971C9231
:1026200011971C9257971C9211971C92B697F98399
:10263000E8830115110519F0F801D183C0830FB6A5
:10264000F8940F92809121038F5F809321038091F2
:10265000B8029091B902892B09F086C0D093B902D3
:10266000C093B80280912103813039F585E293E06F
:1026700083D88EE293E080D887E393E07DD880E42E
:1026800093E07AD886E193E077D88DE093E074D830
:1026900084E093E071D88BEF92E06ED882EF92E005
:1026A0006BD886E193E09093F1028093F0028DE085
:1026B00093E09093EF028093EE0280911F038F5F6F
:1026C00080931F03AE89809149038A1710F4A09369
:1026D000490329E02A9FD0011124AB5DBC4F11961C
:1026E0000D90BC91A02DBD83AC8314968D919C91CF
:1026F00015979F838E831496ED91FC911597CE01CB
:1027000002969383828315969C938E931497EE89F9
:10271000E29FF0011124EB5DFC4FFB87EA8780818B
:102720008F5F80830F900FBE80912003882349F034
:10273000E091B802F091B90296898E89981708F451
:1027400029D881E003C0C601D1DE8FEFDF91CF91A0
:102750001F910F91FF90EF90DF90CF90BF90AF90BF
:102760009F908F907F900895809120038111A5CF35
:10277000E091B802F091B90296898E89891708F420
:102780009CCFD093B902C093B80297CF0F931F93F9
:10279000CF93DF93082F162F869FC00111244F96E9
:1027A000B4DEEC01009771F14F96998388830B8F0B
:1027B0001C8F0FB6F8940F92888199812B8D4C8DC8
:1027C000BC01249F600D711D11247D836C831A8EC2
:1027D0009B838A832150330B429FB001439F700D2E
:1027E0001124860F971F9F838E838FEF8D8F8E8F7F
:1027F000CE0108960E94BC0BCE0141960E94BC0BF4
:102800000F900FBECE01DF91CF911F910F910895D0
:102810000F931F9305ED12E020E040EC50E065E8D7
:1028200072E082E592E08DDE813009F081C00FB662
:10283000F8940F928091EC029091ED02892BD9F4DB
:102840008AEC92E00E94BC0B81EC92E00E94BC0BEF
:102850008AEC92E09093E1028093E00281EC92E0B6
:102860009093DF028093DE0265E08AE08FDF909331
:10287000ED028093EC020F900FBE8091EC029091DC
:10288000ED02892B09F454C003ED12E023E045E585
:1028900050E06AE872E082E091E053DE813009F0B6
:1028A00047C0F8942FEF3FEF3093DB022093DA021A
:1028B000809320031092230310922203A89588E1AD
:1028C00090EC0FB6F894A895809360000FBE90939B
:1028D0006000A091B802B091B902CD91CDBFDD9159
:1028E000DEBFFF91EF91DF91CF91BF91AF919F91AB
:1028F0008F917F916F915F914F913F912F911F9198
:102900000F91FF90EF90DF90CF90BF90AF909F908E
:102910008F907F906F905F904F903F902F901F907F
:102920000F900CBE0F900BBE0F900FBE0F9008952E
:10293000809100021F910F91089507DC1895EAE439
:10294000F3E01382128288EE93E0A0E0B0E084838B
:102950009583A683B7838BE092E09183808385EC97
:1029600090E09587848784EC90E09787868780EC59
:1029700090E0918B808B81EC90E0938B828B82EC4A
:1029800090E0958B848B86EC90E0978B868B118EF4
:10299000128E138E148EE7EEF3E0138212828DE115
:1029A00092E09183808384E284838FEF858385E244
:1029B000868386E2878387E280878EE281878FE243
:1029C00082871386148615861686178681E00C94F6
:1029D0003705789484B5826084BD84B5816084BDF8
:1029E00085B5826085BD85B5816085BD80916E00AD
:1029F000816080936E0010928100809181008260DE
:102A0000809381008091810081608093810080911A
:102A100080008160809380008091B1008460809309
:102A2000B1008091B00081608093B00080919100EE
:102A300082608093910080919100816080939100E9
:102A4000809190008160809390008091A1008260CD
:102A50008093A1008091A10081608093A10080916A
:102A6000A00081608093A00080912101826080930A
:102A700021018091210181608093210180912001B9
:102A800081608093200180917A00846080937A0035
:102A900080917A00826080937A0080917A008160D0
:102AA00080937A0080917A00806880937A001092F7
:102AB000C10020910502309106028FEF91E2821B46
:102AC000930B90930202809301020E945008A0DEB3
:102AD0000E9450080E94D103FDCF0F931F93CF9304
:102AE000DF938230910510F482E090E0E0910104E0
:102AF000F091020430E020E0B0E0A0E0309799F4DB
:102B00002115310509F44AC0281B390B2430310541
:102B1000D8F58A819B816115710589F1FB01938349
:102B20008283FE0111C040815181028113814817C7
:102B30005907E0F04817590799F4109761F0129679
:102B40000C93129713961C933296CF01DF91CF917D
:102B50001F910F9108950093010410930204F4CF84
:102B60002115310551F04217530738F0A901DB0157
:102B70009A01BD01DF01F801C1CFEF01F9CF9093B8
:102B8000020480930104CDCFFE01E20FF31F819375
:102B900091932250310939832883D7CF2091FF03A5
:102BA00030910004232B41F4209103023091040260
:102BB000309300042093FF03209101023091020220
:102BC0002115310541F42DB73EB7409105025091D2
:102BD0000602241B350BE091FF03F0910004E2177D
:102BE000F307A0F42E1B3F0B2817390778F0AC0130
:102BF0004E5F5F4F2417350748F04E0F5F1F50930D
:102C000000044093FF03819391939FCFF0E0E0E0B5
:102C10009CCFCF93DF930097E9F0FC0132971382AA
:102C20001282A0910104B0910204ED0130E020E095
:102C30001097A1F420813181820F931F2091FF030F
:102C4000309100042817390709F061C0F09300049F
:102C5000E093FF03DF91CF910895EA01CE17DF07DC
:102C6000E8F54A815B819E0141155105B1F7E90103
:102C7000FB83EA8349915991C40FD51FEC17FD07D7
:102C800061F4808191810296840F951FE9019983F7
:102C90008883828193819B838A83F0E0E0E01296AF
:102CA0008D919C9113970097B9F52D913C911197B7
:102CB000CD010296820F931F2091FF0330910004F3
:102CC0002817390739F6309751F5109202041092FF
:102CD0000104B0930004A093FF03BCCFD383C2834D
:102CE00040815181840F951FC817D90761F44E5F49
:102CF0005F4F88819981480F591F518340838A8192
:102D00009B81938382832115310509F0B0CFF09325
:102D10000204E09301049ECFFD01DC01C0CF1382C9
:102D20001282D7CF70D088F09F5790F0B92F992793
:102D3000B751A0F0D1F0660F771F881F991F1AF0C6
:102D4000BA95C9F712C0B13081F077D0B1E00895DB
:102D500074C0672F782F8827B85F39F0B93FCCF35C
:102D6000869577956795B395D9F73EF490958095BC
:102D7000709561957F4F8F4F9F4F0895E89409C0DC
:102D800097FB3EF490958095709561957F4F8F4F9E
:102D90009F4F9923A9F0F92F96E9BB279395F695B4
:102DA000879577956795B795F111F8CFFAF4BB0F32
:102DB00011F460FF1BC06F5F7F4F8F4F9F4F16C096
:102DC000882311F096E911C0772321F09EE8872F20
:102DD000762F05C0662371F096E8862F70E060E0DC
:102DE0002AF09A95660F771F881FDAF7880F969555
:102DF000879597F9089557FD9058440F551F59F03E
:102E00005F3F71F04795880F97FB991F61F09F3FD7
:102E100079F087950895121613061406551FF2CF00
:102E20004695F1DF08C0161617061806991FF1CF50
:102E300086957105610508940895E894BB27662777
:102E40007727CB0197F908950BD078C069D028F087
:102E50006ED018F0952309F05AC05FC01124EECF50
:102E6000CADFA0F3959FD1F3950F50E0551F629FE5
:102E7000F001729FBB27F00DB11D639FAA27F00DD3
:102E8000B11DAA1F649F6627B00DA11D661F829FFA
:102E90002227B00DA11D621F739FB00DA11D621FDF
:102EA000839FA00D611D221F749F3327A00D611DFC
:102EB000231F849F600D211D822F762F6A2F1124DE
:102EC0009F5750408AF0E1F088234AF0EE0FFF1F31
:102ED000BB1F661F771F881F91505040A9F79E3F68
:102EE000510570F014C0AACF5F3FECF3983EDCF3BD
:102EF000869577956795B795F795E7959F5FC1F7A5
:102F0000FE2B880F911D9695879597F9089597F94F
:102F10009F6780E870E060E008959FEF80EC08957F
:102F200000240A94161617061806090608950024A8
:102F30000A9412161306140605060895092E039422
:102F4000000C11F4882352F0BB0F40F4BF2B11F496
:102F500060FF04C06F5F7F4F8F4F9F4F0895A1E2C6
:102F60001A2EAA1BBB1BFD010DC0AA1FBB1FEE1F03
:102F7000FF1FA217B307E407F50720F0A21BB30B4E
:102F8000E40BF50B661F771F881F991F1A9469F7CA
:102F900060957095809590959B01AC01BD01CF0126
:102FA0000895EE0FFF1F881F8BBF0790F691E02D4D
:102FB0001994FB01DC0102C001900D924150504078
:102FC000D8F70895DC0101C06D9341505040E0F7FF
:062FD0000895F894FFCF04
:102FD60003000003048000000000006603D102FE27
:102FE60002B2032F030D03210300000000C705D121
:102FF60002960495040D0A004E6F206675652070D2
:103006006F7369626C6520656E7669617220656CA6
:10301600206164632064652070776D004672656583
:1030260052544F5320456A2E3300436F6C6120641F
:1030360065204461746F73004D6F746F723A00437C
:103046006F756E743A0050776D3A00343930487AAD
:10305600002020200049444C4500546D72205376D0
:10306600630050776D416E64467265710044697302
:10307600706C61794C636400436F756E7465724160
:083086006E64426C696E6B0080
:00000001FF
