:10000000AFC30000DEC30000DCC30000DAC30000A1
:10001000D8C30000D6C30000D4C30000D2C3000080
:10002000D0C30000CEC30000CCC30000CAC3000090
:10003000C8C30000C6C30000C4C30000C2C30000A0
:10004000C0C30000BEC30000BCC30000BAC30000B0
:10005000B8C30000B6C30000B4C300000C946A1714
:10006000B0C300000C9434170C940A17AAC3000004
:10007000A8C30000A6C30000A4C30000A2C30000E0
:10008000A0C300009EC300009CC300009AC30000F0
:1000900098C3000096C3000094C300000C94B417EA
:1000A00090C300008EC300008CC300008AC3000010
:1000B00088C3000086C3000084C3000082C3000020
:1000C00080C300007EC300007CC300007AC3000030
:1000D00078C3000076C3000074C3000072C3000040
:1000E00070C3000000000000003E5B4F5B3E3E6BB3
:1000F0004F6B3E1C3E7C3E1C183C7E3C181C577DC2
:10010000571C1C5E7F5E1C00183C1800FFE7C3E70D
:10011000FF0018241800FFE7DBE7FF30483A060E1F
:100120002629792926407F050507407F05253F5A66
:100130003CE73C5A7F3E1C1C08081C1C3E7F1422D6
:100140007F22145F5F005F5F06097F017F00668981
:10015000956A606060606094A2FFA29408047E04C7
:100160000810207E201008082A1C08081C2A0808ED
:100170001E101010100C1E0C1E0C30383E383006AD
:100180000E3E0E06000000000000005F00000007A9
:10019000000700147F147F14242A7F2A12231308D7
:1001A000646236495620500008070300001C2241B3
:1001B000000041221C002A1C7F1C2A08083E080857
:1001C0000080703000080808080800006060002007
:1001D000100804023E5149453E00427F40007249EA
:1001E0004949462141494D331814127F102745458E
:1001F00045393C4A494931412111090736494949A4
:1002000036464949291E0000140000004034000011
:10021000000814224114141414140041221408027A
:10022000015909063E415D594E7C1211127C7F49ED
:100230004949363E414141227F4141413E7F494942
:1002400049417F090909013E414151737F0808086E
:100250007F00417F41002040413F017F081422413F
:100260007F404040407F021C027F7F0408107F3E99
:100270004141413E7F090909063E4151215E7F0906
:10028000192946264949493203017F01033F40406D
:10029000403F1F2040201F3F4038403F6314081458
:1002A0006303047804036159494D43007F41414190
:1002B0000204081020004141417F04020102044071
:1002C00040404040000307080020545478407F28F5
:1002D0004444383844444428384444287F385454EB
:1002E000541800087E090218A4A49C787F0804040E
:1002F0007800447D40002040403D007F10284400AD
:1003000000417F40007C047804787C08040478383D
:1003100044444438FC1824241818242418FC7C086D
:10032000040408485454542404043F44243C4040EA
:10033000207C1C2040201C3C4030403C442810289D
:10034000444C9090907C4464544C440008364100E6
:100350000000770000004136080002010204023C60
:100360002623263C1EA1A161123A4040207A38542F
:1003700054555921555579412254547842215554A8
:10038000784020545579400C1E52721239555555FB
:1003900059395454545939555454580000457C41E6
:1003A0000002457D420001457C407D1211127DF026
:1003B000282528F07C545545002054547C547C0A50
:1003C000097F4932494949323A4444443A324A4819
:1003D00048303A4141217A3A42402078009DA0A01D
:1003E0007D3D4242423D3D4040403D3C24FF24246F
:1003F000487E4943662B2FFC2F2BFF0929F620C08E
:10040000887E090320545479410000447D413048DE
:10041000484A32384040227A007A0A0A727D0D1921
:10042000317D2629292F28262929292630484D4083
:1004300020380808080808080808382F10C8ACBA7F
:100440002F102834FA00007B000008142A142222FE
:10045000142A14085500550055AA55AA55AAFF5547
:10046000FF55FF000000FF00101010FF00141414CF
:10047000FF001010FF00FF1010F010F0141414FC17
:10048000001414F700FF0000FF00FF1414F404FC34
:10049000141417101F10101F101F1414141F001015
:1004A0001010F0000000001F101010101F1010108E
:1004B00010F010000000FF1010101010101010109D
:1004C000FF10000000FF140000FF00FF00001F10DD
:1004D000170000FC04F414141710171414F404F497
:1004E0000000FF00F714141414141414F700F71488
:1004F0001414171410101F101F141414F4141010D7
:10050000F010F000001F101F0000001F140000007A
:10051000FC140000F010F01010FF10FF141414FF72
:10052000141010101F00000000F010FFFFFFFFFF6D
:10053000F0F0F0F0F0FFFFFF0000000000FFFF0F01
:100540000F0F0F0F3844443844FC4A4A4A347E02A5
:10055000020606027E027E02635549416338444426
:100560003C04407E201E2006027E020299A5E7A5DB
:10057000991C2A492A1C4C7201724C304A4D4D304C
:100580003048784830BC625A463D3E494949007E71
:100590000101017E2A2A2A2A2A44445F4444405108
:1005A0004A444040444A51400000FF0103E080FFBC
:1005B000000008086B6B083612362436060F090F48
:1005C00006000018180000001010003040FF010164
:1005D000001F01011E00191D1712003C3C3C3C008D
:1005E0000000000000002100240027002A002D0048
:1005F0003000330001010000040107010A0100007E
:100600000A0B02090C0D0E0807030401000000008C
:1006100000000000000000000000000000000000DA
:100620000000000000000000000012111000000097
:1006300000000000000000000000000000000000BA
:100640000000000011007F96290001007F9628001D
:100650003A0155F603010100CF03008130ED046437
:10066000031281E803851078CB05392C003402F79A
:100670000120EA020000B00100B102001BB4010039
:10068000C00121C10111C5023F3CC701B536014877
:10069000F20100260101E00F0F26240B0E0954A8D9
:1006A000460C17090F0700E10F00191B0410072A59
:1006B000473903060630380F0000220025002800C5
:1006C0002B002E003100340002010000050108015A
:1006D0000B0101021020200808102040102040804B
:1006E00002010201080402010102040810204080F6
:1006F0008040201008040201800402018040201084
:1007000008040201080402010102040810204080CC
:1007100001020408102040800505050507050808AA
:100720000808020202020A0A08080404040401017B
:100730000101010101010303030303030303040790
:1007400007070C0C0C0C0C0C0C0C02020202060627
:100750000606060606060B0B0B0B0B0B0B0BD31832
:1007600011241FBECFEFD1E2DEBFCDBF00E00CBF32
:1007700013E0A0E0B2E0EEEAF9E400E00BBF02C053
:1007800007900D92A038B107D9F725E0A0E8B3E0B3
:1007900001C01D92A434B207E1F713E0C0EBD3E02F
:1007A00000E006C021970109802FFE010E94BA24B3
:1007B000CF3AD10780E00807A9F70E944E190C94A0
:1007C000D5241ECCE4E0F4E0A089B18982E08C93CA
:1007D000A485B5851C92A685B7858FEC8C93108E69
:1007E000A489B58986E08C93A289B3898C918061B4
:1007F0008C93A289B3898C9188608C93A289B389E8
:100800008C9180688C930288F389E02D80818F7DA4
:1008100080830895AF92BF92CF92DF92EF92FF92C2
:100820000F931F93CF93DF936C017B018B01040F18
:10083000151FEB015E01AE18BF08C017D10759F0B4
:100840006991D601ED91FC910190F081E02DC601F6
:100850001995892B79F7C501DF91CF911F910F91E0
:10086000FF90EF90DF90CF90BF90AF9008950895E4
:10087000FC01538D448D252F30E0842F90E0821BA6
:10088000930B541710F0CF96089501970895FC012B
:10089000918D828D981761F0A28DAE0FBF2FB11D83
:1008A0005D968C91928D9F5F9F73928F90E00895DB
:1008B0008FEF9FEF0895FC01918D828D981731F095
:1008C000828DE80FF11D858D90E008958FEF9FEFE9
:1008D0000895FC01918D228D892F90E0805C9F4FBF
:1008E000821B91098F739927089584E094E0F1DFCA
:1008F00021E0892B09F420E0822F0895FC01A48DCA
:10090000A80FB92FB11DA35ABF4F2C91848D90E031
:1009100001968F739927848FA689B7892C93A08914
:10092000B1898C91837080648C93938D848D98139E
:1009300006C00288F389E02D80818F7D8083089531
:10094000EF92FF920F931F93CF93DF93EC0181E01F
:10095000888F9B8D8C8D98131AC0E889F9898081C6
:1009600085FF15C09FB7F894EE89FF896083E889F9
:10097000F98980818370806480839FBF81E090E0EB
:10098000DF91CF911F910F91FF90EF900895F62E78
:100990000B8D10E00F5F1F4F0F731127E02E8C8D12
:1009A0008E110BC00FB607FCFACFE889F989808158
:1009B00085FFF5CFCE01A2DFF2CFEB8DEC0FFD2F3F
:1009C000F11DE35AFF4FF0829FB7F8940B8FEA892D
:1009D000FB8980818062D0CFCF93DF93EC01888D3B
:1009E0008823B1F0AA89BB89E889F9898C9185FDB2
:1009F00003C0808186FD0CC00FB607FCF7CF8C9139
:100A000085FFF2CF808185FFEDCFCE0177DFEACF82
:100A1000DF91CF91089580E090E0892B21F065DF90
:100A200081110E94000080E090E0892B49F080E075
:100A300090E0892B29F00E94000081110E940000A3
:100A400080E090E0892B49F080E090E0892B29F04C
:100A50000E94000081110E94000080E090E0892B3C
:100A600049F080E090E0892B29F00E94000081117C
:100A70000C9400000895282F30E0F901E250FA4F5D
:100A80009491F901EE52F94F4491285E384FF901E3
:100A90002491222309F435C0992311F19150923108
:100AA000F8F4E92FF0E08827E75AFA4F8F4F0C94BB
:100AB000BA248A058E056B058205860570059105A9
:100AC00097059B05A105A505A905AF05B30570050B
:100AD000B705BD05C105809180008F7780938000A8
:100AE000E22FF0E0EE0FFF1FE854F94FA591B4910B
:100AF0008FB7F894EC91611148C040954E234C9308
:100B00008FBF0895809180008F7DE8CF8091800015
:100B1000877FE4CF84B58F7784BDE2CF84B58F7DA6
:100B2000FBCF8091B0008F778093B000D9CF8091B8
:100B3000B0008F7DF9CF809190008F7780939000E7
:100B4000CFCF809190008F7DF9CF80919000877FEB
:100B5000F5CF8091A0008F778093A000C1CF8091C6
:100B6000A0008F7DF9CF8091A000877FF5CF809185
:100B700020018F7780932001B3CF809120018F7D5A
:100B8000F9CF80912001877FF5CF4E2BB8CFCF933F
:100B9000DF9390E0FC01EE52F94F2491885E984F6C
:100BA000FC0184918823D1F090E0880F991FFC010B
:100BB000EC51FA4FA591B491FC01E854F94FC5915D
:100BC000D49161110EC09FB7F8948C91E22FE095FB
:100BD0008E238C932881E223E8839FBFDF91CF91FE
:100BE00008958FB7F894EC91E22BEC938FBFF6CF7A
:100BF000863308F0865320917B00982F9870277FCA
:100C0000922B90937B008770806480937C0080910E
:100C10007A00806480937A0080917A0086FDFCCF10
:100C2000809178009091790008953FB7F894809171
:100C3000F6039091F703A091F803B091F90326B55C
:100C4000A89B05C02F3F19F00196A11DB11D3FBF04
:100C5000BA2FA92F982F8827BC01CD01620F711DD3
:100C6000811D911D42E0660F771F881F991F4A95CD
:100C7000D1F708958F929F92AF92BF92CF92DF9259
:100C8000EF92FF926B017C01D0DF4B015C01C1143C
:100C9000D104E104F104B1F0C8DF681979098A09C7
:100CA0009B09683E73408105910588F321E0C21AD3
:100CB000D108E108F10888EE880E83E0981EA11C97
:100CC000B11CE5CFFF90EF90DF90CF90BF90AF9039
:100CD0009F908F9008952FB7F8946091F2037091D0
:100CE000F3038091F4039091F5032FBF08952091B1
:100CF000A703260F3327331F21323105ECF420914F
:100D0000CB03FC0190E080E0243069F082E008959C
:100D1000A091A7032191AC0149575C4FA40FB52FB7
:100D2000B11D2C930196861798F38091A703680F45
:100D30006093A70380E0089581E008958FEF9FEF0F
:100D400008958FEF9FEF08958091800390E0919533
:100D5000819591090895CF93DF93CB01EA01642F28
:100D6000C6DFCE01DF91CF910895CF93DF931F921D
:100D7000CDB7DEB7698361E0CE010196B8DF81E0CF
:100D800090E00F90DF91CF9108950F931F93CF9331
:100D9000DF93EC018B01FE018491319664912296E0
:100DA0008F3791F470E090E080E064DF60E070E005
:100DB0006E5F7F4F061B170B1016110664F3DF9151
:100DC000CF911F910F9108958B988A98909102016D
:100DD000977890930201A5989EB1977C9EB9409117
:100DE000020190E09C0155E0220F331F5A95E1F774
:100DF0002076242B209302014EB19C01220F331F39
:100E0000220F331F2073242B2EB944B39C01220FD1
:100E1000331F2072242B24BB4EB19C01359527959E
:100E2000359527952870242B2EB920910201A3E037
:100E300095958795AA95E1F78871822B8093020199
:100E40008998899A50E040E0461708F045C0FE01B5
:100E5000E40FF51FE4918A9A8091020187788093CC
:100E60000201A5988EB1877C8EB9709102018E2FF8
:100E700090E09C01E5E0220F331FEA95E1F7207630
:100E8000272B209302017EB19C01220F331F220FDA
:100E9000331F2073272B2EB974B39C01220F331FED
:100EA0002072272B24BB7EB19C0135952795359563
:100EB00027952870272B2EB9E091020123E0959504
:100EC00087952A95E1F788718E2B80930201899886
:100ED000899A4F5F5F4FB8CFC60FD11D8B9A67CFEE
:100EE0008B988A9820910201277820930201A59877
:100EF0002EB1277C2EB970910201292F30E0F90123
:100F0000A5E0EE0FFF1FAA95E1F7E076E72BE0934F
:100F100002017EB1F901EE0FFF1FEE0FFF1FE0731C
:100F2000E72BEEB974B3F901EE0FFF1FE072E72B68
:100F3000E4BB7EB1F901F595E795F595E795E87085
:100F4000E72BEEB970910201E3E035952795EA951C
:100F5000E1F72871272B209302018998899A209123
:100F60000201277820930201A5982EB1277C2EB983
:100F7000709102019C01F5E0880F991FFA95E1F745
:100F80008076872B809302017EB1C901880F991F5B
:100F9000880F991F8073872B8EB974B3C901880F8E
:100FA000991F8072872B84BB7EB1C9019595879567
:100FB000959587958870872B8EB980910201F3E013
:100FC00035952795FA95E1F72871282B2093020192
:100FD0008998899A8A9AFA01615008F43EC08191F1
:100FE00090910201977890930201A5989EB1977C09
:100FF0009EB94091020190E09C0155E0220F331F01
:101000005A95E1F72076242B209302014EB19C01E2
:10101000220F331F220F331F2073242B2EB944B30A
:101020009C01220F331F2072242B24BB4EB19C0144
:1010300035952795359527952870242B2EB9209125
:10104000020133E0959587953A95E1F78871822BF7
:10105000809302018998899ABFCF8B9A08958B98C3
:101060008A98E2E0F1E0208127782083A5982EB1CC
:10107000277C2EB9A081292F30E0A901B5E0440FCB
:10108000551FBA95E1F740764A2B4083AEB1A901CE
:10109000440F551F440F551F40734A2B4EB9A4B33C
:1010A000A901440F551F40724A2B44BBAEB1A901A0
:1010B000559547955595479548704A2B4EB94081AF
:1010C00053E0359527955A95E1F72871242B208315
:1010D0008998899A208127782083A5982EB1277C2A
:1010E0002EB940819C01A5E0880F991FAA95E1F7D0
:1010F0008076842B80834EB1C901880F991F880F99
:10110000991F8073842B8EB944B3C901880F991F2E
:101110008072842B84BB4EB1C901959587959595B6
:1011200087958870842B8EB98081B3E0359527959B
:10113000BA95E1F72871282B20838998899A8A9A91
:10114000808187788083A5988EB1877C8EB9408115
:10115000872F90E09C0155E0220F331F5A95E1F74D
:101160002076242B20834EB19C01220F331F220FA7
:10117000331F2073242B2EB944B39C01220F331F3D
:101180002072242B24BB4EB19C01359527953595B3
:1011900027952870242B2EB92081A3E0959587955B
:1011A000AA95E1F78871822B80838998899A80813A
:1011B00087788083A5988EB1877C8EB94081CB01DA
:1011C0009B01B5E0220F331FBA95E1F72076242B5F
:1011D00020834EB19B01220F331F220F331F207338
:1011E000242B2EB944B39B01220F331F2072242BD2
:1011F00024BB4EB19C0135952795359527952870D0
:10120000242B2EB92081A3E095958795AA95E1F727
:101210008871822B80838998899A8B9A0895E1E05E
:10122000F1E08081886780839D9A8DB188638DB954
:10123000809A819A829A839A849A8B9A889A899AB8
:101240008C9A62E370E080E090E014DD8C9864E6B4
:1012500070E080E090E00EDD8C9A64E670E080E063
:1012600090E008DD70E060E080EB90E0F8CE0F9356
:101270001F93CF93DF93EC018B01FE018591949135
:10128000FE0132962496659174918F3F980769F418
:1012900090E080E0EFDC04501109101611066CF3A9
:1012A000DF91CF911F910F910895D9DEF4CFFC010A
:1012B000262F358D868D82958170982F9627692FE0
:1012C00070E072A361A330FF0BC0821306C080E2FE
:1012D00090E050E040E060E003CE81E290E0F9CFA2
:1012E000878D90A1833927E7920741F058F4843520
:1012F00021E0920791F080329445B9F4626081E078
:1013000094E012C0863223E99207C1F3893025EBBD
:101310009207A1F38532924941F4660F771F660F59
:10132000771F636187E090E09ACE81E690E0FCCF82
:101330008F929F92AF92BF92CF92DF92EF92FF92E5
:101340000F931F93CF93DF9300D01F92CDB7DEB7DB
:101350007C014B015A016901FC01878D90A1873204
:10136000F3E99F0709F03EC0F7018689823089F5CD
:10137000F0E2AF0EB11C005E1F4FF701858D80FFBC
:1013800048C085A599828A82DB82CC82AE014F5FFC
:101390005F4F64E090E0A4DDF70181A9B982AA82E1
:1013A0001B830C83AE014F5F5F4F64E090E098DDDC
:1013B0000F900F900F900F90DF91CF911F910F9191
:1013C000FF90EF90DF90CF90BF90AF909F908F9065
:1013D0000895833091F620E2820E911C80E2C80EBF
:1013E000D11CCBCF8632954141F6F701868980FF2B
:1013F000C4CFC801841B950B19F40F5F1F4FBDCFDD
:101400006217730709F0B9CF6B01C80ED91E8A01A4
:10141000B4CFB40187A190A522DEB501F70181A563
:1014200092A51DDEC814D90421F40A151B0509F480
:10143000BFCFF701858D85FF08C0868980FF1AC060
:10144000102F0027A02AB12A8501B401F70185A534
:1014500096A505DEB501F70181A992A900DEB601C6
:10146000F70187A590A9FBDDB801F70183A994A92D
:10147000F6DD9ECFDC2CCC248C289D286401E5CFA2
:10148000AF92BF92CF92DF92EF92FF920F931F9392
:10149000CF93DF93EC018091FA03882349F0C701D1
:1014A000880F991F8E739927E1ECEE22E82AF92A1A
:1014B00037FF05C0620F731F319521953109260F43
:1014C000371F77FF02C070E060E088859985281794
:1014D00039070CF4C9016C01C61AD70A17FF05C0F9
:1014E000400F511F119501951109040F151F57FF4A
:1014F00002C050E040E02A853B85021713070CF438
:1015000098015901A41AB50A8901015011099C01D9
:1015100021503109CE010CDF8B988A985BA54CA530
:1015200080910201877880930201A5988EB1877C13
:101530008EB960910201842F90E09C01F5E0220FAA
:10154000331FFA95E1F72076262B209302016EB126
:101550009C01220F331F220F331F2073262B2EB91D
:1015600064B39C01220F331F2072262B24BB6EB163
:101570009C0135952795359527952870262B2EB9F2
:101580002091020103E0959587950A95E1F788710E
:10159000822B809302018998899A80910201877831
:1015A00080930201A5988EB1877C8EB9609102016B
:1015B000852F942F9C0145E0220F331F4A95E1F7B8
:1015C0002076262B209302014EB19C01220F331F5F
:1015D000220F331F2073242B2EB944B39C01220FFA
:1015E000331F2072242B24BB4EB19C0135952795C7
:1015F000359527952870242B2EB920910201E3E020
:1016000095958795EA95E1F78871822B8093020181
:101610008998899A8A9ACA14DB042CF09A2D8B2D0A
:101620005601C92ED82E8F2D99279C0145E0220FF7
:10163000331F4A95E1F72076AC01440F551F440F44
:10164000551F342F3073AC01440F551F4072BC013D
:101650007595679575956795562F5870F3E0959534
:101660008795FA95E1F78871B701A5E0660F771FB6
:10167000AA95E1F7962F9076B701660F771F660F50
:10168000771F6073F701EE0FFF1F7E2F7072D70177
:10169000B595A795B595A795A870E3E0F594E7945F
:1016A000EA95E1F7EE2DE871EE2E1C141D040CF006
:1016B00043C0F501B0910201B778B0930201A5983B
:1016C000BEB1B77CBEB9B0910201B22BB09302019A
:1016D000BEB1B32BBEB9B4B3B42BB4BBBEB1B52B42
:1016E000BEB9B0910201B82BB09302018998899AD2
:1016F000B0910201B778B0930201A598BEB1B77C52
:10170000BEB9B0910201B92BB0930201BEB1B62BA4
:10171000BEB9B4B3B72BB4BBBEB1BA2BBEB9B0918E
:101720000201BE29B09302018998899A319711F676
:10173000E1E0CE1AD108B9CF8B9A8D8D80FF08C019
:101740008F8D98A18632954189F48E8980FF0EC0D5
:101750000A851B85015011092885398521503109D9
:1017600050E040E070E060E0CE01E2DDDF91CF913B
:101770001F910F91FF90EF90DF90CF90BF90AF90AF
:101780000895EF92FF920F931F93CF93DF937C0105
:10179000E90177FD28C057FD26C0FC0180859185B1
:1017A0006817790704F58285938548175907DCF493
:1017B0008091FA03882341F0C901880F991F8E7325
:1017C0009927C17CC82BD92B8A019B01C701B0DDA9
:1017D000BE01F70183A594A5DF91CF911F910F91D1
:1017E000FF90EF903CCCDF91CF911F910F91FF9034
:1017F000EF900895EF92FF920F931F93CF93DF9393
:1018000000D000D000D01F92CDB7DEB77C01862F6C
:101810008370F701868B962F917060FFEBC0268155
:101820003781F70131872087992309F4E6C02481A5
:101830003581F70133872287823009F4E3C0833092
:1018400009F4E2C0813009F4DBC088E48A87F7013B
:10185000258D368D30FF03C08A8580588A8731FFF9
:1018600004C08A8590E489278A8733FF04C08A856B
:1018700098E089278A87F701878D90A120FFF4C01F
:101880008431F8E69F0709F0C1C09A85892F8872D4
:101890008A871F82892F85958074282F2260892F3F
:1018A00090E09595879580729927822B88878BE3A6
:1018B0008987AE01495F5F4F63E086EB90E010DB04
:1018C0002AE230E0F70130A727A38BE290E092A74D
:1018D00081A74CE250E054A743A736A725A730AB19
:1018E00027A792AB81AB94AB83ABAE01465F5F4F52
:1018F00061E086E390E0F4DA8A8590E0F70194A352
:1019000083A3F701868980FF1CC0858D968D92FD8B
:1019100018C087A190A521A532A530A727A392A71B
:1019200081A785A596A521A932A936A725A792AB9F
:1019300081AB87A590A923A934A930AB27A794AB85
:1019400083ABF7010285138501501109208531858C
:101950002150310950E040E070E060E0C701E8DC70
:10196000F70166817781878D90A110E000E020E08B
:101970008732F3E99F0769F4F7012689225010E0C6
:1019800000E0223010F400E210E020E230E0201B02
:10199000310BF701458D40FF20C119820A837B83FB
:1019A0006C831D822E83AE014F5F5F4F66E083E341
:1019B00090E096DA19820A83AE014F5F5F4F62E0D2
:1019C00087E390E08DDAF701858D80FF06C050E057
:1019D00040E060E083E190E083DA2A960FB6F89465
:1019E000DEBF0FBECDBFDF91CF911F910F91FF9052
:1019F000EF9008952481358114CF2681378119CF46
:101A000088E224CF88E922CF88EF20CF833629E1EE
:101A1000920749F0813834E9930729F08131E5E1F3
:101A20009E0709F04DCF2A8527FF02C021602A8733
:101A30002A8526FF02C022602A878336F9E19F07A4
:101A400021F48A858F738A873BCF813824E99207F6
:101A500019F48A858F72F7CF8131954109F030CF23
:101A60008A858F7E806CEFCF2A85622F022E000C34
:101A7000770B8339F7E79F0761F008F041C08435A1
:101A8000E1E09E0709F468C08032F4E59F0709F0A1
:101A900040C020E032E0F70130A727A321E032E088
:101AA00032A721A722E032E034A723A720E132E0C9
:101AB00036A725A721E132E030AB27A722E132E0AB
:101AC00032AB21AB23E132E034AB23AB6627707835
:101AD0008632F3E99F0709F47DC08032944509F40A
:101AE00079C080E09AE6682B792B80E094E0B7DA41
:101AF0006A85F4E06F9FB00111246627717054C0AD
:101B0000863223E9920729F2893035EB930709F4ED
:101B1000C0CF80E290E0F70190A787A381E290E038
:101B200092A781A782E290E094A783A780E590E046
:101B300096A785A781E590E090AB87A782E590E026
:101B400092AB81AB83E590E094AB83AB6627707872
:101B5000776280E690E0CBCF87E390E0F70196A72D
:101B600085A786E390E090AB87A789E390E092ABEE
:101B700081AB88E390E094AB83AB80E290E090A7E8
:101B800087A381E290E092A781A782E290E094A7E8
:101B900083A7662772706862F4E02F9FC00111244A
:101BA00088279170682B792B81E090E058DA8A853C
:101BB000682F70E0759567957595679568707727BC
:101BC00083FD70616063F70174A363A383E090E019
:101BD00046DA97CE80E095E386CF8339F7E79F0713
:101BE000B9F1E0F4803234E5930791F18338E7E707
:101BF0009E0721F184359140E1F4600F711F61501F
:101C0000710981E390E02BDAB80182E390E027DAF2
:101C100070E060E083E390E022DADFCE863223E9F1
:101C20009207B1F0893035EB930791F085329249F4
:101C300021F3F70161A172A1626003C0F70161A104
:101C400072A181E690E00BDAB8018AE690E0E4CF79
:101C5000F70161A172A1626081E094E000DAB8014D
:101C600084E094E0D9CFEF92FF920F931F93DC01B1
:101C7000ED91FC9100A0F1A1E02D780101E010E0D0
:101C800019951F910F91FF90EF900895EF92FF9299
:101C90000F931F93DC01ED91FC9100A0F1A1E02DC9
:101CA0007801890121E030E019951F910F91FF9093
:101CB000EF9008950895FC016370668B848195818F
:101CC00026813781613039F0633029F09187808730
:101CD00033872287089531872087938782870895E5
:101CE0002F923F924F925F926F927F928F929F922C
:101CF000AF92BF92CF92DF92EF92FF920F931F931A
:101D0000CF93DF93CDB7DEB76A970FB6F894DEBFF7
:101D10000FBECDBF9A8F898F7A8369834A01D22EF5
:101D200018870F833701BC2CDC0159962D913C910B
:101D30005A972115310509F015C118968D919C917E
:101D40001997681779070CF0D7C11A968D919C9155
:101D5000481759070CF0D0C14C2C512CB6E0CB9E43
:101D6000600D711D11247C876B87161617060CF009
:101D7000C3C1EA2DF0E0FA87E98793E0EE0FFF1F79
:101D80009A95E1F7F88BEF87CF01840F951F18160E
:101D900019060CF0B1C1A98DBA8D58968C9181119C
:101DA00004C0BFEABD1508F4D394A98DBA8DED9196
:101DB000FC9111970284F385E02DCD011995B5E0D2
:101DC000DB9EC0011124E981FA81FC83EB83312C75
:101DD000212C9C012C513F4F388F2F8B4A2D50E0E6
:101DE0005E8B4D8BEF89F88DE20DF31D44919E8241
:101DF0008D82D12CC12C69817A81620D731D7A8B01
:101E0000698B842F90E09C8B8B8BE98DFA8DA08160
:101E1000B18140FF82C0F1E0BF126FC0AF126DC050
:101E20001C96ED91FC912F813885A4014C0D5D1D10
:101E300069897A89898D9A8D1995EB89FC89F5953F
:101E4000E7954E2F5FEFC51AD50A6D817E818D898A
:101E50009E89680F791F7E836D8398E0C916D1042F
:101E600081F6AFEF2A1A3A0AEB81FC81E40DF51DE9
:101E7000FC83EB83F5E02F16310409F0B3CF2F81FB
:101E8000388526153705B9F0A98DBA8DED91FC91ED
:101E9000B1E0BB1257C0AB1255C069817A816B5F4C
:101EA0007F4F0088F189E02D830128E030E0A40114
:101EB000898D9A8D1995A98DBA8DED91FC91119707
:101EC0000688F789E02DCD016A960FB6F894DEBF3B
:101ED0000FBECDBFDF91CF911F910F91FF90EF907B
:101EE000DF90CF90BF90AF909F908F907F906F903A
:101EF0005F904F903F902F9019941E96ED91FC911A
:101F0000EF80F88409851A8592014D815E816B818D
:101F10007C81898D9A8D199590CF2F8138852615D2
:101F2000370509F48ACF31E0B31207C0A31205C008
:101F30001C96ED91FC91930178CF1E96ED91FC914A
:101F40007301E0CF6B857C85641975090684F7857C
:101F5000E02D73010F8518899201A401898D9A8D56
:101F60001995A9CFF90134969491329745915491DE
:101F7000D91AB7E0DB9E400D511D1124F9012591BE
:101F800034913C8B2B8BFA0125903490FA013296D8
:101F9000749031963491398B329664903196449096
:101FA00041E04C1518F04A1508F07FC0662D062C4C
:101FB000000C770B7C836B83842D042C000C990B15
:101FC0009E838D83A98DBA8DED91FC91119702842A
:101FD000F385E02DCD011995512CD12CC12CEA2D82
:101FE000F0E0FA87E9872B2D30E03C872B87A401AE
:101FF000440D511D47FC5A95588F4F8B69817A814A
:10200000660D711D67FC7A957E876D877989C71685
:1020100008F051CF2C2D30E04D815E81420F531FCF
:10202000A985BA854A9FC0014B9F900D5A9F900D7C
:102030001124FC01E80DF91DF88BEF87852D612C2B
:102040004F89588D420F531F5E8B4D8B671408F0DC
:1020500050C044244394480E877041F4C101019656
:10206000EB89FC89E20DF31DD4901C01D7FE19C049
:10207000A98DBA8DED91FC91662D70E0B1E0BB1297
:1020800019C0AB1217C02D853E85620F731F0484E3
:10209000F585E02D2F8138854D895E89898D9A8D52
:1020A0001995DD0C6394842DD1CF1E821D821C8274
:1020B0001B8288CF4B815C81640F751FAB85BC850B
:1020C0006A9FC0016B9F900D7A9F900D11246981CA
:1020D0007A81680F791F0684F785E02DEF80F884F8
:1020E00009851A859D014F855889898D9A8D199585
:1020F000D8CF570CC3948ACF6A960FB6F894DEBF38
:102100000FBECDBFDF91CF911F910F91FF90EF9048
:10211000DF90CF90BF90AF909F908F907F906F9007
:102120005F904F903F902F9008958F929F92AF9223
:10213000CF92EF92FF920F931F93CF93DF93EC0117
:10214000262F898D9A8D009709F050C06A30D1F4FE
:102150001D861C868D8948E0849F900111248E8500
:102160009F85820F931F9F878E8781E090E0DF918C
:10217000CF911F910F91FF90EF90CF90AF909F90D4
:102180008F9008956D3089F3CC88AD888F8988232E
:10219000C1F08C859D8536E0C39E800D911D112474
:1021A000488559854817590764F44E855F851D8613
:1021B0001C8638E0A39EC0011124840F951F9F87C1
:1021C0008E87EA88FB88088919894E855F856C852A
:1021D0007D85CE0185DD2C898C859D8546E0249FFB
:1021E000800D911D11249D878C87BFCF6A3069F4C3
:1021F0001D861C86FC013896E4912D898E859F856D
:10220000E29F800D911D1124AECF6D3009F4ADCF4A
:10221000FC0134963491631708F4A7CF3296E49109
:10222000E61708F4A2CFFC01329685909490462FD1
:10223000431B342F47E0349F800C911C1124F40180
:10224000329634913196E4913323A1F1EE2391F14A
:10225000CC88F4013596E491AD884F89442301F18F
:102260000E2E000CFF0BE30FF11DCE9EA001CF9EA2
:10227000500D11246C857D85460F571F6885798523
:10228000641775076CF44E855F851D861C86FC01FE
:102290003896E491AE9E400D511D11245F874E8704
:1022A000EA88FB88088919894E855F856C857D855C
:1022B000CE0116DDF4013496E4912C898C859D8540
:1022C000E29F800D911D11248ECF6F927F928F928D
:1022D0009F92AF92BF92CF92DF92EF92FF920F93B5
:1022E0001F93CF93DF93EC016B015A013901480131
:1022F000E881F9810284F385E02D1995E881F9815F
:102300000288F389E02D87019301A501B601CE0172
:102310001995A501480D591D41505109E881F981D0
:102320000288F389E02D9301B601CE011995E88169
:10233000F9810088F189E02D9401A501B601CE0153
:102340001995C60CD71CB60161507109E881F98155
:102350000088F189E02D9401A501CE011995E8814D
:10236000F9810688F789E02DCE01DF91CF911F9189
:102370000F91FF90EF90DF90CF90BF90AF909F9024
:102380008F907F906F9019942F923F924F925F920F
:102390006F927F928F929F92AF92BF92CF92DF9275
:1023A000EF92FF920F931F93CF93DF93CDB7DEB7DA
:1023B0002D970FB6F894DEBF0FBECDBF5C011B0199
:1023C00058874F833D872C870987FC82EB82360133
:1023D00081E090E06C01C21AD30AC9019195819500
:1023E00091099C01220F331F3A832983C70101966B
:1023F0009E838D83F12CE12C44244394512CDA01EB
:102400001196BB87AA872C853D85E216F3060CF052
:1024100070C08C849D84D7FC0BC0490131E0831AC5
:10242000910889819A8102969A838983C80ED91E60
:102430009FEFE91AF90AA2E04A0E511CC40CD51C00
:102440008E149F0444F42C853D8528153905F1F43C
:102450009D868C86D8CF9401220F331F4F815885DB
:1024600048195909D501ED91FC91B9858D819E815D
:10247000280F391F0088F189E02D8301B101B130A7
:1024800009F56E0D7F1DC5011995DDCF9985913038
:1024900019F5920122503109AB81BC812A0F3B1FF3
:1024A0006C857D85620D731DD501ED91FC910088D1
:1024B000F189E02D83014A855B854E195F09C501CD
:1024C0001995C6CF6E197F09C5011995AC85BD85D3
:1024D000A815B90509F4BCCF9201225031098B81AE
:1024E0009C81280F391FB101AC85BD856A1B7B0B10
:1024F000DBCF2D960FB6F894DEBF0FBECDBFDF91B8
:10250000CF911F910F91FF90EF90DF90CF90BF90F0
:10251000AF909F908F907F906F905F904F903F9083
:102520002F9008952F923F924F925F926F927F92D9
:102530008F929F92AF92BF92CF92DF92EF92FF92D3
:102540000F931F93CF93DF9300D000D0CDB7DEB7AA
:102550009E838D834B013A016901802F21E030E099
:1025600029014C185D08222433242C183D08220C24
:10257000331CB12CA12C01E010E0982F94709983AA
:10258000A82FA270AA83B82FB870BB8381708C83E8
:10259000AC14BD040CF0A7C057FC08C081E0C81AF9
:1025A000D10892E0290E311C420C531CAFEFAA1A3D
:1025B000BA0A0E5F1F4F400E511EB981BB2311F1A5
:1025C000AD81BE81ED91FC9111970484F585E02DDC
:1025D0009701A601460D571DB4016A0D7B1DCD0163
:1025E0001995AD81BE81ED91FC9111970484F5851B
:1025F000E02D9701A3014A0D5B1DB601680D791D01
:10260000CD011995BA81BB2311F1AD81BE81ED9148
:10261000FC9111970484F585E02D9701A3014C19D5
:102620005D09B4016A0D7B1DCD011995AD81BE8197
:10263000ED91FC9111970484F585E02D9701A3019C
:102640004A195B09B601680D791DCD011995BB8149
:10265000BB2311F1AD81BE81ED91FC9111970484F2
:10266000F585E02D9701A3014A0D5B1DB4016C199E
:102670007D09CD011995AD81BE81ED91FC91119738
:102680000484F585E02D9701A601460D571DB40180
:102690006A197B09CD011995BC81BB2309F478CF58
:1026A000AD81BE81ED91FC9111970484F585E02DFB
:1026B0009701A3014A195B09B4016C197D09CD0189
:1026C0001995AD81BE81ED91FC9111970484F5853A
:1026D000E02D9701A3014C195D09B4016A197B092A
:1026E000CD01199555CF26960FB6F894DEBF0FBED3
:1026F000CDBFDF91CF911F910F91FF90EF90DF90B1
:10270000CF90BF90AF909F908F907F906F905F9091
:102710004F903F902F9008956F927F928F929F924B
:10272000AF92BF92CF92DF92EF92FF920F931F93DF
:10273000CF93DF935C01EB016A0149013801870106
:10274000DC01ED91FC916217730719F564167506AB
:102750002CF0962D872D3A01C92ED82E96012619D8
:1027600037092F5F3F4F048CF58DE02DA301BE018B
:10277000C5011995DF91CF911F910F91FF90EF90B7
:10278000DF90CF90BF90AF909F908F907F906F9091
:1027900008954615570591F42617370724F0892D1B
:1027A0004B01C22FD82F9E01281939092F5F3F4FA7
:1027B000068CF78DE02DA601B401DACF0284F385F3
:1027C000E02D1995D501ED91FC910488F589E02D56
:1027D00083019401A601BE01C5011995D501ED91B2
:1027E000FC910688F789E02DC501DF91CF911F91FB
:1027F0000F91FF90EF90DF90CF90BF90AF909F90A0
:102800008F907F906F901994EF92FF920F931F9388
:10281000DC011A960D911C911B9718962D913C91F5
:102820001997ED91FC9100A0F1A1E02D7B0150E002
:1028300040E070E060E019951F910F91FF90EF90DC
:1028400008954F925F926F927F928F929F92AF9274
:10285000BF92CF92DF92EF92FF920F931F93CF938D
:10286000DF936C012B015A0139014801DC01ED9124
:10287000FC910284F385E02D1995E201640C751C2E
:10288000D601ED91FC91C615D7055CF40088F1895D
:10289000E02D87019401A501BE01C601199521967D
:1028A000EFCF0688F789E02DC601DF91CF911F9108
:1028B0000F91FF90EF90DF90CF90BF90AF909F90DF
:1028C0008F907F906F905F904F9019948F929F920E
:1028D000AF92BF92CF92DF92EF92FF920F931F932E
:1028E000CF93DF93EC015B014A016901E881F98133
:1028F0000284F385E02D199595012C0D3D1D215085
:102900003109E881F9810488F589E02D7801840195
:10291000A401B501CE011995E881F9810688F789EE
:10292000E02DCE01DF91CF911F910F91FF90EF909D
:10293000DF90CF90BF90AF909F908F9019948F921F
:102940009F92AF92BF92CF92DF92EF92FF920F933E
:102950001F93CF93DF93EC015B014A01690178017A
:10296000E881F9810284F385E02D1995C80CD91C02
:10297000860101501109E881F9810488F589E02D6B
:102980009501A401B501CE011995E881F981068868
:10299000F789E02DCE01DF91CF911F910F91FF902C
:1029A000EF90DF90CF90BF90AF909F908F90199451
:1029B000EF92FF920F931F93DC01ED91FC9100A029
:1029C000F1A1E02D19951F910F91FF90EF900895BF
:1029D0000F931F93DC01ED91FC91068CF78DE02D98
:1029E00019951F910F9108950F931F93DC01ED919D
:1029F000FC91048CF58DE02D19951F910F91089590
:102A0000DC01ED91FC910084F185E02D19942F9269
:102A10003F924F925F926F927F928F929F92AF926E
:102A2000BF92CF92DF92EF92FF920F931F93CF93BB
:102A3000DF9300D000D0CDB7DEB73C016A013E8302
:102A40002D83FC82EB825801A41AB50AB7FE03C09D
:102A5000B194A194B1088D809E80861A970A97FE42
:102A600003C09194819491088A149B045CF0902F88
:102A7000812F0D811E819D838E839C2D8D2D6B0159
:102A8000692F782F0C151D055CF09D818E817E834A
:102A90006D83692F782F902F812F8601C92ED82E14
:102AA0001601201A310A2B012D813E81421A530A48
:102AB00057FE03C0519441945108710137FE03C081
:102AC0003FEFE31AF30AF594E7948D819E81861710
:102AD00097075CF5A1E0B0E0BA83A983C016D106E0
:102AE0004CF1D301ED91FC910484F585E02D2B810F
:102AF0003C81A8016D817E818A149B041CF04D816C
:102B00005E81B801C3011995E418F508F7FE0AC003
:102B10002D813E8189819A81280F391F3E832D8323
:102B2000E20CF31C0F5F1F4FD9CF2FEF3FEF3A831B
:102B30002983D4CF26960FB6F894DEBF0FBECDBF43
:102B4000DF91CF911F910F91FF90EF90DF90CF9089
:102B5000BF90AF909F908F907F906F905F904F90BD
:102B60003F902F900895089590E080E00895EF92AF
:102B7000FF920F931F93DC011A960D911C911B97E6
:102B800018962D913C911997ED91FC9100A0F1A11F
:102B9000E02D7B0150E040E070E060E019951F916E
:102BA0000F91FF90EF9008951F93CF93DF9300D084
:102BB0001F92CDB7DEB784E094E00E94470484E022
:102BC00094E00E94470410E08A3379F0E1E0F0E0FD
:102BD000EC0FFD1FE10FF11D17FDFA9580831F5FBC
:102BE00084E094E00E944704EFCFCE0101960E945A
:102BF0004F22182F84E094E00E9447048053990BE1
:102C00008230910520F4682F812F0E943B0584E0DB
:102C100094E00E9447048A3011F08D30C1F784E0BF
:102C200094E00E945B048A3021F484E094E00E94E6
:102C300047040F900F900F900F90DF91CF911F914D
:102C40000895FB0101900020E9F73197AF01461B81
:102C5000570BDC01ED91FC910280F381E02D19947A
:102C60008F929F92AF92BF92EF92FF920F931F931A
:102C7000CF93DF93CDB7DEB7A1970FB6F894DEBF41
:102C80000FBECDBF7C01FA01CB0119A2223008F49E
:102C90002AE08E010F5D1F4F822E912CB12CA12CAA
:102CA000BF01A50194010E946523F901CA016A30A0
:102CB00004F5605DD8016E938D01232B242B252B09
:102CC00079F790E080E0109719F0BD01C701B9DFF6
:102CD000A1960FB6F894DEBF0FBECDBFDF91CF91A6
:102CE0001F910F91FF90EF90BF90AF909F908F90AA
:102CF0000895695CDFCFCF93DF93BC0184E094E05B
:102D0000A0DFEC016EE372E084E094E09ADF8C0FC8
:102D10009D1FDF91CF9108956115710509F091CF45
:102D200090E080E008950E94C2241F93CF93DF9328
:102D300085ED8093BC008091830390918403A091E2
:102D40008503B09186030796A11DB11D23E0B695BA
:102D5000A795979587952A95D1F72091BC0024FDDA
:102D600003C01092CB0352C040918303509184035F
:102D70006091850370918603452B462B472B69F3A1
:102D80000097A105B10541F025E32A95F1F7000070
:102D90000197A109B109E1CF80918203C1E0C093FD
:102DA0008103882399F1D091B8001091BA008091E5
:102DB000BC008A7B8093BC0060E084E10E943B05FC
:102DC00060E085E10E943B051092CB03C093CD03E8
:102DD0001092CC0361E084E10E943B0561E085E153
:102DE0000E943B058091B9008E7F8093B90080914D
:102DF000B9008D7F8093B90088E48093B80085E4A2
:102E00008093BC001093BA00D093B800DF91CF91AB
:102E10001F9108951F920F920FB60F9211240BB6B7
:102E20000F922F933F934F935F936F937F938F9363
:102E30009F93AF93BF93EF93FF9384E094E00E943E
:102E40007E04FF91EF91BF91AF919F918F917F9100
:102E50006F915F914F913F912F910F900BBE0F900B
:102E60000FBE0F901F9018951F920F920FB60F92E2
:102E700011240BB60F922F938F939F93EF93FF9391
:102E8000E0911404F09115048081E0911A04F0910E
:102E90001B0482FD1DC0908180911D048F5F8F7384
:102EA00020911E04821741F0E0911D04F0E0EC5FD8
:102EB000FB4F958F80931D04FF91EF919F918F9110
:102EC0002F910F900BBE0F900FBE0F901F90189573
:102ED0008081F2CF1F920F920FB60F9211242F9381
:102EE0003F938F939F93AF93BF938091F203909101
:102EF000F303A091F403B091F5033091F10323E0C3
:102F0000230F2D3758F50196A11DB11D2093F10314
:102F10008093F2039093F303A093F403B093F5032B
:102F20008091F6039091F703A091F803B091F90313
:102F30000196A11DB11D8093F6039093F703A09312
:102F4000F803B093F903BF91AF919F918F913F9197
:102F50002F910F900FBE0F901F90189526E8230F0A
:102F60000296A11DB11DD2CF1F920F920FB60F92E4
:102F700011240BB60F922F933F934F935F936F9350
:102F80007F938F939F93AF93BF93EF93FF93809122
:102F9000B900887F803609F44CC008F03FC0883201
:102FA00009F4A6C028F5803109F49AC0C8F4882332
:102FB00009F4F6C0883009F493C0FF91EF91BF91F6
:102FC000AF919F918F917F916F915F914F913F91C1
:102FD0002F910F900BBE0F900FBE0F901F90189562
:102FE000883109F485C0803241F78093CA0314C048
:102FF000803409F49AC040F48033B9F38833E9F699
:103000008093CA0385ECADC0803509F482C0883551
:1030100009F493C0883489F688DECFCF883909F463
:103020008AC038F5883729F050F4883611F0803797
:1030300021F683E08093CB031092C90355C08838F2
:1030400009F479C0803919F0803809F0B6CF809141
:10305000C903803208F06FC0E091C90381E08E0F90
:103060008093C9038091BB00F0E0E755FC4F80835B
:103070003BC0803B39F0D0F4803A09F477C0883AFD
:1030800009F09BCF84E08093CB031092A8031092A9
:10309000A703F0E0E0E019958091A70381110FC02C
:1030A00081E08093A7031092870309C0803C09F454
:1030B000A9CF883C09F4A6CF883B09F07ECFE091E8
:1030C000A80381E08E0F8093A803F0E0E957FC4F3E
:1030D00080818093BB009091A8038091A70329C0B1
:1030E0008091F0038093BB0085EC8093BC0065CF9A
:1030F0009091EF038091EE03981758F5E091EF035C
:1031000081E08E0F8093EF03F0E0E253FC4F80816B
:10311000E9CFE091EF0381E08E0F8093EF03809180
:10312000BB00F0E0E253FC4F80839091EF0380916D
:10313000EE039817C8F285E8D8CFE091EF0381E05D
:103140008E0F8093EF038091BB00F0E0E253FC4FC1
:1031500080838091CD0381115FCF81E08093CC0388
:1031600084EA8093BC001092CB0327CF85EC809338
:10317000BC001092CB038091C903803230F4E091FF
:10318000C903F0E0E755FC4F10826091C90370E07D
:1031900089EA93E0F0E0E0E019951092C9030DCFC1
:1031A0001092CA0339CFE4E0F4E01382128288EE71
:1031B00093E0A0E0B0E084839583A683B78384E0A6
:1031C00092E09183808385EC90E09587848784ECFE
:1031D00090E09787868780EC90E0918B808B81ECE4
:1031E00090E0938B828B82EC90E0958B848B86ECC5
:1031F00090E0978B868B118E128E138E148EE1EADF
:10320000F4E01682178210861186128613861486C1
:10321000158616861786108A118A128A138A148ACE
:10322000158AEDE0F5E01382128220EF30E035835D
:10323000248380E491E09783868331872087938776
:103240008287168A158614861786168681E0858BF6
:10325000848B2FEF3FEF338B228B318B208B878B2F
:10326000108E128E118E86E192E091838083E5E0CC
:10327000F5E089E3828388E3848389E0838388E0BF
:1032800085838CE291E0978386838AE090E0918346
:1032900080831092E8041092E7040895CF93DF939F
:1032A00000D000D01F92CDB7DEB7789484B582608D
:1032B00084BD84B5816084BD85B5826085BD85B5DA
:1032C000816085BD80916E00816080936E00109258
:1032D00081008091810082608093810080918100D3
:1032E0008160809381008091800081608093800064
:1032F0008091B10084608093B1008091B0008160C2
:103300008093B000809191008260809391008091C1
:103310009100816080939100809190008160809302
:1033200090008091A10082608093A1008091A10013
:1033300081608093A1008091A00081608093A000B3
:10334000809121018260809321018091210181601F
:1033500080932101809120018160809320018091E0
:103360007A00846080937A0080917A0082608093F2
:103370007A0080917A00816080937A0080917A004F
:10338000806880937A001092C1001092E30410923A
:10339000E4041092E5041092E6041092A304109243
:1033A000A4041092A5041092A6040E946B066B015F
:1033B0007C014B015C0128EB820E2BE0921EA11CCC
:1033C000B11C0E946B066C157D058E059F0528F0CB
:1033D00086169706A806B906A0F768EE73E080E0A7
:1033E00090E00E943A060E94E2030E946B066093FE
:1033F000A3047093A4048093A5049093A60461E4AD
:1034000072E084E094E088DC0E946B066B017C0132
:103410004B015C013AE0830E911CA11CB11C0E947F
:103420006B066C157D058E059F0528F086169706A0
:10343000A806B906A0F781E08093B7040E946B0646
:103440006093A3047093A4048093A5049093A604AE
:1034500062E572E084E094E05FDC0E94E20389E5CB
:1034600092E049DC8BE592E046DC88E992E043DCBF
:1034700080EB92E040DC8FEC92E03DDC8BE592E06B
:103480003ADC87EE92E037DC0E940F090E940F09B8
:10349000109229051092280581E493E990932D0557
:1034A00080932C0583E194E090932B0580932A056B
:1034B00010922F0510922E0569E070E08AE496E0E4
:1034C0000E94C50665E670E083E596E00E94C506A9
:1034D00066E070E084E496E00E94C50660E08DE05E
:1034E00095E00E94FA0B60E08DE095E00E9457099C
:1034F00080912C0590912D058838944909F0DAC106
:103500001092FA0320EE3FEF50E040E070E060E000
:103510008DE095E00E94C10BE0903805F0903905F0
:1035200080912A0580FF03C09EE2E92EF12C809154
:103530002C0590912D058230964119F48EE2E82EEB
:10354000F12C10E000E030E020E050E040E070E0DE
:1035500060E08DE095E00E94980980912A0580FD49
:1035600010C070E060E080913405909135050E94B4
:103570002F0870E060E080913605909137050E9439
:103580002F088B988A988091020187788093020196
:10359000A5988EB1877C8EB9409102018F2D90E065
:1035A0009C0105E0220F331F0A95E1F72076242BBA
:1035B000209302014EB19C01220F331F220F331FB3
:1035C0002073242B2EB944B39C01220F331F207289
:1035D000242B24BB4EB19C01359527953595279515
:1035E0002870242B2EB920910201E3E09595879550
:1035F000EA95E1F78871822B809302018998899A74
:1036000080910201877880930201A5988EB1877C12
:103610008EB940910201C7019701F5E0220F331FD7
:10362000FA95E1F72076242B209302014EB1970101
:10363000220F331F220F331F2073242B2EB944B3C4
:103640009701220F331F2072242B24BB4EB1970108
:1036500035952795359527952870242B2EB92091DF
:10366000020103E0959587950A95E1F78871822B11
:10367000809302018998899A8A9A809101018778BA
:10368000809301019D988DB1877C8DB940912A0569
:1036900050912B0580912C0590912D0546FD13C06E
:1036A000889A889888988898209100012CB122B334
:1036B0002CB120910001889A40FD05C08938B2E103
:1036C0009B0709F096C18131954161F4889A8898E9
:1036D00088988898809100018CB182B38CB18091D8
:1036E0000001889ABA0164707727889A8898889828
:1036F000889844FFA0C1209100018CB1F2B3ECB1D5
:103700009091000130E055E0359527955A95E1F705
:103710002370869586958C70822B2F2F269520718D
:10372000822BF4E0EF9F900111242072822BA8E0FD
:103730009A9F90011124207C822B889A889A8898DD
:1037400088988898209100019CB1A2B3FCB1E091C7
:10375000000130E0B5E035952795BA95E1F7237083
:10376000969596959C70922B2A2F26952071922BD8
:10377000B4E0FB9F900111242072922BF8E0EF9FA0
:1037800090011124207C922B889A889A8898889896
:10379000889820910001ECB0A2B3FCB1E091000147
:1037A00030E015E0359527951A95E1F72370E694FA
:1037B000E6943E2D3C70E32EE22A2A2F26952071B6
:1037C000E22AA4E0FA9F900111242072E22AB8E0D4
:1037D000EB9F90011124207C2E29889AE92FF0E09C
:1037E000672B09F413C1E22EF12CFE2CEE24EE24FB
:1037F00028EFF22203E0EE0FFF1F0A95E1F7E07ECB
:10380000F770EE2AFF2A869586958695E82A80919C
:10381000FA03882399F0C70105E0969587950A95E4
:10382000E1F7807299279701369527952F713327F5
:10383000822B932BF0ECEF22E82AF92A889A8B9AB4
:10384000809101018867809301019D9A8DB1886301
:103850008DB940FD14C00091170510911805015055
:10386000110920911505309116052150310950E0BC
:1038700040E070E060E08DE095E00E9498092FE163
:10388000E2162FEFF206B1F486E08983AE014F5FB6
:103890005F4F61E08AE390E00E94700780912A0503
:1038A00090912B058F7E90932B0580932A0581E0C4
:1038B0008093FA0361E08DE095E00E94FA0B6FEFD0
:1038C0007FEF8DE095E053D9F12CE12C02E310E07D
:1038D0002CE231E044EB50E06AE070E08DE095E0EE
:1038E0000E94651182E0809321058093220580EE7D
:1038F0009FEF90931E0580931D0510922005109256
:103900001F058AE590E090931A058093190584E1DC
:1039100090E090931C0580931B056CE073E08DE0B4
:1039200095E0FAD989E190E090931A058093190502
:1039300088E290E090931C0580931B0567E173E09B
:103940008DE095E0E9D977E0572EEFE1CE2ED12C2E
:10395000AA24AA94BA2CAAE58A2E912CB4E66B2E3E
:10396000712C13E0412E1091FB03143609F4D7C0DB
:103970001F5F1093FB035092210550922205D092B5
:103980001E05C0921D05B0922005A0921F059092C1
:103990001A058092190570921C0560921B05412F33
:1039A00050E070E060E02AE08DE095E059D96CE2EB
:1039B00073E08DE095E0B0D9149D900111242D3273
:1039C00061E0360714F02CE231E06FE1E62EF12CD5
:1039D00002E310E044EB50E06AE070E08DE095E037
:1039E0000E94400A6EE170E080E090E00E943A069A
:1039F000BACF889A889888988898209100012CB12D
:103A000022B32CB120910001889A5DCEE82EF12CD2
:103A1000FE2CEE24EE2438EFF322B3E0EE0FFF1F6E
:103A2000BA95E1F7E07EF770EE2AFF2A26952695F3
:103A30002695E22AECCE909100010CB112B3BCB1F4
:103A4000A0910001889A889A8898889888982091EF
:103A50000001ECB1E2B2DCB08091000130E0F5E0B1
:103A600035952795FA95E1F723703327F0E0F59522
:103A7000E795F595E795EC70FF272E2B3F2BF12C62
:103A8000F594E794E0E1EE22FF24E22AF32AF4E041
:103A9000DF9E9001112420723327E22AF32A28E0C6
:103AA000829FF0011124E07CFF27EE2AFF2A889AEA
:103AB000892F90E0F5E095958795FA95E1F7837069
:103AC000069506950C70802B16951071812B94E04D
:103AD000B99F900111242072822BE8E0AE9FD001A3
:103AE0001124A07C8A2BF82A43FF03C0FE24EF2474
:103AF000FE24672B09F48BCEC701807E9770970157
:103B0000232F3327269526952695822B932BFE2C43
:103B1000EE24FF0CFF0CFF0CE82AF92A78CE70E0A7
:103B200060E08DE095E023D81092430510924205A5
:103B30008EE293E0E0D88BE592E0DDD80E946B0640
:103B4000672B682B692B09F4FBC00E946B06009160
:103B500000041091010420910204309103046017C5
:103B600071078207930708F4FFC0009100041091C9
:103B7000010420910204309103046B017C01C01AFE
:103B8000D10AE20AF30A970186010A3F11052105CD
:103B9000310508F4DDC06093000470930104809344
:103BA00002049093030484EF91E0A0E0B0E08093DE
:103BB000AF049093B004A093B104B093B2041092F8
:103BC000B3041092B4041092B5041092B60480911C
:103BD000A7049091A804A091A904B091AA0480938D
:103BE000AB049093AC04A093AD04B093AE040E94D8
:103BF0006B066093A7047093A8048093A904909324
:103C0000AA0484E094E00E945B04843611F40E94CC
:103C1000D4150E946B066093A3047093A404809350
:103C2000A5049093A6040E946B066B017C016FE3D0
:103C300073E084E094E070D82AE041E050E060E076
:103C400070E084E094E00CD866E473E084E094E0F3
:103C500063D82AE0B701A60184E094E001D868E4C3
:103C600073E084E094E058D88091A7049091A80470
:103C7000A091A904B091AA04B701A601481B590B51
:103C80006A0B7B0B2AE084E094E00E94301668E423
:103C900073E084E094E040D84091A7045091A804D8
:103CA0006091A9047091AA048091AB049091AC0436
:103CB000A091AD04B091AE04481B590B6A0B7B0B6D
:103CC0002AE084E094E00E9430166AE473E084E025
:103CD00094E022D80E946B06AB01BC012AE084E08C
:103CE00094E00E9430168CE493E005D80E946B06A5
:103CF0006B017C014B015C0195E0890E911CA11CBC
:103D0000B11C0E946B066C157D058E059F0528F081
:103D100086169706A806B906A0F784E094E00E94EC
:103D20005B04843611F40E94D4150E946B066093E4
:103D3000A7047093A8048093A9049093AA0408C0D0
:103D40000E946B06623071058105910508F0FDCE79
:103D50008091420590914305009779F0019709F40D
:103D600000C20E940B05EACE609300047093010428
:103D70008093020490930304F8CE85E0809321059C
:103D800080932205A0E0B8EFB0931E05A0931D0517
:103D90001092200510921F05E4E6F0E0F0931A055A
:103DA000E0931905A4E1CA2ED12CD0921C05C09233
:103DB0001B0563E573E08DE095E00E948C16EE2410
:103DC000EA94FE2C04E110E026E331E044E450E004
:103DD00070E060E08DE095E00E94400AF12CE12C5B
:103DE00026E331E042E650E070E060E08DE095E0EF
:103DF0000E94400A12E010932105109322050FE162
:103E0000E02EF12CF0921E05E0921D05EE24EA94BE
:103E1000FE2CF0922005E0921F052AE030E030935E
:103E20001A052093190586E490E090931C05809371
:103E30001B0568E573E08DE095E00E948C161093F9
:103E4000210510932205AFE1B0E0B0931E05A093C9
:103E50001D051092200510921F05EAE0F0E0F09396
:103E60001A05E093190594E6C92ED12CD0921C05B1
:103E7000C0921B056DE573E08DE095E00E948C1605
:103E80002AE030E03093EA042093E90485EB90E0E7
:103E90009093EC048093EB04ACE2B1E0B093EE04B9
:103EA000A093ED04E6E2F0E0F093F004E093EF0479
:103EB000F092F404E092F3048FEF97E09093F6040D
:103EC0008093F5041092F8041092F7041093F10413
:103ED0001093F2042DE0C22E25E0D22ED092E804F9
:103EE000C092E70449E050E065E673E089EF94E0B2
:103EF0004DD5EE24EA9437E0F32E06E210E02AE1F5
:103F000031E045EB50E063E170E0C6010E94D81457
:103F1000CC24CA9447E0D42E53E1E52EF12C01E0E5
:103F200029E030E04EEB50E06CE271E08DE095E08E
:103F30000E94C41102E029E030E04EEB50E063E162
:103F400070E08DE095E00E94C411A090E704B0906D
:103F5000E804E090EF04F090F0044090ED045090FD
:103F6000EE046090EB047090EC048090E904909073
:103F7000EA044E145F040CF0EDC0620157FE03C06A
:103F80002FEFC21AD20AD594C79469E0C616D1049D
:103F90001CF0E9E0CE2ED12CD501ED91FC910284EC
:103FA000F385E02DC5011995F601EE0FFF1FFB8388
:103FB000EA8392012E1B3F0B3D832C8314012C0CB2
:103FC0003D1CD501ED91FC910288F389E02D0FEFA6
:103FD0001FEFA301B101C5011995F701E60DF71D0A
:103FE000FF83EE83AF0141505109D501ED91FC9162
:103FF0000288F389E02D2C813D81B101C50119951D
:10400000EA81FB81EE1AFF0A6C0C7D1CD501ED9153
:10401000FC910088F189E02D9701A301B401C5014D
:104020001995840C951CB40161507109D501ED916D
:10403000FC910088F189E02D9701A301C501199534
:10404000EE24EA94FE2C01E09601A301B101C50122
:104050000E9492128C189D08B1E08B1A910802E020
:104060009601A301B401C5010E9492126E807F8067
:104070006C187D08E1E06E1A710804E09601A30156
:10408000B401C5010E94921208E09601A301B1019A
:10409000C5010E949212D501ED91FC910688F78925
:1040A000E02DC5011995E091E704F091E804109125
:1040B000F2048091EF049091F004969587952091F9
:1040C000EB043091EC04820F931FB4E01B9F801926
:1040D0009109112449EF54E0DA010D900020E9F72D
:1040E000AD014A5F54400091F1042091ED043091FC
:1040F000EE04369527956091E9047091EA04260F45
:10410000371F63E0069FD0011124A49FB001A59F33
:10411000700DB49F700D1124261B370B3587248733
:1041200097878687138A128A118A108A011101C023
:1041300001E0048B111101C011E0158B69EF74E0EF
:10414000CF010E948C1681E090E09093430580930C
:10415000420507CE6701F7FE16CF3FEFC31AD30A19
:1041600012CF60910A0570E0FB01E85EF84FE49021
:1041700080910705A82FB0E0FD01E85EF84F04919B
:104180004091090550E0FA01E85EF84FD490209183
:10419000080530E0F901E85EF84FF490FB01EE52BB
:1041A000F94F5490FD01EE52F94F9490FA01EE52FE
:1041B000F94FC490F901EE52F94F449060E00E942B
:1041C000C70560E0809108050E94C70510E0000F58
:1041D000111F0854194FF801A591B4918C91392CF5
:1041E000309483218C93EF2DF0E0EE0FFF1FCF0171
:1041F0008854994F5C01FC01A591B4919C91842D48
:10420000809589238C9361E080910A050E94C705FF
:1042100061E0809109050E94C705F12CEE0CFF1C9E
:10422000D701A854B94F7D01FD01A591B4918C919E
:1042300085298C93ED2DF0E0EE0FFF1FE854F94F28
:10424000A591B491EC91C094CE22CC9280910705B7
:104250000E94F8059D838C83809107050E94F805D4
:104260006C012FEF33E0F901E81BF90BFB83EA83C4
:1042700060E080910A050E94C70560E08091090511
:104280000E94C705F701A591B4918C9150948521A6
:104290008C9361E0809107050E94C705F801A59104
:1042A000B491EC919E2A9C9261E0809108050E9455
:1042B000C705809109050E94F8054C018091090508
:1042C0000E94F8053C018815990539F499249394C6
:1042D0002C813D812C153D0509F0912C61E08091E8
:1042E0000A050E94C705F701A591B491EC915E22E1
:1042F0005C92F501A591B491EC914E2A4C92F80193
:10430000A591B4918C9138223C9260E08091070590
:104310000E94C705809109050E94F8058C018091D3
:1043200007050E94F805E0900B05F0900C05E114DC
:10433000F10409F4AFC0BC01990F880B990BD6D0DA
:104340005B016C01B801110F880B990BCFD09B0159
:10435000AC01C601B50175D220E030E040E85FE372
:104360000BD25B016C01AA81BB81BD01BB0F880B25
:10437000990BBCD0A6019501F4D05B016C01B7018B
:1043800090E080E0B1D0A6019501EBD020E030E0D4
:1043900040E85AE3E6D0BDD28B01911002C010E094
:1043A00000E061E089E30E94C70561E088E30E94C4
:1043B000C70561E089E30E943B0561E088E30E9454
:1043C0003B0505511109033D134008F05CC0CA804C
:1043D000DB809601DD0C440B550B2B583340410913
:1043E0005109A0EFB0E0AFD127EB3CEF4FEF5FEF0B
:1043F0008ED13093FF032093FE032FEF33E0261975
:104400003709032E000C440B550B21563109410985
:104410005109A0E4B1E097D120E433E040E050E05E
:1044200076D13093FD032093FC036DE673E084E0C6
:1044300094E00E948C164091FC035091FD0370E0C3
:1044400060E02AE084E094E00E9430166EE372E0BF
:1044500084E094E00E94211666E773E084E094E033
:104460000E948C164091FE035091FF0370E060E0C3
:104470002AE084E094E00E9430166EE372E084E06B
:1044800094E00E94211664E670E080E090E00E94D3
:104490003A0667CC081B190B01501C4F7ECFFC015C
:1044A00088279927E89421912032E9F3293010F0E8
:1044B0002E30C8F32B3239F02D3231F4689403C01A
:1044C0000BD0820F911D219120532A30C8F31EF486
:1044D000909581959F4F08957AE0979F902D879FA3
:1044E000802D910D11240895E89409C097FB3EF4A6
:1044F00090958095709561957F4F8F4F9F4F992331
:10450000A9F0F92F96E9BB279395F69587957795AE
:104510006795B795F111F8CFFAF4BB0F11F460FF6E
:104520001BC06F5F7F4F8F4F9F4F16C0882311F0C6
:1045300096E911C0772321F09EE8872F762F05C0DA
:10454000662371F096E8862F70E060E02AF09A9575
:10455000660F771F881FDAF7880F9695879597F96A
:1045600008950BD078C069D028F06ED018F095234C
:1045700009F05AC05FC01124A2C07ED0A0F3959F5D
:10458000D1F3950F50E0551F629FF001729FBB273A
:10459000F00DB11D639FAA27F00DB11DAA1F649FE6
:1045A0006627B00DA11D661F829F2227B00DA11D99
:1045B000621F739FB00DA11D621F839FA00D611D1F
:1045C000221F749F3327A00D611D231F849F600D40
:1045D000211D822F762F6A2F11249F5750408AF079
:1045E000E1F088234AF0EE0FFF1FBB1F661F771F05
:1045F000881F91505040A9F79E3F510570F014C09C
:104600005EC05F3FECF3983EDCF386957795679547
:10461000B795F795E7959F5FC1F7FE2B880F911D22
:104620009695879597F9089597F99F6780E870E0C8
:1046300060E008959FEF80EC089500240A94161618
:10464000170618060906089500240A941216130680
:10465000140605060895092E0394000C11F488230E
:1046600052F0BB0F40F4BF2B11F460FF04C06F5F2A
:104670007F4F8F4F9F4F089557FD9058440F551F00
:1046800059F05F3F71F04795880F97FB991F61F0D4
:104690009F3F79F087950895121613061406551F4B
:1046A000F2CF4695F1DF08C0161617061806991FB7
:1046B000F1CF86957105610508940895E894BB27AC
:1046C00066277727CB0197F90895A1E21A2EAA1B36
:1046D000BB1BFD010DC0AA1FBB1FEE1FFF1FA217B2
:1046E000B307E407F50720F0A21BB30BE40BF50BAF
:1046F000661F771F881F991F1A9469F76095709538
:10470000809590959B01AC01BD01CF010895052EC8
:1047100097FB16F400940FD057FD05D0D6DF07FCA9
:1047200002D046F408C050954095309521953F4FF2
:104730004F4F5F4F089590958095709561957F4F8D
:104740008F4F9F4F089509D0A59F900DB49F900D56
:10475000A49F800D911D11240895A29FB001B39FC5
:10476000C001A39F700D811D1124911DB29F700D7A
:10477000811D1124911D08955058BB27AA270ED0E2
:104780006ACF5BDF30F060DF20F031F49F3F11F43F
:104790001EF450CF0EF4E095E7FB46CFE92F6CDF17
:1047A00080F3BA17620773078407950718F071F44E
:1047B0009EF584CF0EF4E0950B2EBA2FA02D0B01A1
:1047C000B90190010C01CA01A0011124FF27591B56
:1047D00099F0593F50F4503E68F11A16F040A22F5C
:1047E000232F342F4427585FF3CF469537952795CD
:1047F000A795F0405395C9F77EF41F16BA0B620BCC
:10480000730B840BBAF09150A1F0FF0FBB1F661F12
:10481000771F881FC2F70EC0BA0F621F731F841F55
:1048200048F4879577956795B795F7959E3F08F07B
:10483000B3CF9395880F08F09927EE0F979587953A
:1048400008950CD008CF00DF40F0F7DE30F021F4FF
:104850005F3F19F0E9CE511132CFECCE0DDF98F366
:104860009923C9F35523B1F3951B550BBB27AA27F1
:1048700062177307840738F09F5F5F4F220F331F63
:10488000441FAA1FA9F333D00E2E3AF0E0E830D02F
:1048900091505040E695001CCAF729D0FE2F27D032
:1048A000660F771F881FBB1F261737074807AB0700
:1048B000B0E809F0BB0B802DBF01FF2793585F4F75
:1048C0002AF09E3F510568F0AFCEF9CE5F3FECF382
:1048D000983EDCF3869577956795B795F7959F5F3A
:1048E000C9F7880F911D9695879597F90895E1E08E
:1048F000660F771F881FBB1F621773078407BA07ED
:1049000020F0621B730B840BBA0BEE1F88F7E09547
:10491000089504D06894B111D2CE0895B5DE88F020
:104920009F5790F0B92F9927B751A0F0D1F0660F9B
:10493000771F881F991F1AF0BA95C9F712C0B130B6
:1049400081F0BCDEB1E00895B9CE672F782F8827BB
:10495000B85F39F0B93FCCF3869577956795B395F5
:10496000D9F73EF490958095709561957F4F8F4F64
:104970009F4F0895EE0FFF1F881F8BBF0790F69182
:10498000E02D199481E090E0F8940FC0FB01DC0168
:104990004150504048F001900D920020C9F701C0ED
:0E49A0001D9241505040E0F70895F894FFCF6B
:1049AE0000000000A0040A043804EC046904470463
:1049BE005B040000000095100A04B415B315C10B7A
:1049CE0037040015D814F414E81407153704FA0B3D
:1049DE005709460E330E400AB7158C1365110D0A92
:1049EE0000564D4450565F317C315F564D44505603
:1049FE000A00564D4450525F0020002D2D2D2D2DB6
:104A0E002D2D2D2D2D2D2D2D2D2D2D2D2D2D2D2DC8
:104A1E002D2D2D2D2D2D2D2D2D2D2D2D2D2D2D2DB8
:104A2E002D2D2D2D2D2D2D2D2D2D2D2D2D2D2D2DA8
:104A3E002D2D2D2D2D2D2D0050726F6772616D61F4
:104A4E003A204D656E752070617261205446540097
:104A5E00436F6E74726F6C61646F723A2041726450
:104A6E0075696E6F204D65676120323536300041B5
:104A7E0075746F723A205A756C69616E692C20419B
:104A8E0067757374696E00457370657265206D6924
:104A9E00656E7472617320636172676120656C204C
:104AAE0070726F6772616D612E2E2E004269656E97
:104ABE0076656E69646F00457370657265206D6909
:104ACE00656E7472612063617267610025005072B9
:104ADE006F6772616D61206361726761646F00560A
:104AEE004D4450455F003A323A007C005F564D44CB
:104AFE005045004D656E75004C454453004D454480
:104B0E0049444F52004163657074617200546F7571
:104B1E00636820583A00546F75636820593A000054
:020000023000CC
:10E000000D9489F10D94B2F10D94B2F10D94B2F129
:10E010000D94B2F10D94B2F10D94B2F10D94B2F1F0
:10E020000D94B2F10D94B2F10D94B2F10D94B2F1E0
:10E030000D94B2F10D94B2F10D94B2F10D94B2F1D0
:10E040000D94B2F10D94B2F10D94B2F10D94B2F1C0
:10E050000D94B2F10D94B2F10D94B2F10D94B2F1B0
:10E060000D94B2F10D94B2F10D94B2F10D94B2F1A0
:10E070000D94B2F10D94B2F10D94B2F10D94B2F190
:10E080000D94B2F10D94B2F10D94B2F10D94B2F180
:10E090000D94B2F10D94B2F10D94B2F10D94B2F170
:10E0A0000D94B2F10D94B2F10D94B2F10D94B2F160
:10E0B0000D94B2F10D94B2F10D94B2F10D94B2F150
:10E0C0000D94B2F10D94B2F10D94B2F10D94B2F140
:10E0D0000D94B2F10D94B2F10D94B2F10D94B2F130
:10E0E0000D94B2F141546D656761323536300041AF
:10E0F000726475696E6F206578706C6F72657220DE
:10E1000073746B3530305632206279204D4C530099
:10E11000426F6F746C6F616465723E004875683F52
:10E1200000436F6D70696C6564206F6E203D200048
:10E130004350552054797065202020203D20005FF9
:10E140005F4156525F415243485F5F3D2000415658
:10E1500052204C696243205665723D20004743437C
:10E160002056657273696F6E203D20004350552024
:10E1700049442020202020203D20004C6F7720663D
:10E18000757365202020203D20004869676820665F
:10E190007573652020203D200045787420667573D6
:10E1A00065202020203D20004C6F636B2066757336
:10E1B000652020203D20004D617220203720323024
:10E1C000313300312E362E3800342E332E350056A2
:10E1D00023202020414444522020206F7020636F70
:10E1E00064652020202020696E73747275637469E1
:10E1F0006F6E2061646472202020496E74657272B3
:10E20000757074006E6F20766563746F7200726A49
:10E210006D702020006A6D70200057686174207056
:10E220006F72743A00506F7274206E6F7420737541
:10E2300070706F72746564004D7573742062652030
:10E2400061206C6574746572002000577269747483
:10E25000696E672045450052656164696E672045B7
:10E26000450045452065727220636E743D00504F35
:10E27000525400303D5A65726F2061646472003FF1
:10E280003D43505520737461747300403D454550C3
:10E29000524F4D207465737400423D426C696E6B41
:10E2A000204C454400453D44756D70204545505215
:10E2B0004F4D00463D44756D7020464C415348001B
:10E2C000483D48656C70004C3D4C69737420492F83
:10E2D0004F20506F72747300513D51756974005234
:10E2E0003D44756D702052414D00563D73686F7707
:10E2F00020696E7465727275707420566563746FF0
:10E30000727300593D506F727420626C696E6B00BD
:10E310002A0011241FBECFEFD1E2DEBFCDBF01E046
:10E320000CBF12E0A0E0B2E0EEE1FDEF03E00BBFB6
:10E3300002C007900D92A030B107D9F712E0A0E01B
:10E34000B2E001C01D92AE30B107E1F70F9460F367
:10E350000D948DFE01E20EBF0FEF0DBF11241FBE05
:10E360000D9460F30D9400F020E030E040ED57E0B4
:10E3700005C0FA013197F1F72F5F3F4F2817390792
:10E38000C0F308959C01260F311DC901A0E0B0E043
:10E390002F5F3F4FABBFFC018791882361F08093D3
:10E3A000C6008091C00086FFFCCF8091C0008064D1
:10E3B0008093C000EACF08958DE08093C6008091DD
:10E3C000C00086FFFCCF8091C00080648093C000B5
:10E3D0008AE08093C6008091C00086FFFCCF8091C8
:10E3E000C00080648093C00008950F94C2F10F9420
:10E3F000DCF10895FC019081992359F09093C600B7
:10E400008091C00086FFFCCF8091C0008064809323
:10E41000C0003196992379F70895282F982F929567
:10E420009F70892F805D8A3308F0895F8093C600D2
:10E430008091C00086FFFCCF8091C00080648093F3
:10E44000C000822F8F70982F905D9A3308F0995FEB
:10E450009093C6008091C00086FFFCCF8091C000E1
:10E4600080648093C00008959C01FB01853691056E
:10E470001CF46330710594F0C90164E670E00F94F8
:10E480002EFE605D7F4F6093C6008091C00086FFC6
:10E49000FCCF8091C00080648093C0002B30310598
:10E4A00014F43297B4F0C90164E670E00F942EFEC4
:10E4B0006AE070E00F942EFE605D7F4F6093C600AF
:10E4C0008091C00086FFFCCF8091C0008064809363
:10E4D000C000C9016AE070E00F942EFEC0968093E0
:10E4E000C6008091C00086FFFCCF8091C000806490
:10E4F0008093C00008951F93182F8EE692EE60E07F
:10E500000F94C2F11093C6008091C00086FFFCCF2B
:10E510008091C00080648093C0000F94DCF11F9153
:10E5200008952F923F924F925F926F927F928F92B7
:10E530009F92AF92BF92CF92DF92EF92FF920F9392
:10E540001F93DF93CF93CDB7DEB762970FB6F894E2
:10E55000DEBF0FBECDBF382E622ECA01DB015C01CB
:10E560006D01772420E2222E2E010894411C511CBB
:10E570008BC081E0A81680E0B80681E0C80680E084
:10E58000D80628F0C601AA27BB270F940DF2BB2797
:10E59000AD2D9C2D8B2D0F940DF28A2D0F940DF225
:10E5A0002092C6008091C00086FFFCCF8091C00001
:10E5B00080648093C0009DE29093C6008091C0006B
:10E5C00086FFFCCF8091C00080648093C0002092C1
:10E5D000C6008091C00086FFFCCF8091C00080649F
:10E5E0008093C00019828601750188249924A1E0D6
:10E5F0003A1651F03A1620F0B2E03B1661F409C029
:10E600000BBFF701779007C0C7010F9477FE782EF4
:10E6100002C0F7017080872D0F940DF22092C60082
:10E620008091C00086FFFCCF8091C0008064809301
:10E63000C000872D8052F401EF70F0708F3520F408
:10E64000E40DF51D708204C0E40DF51D8EE280839B
:10E650000894E11CF11C011D111D0894811C911CE2
:10E6600090E18916910409F0C2CF80E190E0A0E02A
:10E67000B0E0A80EB91ECA1EDB1E198AC2010F9493
:10E68000FAF10F94DCF16A94662009F072CF629679
:10E690000FB6F894DEBF0FBECDBFCF91DF911F91B3
:10E6A0000F91FF90EF90DF90CF90BF90AF909F9031
:10E6B0008F907F906F905F904F903F902F90089534
:10E6C0002F923F924F925F926F927F928F929F9282
:10E6D000AF92BF92CF92DF92EF92FF920F931F9370
:10E6E000DF93CF93CDB7DEB7CD53D1400FB6F894BB
:10E6F000DEBF0FBECDBF01E20EBF0FEF0DBF94B75F
:10E70000F894A89514BE80916000886180936000A1
:10E7100010926000789493FF05C0E0910002F091A0
:10E7200001021995279A2F9A8091C00082608093E8
:10E73000C00080E18093C40088E18093C1000000A4
:10E74000EE24FF24870144E0A42EB12CCC24DD2448
:10E7500024C0C5010197F1F70894E11CF11C011DCB
:10E76000111D21E2E2162EE4F20620E0020720E06D
:10E77000120718F031E0C32ED12CC801B70127ECE5
:10E780003BE140E050E00F9441FE611571058105C9
:10E79000910519F485B1805885B98091C00087FD35
:10E7A00003C0C114D104A9F2A6014F5F5F4FC25E3E
:10E7B000DE4F59834883CE51D140C25EDE4F8881FF
:10E7C0009981CE51D140019711F00D9410FEC05D9A
:10E7D000DE4F19821882C053D14060E0C15DDE4F28
:10E7E0001882CF52D14088249924C35DDE4F19820C
:10E7F0001882CD52D140C05EDE4F188219821A8233
:10E800001B82C052D140CE5CDE4F188219821A8220
:10E810001B82C253D140EE24FF2487010BBFF701B6
:10E8200007911691C45CDE4F19830883CC53D14005
:10E830000D940BFEC25EDE4F28813981CE51D1404E
:10E840002130310509F52091C600C25EDE4F1982E4
:10E850001882CE51D14022C02F5F3F4F4F4F5F4FA4
:10E86000213082E138078AE7480780E0580780F0C6
:10E87000C45CDE4FE881F981CC53D140EF5FFF4F9C
:10E8800019F0EE27FF27099420E030E040E050E047
:10E890008091C00087FFE0CF2091C600C35DDE4FAE
:10E8A00048815981CD52D1404F5F5F4FC35DDE4FEC
:10E8B00059834883CD52D140213209F063C64A3092
:10E8C000510508F05FC60894811C911C53E0851621
:10E8D000910409F059C600E010E018C081E280936D
:10E8E000C6008091C00086FFFCCF8091C00080648C
:10E8F0008093C0002F5F3F4F2931310579F70F9486
:10E90000DCF10F5F1F4F0530110519F020E030E0FA
:10E91000E5CF10920A0210920B0210920C02109294
:10E920000D02109206021092070210920802109235
:10E930000902109202021092030210920402109235
:10E9400005028FEE90EE60E00F94F5F180E191EE1C
:10E9500060E00F94C2F18091C00087FFFCCF9091DE
:10E96000C600903608F09F759032B8F09093C600BC
:10E970008091C00086FFFCCF8091C00080648093AE
:10E98000C000A0E2A093C6008091C00086FFFCCF2B
:10E990008091C00080648093C000983409F4D7C18E
:10E9A0009934B8F4923409F459C1933458F490333B
:10E9B00019F1903308F4E3C59F33A1F1903409F0C5
:10E9C000DEC5BDC0953409F470C1963409F0D7C5D1
:10E9D00098C1923509F42BC2933538F49C3409F46C
:10E9E000F5C1913509F0CBC518C2963509F445C279
:10E9F000993509F0C4C567C483E792EE62E00F94CD
:10EA0000F5F110920602109207021092080210927D
:10EA1000090210920A0210920B0210920C0210923C
:10EA20000D0213C18FE792EE62E00F94F5F18FEEC5
:10EA300090EE60E00F94F5F181E291EE60E00F94CA
:10EA4000C2F187EB91EE60E00F94F5F180E391EE77
:10EA500060E00F94C2F184EE90EE60E00F94F5F167
:10EA60008FE391EE60E00F94C2F186E090E061E008
:10EA700070E00F9434F20F94DCF18DE591EE60E0DC
:10EA80000F94C2F189EC91EE60E00F94F5F18EE401
:10EA900091EE60E00F94C2F183EC91EE60E00F9490
:10EAA000F5F18CE691EE60E00F94C2F18EE10F94E7
:10EAB0000DF288E90F940DF281E00F940DF20F949E
:10EAC000DCF18BE791EE60E00F94C2F119E0E0E039
:10EAD000F0E010935700E4918E2F0F940DF20F94F5
:10EAE000DCF18AE891EE60E00F94C2F1E3E0F0E03F
:10EAF00010935700E4918E2F0F940DF20F94DCF1D8
:10EB000089E991EE60E00F94C2F1E2E0F0E0109349
:10EB10005700E4918E2F0F940DF20F94DCF188EAE8
:10EB200091EE60E00F94C2F1E1E0F0E01093570045
:10EB30001491812F0F940DF20F94DCF107CF8BE825
:10EB400092EE62E00F94F5F18BE492EE60E00F94A8
:10EB5000F5F10F94DCF100E010E019C0C8016F2D51
:10EB60000F947FFEFF2031F489E492EE60E00F9471
:10EB7000C2F10BC0F092C6008091C00086FFFCCFAE
:10EB80008091C00080648093C0000F5F1F4FC80158
:10EB900081519F41A0E0B0E0ABBFFC01F790BAE229
:10EBA000FB1621F0E2E000301E07C1F60F94DCF105
:10EBB0000F94DCF187E592EE60E00F94F5F10F948D
:10EBC000DCF1CC24DD2400E010E01EC0C8010F946D
:10EBD00077FEF82E882331F489E492EE60E00F94FA
:10EBE000C2F10BC08093C6008091C00086FFFCCFAD
:10EBF0008091C00080648093C000FE1419F00894D6
:10EC0000C11CD11C0F5F1F4FC80181519F41A0E063
:10EC1000B0E0ABBFFC01E790FAE2EF1621F022E092
:10EC20000030120799F60F94DCF10F94DCF182E6C4
:10EC300092EE60E00F94C2F1C60161E070E00F94C3
:10EC400034F20F94DCF10F94DCF110920202109276
:10EC50000302109204021092050278CE89E992EE26
:10EC600062E00F94F5F1279A2F9A16C02F9880E052
:10EC700090E0E0EDF7E03197F1F7019684369105E9
:10EC8000C1F72F9A80E090E0E0EDF7E03197F1F7DF
:10EC9000019684369105C1F78091C00087FFE6CFC9
:10ECA0008091C00087FFFCCF64C485EA92EE62E0E9
:10ECB0000F94F5F140910202509103026091040219
:10ECC0007091050281E020E10F9491F2809102029F
:10ECD00090910302A0910402B091050280509F4FD1
:10ECE000AF4FBF4F8093020290930302A0930402A0
:10ECF000B093050280509041A040B04008F426CE69
:10ED0000A4CF83EB92EE62E00F94F5F140910602FE
:10ED100050910702609108027091090280E020E1A1
:10ED20000F9491F28091060290910702A09108023F
:10ED3000B091090280509F4FAF4FBF4F80930602A2
:10ED400090930702A0930802B0930902FFCD80ECD4
:10ED500092EE62E00F94F5F183E792EE60E00F949B
:10ED6000F5F18FE792EE60E00F94F5F18BE892EE0B
:10ED700060E00F94F5F189E992EE60E00F94F5F10F
:10ED800085EA92EE60E00F94F5F183EB92EE60E09D
:10ED90000F94F5F180EC92EE60E00F94F5F187ECC2
:10EDA00092EE60E00F94F5F188ED92EE60E00F9442
:10EDB000F5F18FED92EE60E00F94F5F18AEE92EEB0
:10EDC00060E00F94F5F183E093EEBDCD87EC92EE19
:10EDD00062E00F94F5F181E40F947BF282E40F94EA
:10EDE0007BF283E40F947BF284E40F947BF285E45E
:10EDF0000F947BF286E40F947BF287E40F947BF20E
:10EE000088E40F947BF28AE40F947BF28BE40F94F6
:10EE10007BF28CE40F947BF299CD88ED92EE62E068
:10EE20000F94F5F1772473948824992409C48FED05
:10EE300092EE62E00F94F5F140910A0250910B02BC
:10EE400060910C0270910D0282E020E10F9491F22A
:10EE500080910A0290910B02A0910C02B0910D02D8
:10EE600080509F4FAF4FBF4F80930A0290930B0289
:10EE7000A0930C02B0930D0269CD8AEE92EE62E08F
:10EE80000F94F5F184EE90EE60E00F94F5F18FECC5
:10EE900091EE60E00F94F5F1662477244301CC5D98
:10EEA000DE4F19821882C452D140D401C301B695F5
:10EEB000A79597958795CA5DDE4F88839983AA8326
:10EEC000BB83C652D140CC5DDE4FA881B981C4520C
:10EED000D1401196CC5DDE4FB983A883C452D14096
:10EEE000CD0162E070E00F9434F2B0E2B093C6005E
:10EEF0008091C00086FFFCCF8091C0008064809329
:10EF0000C000EDE2E093C6008091C00086FFFCCF18
:10EF10008091C00080648093C000F0E2F093C6004E
:10EF20008091C00086FFFCCF8091C00080648093F8
:10EF3000C000CA5DDE4FE880F9800A811B81C6529D
:10EF4000D140BB27A12F902F8F2D0F940DF2CA5DBA
:10EF5000DE4F8881C652D1400F940DF2B0E2FB2EF5
:10EF6000F092C6008091C00086FFFCCF8091C00067
:10EF700080648093C0000DE30093C6008091C000C0
:10EF800086FFFCCF8091C00080648093C00010E2B7
:10EF90001093C6008091C00086FFFCCF8091C00016
:10EFA00080648093C0008BBEF3012791C65DDE4F65
