:10000000F7C2000016C3000014C3000012C30000B2
:1000100010C300000EC300000CC300000AC30000A0
:1000200008C3000006C3000004C3000002C30000B0
:100030000C947F0FFEC20000FCC20000FAC2000058
:10004000F8C20000F6C20000F4C20000F2C20000D4
:10005000F0C20000EEC20000ECC200008FC400003D
:10006000E8C20000E6C20000E4C20000E2C20000F4
:10007000E0C20000DEC20000DCC20000DAC2000004
:10008000D8C20000D6C20000D4C20000D2C2000014
:10009000D0C20000CEC20000CCC20000CAC2000024
:1000A000C8C20000C6C20000C4C20000C2C2000034
:1000B000C0C20000BEC20000BCC20000BAC2000044
:1000C000B8C20000B6C20000B4C20000B2C2000054
:1000D000B0C20000AEC20000ACC20000AAC2000064
:1000E000A8C2000000002100240027002A002D00E3
:1000F0003000330001010000040107010A01000083
:100100002200250028002B002E00310034000201BF
:100110000000050108010B0100002000230026005B
:1001200029002C002F00320000010000030106010D
:10013000090105050505070508080808020202026D
:100140000A0A080804040404010101010101010173
:100150000303030303030303040707070C0C0C0C3E
:100160000C0C0C0C02020202060606060606060627
:100170000B0B0B0B0B0B0B0B0102102020080810B4
:100180002040102040800201020108040201010207
:1001900004081020408080402010080402018004E0
:1001A000020180402010080402010804020101023B
:1001B0000408102040800102040810204080000044
:1001C0000A0B02090C0D0E080703040100000000D1
:1001D000000000000000000000000000000000001F
:1001E00000000000000000000000121110000000DC
:1001F00000000000000000000000000000000000FF
:1002000000000000CF93DF9300D000D000D01F92F9
:10021000CDB7DEB7E0915D02F0915E021081F12C66
:10022000E12C112329F00580F681E02DE080F1809A
:10023000E9D4DED46C018091590290915A02C8161B
:10024000D90608F078C00E943C0BD0925A02C092A6
:100250005902FFD60091690210916A021A86198626
:1002600080E06801B1E1CB0ED11C0FB6F8940F927B
:10027000F801F28CFF2009F436C1448D4423C1F00B
:1002800050E086819781840F951F97838683248110
:1002900035818217930720F080819181978386832F
:1002A000D80116966D917C91CE0101960E9438116D
:1002B000FA94F801F28E8085882329F0C801089607
:1002C000F2D3811100D60F900FBED980D7FCC2CFD8
:1002D0000C811D81F80182859385892B19F0C80155
:1002E0000296E1D485D47C018091590290915A0202
:1002F000E816F90610F40E943C0BF0925A02E092C4
:100300005902F9E0FD1508F4A5CFED2DDD0CFF0B2A
:10031000D80152969C918827EF56FE4F8F4F0C9430
:1003200030113802380238026E025A02680238026E
:1003300038026E025A02D0925A02C0925902112318
:1003400081F1CE14DF04A0F184D6E0915D02F0913A
:100350005E020580F681E02D06811781C8010296B4
:10036000A2D4D80152968C91529782FF16C01C9647
:100370006D917C916E0D7F1D9701A601C801EDD492
:10038000882321F0B701C8010E94160BD8015096AE
:10039000ED91FC91C80119955DCF8E7FF801828B9C
:1003A000F5CFE0915B02F0915C02808161E0811108
:1003B00060E00091690210916A020FB6F8940F9202
:1003C000F801858D8F3F09F4158ED8015E968C91CA
:1003D0005E978F3F11F45E961C920F900FBEF8014E
:1003E000828D81113EC00288F389E02DA0913602F2
:1003F000B09137021F96FC93EE931E97A0913602A0
:10040000B09137028481958151969C938E93509739
:100410008091360290913702A481B5810C96139693
:100420009C938E93129780913602909137020C968E
:1004300095838483E0913602F0913702C80141969A
:10044000958B848BD80151968C9151978F5F5196E3
:100450008C93C7018C199D09662311F08FEF9FEFD4
:10046000A5D4C801E0D3F5D58111F4CE2CD5F2CEB8
:100470009160F801928BCA80DB80648575856C0D74
:100480007D1D9601A701C80168D4882309F4E2CE36
:10049000D8015096ED91FC91C8011995F801828917
:1004A00082FFD8CE648575856C0D7D1DC8010E94C4
:1004B000160BD0CE9160F801928B6A817B81758793
:1004C00064876E0D7F1D9701A701C80146D4C2CE77
:1004D00091FD04C0C8010E94680DBCCE9E7FD8016A
:1004E00052969C93B7CE29853A85232B19F40F9009
:1004F0000FBE90CE811109C080916D028E838091D4
:100500006B0290916C0298878F830F900FBE7AD305
:100510000FB6F8940F92D8015D968C915D978F3F3E
:1005200011F45D961C92F801868D8F3F09F4168EAA
:100530000F900FBEBE01675F7F4FCE01069680D23F
:1005400081111DC0C80164D38823A9F0E984FA840D
:100550006091360270913702645F7F4FC601C7D346
:1005600061E0C70123D4C8015ED373D5811101C0F6
:10057000AAD481E07ACEC80156D36BD5FACFC80190
:1005800052D367D5C80144D3882399F343CE00E002
:1005900010E080913D0281110BC080919F0282305A
:1005A00008F091D401151105A1F30E940000F1CFCC
:1005B0000FB6F8940F92E0918002F0918102C6810B
:1005C000D781CE0102966FD38091C602815080936D
:1005D000C60280913D02815080933D020F900FBE74
:1005E0008F89988D0E94680DCE010E94680DD1CF31
:1005F00011241FBECFEFD1E2DEBFCDBF00E00CBFA4
:1006000012E0A0E0B2E0E4E9F2E200E00BBF02C0D9
:1006100007900D92A633B107D9F722E0A6E3B2E026
:1006200001C01D92AB3CB207E1F70E94810F0C9410
:100630004811E6CC8150823108F05AC0E82FF0E032
:100640008827EA5DFC4F8F4F0C94301146034A0314
:1006500038033E03420378034D03530357035D03FE
:10066000610365036B036F037803730379037D03F1
:10067000809180008F778093800008958091800022
:100680008F7DF9CF80918000877FF5CF84B58F77FC
:1006900084BD089584B58F7DFBCF8091B0008F77A6
:1006A0008093B00008958091B0008F7DF9CF809144
:1006B00090008F77809390000895809190008F7DB7
:1006C000F9CF80919000877FF5CF8091A0008F7740
:1006D0008093A00008958091A0008F7DF9CF809134
:1006E000A000877FF5CF809120018F778093200134
:1006F0000895809120018F7DF9CF80912001877F1F
:10070000F5CFCF93DF93282F30E0F901E254FE4F6D
:100710008491F901E858FE4FD491F901EE5CFE4F47
:10072000C491CC2399F0811185DFEC2FF0E0EE0F1E
:10073000FF1FE85EFE4FA591B491EC91ED2381E09F
:1007400090E009F480E0DF91CF91089580E090E09F
:10075000FACF1F93CF93DF93282F30E0F901E254B3
:10076000FE4F8491F901E858FE4FD491F901EE5CF7
:10077000FE4FC491CC23A1F0162F81115BDFEC2F2B
:10078000F0E0EE0FFF1FE250FF4FA591B4918FB73D
:10079000F894EC91111108C0D095DE23DC938FBF43
:1007A000DF91CF911F910895DE2BF8CFCF93DF9388
:1007B00090E0FC01E858FE4F24918E5C9E4FFC01B6
:1007C00084918823D1F090E0880F991FFC01EC51AF
:1007D000FF4FA591B491FC01E250FF4FC591D49118
:1007E00061110EC09FB7F8948C91E22FE0958E2393
:1007F0008C932881E223E8839FBFDF91CF910895F6
:100800008FB7F894EC91E22BEC938FBFF6CF81E099
:1008100090E07CD78AE075DF019719F483E090E0DF
:1008200075C789E06EDF0197C9F3089561E08BE039
:10083000BDDF60E089E0BADF60E08BE08ADFD0E016
:10084000C0E082E0E82EF12C80913B0290913C02C6
:100850008130910539F1A8F082309105C9F71091E6
:100860003A02112309F43DC08BE04BDF61E0892B94
:1008700009F060E08BE06DDF8FE190E047D7115029
:10088000F0CF10923A0260E08BE063DF89E039DF5D
:100890008130910521F490933C0280933B02D0E09B
:1008A000C0E0D2CF89E02DDF0197B9F480913A0200
:1008B0008F5F80933A0261E08BE04BDFA8DF81E03D
:1008C00090E024D76E96C83B8BE0D80709F0BCCFE8
:1008D000F0923C02E0923B02B7CF60E08BE039DF60
:1008E000EECF10923C0210923B02AECF61E08DE061
:1008F0005DDF60E08DE02DDF8DE003DF61E0892BBF
:1009000009F060E08DE025DF8FE190E0FFD6F4CFC5
:1009100061E08CE04BDF60E08AE048DF8AE0F1DEF6
:10092000019731F461E08CE014DF71DFCCD2F6CFB7
:1009300060E08CE00EDFFACF0F931F9310E000E031
:1009400022E040E850E067E072E086E794E00E9431
:10095000910D21E040E850E063E172E088E894E026
:100960000E94910D21E040EF50E06EE172E086E1DF
:1009700094E00E94910D1F910F9108951F920F9284
:100980000FB60F9211242F933F938F939F93AF93A2
:10099000BF938091640290916502A0916602B0912C
:1009A00067023091630223E0230F2D3758F501963B
:1009B000A11DB11D20936302809364029093650290
:1009C000A0936602B093670280915F0290916002EB
:1009D000A0916102B09162020196A11DB11D8093A8
:1009E0005F0290936002A0936102B0936202BF9194
:1009F000AF919F918F913F912F910F900FBE0F90CC
:100A00001F90189526E8230F0296A11DB11DD2CF85
:100A1000E0917002F09171028081811107C08FEF27
:100A20009FEF90935802809357020895E0917002CF
:100A3000F09171020580F681E02D80819181F1CFE6
:100A4000FC01DB010FB6F8940F9240916B025091BC
:100A50006C022D913C9111972F3F320711F181814A
:100A6000928160916D027081761749F0481759079D
:100A700030F01D921C9281E00F900FBE0895481B2C
:100A8000590B42175307A8F7241B350B2D933C93A2
:100A900080916D02808380916B0290916C029283B1
:100AA000818380E0E9CFCF93DF93DC011596ED9150
:100AB000FC910680F781E02DA489B589868597850C
:100AC00020893189EC013D832C83C089D1899B83A6
:100AD0008A83CF010C9611962D913C91129728177D
:100AE000390721F41296DC93CE931197158A148A54
:100AF0002C9121502C9320916802211157C0A2857E
:100B0000B3858481958126813781EC013D832C83D7
:100B1000C681D7819B838A83CF01029611962D913E
:100B20003C9112972817390721F41296DC93CE9343
:100B30001197138612862C9121502C93C6892091EF
:100B4000C3022C1710F4C093C30229E02C9FE001CC
:100B50001124C156DD4F0980DA81C02DD583C483AD
:100B60004C815D8157834683AC81BD8113969C93F4
:100B70008E9312979D838C83A689A29FD001112406
:100B8000A156BD4FB387A2878C918F5F8C93A091A4
:100B90003602B0913702968956968C91891730F5B6
:100BA00081E080935602DF91CF910895A091850254
:100BB000B0918602B787A68714962D913C91159720
:100BC000318B208B1496CD91DC9115979B838A8372
:100BD00015969C938E93149784E892E0958B848B62
:100BE000809184028F5F80938402D1CF80E0DBCF3D
:100BF0000FB6F8940F9280916B0290916C020F9057
:100C00000FBE0895809168028F5F809368020895F7
:100C10000FB6F8940F92FC01928D0F900FBE81E0F9
:100C2000911180E00895EF92FF920F931F93CF935D
:100C3000DF93EC010FB6F8940F921E8D7C0181E1D9
:100C4000E80EF11C01E01116D4F08FEF8E8F0F909B
:100C50000FBE0FB6F8940F921D8D7E0188E0E80E4E
:100C6000F11C01E01116ACF08FEF8D8F0F900FBECD
:100C7000DF91CF911F910F91FF90EF900895898997
:100C8000882319F3C7010FDF811100935602115019
:100C9000DACF8885882341F3C70105DF81110093EE
:100CA00056021150DFCFCF93DF93FC01A085B185B1
:100CB0008281938124813581EC013D832C83C48121
:100CC000D5819B838A8311968D919C9112978E1763
:100CD0009F0721F41296DC93CE931197118610860C
:100CE0008C9181508C938C91DF91CF9108950F93CB
:100CF0001F93CF93DF938C01FB0180819181D801F9
:100D000013968F3F9807F1F4E801AF81B8851296EA
:100D10008D919C91139793838283EC01FD83EC83E7
:100D2000B583A4831396FC93EE93129711870087E3
:100D3000F80180818F5F8083DF91CF911F910F91A8
:100D40000895D90112962D913C911397E90148819C
:100D5000598184179507A8F7DACFFC017383628362
:100D6000918780874617570788F0421B530B84856D
:100D7000958548175907C0F4BF016E5F7F4F80917A
:100D80005B0290915C02B3DF80E008954217530745
:100D900018F46217730740F4BF016E5F7F4F8091B4
:100DA0005D0290915E02EFCF81E00895FF920F9374
:100DB0001F93CF93DF93EC01F62E00916B021091FD
:100DC0006C02809136029091370202966CDFCF3F21
:100DD000DC07E9F5FF20D9F1E0917302F09174028C
:100DE000A0913602B09137021596FC93EE931497BA
:100DF000A0913602B09137028481958117969C9319
:100E00008E9316978091360290913702A481B58116
:100E1000029613969C938E9312978091360290912E
:100E20003702029695838483E0913602F09137026F
:100E300082E792E093878287809172028F5F80932E
:100E40007202DF91CF911F910F91FF900895C00F13
:100E5000D11FE0913602F0913702D383C2836091B3
:100E6000360270913702C017D10760F480916E028C
:100E700090916F026E5F7F4FDF91CF911F910F9125
:100E8000FF9035CF80917002909171026E5F7F4F1D
:100E90002EDF8091570290915802C817D90788F623
:100EA000D0935802C0935702CCCFFC010396928393
:100EB00081832FEF3FEF348323839683858390874D
:100EC0008783108208950F920FB6F8940F920BB695
:100ED0000F920CB60F921F9211242F923F924F92B5
:100EE0005F926F927F928F929F92AF92BF92CF92BA
:100EF000DF92EF92FF920F931F932F933F934F93A5
:100F00005F936F937F938F939F93AF93BF93CF9391
:100F1000DF93EF93FF93A0913602B09137020DB6A5
:100F20000D920EB60D9280916802882321F081E027
:100F3000809356025FC010925602A0913602B09183
:100F40003702E0913602F09137022D913C9187896A
:100F5000908D82179307A8F0809136029091370206
:100F60008091360290913702279A2F9A2FEF87EAC5
:100F700091E6215080409040E1F700C000001F9AA8
:100F8000F5CF2091C30289E001C02150422F50E0EB
:100F9000849FF001859FF00D1124E156FD4F908153
:100FA000992399F3A181B28112960D90BC91A02D45
:100FB000B283A183289FC00111248E559D4FA8178D
:100FC000B90729F412968D919C919283818389E0CF
:100FD000849FF001859FF00D1124E156FD4F0180A3
:100FE000F281E02D868197819093370280933602BB
:100FF0002093C302A0913602B0913702CD91CDBFAC
:10100000DD91DEBFFF91EF91DF91CF91BF91AF9165
:101010009F918F917F916F915F914F913F912F9110
:101020001F910F91FF90EF90DF90CF90BF90AF9006
:101030009F908F907F906F905F904F903F902F90F8
:101040001F900F900CBE0F900BBE0F900FBE0F9015
:1010500008958F929F92BF92CF92DF92EF92FF926C
:101060000F931F93CF93DF930FB6F8940F92809155
:10107000680281508093680280916802882379F029
:1010800080E00F900FBEDF91CF911F910F91FF90E5
:10109000EF90DF90CF90BF909F908F9008958091B8
:1010A000C602882369F3E0908902F0908A02F0E09A
:1010B000E0E039E041E08091840281115CC0EF2BD7
:1010C00009F0A6DCE0905402F0905502E114F1041E
:1010D00009F47CC189E0D82ECC24C3940FEF1FEF14
:1010E00080916802811160C1C0916B02D0916C0245
:1010F0004E018FEF881A980A90926C0280926B02D0
:1011000081149104B1F48091700290917102209148
:101110006E0230916F0230937102209370029093AF
:101120006F0280936E0280916D028F5F80936D02DB
:101130006FDC8091570290915802B12C8816990665
:1011400008F026C1E0913602F0913702E689DE9E72
:10115000F0011124E156FD4F8081823010F0BB2454
:10116000B39480915602811103C0BB2009F425C1BC
:10117000C092560222C1D7011696ED91FC91A48926
:10118000B5896685778580899189EB019D838C83FC
:1011900080899189EC017B836A83BF01645F7F4F03
:1011A00011960D911C9112970617170721F41296AC
:1011B0009C938E931197158A148A8C9181508C93ED
:1011C000A285B3858481958166817781EC017D83D9
:1011D0006C8366817781EB019B838A83CF010296C2
:1011E00011960D911C9112970817190721F4129668
:1011F0007C936E931197138612862C9121502C9319
:10120000A6892091C3022A1710F4A093C3023A9F23
:10121000D0011124A156BD4F11960D90BC91A02D67
:10122000B583A48314966D917C911597778366831B
:1012300014966D917C911597EB019B838A8315968B
:101240009C938E9314979689939FD0011124A15655
:10125000BD4FB387A2878C918F5F8C93A09136028C
:10126000B091370256968C91981708F424CF40938A
:10127000560221CFE0917002F09171020580F68153
:10128000E02D0680F781E02D8281938188169906F2
:1012900028F4909358028093570254CFC285D38587
:1012A0008481958126813781DC0115963C932E93AC
:1012B000149726813781D90113969C938E931297A8
:1012C000CF01029649815A814817590711F43A8390
:1012D000298313861286288121502883A489B58901
:1012E0001097F9F02685378540895189E9015D839A
:1012F0004C8340895189EA013B832A8311966D9181
:101300007C9112979F01245F3F4F6217730721F46E
:1013100012965C934E931197158A148A2C91215042
:101320002C93A6892091C3022A1710F4A093C3021C
:10133000DA9ED0011124A156BD4F11960D90BC919B
:10134000A02DB583A48314962D913C9115973783D6
:10135000268314962D913C911597E9019B838A83EE
:1013600015969C938E93149796899D9DD001112478
:10137000A156BD4FB387A2878C918F5F8C93E0916C
:101380003602F09137028689981710F0BB24B39487
:10139000E0917002F0917102808181116BCF109306
:1013A000580200935702CECE80915402909155027C
:1013B00001969093550280935402D1E0ED1AF10802
:1013C00009F08ECE1092550210925402809156026E
:1013D000882309F455CE77DD81E053CEAF92BF92DA
:1013E000CF92DF92EF92FF920F931F93CF93DF93F1
:1013F00000D01F921F92CDB7DEB78C017B011D82FA
:101400001C8280E0680198E0C90ED11C0FB6F894E8
:101410000F92D8015A962C915A975B969C915B97A4
:10142000291708F0ACC05A96DC905A975C964C91FC
:101430005C9741118AC08D919C91892B11F080E0BD
:101440000AC0F801E480F580E114F10429F580E098
:10145000F80115821482D394D8015A96DC925A97D7
:1014600051969C91992319F0C80141961CDB81117A
:101470002ADD0F900FBE81E00F900F900F900F901C
:101480000F90DF91CF911F910F91FF90EF90DF9020
:10149000CF90BF90AF900895D70192968C9192977C
:1014A000815092968C93929756962C91569791963E
:1014B0009C91291761F28111CACF5701B2E0AB0E9E
:1014C000B11CC501F0DBF70181A1868B482F50E0EC
:1014D00024E030E0241B350B358724879091C3022C
:1014E000981710F48093C30289E0849FD001859FF0
:1014F000B00D1124A156BD4F11960D90BC91A02D99
:10150000F701B583A48314962D913C9115973783E9
:1015100026831496ED91FC911597B382A2821596BD
:10152000BC92AE921497D7015696EC915697E89FCD
:10153000F0011124E156FD4F1B96FC93EE931A9790
:1015400080818F5F808381E083CF50E0B701129666
:101550008D919C918DD6F801848D22813381820FEB
:10156000932F911D93838283248135818217930762
:1015700008F465CF808191819383828360CF2C8131
:101580003D81232B21F40F900FBE80E075CF811198
:1015900009C080916D02898380916B0290916C02E9
:1015A0009B838A830F900FBE2DDB0FB6F8940F92AA
:1015B000F801858D8F3F09F4158ED8015E968C91C8
:1015C0005E978F3F11F45E961C920F900FBEBE0186
:1015D0006C5F7F4FCE01019633DA811123C00FB6C5
:1015E000F8940F92F801928D838D0F900FBE98138F
:1015F00015C0AC80BD806091360270913702645F87
:101600007F4FC60174DB61E0C501D0DBC8010BDB95
:1016100020DD811101C057DC81E0F8CEC80103DB79
:1016200018DDFACFC801FFDA14DDAFCFCF93DF9317
:1016300000D01F921F92CDB7DEB79C018091690246
:1016400090916A020097B1F019827B836A833D838F
:101650002C832091C502BE016F5F7F4F2111209125
:101660006802BCDE0F900F900F900F900F90DF91EB
:10167000CF91089580E0F6CFEF92FF920F931F93E2
:10168000CF93DF93E0915D02F0915E028081811142
:1016900013C080915B0290915C0290935E028093F4
:1016A0005D02F0935C02E0935B02DF91CF911F91AA
:1016B0000F91FF90EF9008950580F681E02D008155
:1016C0001181C681D7817E0182E0E80EF11CC7013D
:1016D000EADAE889F989CE0119958A8982FFD2CFA1
:1016E0008C859D85800F911F0817190758F49B83DF
:1016F0008A83D987C887B70180915D0290915E0285
:10170000F6DAC0CFB801CE0191DFBCCFCF93DF9323
:10171000EC01892B21F4D7DBDF91CF91089572DAA8
:1017200060E0CE0143DB95DC8823A9F3F5CF0F926F
:101730000FB6F8940F920BB60F920CB60F921F9241
:1017400011242F923F924F925F926F927F928F92CD
:101750009F92AF92BF92CF92DF92EF92FF920F9340
:101760001F932F933F934F935F936F937F938F9329
:101770009F93AF93BF93CF93DF93EF93FF93A0918A
:101780003602B09137020DB60D920EB60D9213BE11
:10179000809168028111F9C080916B0290916C0276
:1017A000019690936C0280936B02009781F52091D3
:1017B00070023091710240916E0250916F0250930D
:1017C00071024093700230936F0220936E02209159
:1017D0006D022F5F20936D02E0917002F091710213
:1017E0002081211107C02FEF3FEF30935802209343
:1017F00057020DC0E0917002F09171020580F681F0
:10180000E02D20813181309358022093570220919E
:101810005702309158028217930710F420E0A1C0BC
:1018200020E039E0D32EE0917002F0917102308116
:10183000311107C08FEF9FEF9093580280935702AA
:1018400090C0E0917002F09171020580F681E02D68
:101850000680F781E02D428153818417950728F493
:1018600050935802409357027CC0A285B3854481AF
:10187000558166817781EA017D836C8366817781FA
:10188000EB015B834A83AF014E5F5F4F11960D9171
:101890001C9112970417150721F412967C936E93EE
:1018A0001197138612863C9131503C93A489B589D7
:1018B0001097F9F06685778500891189EB011D8302
:1018C0000C8300891189E8017B836A831196ED906E
:1018D000FC901297BF01645F7F4FE616F70621F474
:1018E00012961C930E931197158A148A3C913150CD
:1018F0003C93A6893091C3023A1710F4A093C30217
:10190000DA9ED0011124A156BD4F11960D90BC91C5
:10191000A02DB583A48314966D917C911597778340
:10192000668314966D917C911597EB015B834A83D6
:1019300015965C934E93149746894D9DD0011124C2
:10194000A156BD4FB387A2873C913F5F3C93E09186
:101950003602F09137023689431708F464CF21E04C
:1019600062CFE0913602F0913702E689D9E0ED9F2F
:10197000F0011124E156FD4F8081823008F021E012
:101980008091560281110EC00AC08091540290913C
:101990005502019690935502809354026AC0222307
:1019A00009F467C080916802882321F081E0809368
:1019B00056025FC010925602A0913602B0913702D3
:1019C000E0913602F09137022D913C918789908DFC
:1019D00082179307A8F08091360290913702809188
:1019E000360290913702279A2F9A2FEF87EA91E6D5
:1019F000215080409040E1F700C000001F9AF5CFD1
:101A00002091C30289E001C02150422F50E0849F01
:101A1000F001859FF00D1124E156FD4F908199232F
:101A200099F3A181B28112960D90BC91A02DB28341
:101A3000A183289FC00111248E559D4FA817B90777
:101A400029F412968D919C919283818389E0849FE1
:101A5000F001859FF00D1124E156FD4F0180F281C8
:101A6000E02D8681978190933702809336022093F0
:101A7000C302A0913602B0913702CD91CDBFDD9166
:101A8000DEBFFF91EF91DF91CF91BF91AF919F9119
:101A90008F917F916F915F914F913F912F911F9106
:101AA0000F91FF90EF90DF90CF90BF90AF909F90FD
:101AB0008F907F906F905F904F903F902F901F90EE
:101AC0000F900CBE0F900BBE0F900FBE0F9008959D
:101AD000CF93DF93009739F0EC0194D8CE0137D340
:101AE000DF91CF91B6CADF91CF910895CF93DF9365
:101AF000EC0188D8CE018FD2EC01ABDA209769F4E3
:101B0000279A2F9A2FEF80E792E021508040904053
:101B1000E1F700C000001F9AF5CFCE01DF91CF9111
:101B200008957F928F929F92AF92BF92CF92DF9251
:101B3000EF92FF920F931F93CF93DF93982EA92ECE
:101B4000762E872E7A01B22ECA01D0DF6C01892B46
:101B500009F4EBC088E290E0C9DFEC01892B09F4BD
:101B6000E2C0D88ECF8AA70165EA70E0C60189D3AA
:101B700081E0E81AF108EF89F88DEE0DFF1D672D61
:101B8000782DCE0149969B01285F3F4FDB014D9197
:101B9000BD01DC014D93CD01AB0141505109DA018A
:101BA0004C91442319F06217730781F718A2BE8A7B
:101BB000B9A21AA21B861A861D8A1C8AD987C887D1
:101BC00084E090E08B1991099D878C87DB8BCA8B11
:101BD00084E09E012D5D3F4FD9011D928A95E9F762
:101BE0001FA29082DF011197AC9211971C9211975E
:101BF0001C92119780E88C9311971C9211971C925C
:101C000011971C9257971C9211971C92B697F983C3
:101C1000E8830115110519F0F801D183C0830FB6CF
:101C2000F8940F928091C6028F5F8093C6028091D4
:101C3000360290913702892B09F086C0D093370283
:101C4000C09336028091C602813039F58FE992E067
:101C50002CD988EA92E029D981EB92E026D98AEB47
:101C600092E023D986E992E020D98DE892E01DD94F
:101C700084E892E01AD98BE792E017D982E792E0E4
:101C800014D986E992E090937102809370028DE8F6
:101C900092E090936F0280936E028091C4028F5FF6
:101CA0008093C402AE898091C3028A1710F4A09376
:101CB000C30229E02A9FD0011124A156BD4F1196DD
:101CC0000D90BC91A02DBD83AC8314968D919C91F9
:101CD00015979F838E831496ED91FC911597CE01F5
:101CE00002969383828315969C938E931497EE8924
:101CF000E29FF0011124E156FD4FFB87EA878081C6
:101D00008F5F80830F900FBE8091C502882349F0BA
:101D1000E0913602F091370296898E89981708F47F
:101D2000D2D881E003C0C601D3DE8FEFDF91CF911F
:101D30001F910F91FF90EF90DF90CF90BF90AF90E9
:101D40009F908F907F9008958091C5028111A5CFBB
:101D5000E0913602F091370296898E89891708F44E
:101D60009CCFD0933702C093360297CF0F931F9327
:101D7000CF93DF9302E512E020E040EC50E069E20F
:101D800072E087EC92E0CDDE813009F0B1C00FB691
:101D9000F8940F928091690290916A02892B09F060
:101DA0004AC087E492E081D88EE392E07ED887E44F
:101DB00092E090935E0280935D028EE392E09093B6
:101DC0005C0280935B0281E590E090DEEC0100977D
:101DD00071F14F96998388838AE08B8F85E08C8F91
:101DE0000FB6F8940F92888199812B8D4C8DBC0190
:101DF000249F600D711D11247D836C831A8E9B833B
:101E00008A832150330B429FB001439F700D1124F0
:101E1000860F971F9F838E838FEF8D8F8E8FCE01BE
:101E2000089643D8CE01419640D80F900FBED0936C
:101E30006A02C09369020F900FBE8091690290916F
:101E40006A02892B09F454C000E512E023E045E55D
:101E500050E06EE272E082E091E063DE813009F0F2
:101E600047C0F8942FEF3FEF30935802209357026A
:101E70008093C50210926C0210926B02A89588E1C3
:101E800090EC0FB6F894A895809360000FBE9093E5
:101E90006000A0913602B0913702CD91CDBFDD91A7
:101EA000DEBFFF91EF91DF91CF91BF91AF919F91F5
:101EB0008F917F916F915F914F913F912F911F91E2
:101EC0000F91FF90EF90DF90CF90BF90AF909F90D9
:101ED0008F907F906F905F904F903F902F901F90CA
:101EE0000F900CBE0F900BBE0F900FBE0F90089579
:101EF00080910002DF91CF911F910F91089517DC1F
:101F00001895789484B5826084BD84B5816084BD61
:101F100085B5826085BD85B5816085BD80916E0087
:101F2000816080936E0010928100809181008260B8
:101F300080938100809181008160809381008091F5
:101F400080008160809380008091B10084608093E4
:101F5000B1008091B00081608093B00080919100C9
:101F600082608093910080919100816080939100C4
:101F7000809190008160809390008091A1008260A8
:101F80008093A1008091A10081608093A100809145
:101F9000A00081608093A0008091210182608093E5
:101FA0002101809121018160809321018091200194
:101FB00081608093200180917A00846080937A0010
:101FC00080917A00826080937A0080917A008160AB
:101FD00080937A0080917A00806880937A001092D2
:101FE000C10020910502309106028FEF91E2821B21
:101FF000930B90930202809301020E949C04B6DE30
:10200000B5DE0E949C04B2DEC0E0D0E02097F1F380
:102010000E940000FBCF0F931F93CF93DF9382307A
:10202000910510F482E090E0E091C902F091CA02BB
:1020300030E020E0B0E0A0E0309799F421153105C0
:1020400009F44AC0281B390B24303105D8F58A81A0
:102050009B816115710589F1FB0193838283FE01E8
:1020600011C0408151810281138148175907E0F066
:102070004817590799F4109761F012960C9312972C
:1020800013961C933296CF01DF91CF911F910F9140
:1020900008950093C9021093CA02F4CF21153105A7
:1020A00051F04217530738F0A901DB019A01BD0135
:1020B000DF01F801C1CFEF01F9CF9093CA028093FD
:1020C000C902CDCFFE01E20FF31F819391932250FD
:1020D000310939832883D7CF2091C7023091C802B4
:1020E000232B41F420910302309104023093C80263
:1020F0002093C7022091010230910202211531057F
:1021000041F42DB73EB74091050250910602241BC1
:10211000350BE091C702F091C802E217F307A0F473
:102120002E1B3F0B2817390778F0AC014E5F5F4F2D
:102130002417350748F04E0F5F1F5093C802409395
:10214000C702819391939FCFF0E0E0E09CCFCF93C3
:10215000DF930097E9F0FC01329713821282A0917D
:10216000C902B091CA02ED0130E020E01097A1F45D
:1021700020813181820F931F2091C7023091C802C4
:102180002817390709F061C0F093C802E093C7022D
:10219000DF91CF910895EA01CE17DF07E8F54A8174
:1021A0005B819E0141155105B1F7E901FB83EA838B
:1021B00049915991C40FD51FEC17FD0761F4808137
:1021C00091810296840F951FE9019983888382810A
:1021D00093819B838A83F0E0E0E012968D919C913D
:1021E00013970097B9F52D913C911197CD01029667
:1021F000820F931F2091C7023091C8022817390718
:1022000039F6309751F51092CA021092C902B09374
:10221000C802A093C702BCCFD383C283408151813F
:10222000840F951FC817D90761F44E5F5F4F8881EF
:102230009981480F591F518340838A819B819383E1
:1022400082832115310509F0B0CFF093CA02E093E3
:10225000C9029ECFFD01DC01C0CF13821282D7CF0D
:10226000EE0FFF1F881F8BBF0790F691E02D19948A
:10227000FB01DC0102C001900D9241505040D8F7A3
:102280000895DC0101C06D9341505040E0F708957E
:04229000F894FFCFF0
:10229400030000CB028000426C696E6B2031303049
:1022A400487A004C6564206F66665F6F6E004C650B
:1022B40064207369676E616C0049444C4500546D39
:0622C40072205376630056
:00000001FF
