:10000000F7C2000016C3000014C3000012C30000B2
:1000100010C300000EC300000CC300000AC30000A0
:1000200008C3000006C3000004C3000002C30000B0
:100030000C947F0FFEC20000FCC20000FAC2000058
:10004000F8C20000F6C20000F4C20000F2C20000D4
:10005000F0C20000EEC20000ECC200008FC400003D
:10006000E8C20000E6C20000E4C20000E2C20000F4
:10007000E0C20000DEC20000DCC20000DAC2000004
:10008000D8C20000D6C20000D4C20000D2C2000014
:10009000D0C20000CEC20000CCC20000CAC2000024
:1000A000C8C20000C6C20000C4C20000C2C2000034
:1000B000C0C20000BEC20000BCC20000BAC2000044
:1000C000B8C20000B6C20000B4C20000B2C2000054
:1000D000B0C20000AEC20000ACC20000AAC2000064
:1000E000A8C2000000002100240027002A002D00E3
:1000F0003000330001010000040107010A01000083
:100100002200250028002B002E00310034000201BF
:100110000000050108010B0100002000230026005B
:1001200029002C002F00320000010000030106010D
:10013000090105050505070508080808020202026D
:100140000A0A080804040404010101010101010173
:100150000303030303030303040707070C0C0C0C3E
:100160000C0C0C0C02020202060606060606060627
:100170000B0B0B0B0B0B0B0B0102102020080810B4
:100180002040102040800201020108040201010207
:1001900004081020408080402010080402018004E0
:1001A000020180402010080402010804020101023B
:1001B0000408102040800102040810204080000044
:1001C0000A0B02090C0D0E080703040100000000D1
:1001D000000000000000000000000000000000001F
:1001E00000000000000000000000121110000000DC
:1001F00000000000000000000000000000000000FF
:1002000000000000CF93DF9300D000D000D01F92F9
:10021000CDB7DEB7E0915D02F0915E021081F12C66
:10022000E12C112329F00580F681E02DE080F1809A
:10023000E9D4DED46C018091590290915A02C8161B
:10024000D90608F078C00E943C0BD0925A02C092A6
:100250005902FFD60091690210916A021A86198626
:1002600080E06801B1E1CB0ED11C0FB6F8940F927B
:10027000F801F28CFF2009F436C1448D4423C1F00B
:1002800050E086819781840F951F97838683248110
:1002900035818217930720F080819181978386832F
:1002A000D80116966D917C91CE0101960E9438116D
:1002B000FA94F801F28E8085882329F0C801089607
:1002C000F2D3811100D60F900FBED980D7FCC2CFD8
:1002D0000C811D81F80182859385892B19F0C80155
:1002E0000296E1D485D47C018091590290915A0202
:1002F000E816F90610F40E943C0BF0925A02E092C4
:100300005902F9E0FD1508F4A5CFED2DDD0CFF0B2A
:10031000D80152969C918827EF56FE4F8F4F0C9430
:1003200030113802380238026E025A02680238026E
:1003300038026E025A02D0925A02C0925902112318
:1003400081F1CE14DF04A0F184D6E0915D02F0913A
:100350005E020580F681E02D06811781C8010296B4
:10036000A2D4D80152968C91529782FF16C01C9647
:100370006D917C916E0D7F1D9701A601C801EDD492
:10038000882321F0B701C8010E94160BD8015096AE
:10039000ED91FC91C80119955DCF8E7FF801828B9C
:1003A000F5CFE0915B02F0915C02808161E0811108
:1003B00060E00091690210916A020FB6F8940F9202
:1003C000F801858D8F3F09F4158ED8015E968C91CA
:1003D0005E978F3F11F45E961C920F900FBEF8014E
:1003E000828D81113EC00288F389E02DA0913602F2
:1003F000B09137021F96FC93EE931E97A0913602A0
:10040000B09137028481958151969C938E93509739
:100410008091360290913702A481B5810C96139693
:100420009C938E93129780913602909137020C968E
:1004300095838483E0913602F0913702C80141969A
:10044000958B848BD80151968C9151978F5F5196E3
:100450008C93C7018C199D09662311F08FEF9FEFD4
:10046000A5D4C801E0D3F5D58111F4CE2CD5F2CEB8
:100470009160F801928BCA80DB80648575856C0D74
:100480007D1D9601A701C80168D4882309F4E2CE36
:10049000D8015096ED91FC91C8011995F801828917
:1004A00082FFD8CE648575856C0D7D1DC8010E94C4
:1004B000160BD0CE9160F801928B6A817B81758793
:1004C00064876E0D7F1D9701A701C80146D4C2CE77
:1004D00091FD04C0C8010E94680DBCCE9E7FD8016A
:1004E00052969C93B7CE29853A85232B19F40F9009
:1004F0000FBE90CE811109C080916D028E838091D4
:100500006B0290916C0298878F830F900FBE7AD305
:100510000FB6F8940F92D8015D968C915D978F3F3E
:1005200011F45D961C92F801868D8F3F09F4168EAA
:100530000F900FBEBE01675F7F4FCE01069680D23F
:1005400081111DC0C80164D38823A9F0E984FA840D
:100550006091360270913702645F7F4FC601C7D346
:1005600061E0C70123D4C8015ED373D5811101C0F6
:10057000AAD481E07ACEC80156D36BD5FACFC80190
:1005800052D367D5C80144D3882399F343CE00E002
:1005900010E080913D0281110BC080919F0282305A
:1005A00008F091D401151105A1F30E940000F1CFCC
:1005B0000FB6F8940F92E0918002F0918102C6810B
:1005C000D781CE0102966FD38091C602815080936D
:1005D000C60280913D02815080933D020F900FBE74
:1005E0008F89988D0E94680DCE010E94680DD1CF31
:1005F00011241FBECFEFD1E2DEBFCDBF00E00CBFA4
:1006000012E0A0E0B2E0E4E9F2E200E00BBF02C0D9
:1006100007900D92A633B107D9F722E0A6E3B2E026
:1006200001C01D92AB3CB207E1F70E94810F0C9410
:100630004811E6CC8150823108F05AC0E82FF0E032
:100640008827EA5DFC4F8F4F0C94301146034A0314
:1006500038033E03420378034D03530357035D03FE
:10066000610365036B036F037803730379037D03F1
:10067000809180008F778093800008958091800022
:100680008F7DF9CF80918000877FF5CF84B58F77FC
:1006900084BD089584B58F7DFBCF8091B0008F77A6
:1006A0008093B00008958091B0008F7DF9CF809144
:1006B00090008F77809390000895809190008F7DB7
:1006C000F9CF80919000877FF5CF8091A0008F7740
:1006D0008093A00008958091A0008F7DF9CF809134
:1006E000A000877FF5CF809120018F778093200134
:1006F0000895809120018F7DF9CF80912001877F1F
:10070000F5CFCF93DF93282F30E0F901E254FE4F6D
:100710008491F901E858FE4FD491F901EE5CFE4F47
:10072000C491CC2399F0811185DFEC2FF0E0EE0F1E
:10073000FF1FE85EFE4FA591B491EC91ED2381E09F
:1007400090E009F480E0DF91CF91089580E090E09F
:10075000FACF1F93CF93DF93282F30E0F901E254B3
:10076000FE4F8491F901E858FE4FD491F901EE5CF7
:10077000FE4FC491CC23A1F0162F81115BDFEC2F2B
:10078000F0E0EE0FFF1FE250FF4FA591B4918FB73D
:10079000F894EC91111108C0D095DE23DC938FBF43
:1007A000DF91CF911F910895DE2BF8CFCF93DF9388
:1007B00090E0FC01E858FE4F24918E5C9E4FFC01B6
:1007C00084918823D1F090E0880F991FFC01EC51AF
:1007D000FF4FA591B491FC01E250FF4FC591D49118
:1007E00061110EC09FB7F8948C91E22FE0958E2393
:1007F0008C932881E223E8839FBFDF91CF910895F6
:100800008FB7F894EC91E22BEC938FBFF6CF81E099
:1008100090E07CD78AE075DF019719F483E090E0DF
:1008200075C789E06EDF0197C9F3089561E08BE039
:10083000BDDF60E089E0BADF60E08BE08ADFD0E016
:10084000C0E082E0E82EF12C80913B0290913C02C6
:100850008130910539F1A8F082309105C9F71091E6
:100860003A02112309F43DC08BE04BDF61E0892B94
:1008700009F060E08BE06DDF8FE190E047D7115029
:10088000F0CF10923A0260E08BE063DF89E039DF5D
:100890008130910521F490933C0280933B02D0E09B
:1008A000C0E0D2CF89E02DDF0197B9F480913A0200
:1008B0008F5F80933A0261E08BE04BDFA8DF81E03D
:1008C00090E024D76E96C83B8BE0D80709F0BCCFE8
:1008D000F0923C02E0923B02B7CF60E08BE039DF60
:1008E000EECF10923C0210923B02AECF61E08DE061
:1008F0005DDF60E08DE02DDF8DE003DF61E0892BBF
:1009000009F060E08DE025DF8FE190E0FFD6F4CFC5
:1009100061E08CE04BDF60E08AE048DF8AE0F1DEF6
:10092000019731F461E08CE014DF71DFCCD2F6CFB7
:1009300060E08CE00EDFFACF0F931F9310E000E031
:1009400022E040E850E067E072E086E794E00E9431
:10095000910D21E040E850E063E172E088E894E026
:100960000E94910D21E040EF50E06EE172E086E1DF
:1009700094E00E94910D1F910F9108951F920F9284
:100980000FB60F9211242F933F938F939F93AF93A2
:10099000BF938091640290916502A0916602B0912C
:1009A00067023091630223E0230F2D3758F501963B
:1009B000A11DB11D20936302809364029093650290
:1009C000A0936602B093670280915F0290916002EB
:1009D000A0916102B09162020196A11DB11D8093A8
:1009E0005F0290936002A0936102B0936202BF9194
:1009F000AF919F918F913F912F910F900FBE0F90CC
:100A00001F90189526E8230F0296A11DB11DD2CF85
:100A1000E0917002F09171028081811107C08FEF27
:100A20009FEF90935802809357020895E0917002CF
:100A3000F09171020580F681E02D80819181F1CFE6
:100A4000FC01DB010FB6F8940F9240916B025091BC
:100A50006C022D913C9111972F3F320711F181814A
:100A6000928160916D027081761749F0481759079D
:100A700030F01D921C9281E00F900FBE0895481B2C
:100A8000590B42175307A8F7241B350B2D933C93A2
:100A900080916D02808380916B0290916C029283B1
:100AA000818380E0E9CFCF93DF93DC011596ED9150
:100AB000FC910680F781E02DA489B589868597850C
:100AC00020893189EC013D832C83C089D1899B83A6
:100AD0008A83CF010C9611962D913C91129728177D
:100AE000390721F41296DC93CE931197158A148A54
:100AF0002C9121502C9320916802211157C0A2857E
:100B0000B3858481958126813781EC013D832C83D7
:100B1000C681D7819B838A83CF01029611962D913E
:100B20003C9112972817390721F41296DC93CE9343
:100B30001197138612862C9121502C93C6892091EF
:100B4000C3022C1710F4C093C30229E02C9FE001CC
:100B50001124C156DD4F0980DA81C02DD583C483AD
:100B60004C815D8157834683AC81BD8113969C93F4
:100B70008E9312979D838C83A689A29FD001112406
:100B8000A156BD4FB387A2878C918F5F8C93A091A4
:100B90003602B0913702968956968C91891730F5B6
:100BA00081E080935602DF91CF910895A091850254
:100BB000B0918602B787A68714962D913C91159720
:100BC000318B208B1496CD91DC9115979B838A8372
:100BD00015969C938E93149784E892E0958B848B62
:100BE000809184028F5F80938402D1CF80E0DBCF3D
:100BF0000FB6F8940F9280916B0290916C020F9057
:100C00000FBE0895809168028F5F809368020895F7
:100C10000FB6F8940F92FC01928D0F900FBE81E0F9
:100C2000911180E00895EF92FF920F931F93CF935D
:100C3000DF93EC010FB6F8940F921E8D7C0181E1D9
:100C4000E80EF11C01E01116D4F08FEF8E8F0F909B
:100C50000FBE0FB6F8940F921D8D7E0188E0E80E4E
:100C6000F11C01E01116ACF08FEF8D8F0F900FBECD
:100C7000DF91CF911F910F91FF90EF900895898997
:100C8000882319F3C7010FDF811100935602115019
:100C9000DACF8885882341F3C70105DF81110093EE
:100CA00056021150DFCFCF93DF93FC01A085B185B1
:100CB0008281938124813581EC013D832C83C48121
:100CC000D5819B838A8311968D919C9112978E1763
:100CD0009F0721F41296DC93CE931197118610860C
:100CE0008C9181508C938C91DF91CF9108950F93CB
:100CF0001F93CF93DF938C01FB0180819181D801F9
:100D000013968F3F9807F1F4E801AF81B8851296EA
:100D10008D919C91139793838283EC01FD83EC83E7
:100D2000B583A4831396FC93EE93129711870087E3
:100D3000F80180818F5F8083DF91CF911F910F91A8
:100D40000895D90112962D913C911397E90148819C
:100D5000598184179507A8F7DACFFC017383628362
:100D6000918780874617570788F0421B530B84856D
:100D7000958548175907C0F4BF016E5F7F4F80917A
:100D80005B0290915C02B3DF80E008954217530745
:100D900018F46217730740F4BF016E5F7F4F8091B4
:100DA0005D0290915E02EFCF81E00895FF920F9374
:100DB0001F93CF93DF93EC01F62E00916B021091FD
:100DC0006C02809136029091370202966CDFCF3F21
:100DD000DC07E9F5FF20D9F1E0917302F09174028C
:100DE000A0913602B09137021596FC93EE931497BA
:100DF000A0913602B09137028481958117969C9319
:100E00008E9316978091360290913702A481B58116
:100E1000029613969C938E9312978091360290912E
:100E20003702029695838483E0913602F09137026F
:100E300082E792E093878287809172028F5F80932E
:100E40007202DF91CF911F910F91FF900895C00F13
:100E5000D11FE0913602F0913702D383C2836091B3
:100E6000360270913702C017D10760F480916E028C
:100E700090916F026E5F7F4FDF91CF911F910F9125
:100E8000FF9035CF80917002909171026E5F7F4F1D
:100E90002EDF8091570290915802C817D90788F623
:100EA000D0935802C0935702CCCFFC010396928393
:100EB00081832FEF3FEF348323839683858390874D
:100EC0008783108208950F920FB6F8940F920BB695
:100ED0000F920CB60F921F9211242F923F924F92B5
:100EE0005F926F927F928F929F92AF92BF92CF92BA
:100EF000DF92EF92FF920F931F932F933F934F93A5
:100F00005F936F937F938F939F93AF93BF93CF9391
:100F1000DF93EF93FF93A0913602B09137020DB6A5
:100F20000D920EB60D9280916802882321F081E027
:100F3000809356025FC010925602A0913602B09183
:100F40003702E0913602F09137022D913C9187896A
:100F5000908D82179307A8F0809136029091370206
:100F60008091360290913702279A2F9A2FEF87EAC5
:100F700091E6215080409040E1F700C000001F9AA8
:100F8000F5CF2091C30289E001C02150422F50E0EB
:100F9000849FF001859FF00D1124E156FD4F908153
:100FA000992399F3A181B28112960D90BC91A02D45
:100FB000B283A183289FC00111248E559D4FA8178D
:100FC000B90729F412968D919C919283818389E0CF
:100FD000849FF001859FF00D1124E156FD4F0180A3
:100FE000F281E02D868197819093370280933602BB
:100FF0002093C302A0913602B0913702CD91CDBFAC
:10100000DD91DEBFFF91EF91DF91CF91BF91AF9165
:101010009F918F917F916F915F914F913F912F9110
:101020001F910F91FF90EF90DF90CF90BF90AF9006
:101030009F908F907F906F905F904F903F902F90F8
:101040001F900F900CBE0F900BBE0F900FBE0F9015
:1010500008958F929F92BF92CF92DF92EF92FF926C
:101060000F931F93CF93DF930FB6F8940F92809155
:10107000680281508093680280916802882379F029
:1010800080E00F900FBEDF91CF911F910F91FF90E5
:10109000EF90DF90CF90BF909F908F9008958091B8
:1010A000C602882369F3E0908902F0908A02F0E09A
:1010B000E0E039E041E08091840281115CC0EF2BD7
:1010C00009F0A6DCE0905402F0905502E114F1041E
:1010D00009F47CC189E0D82ECC24C3940FEF1FEF14
:1010E00080916802811160C1C0916B02D0916C0245
:1010F0004E018FEF881A980A90926C0280926B02D0
:1011000081149104B1F48091700290917102209148
:101110006E0230916F0230937102209370029093AF
:101120006F0280936E0280916D028F5F80936D02DB
:101130006FDC8091570290915802B12C8816990665
:1011400008F026C1E0913602F0913702E689DE9E72
:10115000F0011124E156FD4F8081823010F0BB2454
:10116000B39480915602811103C0BB2009F425C1BC
:10117000C092560222C1D7011696ED91FC91A48926
:10118000B5896685778580899189EB019D838C83FC
:1011900080899189EC017B836A83BF01645F7F4F03
:1011A00011960D911C9112970617170721F41296AC
:1011B0009C938E931197158A148A8C9181508C93ED
:1011C000A285B3858481958166817781EC017D83D9
:1011D0006C8366817781EB019B838A83CF010296C2
:1011E00011960D911C9112970817190721F4129668
:1011F0007C936E931197138612862C9121502C9319
:10120000A6892091C3022A1710F4A093C3023A9F23
:10121000D0011124A156BD4F11960D90BC91A02D67
:10122000B583A48314966D917C911597778366831B
:1012300014966D917C911597EB019B838A8315968B
:101240009C938E9314979689939FD0011124A15655
:10125000BD4FB387A2878C918F5F8C93A09136028C
:10126000B091370256968C91981708F424CF40938A
:10127000560221CFE0917002F09171020580F68153
:10128000E02D0680F781E02D8281938188169906F2
:1012900028F4909358028093570254CFC285D38587
:1012A0008481958126813781DC0115963C932E93AC
:1012B000149726813781D90113969C938E931297A8
:1012C000CF01029649815A814817590711F43A8390
:1012D000298313861286288121502883A489B58901
:1012E0001097F9F02685378540895189E9015D839A
:1012F0004C8340895189EA013B832A8311966D9181
:101300007C9112979F01245F3F4F6217730721F46E
:1013100012965C934E931197158A148A2C91215042
:101320002C93A6892091C3022A1710F4A093C3021C
:10133000DA9ED0011124A156BD4F11960D90BC919B
:10134000A02DB583A48314962D913C9115973783D6
:10135000268314962D913C911597E9019B838A83EE
:1013600015969C938E93149796899D9DD001112478
:10137000A156BD4FB387A2878C918F5F8C93E0916C
:101380003602F09137028689981710F0BB24B39487
:10139000E0917002F0917102808181116BCF109306
:1013A000580200935702CECE80915402909155027C
:1013B00001969093550280935402D1E0ED1AF10802
:1013C00009F08ECE1092550210925402809156026E
:1013D000882309F455CE77DD81E053CEAF92BF92DA
:1013E000CF92DF92EF92FF920F931F93CF93DF93F1
:1013F00000D01F921F92CDB7DEB78C017B011D82FA
:101400001C8280E0680198E0C90ED11C0FB6F894E8
:101410000F92D8015A962C915A975B969C915B97A4
:10142000291708F0ACC05A96DC905A975C964C91FC
:101430005C9741118AC08D919C91892B11F080E0BD
:101440000AC0F801E480F580E114F10429F580E098
:10145000F80115821482D394D8015A96DC925A97D7
:1014600051969C91992319F0C80141961CDB81117A
:101470002ADD0F900FBE81E00F900F900F900F901C
:101480000F90DF91CF911F910F91FF90EF90DF9020
:10149000CF90BF90AF900895D70192968C9192977C
:1014A000815092968C93929756962C91569791963E
:1014B0009C91291761F28111CACF5701B2E0AB0E9E
:1014C000B11CC501F0DBF70181A1868B482F50E0EC
:1014D00024E030E0241B350B358724879091C3022C
:1014E000981710F48093C30289E0849FD001859FF0
:1014F000B00D1124A156BD4F11960D90BC91A02D99
:10150000F701B583A48314962D913C9115973783E9
:1015100026831496ED91FC911597B382A2821596BD
:10152000BC92AE921497D7015696EC915697E89FCD
:10153000F0011124E156FD4F1B96FC93EE931A9790
:1015400080818F5F808381E083CF50E0B701129666
:101550008D919C918DD6F801848D22813381820FEB
:10156000932F911D93838283248135818217930762
:1015700008F465CF808191819383828360CF2C8131
:101580003D81232B21F40F900FBE80E075CF811198
:1015900009C080916D02898380916B0290916C02E9
:1015A0009B838A830F900FBE2DDB0FB6F8940F92AA
:1015B000F801858D8F3F09F4158ED8015E968C91C8
:1015C0005E978F3F11F45E961C920F900FBEBE0186
:1015D0006C5F7F4FCE01019633DA811123C00FB6C5
:1015E000F8940F92F801928D838D0F900FBE98138F
:1015F00015C0AC80BD806091360270913702645F87
:101600007F4FC60174DB61E0C501D0DBC8010BDB95
:1016100020DD811101C057DC81E0F8CEC80103DB79
:1016200018DDFACFC801FFDA14DDAFCFCF93DF9317
:1016300000D01F921F92CDB7DEB79C018091690246
:1016400090916A020097B1F019827B836A833D838F
:101650002C832091C502BE016F5F7F4F2111209125
:101660006802BCDE0F900F900F900F900F90DF91EB
:10167000CF91089580E0F6CFEF92FF920F931F93E2
:10168000CF93DF93E0915D02F0915E028081811142
:1016900013C080915B0290915C0290935E028093F4
:1016A0005D02F0935C02E0935B02DF91CF911F91AA
:1016B0000F91FF90EF9008950580F681E02D008155
:1016C0001181C681D7817E0182E0E80EF11CC7013D
:1016D000EADAE889F989CE0119958A8982FFD2CFA1
:1016E0008C859D85800F911F0817190758F49B83DF
:1016F0008A83D987C887B70180915D0290915E0285
:10170000F6DAC0CFB801CE0191DFBCCFCF93DF9323
:10171000EC01892B21F4D7DBDF91CF91089572DAA8
:1017200060E0CE0143DB95DC8823A9F3F5CF0F926F
:101730000FB6F8940F920BB60F920CB60F921F9241
:1017400011242F923F924F925F926F927F928F92CD
:101750009F92AF92BF92CF92DF92EF92FF920F9340
:101760001F932F933F934F935F936F937F938F9329
:101770009F93AF93BF93CF93DF93EF93FF93A0918A
:101780003602B09137020DB60D920EB60D9213BE11
:10179000809168028111F9C080916B0290916C0276
:1017A000019690936C0280936B02009781F52091D3
:1017B00070023091710240916E0250916F0250930D
:1017C00071024093700230936F0220936E02209159
:1017D0006D022F5F20936D02E0917002F091710213
:1017E0002081211107C02FEF3FEF30935802209343
:1017F00057020DC0E0917002F09171020580F681F0
:10180000E02D20813181309358022093570220919E
:101810005702309158028217930710F420E0A1C0BC
:1018200020E039E0D32EE0917002F0917102308116
:10183000311107C08FEF9FEF9093580280935702AA
:1018400090C0E0917002F09171020580F681E02D68
:101850000680F781E02D428153818417950728F493
:1018600050935802409357027CC0A285B3854481AF
:10187000558166817781EA017D836C8366817781FA
:10188000EB015B834A83AF014E5F5F4F11960D9171
:101890001C9112970417150721F412967C936E93EE
:1018A0001197138612863C9131503C93A489B589D7
:1018B0001097F9F06685778500891189EB011D8302
:1018C0000C8300891189E8017B836A831196ED906E
:1018D000FC901297BF01645F7F4FE616F70621F474
:1018E00012961C930E931197158A148A3C913150CD
:1018F0003C93A6893091C3023A1710F4A093C30217
:10190000DA9ED0011124A156BD4F11960D90BC91C5
:10191000A02DB583A48314966D917C911597778340
:10192000668314966D917C911597EB015B834A83D6
:1019300015965C934E93149746894D9DD0011124C2
:10194000A156BD4FB387A2873C913F5F3C93E09186
:101950003602F09137023689431708F464CF21E04C
:1019600062CFE0913602F0913702E689D9E0ED9F2F
:10197000F0011124E156FD4F8081823008F021E012
:101980008091560281110EC00AC08091540290913C
:101990005502019690935502809354026AC0222307
:1019A00009F467C080916802882321F081E0809368
:1019B00056025FC010925602A0913602B0913702D3
:1019C000E0913602F09137022D913C918789908DFC
:1019D00082179307A8F08091360290913702809188
:1019E000360290913702279A2F9A2FEF87EA91E6D5
:1019F000215080409040E1F700C000001F9AF5CFD1
:101A00002091C30289E001C02150422F50E0849F01
:101A1000F001859FF00D1124E156FD4F908199232F
:101A200099F3A181B28112960D90BC91A02DB28341
:101A3000A183289FC00111248E559D4FA817B90777
:101A400029F412968D919C919283818389E0849FE1
:101A5000F001859FF00D1124E156FD4F0180F281C8
:101A6000E02D8681978190933702809336022093F0
:101A7000C302A0913602B0913702CD91CDBFDD9166
:101A8000DEBFFF91EF91DF91CF91BF91AF919F9119
:101A90008F917F916F915F914F913F912F911F9106
:101AA0000F91FF90EF90DF90CF90BF90AF909F90FD
:101AB0008F907F906F905F904F903F902F901F90EE
:101AC0000F900CBE0F900BBE0F900FBE0F9008959D
:101AD000CF93DF93009739F0EC0194D8CE0137D340
:101AE000DF91CF91B6CADF91CF910895CF93DF9365
:101AF000EC0188D8CE018FD2EC01ABDA209769F4E3
:101B0000279A2F9A2FEF80E792E021508040904053
:101B1000E1F700C000001F9AF5CFCE01DF91CF9111
:101B200008957F928F929F92AF92BF92CF92DF9251
:101B3000EF92FF920F931F93CF93DF93982EA92ECE
:101B4000762E872E7A01B22ECA01D0DF6C01892B46
:101B500009F4EBC088E290E0C9DFEC01892B09F4BD
:101B6000E2C0D88ECF8AA70165EA70E0C60189D3AA
:101B700081E0E81AF108EF89F88DEE0DFF1D672D61
:101B8000782DCE0149969B01285F3F4FDB014D9197
:101B9000BD01DC014D93CD01AB0141505109DA018A
:101BA0004C91442319F06217730781F718A2BE8A7B
:101BB000B9A21AA21B861A861D8A1C8AD987C887D1
:101BC00084E090E08B1991099D878C87DB8BCA8B11
:101BD00084E09E012D5D3F4FD9011D928A95E9F762
:101BE0001FA29082DF011197AC9211971C9211975E
:101BF0001C92119780E88C9311971C9211971C925C
:101C000011971C9257971C9211971C92B697F983C3
:101C1000E8830115110519F0F801D183C0830FB6CF
:101C2000F8940F928091C6028F5F8093C6028091D4
:101C3000360290913702892B09F086C0D093370283
:101C4000C09336028091C602813039F58FE992E067
:101C50002CD988EA92E029D981EB92E026D98AEB47
:101C600092E023D986E992E020D98DE892E01DD94F
:101C700084E892E01AD98BE792E017D982E792E0E4
:101C800014D986E992E090937102809370028DE8F6
:101C900092E090936F0280936E028091C4028F5FF6
:101CA0008093C402AE898091C3028A1710F4A09376
:101CB000C30229E02A9FD0011124A156BD4F1196DD
:101CC0000D90BC91A02DBD83AC8314968D919C91F9
:101CD00015979F838E831496ED91FC911597CE01F5
:101CE00002969383828315969C938E931497EE8924
:101CF000E29FF0011124E156FD4FFB87EA878081C6
:101D00008F5F80830F900FBE8091C502882349F0BA
:101D1000E0913602F091370296898E89981708F47F
:101D2000D2D881E003C0C601D3DE8FEFDF91CF911F
:101D30001F910F91FF90EF90DF90CF90BF90AF90E9
:101D40009F908F907F9008958091C5028111A5CFBB
:101D5000E0913602F091370296898E89891708F44E
:101D60009CCFD0933702C093360297CF0F931F9327
:101D7000CF93DF9302E512E020E040EC50E069E20F
:101D800072E087EC92E0CDDE813009F0B1C00FB691
:101D9000F8940F928091690290916A02892B09F060
:101DA0004AC087E492E081D88EE392E07ED887E44F
:101DB00092E090935E0280935D028EE392E09093B6
:101DC0005C0280935B0281E590E090DEEC0100977D
:101DD00071F14F96998388838AE08B8F85E08C8F91
:101DE0000FB6F8940F92888199812B8D4C8DBC0190
:101DF000249F600D711D11247D836C831A8E9B833B
:101E00008A832150330B429FB001439F700D1124F0
:101E1000860F971F9F838E838FEF8D8F8E8FCE01BE
:101E2000089643D8CE01419640D80F900FBED0936C
:101E30006A02C09369020F900FBE8091690290916F
:101E40006A02892B09F454C000E512E023E045E55D
:101E500050E06EE272E082E091E063DE813009F0F2
:101E600047C0F8942FEF3FEF30935802209357026A
:101E70008093C50210926C0210926B02A89588E1C3
:101E800090EC0FB6F894A895809360000FBE9093E5
:101E90006000A0913602B0913702CD91CDBFDD91A7
:101EA000DEBFFF91EF91DF91CF91BF91AF919F91F5
:101EB0008F917F916F915F914F913F912F911F91E2
:101EC0000F91FF90EF90DF90CF90BF90AF909F90D9
:101ED0008F907F906F905F904F903F902F901F90CA
:101EE0000F900CBE0F900BBE0F900FBE0F90089579
:101EF00080910002DF91CF911F910F91089517DC1F
:101F00001895789484B5826084BD84B5816084BD61
:101F100085B5826085BD85B5816085BD80916E0087
:101F2000816080936E0010928100809181008260B8
:101F300080938100809181008160809381008091F5
:101F400080008160809380008091B10084608093E4
:101F5000B1008091B00081608093B00080919100C9
:101F600082608093910080919100816080939100C4
:101F7000809190008160809390008091A1008260A8
:101F80008093A1008091A10081608093A100809145
:101F9000A00081608093A0008091210182608093E5
:101FA0002101809121018160809321018091200194
:101FB00081608093200180917A00846080937A0010
:101FC00080917A00826080937A0080917A008160AB
:101FD00080937A0080917A00806880937A001092D2
:101FE000C10020910502309106028FEF91E2821B21
:101FF000930B90930202809301020E949C04B6DE30
:10200000B5DE0E949C04B2DEC0E0D0E02097F1F380
:102010000E940000FBCF0F931F93CF93DF9382307A
:10202000910510F482E090E0E091C902F091CA02BB
:1020300030E020E0B0E0A0E0309799F421153105C0
:1020400009F44AC0281B390B24303105D8F58A81A0
:102050009B816115710589F1FB0193838283FE01E8
:1020600011C0408151810281138148175907E0F066
:102070004817590799F4109761F012960C9312972C
:1020800013961C933296CF01DF91CF911F910F9140
:1020900008950093C9021093CA02F4CF21153105A7
:1020A00051F04217530738F0A901DB019A01BD0135
:1020B000DF01F801C1CFEF01F9CF9093CA028093FD
:1020C000C902CDCFFE01E20FF31F819391932250FD
:1020D000310939832883D7CF2091C7023091C802B4
:1020E000232B41F420910302309104023093C80263
:1020F0002093C7022091010230910202211531057F
:1021000041F42DB73EB74091050250910602241BC1
:10211000350BE091C702F091C802E217F307A0F473
:102120002E1B3F0B2817390778F0AC014E5F5F4F2D
:102130002417350748F04E0F5F1F5093C802409395
:10214000C702819391939FCFF0E0E0E09CCFCF93C3
:10215000DF930097E9F0FC01329713821282A0917D
:10216000C902B091CA02ED0130E020E01097A1F45D
:1021700020813181820F931F2091C7023091C802C4
:102180002817390709F061C0F093C802E093C7022D
:10219000DF91CF910895EA01CE17DF07E8F54A8174
:1021A0005B819E0141155105B1F7E901FB83EA838B
:1021B00049915991C40FD51FEC17FD0761F4808137
:1021C00091810296840F951FE9019983888382810A
:1021D00093819B838A83F0E0E0E012968D919C913D
:1021E00013970097B9F52D913C911197CD01029667
:1021F000820F931F2091C7023091C8022817390718
:1022000039F6309751F51092CA021092C902B09374
:10221000C802A093C702BCCFD383C283408151813F
:10222000840F951FC817D90761F44E5F5F4F8881EF
:102230009981480F591F518340838A819B819383E1
:1022400082832115310509F0B0CFF093CA02E093E3
:10225000C9029ECFFD01DC01C0CF13821282D7CF0D
:10226000EE0FFF1F881F8BBF0790F691E02D19948A
:10227000FB01DC0102C001900D9241505040D8F7A3
:102280000895DC0101C06D9341505040E0F708957E
:04229000F894FFCFF0
:10229400030000CB028000426C696E6B2031303049
:1022A400487A004C6564206F66665F6F6E004C650B
:1022B40064207369676E616C0049444C4500546D39
:0622C40072205376630056
:020000023000CC
:10E000000D9489F10D94B2F10D94B2F10D94B2F129
:10E010000D94B2F10D94B2F10D94B2F10D94B2F1F0
:10E020000D94B2F10D94B2F10D94B2F10D94B2F1E0
:10E030000D94B2F10D94B2F10D94B2F10D94B2F1D0
:10E040000D94B2F10D94B2F10D94B2F10D94B2F1C0
:10E050000D94B2F10D94B2F10D94B2F10D94B2F1B0
:10E060000D94B2F10D94B2F10D94B2F10D94B2F1A0
:10E070000D94B2F10D94B2F10D94B2F10D94B2F190
:10E080000D94B2F10D94B2F10D94B2F10D94B2F180
:10E090000D94B2F10D94B2F10D94B2F10D94B2F170
:10E0A0000D94B2F10D94B2F10D94B2F10D94B2F160
:10E0B0000D94B2F10D94B2F10D94B2F10D94B2F150
:10E0C0000D94B2F10D94B2F10D94B2F10D94B2F140
:10E0D0000D94B2F10D94B2F10D94B2F10D94B2F130
:10E0E0000D94B2F141546D656761323536300041AF
:10E0F000726475696E6F206578706C6F72657220DE
:10E1000073746B3530305632206279204D4C530099
:10E11000426F6F746C6F616465723E004875683F52
:10E1200000436F6D70696C6564206F6E203D200048
:10E130004350552054797065202020203D20005FF9
:10E140005F4156525F415243485F5F3D2000415658
:10E1500052204C696243205665723D20004743437C
:10E160002056657273696F6E203D20004350552024
:10E1700049442020202020203D20004C6F7720663D
:10E18000757365202020203D20004869676820665F
:10E190007573652020203D200045787420667573D6
:10E1A00065202020203D20004C6F636B2066757336
:10E1B000652020203D20004D617220203720323024
:10E1C000313300312E362E3800342E332E350056A2
:10E1D00023202020414444522020206F7020636F70
:10E1E00064652020202020696E73747275637469E1
:10E1F0006F6E2061646472202020496E74657272B3
:10E20000757074006E6F20766563746F7200726A49
:10E210006D702020006A6D70200057686174207056
:10E220006F72743A00506F7274206E6F7420737541
:10E2300070706F72746564004D7573742062652030
:10E2400061206C6574746572002000577269747483
:10E25000696E672045450052656164696E672045B7
:10E26000450045452065727220636E743D00504F35
:10E27000525400303D5A65726F2061646472003FF1
:10E280003D43505520737461747300403D454550C3
:10E29000524F4D207465737400423D426C696E6B41
:10E2A000204C454400453D44756D70204545505215
:10E2B0004F4D00463D44756D7020464C415348001B
:10E2C000483D48656C70004C3D4C69737420492F83
:10E2D0004F20506F72747300513D51756974005234
:10E2E0003D44756D702052414D00563D73686F7707
:10E2F00020696E7465727275707420566563746FF0
:10E30000727300593D506F727420626C696E6B00BD
:10E310002A0011241FBECFEFD1E2DEBFCDBF01E046
:10E320000CBF12E0A0E0B2E0EEE1FDEF03E00BBFB6
:10E3300002C007900D92A030B107D9F712E0A0E01B
:10E34000B2E001C01D92AE30B107E1F70F9460F367
:10E350000D948DFE01E20EBF0FEF0DBF11241FBE05
:10E360000D9460F30D9400F020E030E040ED57E0B4
:10E3700005C0FA013197F1F72F5F3F4F2817390792
:10E38000C0F308959C01260F311DC901A0E0B0E043
:10E390002F5F3F4FABBFFC018791882361F08093D3
:10E3A000C6008091C00086FFFCCF8091C0008064D1
:10E3B0008093C000EACF08958DE08093C6008091DD
:10E3C000C00086FFFCCF8091C00080648093C000B5
:10E3D0008AE08093C6008091C00086FFFCCF8091C8
:10E3E000C00080648093C00008950F94C2F10F9420
:10E3F000DCF10895FC019081992359F09093C600B7
:10E400008091C00086FFFCCF8091C0008064809323
:10E41000C0003196992379F70895282F982F929567
:10E420009F70892F805D8A3308F0895F8093C600D2
:10E430008091C00086FFFCCF8091C00080648093F3
:10E44000C000822F8F70982F905D9A3308F0995FEB
:10E450009093C6008091C00086FFFCCF8091C000E1
:10E4600080648093C00008959C01FB01853691056E
:10E470001CF46330710594F0C90164E670E00F94F8
:10E480002EFE605D7F4F6093C6008091C00086FFC6
:10E49000FCCF8091C00080648093C0002B30310598
:10E4A00014F43297B4F0C90164E670E00F942EFEC4
:10E4B0006AE070E00F942EFE605D7F4F6093C600AF
:10E4C0008091C00086FFFCCF8091C0008064809363
:10E4D000C000C9016AE070E00F942EFEC0968093E0
:10E4E000C6008091C00086FFFCCF8091C000806490
:10E4F0008093C00008951F93182F8EE692EE60E07F
:10E500000F94C2F11093C6008091C00086FFFCCF2B
:10E510008091C00080648093C0000F94DCF11F9153
:10E5200008952F923F924F925F926F927F928F92B7
:10E530009F92AF92BF92CF92DF92EF92FF920F9392
:10E540001F93DF93CF93CDB7DEB762970FB6F894E2
:10E55000DEBF0FBECDBF382E622ECA01DB015C01CB
:10E560006D01772420E2222E2E010894411C511CBB
:10E570008BC081E0A81680E0B80681E0C80680E084
:10E58000D80628F0C601AA27BB270F940DF2BB2797
:10E59000AD2D9C2D8B2D0F940DF28A2D0F940DF225
:10E5A0002092C6008091C00086FFFCCF8091C00001
:10E5B00080648093C0009DE29093C6008091C0006B
:10E5C00086FFFCCF8091C00080648093C0002092C1
:10E5D000C6008091C00086FFFCCF8091C00080649F
:10E5E0008093C00019828601750188249924A1E0D6
:10E5F0003A1651F03A1620F0B2E03B1661F409C029
:10E600000BBFF701779007C0C7010F9477FE782EF4
:10E6100002C0F7017080872D0F940DF22092C60082
:10E620008091C00086FFFCCF8091C0008064809301
:10E63000C000872D8052F401EF70F0708F3520F408
:10E64000E40DF51D708204C0E40DF51D8EE280839B
:10E650000894E11CF11C011D111D0894811C911CE2
:10E6600090E18916910409F0C2CF80E190E0A0E02A
:10E67000B0E0A80EB91ECA1EDB1E198AC2010F9493
:10E68000FAF10F94DCF16A94662009F072CF629679
:10E690000FB6F894DEBF0FBECDBFCF91DF911F91B3
:10E6A0000F91FF90EF90DF90CF90BF90AF909F9031
:10E6B0008F907F906F905F904F903F902F90089534
:10E6C0002F923F924F925F926F927F928F929F9282
:10E6D000AF92BF92CF92DF92EF92FF920F931F9370
:10E6E000DF93CF93CDB7DEB7CD53D1400FB6F894BB
:10E6F000DEBF0FBECDBF01E20EBF0FEF0DBF94B75F
:10E70000F894A89514BE80916000886180936000A1
:10E7100010926000789493FF05C0E0910002F091A0
:10E7200001021995279A2F9A8091C00082608093E8
:10E73000C00080E18093C40088E18093C1000000A4
:10E74000EE24FF24870144E0A42EB12CCC24DD2448
:10E7500024C0C5010197F1F70894E11CF11C011DCB
:10E76000111D21E2E2162EE4F20620E0020720E06D
:10E77000120718F031E0C32ED12CC801B70127ECE5
:10E780003BE140E050E00F9441FE611571058105C9
:10E79000910519F485B1805885B98091C00087FD35
:10E7A00003C0C114D104A9F2A6014F5F5F4FC25E3E
:10E7B000DE4F59834883CE51D140C25EDE4F8881FF
:10E7C0009981CE51D140019711F00D9410FEC05D9A
:10E7D000DE4F19821882C053D14060E0C15DDE4F28
:10E7E0001882CF52D14088249924C35DDE4F19820C
:10E7F0001882CD52D140C05EDE4F188219821A8233
:10E800001B82C052D140CE5CDE4F188219821A8220
:10E810001B82C253D140EE24FF2487010BBFF701B6
:10E8200007911691C45CDE4F19830883CC53D14005
:10E830000D940BFEC25EDE4F28813981CE51D1404E
:10E840002130310509F52091C600C25EDE4F1982E4
:10E850001882CE51D14022C02F5F3F4F4F4F5F4FA4
:10E86000213082E138078AE7480780E0580780F0C6
:10E87000C45CDE4FE881F981CC53D140EF5FFF4F9C
:10E8800019F0EE27FF27099420E030E040E050E047
:10E890008091C00087FFE0CF2091C600C35DDE4FAE
:10E8A00048815981CD52D1404F5F5F4FC35DDE4FEC
:10E8B00059834883CD52D140213209F063C64A3092
:10E8C000510508F05FC60894811C911C53E0851621
:10E8D000910409F059C600E010E018C081E280936D
:10E8E000C6008091C00086FFFCCF8091C00080648C
:10E8F0008093C0002F5F3F4F2931310579F70F9486
:10E90000DCF10F5F1F4F0530110519F020E030E0FA
:10E91000E5CF10920A0210920B0210920C02109294
:10E920000D02109206021092070210920802109235
:10E930000902109202021092030210920402109235
:10E9400005028FEE90EE60E00F94F5F180E191EE1C
:10E9500060E00F94C2F18091C00087FFFCCF9091DE
:10E96000C600903608F09F759032B8F09093C600BC
:10E970008091C00086FFFCCF8091C00080648093AE
:10E98000C000A0E2A093C6008091C00086FFFCCF2B
:10E990008091C00080648093C000983409F4D7C18E
:10E9A0009934B8F4923409F459C1933458F490333B
:10E9B00019F1903308F4E3C59F33A1F1903409F0C5
:10E9C000DEC5BDC0953409F470C1963409F0D7C5D1
:10E9D00098C1923509F42BC2933538F49C3409F46C
:10E9E000F5C1913509F0CBC518C2963509F445C279
:10E9F000993509F0C4C567C483E792EE62E00F94CD
:10EA0000F5F110920602109207021092080210927D
:10EA1000090210920A0210920B0210920C0210923C
:10EA20000D0213C18FE792EE62E00F94F5F18FEEC5
:10EA300090EE60E00F94F5F181E291EE60E00F94CA
:10EA4000C2F187EB91EE60E00F94F5F180E391EE77
:10EA500060E00F94C2F184EE90EE60E00F94F5F167
:10EA60008FE391EE60E00F94C2F186E090E061E008
:10EA700070E00F9434F20F94DCF18DE591EE60E0DC
:10EA80000F94C2F189EC91EE60E00F94F5F18EE401
:10EA900091EE60E00F94C2F183EC91EE60E00F9490
:10EAA000F5F18CE691EE60E00F94C2F18EE10F94E7
:10EAB0000DF288E90F940DF281E00F940DF20F949E
:10EAC000DCF18BE791EE60E00F94C2F119E0E0E039
:10EAD000F0E010935700E4918E2F0F940DF20F94F5
:10EAE000DCF18AE891EE60E00F94C2F1E3E0F0E03F
:10EAF00010935700E4918E2F0F940DF20F94DCF1D8
:10EB000089E991EE60E00F94C2F1E2E0F0E0109349
:10EB10005700E4918E2F0F940DF20F94DCF188EAE8
:10EB200091EE60E00F94C2F1E1E0F0E01093570045
:10EB30001491812F0F940DF20F94DCF107CF8BE825
:10EB400092EE62E00F94F5F18BE492EE60E00F94A8
:10EB5000F5F10F94DCF100E010E019C0C8016F2D51
:10EB60000F947FFEFF2031F489E492EE60E00F9471
:10EB7000C2F10BC0F092C6008091C00086FFFCCFAE
:10EB80008091C00080648093C0000F5F1F4FC80158
:10EB900081519F41A0E0B0E0ABBFFC01F790BAE229
:10EBA000FB1621F0E2E000301E07C1F60F94DCF105
:10EBB0000F94DCF187E592EE60E00F94F5F10F948D
:10EBC000DCF1CC24DD2400E010E01EC0C8010F946D
:10EBD00077FEF82E882331F489E492EE60E00F94FA
:10EBE000C2F10BC08093C6008091C00086FFFCCFAD
:10EBF0008091C00080648093C000FE1419F00894D6
:10EC0000C11CD11C0F5F1F4FC80181519F41A0E063
:10EC1000B0E0ABBFFC01E790FAE2EF1621F022E092
:10EC20000030120799F60F94DCF10F94DCF182E6C4
:10EC300092EE60E00F94C2F1C60161E070E00F94C3
:10EC400034F20F94DCF10F94DCF110920202109276
:10EC50000302109204021092050278CE89E992EE26
:10EC600062E00F94F5F1279A2F9A16C02F9880E052
:10EC700090E0E0EDF7E03197F1F7019684369105E9
:10EC8000C1F72F9A80E090E0E0EDF7E03197F1F7DF
:10EC9000019684369105C1F78091C00087FFE6CFC9
:10ECA0008091C00087FFFCCF64C485EA92EE62E0E9
:10ECB0000F94F5F140910202509103026091040219
:10ECC0007091050281E020E10F9491F2809102029F
:10ECD00090910302A0910402B091050280509F4FD1
:10ECE000AF4FBF4F8093020290930302A0930402A0
:10ECF000B093050280509041A040B04008F426CE69
:10ED0000A4CF83EB92EE62E00F94F5F140910602FE
:10ED100050910702609108027091090280E020E1A1
:10ED20000F9491F28091060290910702A09108023F
:10ED3000B091090280509F4FAF4FBF4F80930602A2
:10ED400090930702A0930802B0930902FFCD80ECD4
:10ED500092EE62E00F94F5F183E792EE60E00F949B
:10ED6000F5F18FE792EE60E00F94F5F18BE892EE0B
:10ED700060E00F94F5F189E992EE60E00F94F5F10F
:10ED800085EA92EE60E00F94F5F183EB92EE60E09D
:10ED90000F94F5F180EC92EE60E00F94F5F187ECC2
:10EDA00092EE60E00F94F5F188ED92EE60E00F9442
:10EDB000F5F18FED92EE60E00F94F5F18AEE92EEB0
:10EDC00060E00F94F5F183E093EEBDCD87EC92EE19
:10EDD00062E00F94F5F181E40F947BF282E40F94EA
:10EDE0007BF283E40F947BF284E40F947BF285E45E
:10EDF0000F947BF286E40F947BF287E40F947BF20E
:10EE000088E40F947BF28AE40F947BF28BE40F94F6
:10EE10007BF28CE40F947BF299CD88ED92EE62E068
:10EE20000F94F5F1772473948824992409C48FED05
:10EE300092EE62E00F94F5F140910A0250910B02BC
:10EE400060910C0270910D0282E020E10F9491F22A
:10EE500080910A0290910B02A0910C02B0910D02D8
:10EE600080509F4FAF4FBF4F80930A0290930B0289
:10EE7000A0930C02B0930D0269CD8AEE92EE62E08F
:10EE80000F94F5F184EE90EE60E00F94F5F18FECC5
:10EE900091EE60E00F94F5F1662477244301CC5D98
:10EEA000DE4F19821882C452D140D401C301B695F5
:10EEB000A79597958795CA5DDE4F88839983AA8326
:10EEC000BB83C652D140CC5DDE4FA881B981C4520C
:10EED000D1401196CC5DDE4FB983A883C452D14096
:10EEE000CD0162E070E00F9434F2B0E2B093C6005E
:10EEF0008091C00086FFFCCF8091C0008064809329
:10EF0000C000EDE2E093C6008091C00086FFFCCF18
:10EF10008091C00080648093C000F0E2F093C6004E
:10EF20008091C00086FFFCCF8091C00080648093F8
:10EF3000C000CA5DDE4FE880F9800A811B81C6529D
:10EF4000D140BB27A12F902F8F2D0F940DF2CA5DBA
:10EF5000DE4F8881C652D1400F940DF2B0E2FB2EF5
:10EF6000F092C6008091C00086FFFCCF8091C00067
:10EF700080648093C0000DE30093C6008091C000C0
:10EF800086FFFCCF8091C00080648093C00010E2B7
:10EF90001093C6008091C00086FFFCCF8091C00016
:10EFA00080648093C0008BBEF3012791C65DDE4F65
:10EFB0002883CA52D140A22EBB24CC24DD2408943D
:10EFC000611C711C811C911C8BBEF3018791282E42
:10EFD0003324442455240894611C711C811C911C09
:10EFE0008BBEF3013791C55DDE4F3883CB52D140E4
:10EFF0000894611C711C811C911C8BBEF30147910C
:10F00000C45DDE4F4883CC52D140ADEFEA2EAFEF66
:10F01000FA2EAFEF0A2FAFEF1A2F6E0C7F1C801E57
:10F02000911E142D032DF22CEE24EA0CFB1C0C1D5A
:10F030001D1D0F940DF220E22093C6008091C000A8
:10F0400086FFFCCF8091C00080648093C000C65DC5
:10F05000DE4F8881CA52D1400F940DF230E23093D6
:10F06000C6008091C00086FFFCCF8091C000806404
:10F070008093C000C45DDE4F8881CC52D1400F9494
:10F080000DF240E24093C6008091C00086FFFCCFA5
:10F090008091C00080648093C000C55DDE4F888190
:10F0A000CB52D1400F940DF250E25093C6008091A4
:10F0B000C00086FFFCCF8091C00080648093C000B8
:10F0C0008FEFE8168FEFF80680E0080780E018075A
:10F0D00031F484E092EE60E00F94C2F1DFC0D80119
:10F0E000C7018070907CA070B0708050904CA040A0
:10F0F000B040D1F52FEF3FE340E050E0E222F322B1
:10F1000004231523CA5DDE4FA880B980CA80DB8046
:10F11000C652D140AE0CBF1CC01ED11EAA0CBB1CD7
:10F12000CC1CDD1C8EE092EE60E00F94C2F1BB2798
:10F13000A12F902F8F2D0F940DF28E2D0F940DF285
:10F1400030E23093C6008091C00086FFFCCF8091F2
:10F15000C00080648093C0004EE34093C60080915D
:10F16000C00086FFFCCF87C08EE09EEFA0E0B0E03D
:10F17000E822F9220A231B239CE0E91694E9F90608
:10F1800090E0090790E0190709F088C0C45DDE4FE0
:10F19000A881CC52D140EA2EFF2400E010E0102FCD
:10F1A0000F2DFE2CEE24C55DDE4FB881CB52D14031
:10F1B000EB0EF11C011D111DD601C501817090706F
:10F1C000A070B070DC0199278827E80EF91E0A1F8D
:10F1D0001B1F20EF30E040E050E0A222B322C42207
:10F1E000D52241E1AA0CBB1CCC1CDD1C4A95D1F7F1
:10F1F000EA0CFB1C0C1D1D1D81E090E0A0E0B0E0BE
:10F20000282239224A225B2235E1220C331C441C7D
:10F21000551C3A95D1F7E20CF31C041D151D57013E
:10F220006801AA0CBB1CCC1CDD1C85E192EE60E0E1
:10F230000F94C2F1C801AA27BB270F940DF2BB2778
:10F24000A12F902F8F2D0F940DF28E2D0F940DF274
:10F2500090E29093C6008091C00086FFFCCF809121
:10F26000C00080648093C000AEE3A093C60080918C
:10F27000C00086FFFCCF8091C00080648093C000F6
:10F28000C601AA27BB270F940DF2BB27AD2D9C2DDD
:10F290008B2D0F940DF28A2D0F940DF20F94DCF14B
:10F2A000CC5DDE4FE881F981C452D140F99709F471
:10F2B0004DCBF4E0EF2EF12C012D112D6E0C7F1CA7
:10F2C000801E911EF2CD83E093EE62E00F94F5F183
:10F2D0008AE192EE60E00F94C2F18091C00087FF56
:10F2E000FCCF1091C6001F751093C6008091C0001E
:10F2F00086FFFCCF8091C00080648093C0000F9493
:10F30000DCF1812F81548A3108F036C1163409F4BA
:10F3100095C0173490F4133409F44EC0143430F40B
:10F320001134F1F0123409F01DC130C0143409F465
:10F3300059C0153409F016C16BC01A3409F4C4C0A1
:10F340001B3438F4173409F48FC0183409F00AC19B
:10F35000A1C01B3409F4D2C01C3409F003C1E8C0B9
:10F360008FEF81B90DC082B1809582B980E090E0C5
:10F37000E0EDF7E03197F1F70196883C9105C1F790
:10F380008091C00087FFEFCF12B8EFC08FEF84B934
:10F390000DC085B1809585B980E090E0E0EDF7E0A3
:10F3A0003197F1F70196883C9105C1F78091C00033
:10F3B00087FFEFCF15B8D9C08FEF87B90DC088B1DF
:10F3C000809588B980E090E0E0EDF7E03197F1F7C3
:10F3D0000196883C9105C1F78091C00087FFEFCF6F
:10F3E00018B8C3C08FEF8AB90DC08BB180958BB9A7
:10F3F00080E090E0E0EDF7E03197F1F70196883C8E
:10F400009105C1F78091C00087FFEFCF1BB8ADC059
:10F410008FEF8DB90DC08EB180958EB980E090E0F0
:10F42000E0EDF7E03197F1F70196883C9105C1F7DF
:10F430008091C00087FFEFCF1EB897C08FEF80BBD1
:10F440000DC081B3809581BB80E090E0E0EDF7E0F6
:10F450003197F1F70196883C9105C1F78091C00082
:10F4600087FFEFCF11BA81C08FEF83BB0DC084B38C
:10F47000809584BB80E090E0E0EDF7E03197F1F714
:10F480000196883C9105C1F78091C00087FFEFCFBE
:10F4900014BA6BC08FEF809301010FC080910201FD
:10F4A00080958093020180E090E0E0EDF7E03197F5
:10F4B000F1F70196883C9105C1F78091C00087FF64
:10F4C000EDCF1092020151C08FEF809304010FC065
:10F4D0008091050180958093050180E090E0E0ED4A
:10F4E000F7E03197F1F70196883C9105C1F78091DB
:10F4F000C00087FFEDCF1092050137C08FEF8093DA
:10F5000007010FC08091080180958093080180E079
:10F5100090E0E0EDF7E03197F1F70196883C910536
:10F52000C1F78091C00087FFEDCF109208011DC088
:10F530008FEF80930A010FC080910B01809580931B
:10F540000B0180E090E0E0EDF7E03197F1F70196F4
:10F55000883C9105C1F78091C00087FFEDCF1092E4
:10F560000B0103C085E292EEEEC98091C00087FFD7
:10F57000FCCF8091C600EAC988E392EEE4C98CE131
:10F5800091EEE1C988249924933011F1943028F444
:10F59000913089F09230B8F408C0953061F195301F
:10F5A000F0F0963009F048C043C02B3109F042C951
:10F5B00091E06BE13FC96227C15DDE4F2883CF52E6
:10F5C000D14092E037C9B22FA0E0622793E032C960
:10F5D000822F90E0A82BB92B622794E02BC92E3004
:10F5E00009F039C3622795E0C05DDE4F19821882A9
:10F5F000C053D1401FC9E1E0F0E0EC0FFD1FC05D3A
:10F60000DE4F08811981C053D140E00FF11F2083E4
:10F610000F5F1F4FC05DDE4F19830883C053D14079
:10F6200062270A171B0709F005C9D80196E002C92D
:10F63000261709F010C303C0973009F0FBC87724E0
:10F640009981933109F412C19431C8F4963009F4C8
:10F65000D8C0973050F4923009F406C1933009F4C1
:10F660006DC0913009F059C253C0913109F477C08F
:10F67000923108F0BBC0903109F04FC2F5C098310B
:10F6800009F487C0993150F4953109F4EFC09531F0
:10F6900008F4C6C1963109F040C2C2C19A3109F4DA
:10F6A0006CC09A3108F491C09B3109F45BC09D3164
:10F6B00009F033C29D81903359F48F81882311F46E
:10F6C0009EE11CC0813011F091E018C098E916C08D
:10F6D000892F807591F0903539F4E0E0F0E089E011
:10F6E0008093570094910AC0983539F4E3E0F0E034
:10F6F00089E080935700949101C090E01A821B82A8
:10F700008D818C831D829E831F8227E030E009C299
:10F710001A8288E08B8381E48C8386E58D8382E581
:10F720008E8389E48F8383E5888780E589878FE5E9
:10F730008A8782E38B872BE030E0F3C18A818139AD
:10F7400041F0823941F0803911F48FE005C080E04A
:10F7500003C082E001C08AE01A828B8344C0772410
:10F76000739482C08D81882311F48EE12CC0813086
:10F7700011F081E028C088E926C01A82E1E0F0E0BB
:10F7800089E08093570084918B831C8224E030E0D1
:10F79000C8C18B81803589F48C81883039F4E2E0EE
:10F7A000F0E089E08093570084910DC0E0E0F0E044
:10F7B00089E080935700849106C0E3E0F0E089E09F
:10F7C0008093570084911A82DFCF8D81836C99E0FA
:10F7D000E1E0F0E0082E90935700E89507B600FCB2
:10F7E000FDCF1A821B8223E030E09BC180EC8A832C
:10F7F000CE5CDE4F188219821A821B82C253D1401E
:10F800008EC18A8190E0A0E0B0E0582F44273327D2
:10F8100022278B8190E0A0E0B0E0DC0199278827C7
:10F82000282B392B4A2B5B2B8D8190E0A0E0B0E098
:10F83000282B392B4A2B5B2B8C8190E0A0E0B0E089
:10F84000BA2FA92F982F8827282B392B4A2B5B2BCF
:10F85000220F331F441F551FC05EDE4F288339839C
:10F860004A835B83C052D1401A8259C13A81C95C34
:10F87000DE4F3883C753D140CA5CDE4F1882C6536F
:10F88000D1408B81C82EDD24CA5CDE4F488159816E
:10F89000C653D140C42AD52A933109F082C0CE5C28
:10F8A000DE4F88819981AA81BB81C253D1408050AB
:10F8B000904CA340B04030F583E0CE5CDE4FE88052
:10F8C000F9800A811B81C253D140F70100935B008C
:10F8D00080935700E89507B600FCFDCFCE5CDE4F65
:10F8E000088119812A813B81C253D14000501F4FAA
:10F8F0002F4F3F4FCE5CDE4F088319832A833B8313
:10F90000C253D140C05EDE4F488159816A817B81FC
:10F91000C052D140DE011B9631E08C9111962C91A2
:10F9200011971296C75CDE4F2883C953D140C85C3B
:10F93000DE4F1882C853D14090E0C85CDE4FE881AA
:10F94000F981C853D1408E2B9F2B0C01FA01609393
:10F950005B0030935700E89511244E5F5F4F6F4F67
:10F960007F4F0EEFE02E0FEFF02ECE0CDF1CC114F8
:10F97000D10499F685E0C05EDE4F088119812A81A5
:10F980003B81C052D140F80120935B008093570027
:10F99000E89507B600FCFDCF81E180935700E8951C
:10F9A00035C0C05EDE4F88819981AA81BB81C0527B
:10F9B000D140B695A795979587957C018601ABE0D8
:10F9C000AA2EB12CAC0EBD1E0BC0D5016D915D01F0
:10F9D000C7010F947FFE0894E11CF11C01501040F8
:10F9E0000115110591F7A60160E070E0440F551F65
:10F9F000661F771FC05EDE4FE880F9800A811B8199
:10FA0000C052D1404E0D5F1D601F711F1A82C05E33
:10FA1000DE4F488359836A837B83C052D1407FC0C5
:10FA2000FA80C55CDE4FF882CB53D140C65CDE4F16
:10FA30001882CA53D1408B81C82EDD24C65CDE4FAC
:10FA400008811981CA53D140C02AD12A1A828981DA
:10FA5000BE016D5F7F4F843121F59601C05EDE4FA0
:10FA6000E880F9800A811B81C052D1400BBFF701A9
:10FA700087919691DB018C9311969C936E5F7F4FDB
:10FA8000D801C7010296A11DB11DC05EDE4F88835B
:10FA90009983AA83BB83C052D14022503040F1F6F3
:10FAA00036C0C05EDE4F288139814A815B81C052F9
:10FAB000D1400894C108D108760100E010E0089414
:10FAC000C11CD11C0894E11CF11C011D111DE20E8A
:10FAD000F31E041F151F21BDBB27A52F942F832FB5
:10FAE00082BD2F5F3F4F4F4F5F4FF89A80B5DB01CC
:10FAF0008D93BD012E153F054007510761F7C05E8C
:10FB0000DE4F288339834A835B83C052D1409601FC
:10FB10002D5F3F4FFB01108204C080EC8A8322E0FE
:10FB200030E08BE18093C6008091C00086FFFCCF5F
:10FB30008091C00080648093C000C15DDE4FF88179
:10FB4000CF52D140F093C6008091C00086FFFCCF19
:10FB50008091C00080648093C000432F3093C60022
:10FB60008091C00086FFFCCF8091C00080648093AC
:10FB7000C000922F2093C6008091C00086FFFCCF6A
:10FB80008091C00080648093C0008EE08093C600A6
:10FB90008091C00086FFFCCF8091C000806480937C
:10FBA000C00065E1C15DDE4FE880CF52D1406E25D7
:10FBB00069276427FE01319610C090819093C6009A
:10FBC0008091C00086FFFCCF31968091C000806498
:10FBD0008093C0006927215030402115310569F715
:10FBE0006093C6008091C00086FFFCCF8091C0006A
:10FBF00080648093C00085B1805885B9772081F4F6
:10FC0000C15DDE4F0881CF52D1400F5FC15DDE4F35
:10FC10000883CF52D14090E0A0E0B0E00D941AF4F8
:10FC200027982F9880E090E020ED37E0F901319798
:10FC3000F1F7019684369105C9F700008091C00064
:10FC40008D7F8093C00081E180935700E895EE2777
:10FC5000FF270994FFCF90E00D941AF497FB092E2B
:10FC600007260AD077FD04D02ED006D000201AF443
:10FC7000709561957F4F0895F6F7909581959F4F08
:10FC80000895A1E21A2EAA1BBB1BFD010DC0AA1FDD
:10FC9000BB1FEE1FFF1FA217B307E407F50720F0F5
:10FCA000A21BB30BE40BF50B661F771F881F991F70
:10FCB0001A9469F760957095809590959B01AC01B9
:10FCC000BD01CF010895AA1BBB1B51E107C0AA1FAC
:10FCD000BB1FA617B70710F0A61BB70B881F991FED
:10FCE0005A95A9F780959095BC01CD010895F99991
:10FCF000FECF92BD81BDF89A992780B50895262F31
:10FD0000F999FECF1FBA92BD81BD20BD0FB6F89400
:0EFD1000FA9AF99A0FBE01960895F894FFCF63
:040000033000E000E9
:00000001FF