:020000040000FA
:100000000A128A110C280800FE00030EF0000A08EC
:10001000F1000A128A15A3290A128A110F288313E4
:10002000BD30FD001730FE00D930FF00B530840030
:100030000A168A11F3270A128A110A168A11CF2783
:100040000A128A11EE000A168A11D0270A128A11A2
:10005000EF000A128A1500200A128A11F9000A120A
:100060008A1501200A128A11FA00A0308400B530E6
:100070000A168A11D1270A128A11613084006E3063
:100080000A168A11D127FB0183010A128A15122947
:1000900083120313B3002730FF007F08AD00013047
:1000A000A607FF30260784000A128A110A270A12BF
:1000B0008A11FF007F08B40034080319022A253092
:1000C000340603196F283408FF00330884007F08C2
:1000D000831380000130FF007F08B3074F28B10170
:1000E000B201B001782830150130FF007F08A60763
:1000F000260884000A128A110A270A128A11A90006
:10010000AA012A08003A031986288B282908303AC0
:10011000031973288B28260884000A128A110A27DB
:100120000A128A110A168A11E1270A128A11031C7F
:10013000DA2883120313B101B2010A3083120313C8
:10014000A0000030A1003208A3003108A2000A126A
:100150008A1558200A128A11831203132108B2004B
:100160002008B100260884000A128A110A270A1200
:100170008A11D03EA900FF3003180030AA002908D8
:10018000B1070318B20A2A08B2070130FF007F083E
:10019000A607260884000A128A110A270A128A1161
:1001A0000A168A11E1270A128A11031CDA289D28EF
:1001B0003017FC28013083120313A607FF302607EF
:1001C00084000A128A110A270A128A11B400A900AF
:1001D000AA012A08003A0319EE284F282908003AF4
:1001E0000319022A643A0319FC280D3A0319FC2862
:1001F0001C3A0319D8284F28301B16292D088400D3
:1002000083130008AE00840A0008AF000230FF002C
:100210007F08AD07AF1F22290330FF007F08B0041D
:10022000AE09AF09AE0A0319AF0A22292D088400CE
:1002300083130008AE00840A0008AF000230FF00FC
:100240007F08AD07B401B40A3408A9002907013EAC
:1002500084000A128A110A270A128A11AA000A12B5
:100260008A110A270A128A11AB002B082F02031DDC
:100270003B292A082E02031C45290130FF007F0874
:10028000B40705303406031D24293108320403194C
:1002900053293008033903195329FF30B1070318D4
:1002A000B20AFF30B2073208803A803C031D5A2957
:1002B0003108340203186829831203133408A90093
:1002C000AA012908B1022A08031CB203B2026C2950
:1002D00083120313B101B201301D93293008033991
:1002E00003197D292D30FF00330884007F08831314
:1002F00080000130FF007F08B30731083204031982
:10030000BB293030FF00330884007F08831380004E
:100310000130FF007F08B307FF30B1070318B20AAE
:10032000FF30B2077D29310832040319AC2920308F
:10033000FF00330884007F08831380000130FF0032
:100340007F08B307FF30B1070318B20AFF30B207C6
:1003500031083204031D9729300803390319BB29DA
:100360002D30FF00330884007F08831380000130A4
:10037000FF007F08B3073408FF007F08AC00FF30A0
:10038000FF007F08AC072C0A03194F280A30A00091
:100390000030A1002C08A9002907013E84000A12A0
:1003A0008A110A270A128A11F2000A128A110A27F0
:1003B0000A128A11F3002F08F5002E08F4000A1221
:1003C0008A15D8210A128A11730883120313A30015
:1003D0007208A2000A128A156F210A128A1183126A
:1003E00003132008303EFF007F08B4003408FF00EC
:1003F000330884007F08831380000130FF007F08EA
:10040000B307BF29330884008313800108008312D7
:100410000313DD01DE01DB01DC0100300A128A1565
:1004200014220A128A11730883120313A40072089B
:10043000A3000A128A159F200A128A11831203133D
:100440002308AA002408AB002508AC000030A70050
:10045000A030A8004030A9000A128A1129230A12EC
:100460008A11831203132708B9002808BA00290843
:10047000BB00C030B6007F30B7004430B8000A126D
:100480008A1128260A128A11831203133608D6000D
:100490003708D7003808D8005608AA005708AB001C
:1004A0005808AC004030A7001C30A8004630A90016
:1004B0000A128A1129230A128A11831203132708A8
:1004C000B9002808BA002908BB000030B600A030E7
:1004D000B7004030B8000A128A1128260A128A1181
:1004E000831203133608C5003708C6003808C70052
:1004F0000A128A1528250A128A1183120313460844
:10050000E0004508DF001030F2002730F3006008FB
:10051000F5005F08F4000A128A15D8210A128A1120
:10052000730883120313A1007208A0001030A20008
:100530002730A3000A128A1558200A128A11831242
:1005400003132108DE002008DD00E830F20003304C
:10055000F3005D085F02F4005E08031C5E0A60029F
:10056000F5000A128A15D8210A128A11730883121B
:100570000313A1007208A000E830A2000330A3001A
:100580000A128A1558200A128A11831203132108AD
:10059000DC002008DB006430F2000030F3005B096F
:1005A000D2005C09D300D20A0319D30A5D085202B3
:1005B000D4005E08031C5E0A5302D5005F0854078E
:1005C000F40060080318600A5507F5000A128A153E
:1005D000D8210A128A11730883120313A10072082A
:1005E000A0006430A2000030A3000A128A1558202F
:1005F0000A128A11831203132108DA002008D90095
:100600005B085907D2005C0803185C0A5A07D3003C
:100610005D085207DF005E0803185E0A5307E0001A
:100620006008E2005F08E10061086204031D1D2B01
:100630003C30E1000030E200080027306202113057
:1006400003196102031C08001030E1002730E200AA
:100650000800831203132708AD002808AE002908FC
:10066000AF0003102E0D2F0DFF007F08B0003008E3
:10067000031D412B0030A7000030A8000030A90066
:1006800008002A08AD002B08AE002C08AF000310AC
:100690002E0D2F0DFF007F08B5003508031D572BC9
:1006A0000030A7000030A8000030A900080035087D
:1006B0007B3EFF007F08B0072708AD002808AE008A
:1006C0002908AF0010300310AF0CAE0CAD0CFF3E8C
:1006D000031D632B2D08FF007F08B5002A08AD001D
:1006E0002B08AE002C08AF0010300310AF0CAE0C7E
:1006F000AD0CFF3E031D752B2D08FF007F08B506CE
:100700008030FF007F08B505A817AB17FF30AA059A
:10071000FF30AB050030AC050030B1000030B20056
:100720000030B3000730FF007F08B400271CA62B61
:100730002A08B1072B08031103182B0A031DB2075F
:100740002C08031103182C0A031DB30701300310F2
:10075000A90CA80CA70CFF3E031DA72B013003100A
:10076000AA0DAB0DAC0DFF3E031DAF2B0130B40243
:10077000031D962B0930FF007F08B400271CCE2BE9
:100780002A08B1072B08031103182B0A031DB2070F
:100790002C08031103182C0A031DB30701300310A2
:1007A000A90CA80CA70CFF3E031DCF2B0130031092
:1007B000B30CB20CB10CFF3E031DD72B0130B402B9
:1007C000031DBE2B3108F2003208F3003308F40099
:1007D0003008FF007F08F5003508FF007F08F600AD
:1007E0000A128A15C823720883120313A70073081C
:1007F000A8007408A90008009930FF007F08831240
:100800000313A6006208A8006108A70037300A1287
:100810008A1148200A128A11013083120313A000A2
:100820000030A1000530A2000030A3003730A40042
:100830000030A5000A128A1561230A128A11943029
:10084000FF007F0883120313A6006B08B500B601F2
:100850003508A7003608A80037300A128A11482048
:100860000A128A11023083120313A0000030A10083
:100870000530A2000030A3003730A4000030A500EE
:100880000A128A1561230A128A119430FF007F0828
:1008900083120313A6006A08B500B6013508A70045
:1008A0003608A80037300A128A1148200A128A1125
:1008B000033083120313A0000030A1000830A2000F
:1008C0000030A3003730A4000030A5000A128A15BA
:1008D00061230A128A119430FF007F0883120313E8
:1008E000A6006908B500B6013508A7003608A800BB
:1008F00037300A128A1148200A128A1103308312F3
:100900000313A0000030A1000B30A2000030A300B0
:100910003730A4000030A5000A128A1561230A129C
:100920008A119430FF007F0883120313A600680821
:10093000B500B6013508A7003608A80037300A12FE
:100940008A1148200A128A11043083120313A0006E
:100950000030A1000D30A2000030A3003730A40009
:100960000030A5000A128A1561230800F4008312E2
:10097000031307128712071387137408F200043059
:100980000310F20CFF3E031DC02C72080139F30066
:10099000F30E07087306EF39730687007408F20038
:1009A00005300310F20CFF3E031DD12C72080139F3
:1009B000F300F30EF30D07087306DF3973068700A3
:1009C0007408F20006300310F20CFF3E031DE32C06
:1009D00072080139F300F30EF30DF30D07087306E7
:1009E000BF39730687007408F20007300310F20C59
:1009F000FF3E031DF62C72080139F300F30CF30CD3
:100A0000070873067F3973068700871087118715DB
:100A10001830F200F20B0A2D0D2D831203138711EB
:100A20001830F200F20B122D152D8312031307124A
:100A300087120713871374080139F200F20E0708B2
:100A40007206EF39720687007408F2000310720C08
:100A50000139F300F30EF30D07087306DF3973064F
:100A600087007408F20002300310F20CFF3E031DF1
:100A7000342D72080139F300F30EF30DF30D07085E
:100A80007306BF39730687007408F2000330031041
:100A9000F20CFF3E031D472D72080139F300F30CE1
:100AA000F30C070873067F397306870087108711D8
:100AB00087151830F200F20B5B2D5E2D83120313A5
:100AC00087111830F200F20B632D662D1430F300FD
:100AD0007930F200F20B6A2DF30B6A2D6F2D0800AE
:100AE000F400831203130712871207138713740885
:100AF000F20004300310F20CFF3E031D7A2D720841
:100B00000139F300F30E07087306EF397306870007
:100B10007408F20005300310F20CFF3E031D8B2D0C
:100B200072080139F300F30EF30D07087306DF397D
:100B3000730687007408F20006300310F20CFF3EC3
:100B4000031D9D2D72080139F300F30EF30DF30D13
:100B500007087306BF39730687007408F200073070
:100B60000310F20CFF3E031DB02D72080139F30093
:100B7000F30CF30C070873067F397306870087149C
:100B8000871187151830F200F20BC42DC72D831280
:100B9000031387111830F200F20BCC2DCF2D8312E6
:100BA0000313071287120713871374080139F20021
:100BB000F20E07087206EF39720687007408F20019
:100BC0000310720C0139F300F30EF30D07087306DE
:100BD000DF39730687007408F20002300310F20C4C
:100BE000FF3E031DEE2D72080139F300F30EF30DE5
:100BF000F30D07087306BF39730687007408F20007
:100C000003300310F20CFF3E031D012E7208013960
:100C1000F300F30CF30C070873067F3973068700A3
:100C20008714871187155330F200F20B152E8312AB
:100C3000031387115330F200F20B1C2E1430F30013
:100C40007930F200F20B222EF30B222E272E080011
:100C5000831203133908BC003A08BD003B08BE00EC
:100C600003103D0D3E0DFF007F08C3004308031D28
:100C7000402E0030B6000030B7000030B800080049
:100C80003608BC003708BD003808BE0003103D0D13
:100C90003E0DFF007F08C4004408031D562E00309F
:100CA000B6000030B7000030B80008000030C000C7
:100CB0000030C1000030C20089304407BC003C084D
:100CC000C3023908BC003A08BD003B08BE00103022
:100CD0000310BE0CBD0CBC0CFF3E031D682E3C086F
:100CE000FF007F08C4003608BC003708BD00380884
:100CF000BE0010300310BE0CBD0CBC0CFF3E031D2B
:100D00007A2E3C08FF007F08C4068030FF007F0871
:100D1000C405BA17FF30B905FF30BA050030BB056E
:100D2000B717FF30B605FF30B7050030B8051830EB
:100D3000FF007F08BF0001300310C00DC10DC20DC0
:100D4000FF3E031D9C2E38083B02031DAD2E3708C5
:100D50003A02031DAD2E36083902031CBA2E36089E
:100D6000B9023708031C370FBA023808031C380AC7
:100D7000BB02401401300310B90DBA0DBB0DFF3E8C
:100D8000031DBB2E0130BF02031D9B2E4008F20045
:100D90004108F3004208F4004308FF007F08F50013
:100DA0004408FF007F08F6000A128A15C82372085B
:100DB00083120313B6007308B7007408B800080064
:100DC0008316031789118312031310131015901043
:100DD0001008CF39103890001014FF308F00053004
:100DE0008E000B178B17831603130C10831203133B
:100DF0000C14080083120313E601E5010800080043
:100E0000FF1B0A2F83137F1883170008840A031916
:100E1000FF0A080007308A000408840A82070034A9
:100E2000013400340A34003464340034E8340334C8
:100E300010342734203420342034443445342034D2
:100E400049344E3459344534433454344F34523495
:100E5000453453342034203420342034003450348A
:100E600052344F344234413444344F3452342034B9
:100E70004134553454344F344D344F345434523457
:100E800049345A34203400343D343D343D343D340B
:100E90003D343D343D343D343D343D343D343D34CA
:100EA0003D343D343D343D343D343D343D343D34BA
:100EB00000344C3449344D3450342E3420345534BD
:100EC0004C3454345234413453344F344E34493416
:100ED00044344F340034503455344C345634453453
:100EE000523449345A344134433449344F344E3403
:100EF0000034543445344D34503445345234413444
:100F000054345534523441343A340034543449342E
:100F100045344D3450344F343A34003446344C3434
:100F200055344A344F340034523450344D343A340A
:100F30000034503457344D343A3400344634553448
:100F4000473441340034253430343234643400348E
:100F5000253430343534753400343E340034433471
:100F60000034E22F0A128A15542783120313E60174
:100F7000E60A08000A128A15EB200A128A11831267
:100F80000313861CD42F6C03031DD42F0230CD2FE6
:100F900002306C06031DD62F0330FF007F08E600E9
:100FA0000A128A15152008008618C82F861C08000A
:100FB00003306C06031D08000430CD2F0A128A1579
:100FC000A622080083120313660883160313BF00CA
:100FD000C0014008003A0319EE2FFF2F3F08003AE6
:100FE0000319B22F013A0319BA2F033A0319DE2F5E
:100FF000013A0319FF2F073A0319FF2FFF2F0800AB
:10100000E83403340A128A1107220A128A150A12D6
:101010008A15A5250A128A150A128A15AC240A1205
:101020008A150A128A15FF2208004130F300EE30BB
:10103000F200F20B1928F30B192800008312031396
:10104000061C8618152806191528861D080015285F
:10105000831603138512831203138501860187010A
:10106000FF308316031386008701831603170912C6
:1010700089110911091089100812080079087A04E9
:10108000031D4828FB01FB0AE830F9000330FA0091
:10109000831203136E086F04031D0800640083129B
:1010A0000313E701E70AD030EE000730EF00080035
:1010B00083120313A401A501201C64282208A4079D
:1010C0000318A50A2308A50701300310A20DA30DDC
:1010D000FF3E031D652801300310A10CA00CFF3E4C
:1010E000031D6C2820082104031D5C282508A1008D
:1010F0002408A000080083160313051483160317A1
:101100000814831603138514831603178814831693
:101110000313051583160317081583160313851586
:10112000831603178815831203131F083F3980386D
:101130009F00831603139F171F129F12080083122C
:101140000313A601A41FAB28A309A409A30A03192A
:10115000A40AA601A60A2308F2002408F300F40159
:101160008E30FF007F08F5002608FF007F08F6009C
:101170000A128A15C823720883120313A300730886
:10118000A4007408A5000800F7007708F6000230F4
:101190000310F60DFF3E031DC8280310760D403ED8
:1011A0000A128A11B6240A128A15F80178087507FE
:1011B000F60076088400831300080A128A1170254D
:1011C0000A128A150130FF007F08F80708307802FC
:1011D00003180800D62864007B080319F5280A12B2
:1011E0008A155B220A128A15FB01831203138619E2
:1011F000FC286C08031D08000130FF007F08EC0785
:1012000005306C02031807296C08031D0929EC013D
:10121000EC0A0A128A15B7260A128A150A128A15CA
:10122000152008000A128A1528200A128A150A12A7
:101230008A11FA260A128A150A128A1536240A1207
:101240008A150A128A11E0260A128A150A128A15CC
:101250007B200A128A15831603130C1483120313BE
:101260000C148312031705140508E139143885009E
:101270000A128A11B1270A128A1538295B297708C0
:10128000FF3E80380A128A11B624080077083F3ED4
:1012900080380A128A11B62408007708133E803875
:1012A0000A128A11B62408007708533E80380A12C1
:1012B0008A11B62408007608003A031960296E29BD
:1012C0007508013A03193F29033A03194629013ADF
:1012D00003194D29073A031954296E29080083126E
:1012E00003132008210403199E29A401A40AA11BA9
:1012F000852901300310A00DA10DFF3E031D7A29A1
:101300000130FF007F08A407772921082302031D6D
:101310008B2920082202031C93292008A2022108FD
:10132000031CA303A30201300310A10CA00CFF3E79
:10133000031D94290130A402031D85292308A1005F
:101340002208A0000800831203130C1CC42979088A
:101350007A040319B4297B08031DB4290130F9026A
:101360000030031CFA03FA026E086F040319BE2949
:101370000130EE020030031CEF03EF02FF308F005C
:1013800005308E0010140C1079087A040319CC294A
:101390006E086F04031DD1290A128A153E200A1215
:1013A0008A1571088A00700E8300FE0E7E0E0900F9
:1013B000F601F7017208730403190F2AF801F80AFD
:1013C000F31BEE2901300310F20DF30DFF3E031D58
:1013D000E3290130FF007F08F807E02901300310FE
:1013E000F60DF70DFF3E031DEF2973087502031D6F
:1013F000FB2972087402031C042A7208F4027308A1
:10140000031CF503F502761401300310F30CF20C03
:10141000FF3E031D052A0130F802031DEE2977085F
:10142000F3007608F2000800F600C330FF007F08E2
:10143000831203139F057608F40001300310F40DA6
:10144000FF3E031D1E2A0310740DFF007F089F043A
:101450001F147430F400F40B2B2A000083120313C2
:101460009F149F18312A1E08F400F5017408F70034
:101470007508F8007808F5007708F4007408F5009E
:10148000F4017408F7007508F800831603131E08AA
:10149000F400F5017408F7047508F80483120313C7
:1014A0001F107430F400F40B532A00007808F30086
:1014B0007708F2000800013083120313A000003007
:1014C000A1000330A2000030A3005C30A4008030F3
:1014D000A5000A128A1561230A128A1502308312A6
:1014E0000313A0000030A1000330A2000030A300CD
:1014F0008F30A4008030A5000A128A1561230A12D9
:101500008A15033083120313A0000030A1000330BA
:10151000A2000030A3007F30A4008030A5000A1292
:101520008A1561230A128A15043083120313A0005E
:101530000030A1000330A2000030A3004A30A40014
:101540008030A5000A128A1561230800E12A0A12D8
:101550008A152D2683120313E501E50A08000A12F5
:101560008A11FC230230FF007F0883120313E50079
:1015700008000230831203136606031DC52A0A12EF
:101580008A1502200A128A15D82A03306606031D1E
:10159000CF2A0A128A11FF260A128A15D82A043085
:1015A0006606031DD82A0A128A1103200A128A1518
:1015B00083120313670803190800E501E50AE70130
:1015C000080083120313650883160313BD00BE01D0
:1015D0003E08003A0319ED2AFE2A3D08003A031995
:1015E000A72A013A0319AF2A033A0319B92A013A83
:1015F0000319FE2A073A0319FE2AFE2A08000330BF
:101600000A128A1514220A128A1573088312031308
:10161000A4007208A3000A128A159F200A128A15D4
:10162000831203132308AA002408AB002508AC008A
:101630000030A700A030A8004030A9000A128A118B
:1016400029230A128A15831203132708B9002808D0
:10165000BA002908BB00C030B6007F30B700443064
:10166000B8000A128A1128260A128A158312031357
:101670003608D2003708D3003808D4005208AA0030
:101680005308AB005408AC000030A700C830A800D5
:101690004230A9000A128A1129230A128A158312DC
:1016A00003132708C5002808C6002908C7000A1226
:1016B0008A152825831203134508FF007F08E800D8
:1016C0000800862B2208FF3E80380A128A11B624B1
:1016D0000A128A15B92B22083F3E80380A128A1155
:1016E000B6240A128A15B92B2208133E80380A1232
:1016F0008A11B6240A128A15B92B2208533E803863
:101700000A128A11B6240A128A15B92B83120313FE
:101710002108003A03198D2BB92B2008013A03192F
:10172000622B033A03196B2B013A0319742B073A06
:1017300003197D2BB92B2508FF00240884000A1209
:101740008A1100270A128A150A128A1170250A12B4
:101750008A150730F6007D30F500F50BAD2BF60B42
:10176000AD2B013083120313A4070318A50A003020
:10177000A507831203132508FF00240884000A121A
:101780008A1100270A128A15003A031908009B2BB8
:1017900075080319D02B740873047204031DE32B1E
:1017A0000030F2000030F3000030F4000800013097
:1017B000FF007F08F50701300310F40CF30CF20C66
:1017C000FF3E031DDC2BFE3074050319FE2BD72BC7
:1017D0000130FF007F08F5070130F20700300318E1
:1017E0000130F307003003180130F4070130031013
:1017F000F40CF30CF20CFF3E031DF72BFF307405C5
:101800000319112CE82B02307502031C132C013034
:10181000F50201300310F20DF30DF40DFF3E031D30
:101820000A2CF31F032C75181B2CFF30F2057F3098
:10183000F305FF30F4050310F50C7508831203134C
:10184000A000A101A20110300310A00DA10DA20D56
:10185000FF3E031D242C2008F2042108F304220873
:10186000F404760803190800F4170800831603131C
:101870000712871207138713871087110711831226
:1018800003130711C330F600CD30F500F50B462CDD
:10189000F60B462CF70103300A128A11B6240A12FD
:1018A0008A152E30F6007330F500F50B552CF60B2B
:1018B000552C0130FF007F08F70703307702031C27
:1018C0004B2C33300A128A11B6240A128A15A6301C
:1018D000F500F50B692C000032300A128A11B6248B
:1018E0000A128A152130F6007630F500F50B762CB9
:1018F000F60B762C000028300A128A11B6240A1240
:101900008A15A630F500F50B832C00000C300A1266
:101910008A11B6240A128A15A630F500F50B8E2C12
:10192000000006300A128A11B6240A128A15A6305F
:10193000F500F50B992C000001300A128A11B6242B
:101940000A128A154130F600EE30F500F50BA62C90
:10195000F60BA62C0000080002300A128A15142289
:101960000A128A15730883120313A4007208A300D5
:101970000A128A159F200A128A158312031323085C
:10198000AA002408AB002508AC000030A700A03056
:10199000A8004030A9000A128A1129230A128A15C8
:1019A000831203132708B9002808BA002908BB00CE
:1019B000C030B6007F30B7004430B8000A128A1138
:1019C00028260A128A15831203133608D200370814
:1019D000D3003808D4005208AA005308AB005408BA
:1019E000AC000030A7006C30A8004230A9000A12F9
:1019F0008A1129230A128A15831203132708B900B2
:101A00002808BA002908BB000030B600A030B70093
:101A10004030B8000A128A1128260A128A15831249
:101A200003133608C5003708C6003808C7000A1275
:101A30008A1528250A128A15831203134508FF0008
:101A40007F08EA006908031D0800E901E90A0800A7
:101A5000831203134508C9004608CA004708CB0093
:101A600003104A0D4B0DFF007F08D1005108031DE4
:101A7000422D0030C8000030C7000030C6000030E2
:101A8000C50008004508C9004608CA004708CB0041
:101A900017300310CB0CCA0CC90CFF3E031D492D97
:101AA0004908FF007F08CC00C617FF30C505FF308E
:101AB000C6050030C7054508CD004608CE004708DA
:101AC000CF00D0018E30D102D11F7B2D5108803A3A
:101AD0008F3E031C392D01300310D00CCF0CCE0CDF
:101AE000CD0CFF3E031D6C2D0130FF007F08D10798
:101AF00003198E2D6B2D183051020318392D510802
:101B000003198E2D0130C9000310CD0DCE0DCF0D60
:101B1000D00DC90B842D0130D1027F2D4C08031943
:101B20009C2DCD09CE09CF09D009CD0A0319CE0AC3
:101B30000319CF0A0319D00A5008C8004F08C7007C
:101B40004E08C6004D08C500080001300A128A156B
:101B500014220A128A15730883120313A400720850
:101B6000A3000A128A159F200A128A1583120313F2
:101B70002308AA002408AB002508AC000030A70009
:101B8000A030A8004030A9000A128A1129230A12A5
:101B90008A15831203132708B9002808BA002908F8
:101BA000BB00C030B6007F30B7004430B8000A1226
:101BB0008A1128260A128A15831203133608D200C6
:101BC0003708D3003808D4005208AA005308AB00E5
:101BD0005408AC000030A700C830A8004230A9006B
:101BE0000A128A1129230A128A158312031327085D
:101BF000B9002808BA002908BB000030B600A030A0
:101C0000B7004030B8000A128A1128260A128A1535
:101C1000831203133608C5003708C6003808C7000A
:101C20000A128A1528250A128A15831203134508F9
:101C3000FF007F08EB0060306B02031C242E5F3036
:101C4000FF007F08EB00080005306B020318080056
:101C50000530FF007F08EB00080001300A128A11EE
:101C6000B6240A128A15013083120313A000003033
:101C7000A1000130A2000030A3008530A400803014
:101C8000A5000A128A1561230A128A1502308312EE
:101C90000313A0000030A1000130A2000030A30017
:101CA0008A30A4008030A5000A128A1561230A1226
:101CB0008A15033083120313A0000030A100013005
:101CC000A2000030A3007730A4008030A5000A12E3
:101CD0008A1561230A128A15033083120313A000A8
:101CE0000030A1000A30A2000030A3007530A4002B
:101CF0008030A5000A128A1561230A128A15043061
:101D000083120313A0000030A1000130A2000030B4
:101D1000A3006A30A4008030A5000A128A1561234E
:101D20000A128A150430F5000030F6001030F70072
:101D30000030F8000A128A153E210A128A15013075
:101D40000A128A1170250A128A15043083120313AD
:101D5000A0000030A1001130A2000030A300A0308C
:101D6000A4008030A5000A128A156123080083129E
:101D700003136C03031DDF2E0430A0000030A1000C
:101D80000130A2000030A3001E30A4008030A50066
:101D90000A128A1561230A128A150130831203136D
:101DA000A0000030A1000130A2000030A3009E304E
:101DB000A4008030A5000A128A15612308000230B1
:101DC0006C06031D062F0130A0000030A100013079
:101DD000A2000030A3001E30A4008030A5000A122B
:101DE0008A1561230A128A15023083120313A00098
:101DF0000030A1000130A2000030A3009E30A400FA
:101E00008030A5000A128A156123080003306C0691
:101E1000031D2D2F0230A0000030A1000130A200D0
:101E20000030A3001E30A4008030A5000A128A15DD
:101E300061230A128A15033083120313A0000030B5
:101E4000A1000130A2000030A3009E30A400803029
:101E5000A5000A128A156123080004306C06031DD0
:101E600008000330A0000030A1000130A2000030C3
:101E7000A3001E30A4008030A5000A128A15612339
:101E80000A128A15043083120313A0000030A10047
:101E90000130A2000030A3009E30A4008030A500D5
:101EA0000A128A15612308002A308400B530831293
:101EB0000313A6000408A7000830A8002608840021
:101EC00083130008A900A60A2708840029088000B7
:101ED000A70AA80B5E2F2A30FF007F08F50001300B
:101EE0000A128A15C4200A128A153230840008307A
:101EF000FF0083138001840AFF0B792F3230FF002B
:101F00007F08F50000300A128A15C4200A128A15CB
:101F100001300A128A11B6240A128A15013083127E
:101F20000313A0000030A1000130A2000030A30084
:101F30003530A4008030A5000A128A1561230A12E8
:101F40008A15023083120313A0000030A100013073
:101F5000A2000030A3002030A4008030A5000A12A7
:101F60008A1561230A128A15033083120313A00015
:101F70000030A1000130A2000030A3000B30A4000B
:101F80008030A5000A128A1561230A128A150430CE
:101F900083120313A0000030A1000130A200003022
:101FA000A3003530A4008030A5000A128A156123F1
:101FB0000A128A15333083120313A800BB30A7001E
:101FC000DF30A600A60BE22FA70BE22FA80BE22F13
:101FD00001300A128A11B6240A128A1501308312BE
:101FE0000313A0000030A1000130A2000030A300C4
:101FF0009E30A4008030A5000A128A1561230800D3
:102F9E00D034073464008001840A04060319003417
:102FAE000406D22F063409340934063400340034B2
:102FBE0000340034F300F2013A3073020318ED2F9F
:102FCE0030307302031CED2FF201F20A720C08006E
:102FDE007E088A007F088200EF270A168A11800079
:102FEE00840A04087D0603190034FF0A0319FE0A39
:022FFE00F32FAF
:04400E00E22CFF3F62
:00000001FF
