:020000040000FA
:060000000A128A11FB2F19
:100F1E00F40108004130F100EE30F000F00B952F97
:100F2E00F10B952F000083120313061C8618912FC8
:100F3E000619912F861D0800912F83168512831294
:100F4E00850186018701FF3083168600870103170E
:100F5E000912891109110910891008128912031337
:100F6E0086128312861208000A128A11A4270A1208
:100F7E008A110A128A118F270A128A110317051471
:100F8E000508E139143885006400831603130C1428
:100F9E0083120C140A128A11D7270A128A11D12F22
:100FAE00ED2F83120313861CE72FF401F40AE32FAF
:100FBE000530FF007F08F4000A128A1191270800FD
:100FCE008618DF2F861C08000630E02F7408F2000A
:100FDE00F3017308003A0319F52FFA2F7208003A3D
:100FEE000319D82FFA2F0800F40183010A128A116F
:020FFE00BB2F07
:04400E00E22CFF3F62
:00000001FF
