:020000040000FA
:100000000A128A11E72F00308A000408840A820746
:1000100000342034203420344434453420344934EE
:100020004E3459344534433454344F3452344534C7
:1000300053342034203420342034003450345234AB
:100040004F344234413444344F34523420344134F8
:10005000553454344F344D344F345434523449347D
:100060005A34203400343D343D343D343D343D3445
:100070003D343D343D343D343D343D343D343D34F8
:100080003D343D343D343D343D343D343D34003425
:1008BC00BA01080006340934093406340034003413
:1008CC00003400347E088A007F08820068240A12F3
:1008DC008A118000840A04087D0603190034FF0A7B
:1008EC000319FE0A6C2C4130F100EE30F000F00BD5
:1008FC007D2CF10B7D2C000083120313061C861833
:10090C00792C0619792C861D0800792C83168512F2
:10091C008312850186018701FF30831686008701CB
:10092C00031709128911091109108910081289126B
:10093C00031386128312861208000A128A118C2461
:10094C000A128A110A128A115E240A128A110A12D8
:10095C008A1173250A128A118312031705140508CC
:10096C00E139143885006400831603130C148312C8
:10097C000C140A128A11EC240A128A11BF2CF500ED
:10098C007508F40002300310F40DFF3E031DC92C52
:10099C000310740D403E0A128A112D270A128A1177
:1009AC00F60176087307F4007408840083130008BA
:1009BC000A128A1175260A128A110130FF007F086B
:1009CC00F6070830760203180800D72C072D0A12F8
:1009DC008A11E72583120313BA01BA0A0800861C90
:1009EC00012D0230FA2C0630FF007F08BA000A12E3
:1009FC008A11792408008618F92C861C0800073007
:100A0C00FA2C3A08B000B1013108003A03190F2D45
:100A1C00172D3008003A0319ED2C013A0319F52C67
:100A2C00172D08003D2D7508FF3E80380A128A11DB
:100A3C002D270A128A11682D75083F3E80380A123C
:100A4C008A112D270A128A11682D7508133E8038D9
:100A5C000A128A112D270A128A11682D7508533E25
:100A6C0080380A128A112D270A128A11682D7408EF
:100A7C00003A0319422D682D7308013A0319192DF8
:100A8C00033A0319222D013A03192B2D073A0319A6
:100A9C00342D682D770884000A128A1103200A125B
:100AAC008A110A128A1175260A128A110730F90066
:100ABC007D30F800F80B602DF90B602D0130FF0034
:100ACC007F08F707770884000A128A1103200A129C
:100ADC008A11003A03190800502D83160712871249
:100AEC000713871387108711071183120711C3305F
:100AFC00F400CD30F300F30B812DF40B812DF501B7
:100B0C0003300A128A112D270A128A112E30F40092
:100B1C007330F300F30B902DF40B902D0130FF008C
:100B2C007F08F50703307502031C862D33300A123B
:100B3C008A112D270A128A11A630F300F30BA42D6B
:100B4C00000032300A128A112D270A128A11213024
:100B5C00F4007630F300F30BB12DF40BB12D000043
:100B6C0028300A128A112D270A128A11A630F30096
:100B7C00F30BBE2D00000C300A128A112D270A121D
:100B8C008A11A630F300F30BC92D000006300A12AF
:100B9C008A112D270A128A11A630F300F30BD42DDB
:100BAC00000001300A128A112D270A128A114130D5
:100BBC00F400EE30F300F30BE12DF40BE12D00000B
:100BCC000800203084003B30FA000408FB00083099
:100BDC00FC007A08840083130008FD00FA0A7B08E5
:100BEC0084007D088000FB0AFC0BEF2D2030FF00F9
:100BFC007F08F30001300A128A11C5240A128A11E7
:100C0C00283084000830FF0083138001840AFF0B16
:100C1C000A2E2830FF007F08F30000300A128A11D8
:100C2C00C5240A128A1101300A128A112D270A12C0
:100C3C008A110130F3000030F4000130F50000306F
:100C4C00F6002B30FF007F08F7000A128A111825D6
:100C5C000A128A110230F3000030F4000130F50062
:100C6C000030F6001630FF007F08F7000A128A11D8
:100C7C0018250A128A110330F3000030F4000130F9
:100C8C00F5000030F6000130FF007F08F7000A1273
:100C9C008A1118250A128A110430F3000030F4006E
:100CAC000130F5000030F6002B30FF007F08F70014
:100CBC000A128A1118250A128A113330FC00BB3033
:100CCC00FB00DF30FA00FA0B692EFB0B692EFC0BD4
:100CDC00692E702E01300A128A112D270800F2009D
:100CEC008312031307128712071387137208F0007D
:100CFC0004300310F00CFF3E031D7F2E70080139E9
:100D0C00F100F10E07087106EF39710687007208C1
:100D1C00F00005300310F00CFF3E031D902E700800
:100D2C000139F100F10EF10D07087106DF3971067A
:100D3C0087007208F00006300310F00CFF3E031D14
:100D4C00A22E70080139F100F10EF10DF10D07081A
:100D5C007106BF39710687007208F0000730031066
:100D6C00F00CFF3E031DB52E70080139F100F10C9B
:100D7C00F10C070871067F397106870087148711FB
:100D8C0087151830F000F00BC92ECC2E83120313EC
:100D9C0087111830F000F00BD12ED42E83120313D0
:100DAC00071287120713871372080139F000F00E2F
:100DBC0007087006EF39700687007208F000031000
:100DCC00700C0139F100F10EF10D07087106DF39D5
:100DDC00710687007208F00002300310F00CFF3E21
:100DEC00031DF32E70080139F100F10EF10DF10D18
:100DFC0007087106BF39710687007208F0000330CE
:100E0C000310F00CFF3E031D062F70080139F10092
:100E1C00F10CF10C070871067F39710687008714F5
:100E2C00871187155330F000F00B1A2F8312031320
:100E3C0087115330F000F00B212F1430F100793072
:100E4C00F000F00B272FF10B272F2C2F0800F200AE
:100E5C008312031307128712071387137208F0000B
:100E6C0004300310F00CFF3E031D372F70080139BE
:100E7C00F100F10E07087106EF3971068700720850
:100E8C00F00005300310F00CFF3E031D482F7008D6
:100E9C000139F100F10EF10D07087106DF39710609
:100EAC0087007208F00006300310F00CFF3E031DA3
:100EBC005A2F70080139F100F10EF10DF10D0708F0
:100ECC007106BF39710687007208F00007300310F5
:100EDC00F00CFF3E031D6D2F70080139F100F10C71
:100EEC00F10C070871067F3971068700871087118E
:100EFC0087151830F000F00B812F842F8312031309
:100F0C0087111830F000F00B892F8C2F83120313EC
:100F1C00071287120713871372080139F000F00EBD
:100F2C0007087006EF39700687007208F00003108E
:100F3C00700C0139F100F10EF10D07087106DF3963
:100F4C00710687007208F00002300310F00CFF3EAF
:100F5C00031DAB2F70080139F100F10EF10DF10DED
:100F6C0007087106BF39710687007208F00003305C
:100F7C000310F00CFF3E031DBE2F70080139F10069
:100F8C00F10CF10C070871067F3971068700871088
:100F9C00871187151830F000F00BD22FD52F831244
:100FAC00031387111830F000F00BDA2FDD2F1430FB
:100FBC00F1007930F000F00BE12FF10BE12FE62F6F
:100FCC00080083134330FD000430FE006030FF0046
:100FDC003B3084000A128A116C24B201B301B401B3
:100FEC00B501B601B701B801B901BA0183010A1202
:040FFC008A11A32C87
:04400E00E22CFF3F62
:00000001FF
