:020000040000FA
:060000000A128A110C280F
:10000800FE00030EF0000A08F1000A128A11772D8B
:100018000A128A110F2883135D30FD000630FE0096
:10002800D930FF00533084000A128A11CC260A12F4
:100038008A110A128A11F0260A128A11FA000A1283
:100048008A11F1260A128A11FB00203084003B3005
:100058000A128A11E32683010A128A112D2EF4004E
:100068008312031307128712071387137408F20009
:1000780004300310F20CFF3E031D3D2872080139BD
:10008800F300F30E07087306EF3973068700740848
:10009800F20005300310F20CFF3E031D4E287208D3
:1000A8000139F300F30EF30D07087306DF39730601
:1000B80087007408F20006300310F20CFF3E031D9F
:1000C800602872080139F300F30EF30DF30D0708E9
:1000D8007306BF39730687007408F20007300310EF
:1000E800F20CFF3E031D732872080139F300F30C6C
:1000F800F30C070873067F3973068700871087118A
:1001080087151830F200F20B87288A288312031308
:1001180087111830F200F20B8F28922883120313EC
:10012800071287120713871374080139F200F20EB9
:1001380007087206EF39720687007408F200031088
:10014800720C0139F300F30EF30D07087306DF395B
:10015800730687007408F20002300310F20CFF3EA9
:10016800031DB12872080139F300F30EF30DF30DE6
:1001780007087306BF39730687007408F200033056
:100188000310F20CFF3E031DC42872080139F30066
:10019800F30CF30C070873067F3973068700871082
:1001A800871187151830F200F20BD828DB28831244
:1001B800031387111830F200F20BE028E3281430FB
:1001C800F3007930F200F20BE728F30BE728EC286C
:1001D8000800F4008312031307128712071387130A
:1001E8007408F20004300310F20CFF3E031DF728D8
:1001F80072080139F300F30E07087306EF39730626
:1002080087007408F20005300310F20CFF3E031D4E
:10021800082972080139F300F30EF30D0708730675
:10022800DF39730687007408F20006300310F20CF9
:10023800FF3E031D1A2972080139F300F30EF30D6E
:10024800F30D07087306BF39730687007408F200B8
:1002580007300310F20CFF3E031D2D2972080139E7
:10026800F300F30CF30C070873067F397306870055
:100278008714871187151830F200F20B4129442999
:100288008312031387111830F200F20B49294C2905
:10029800831203130712871207138713740801398F
:1002A800F200F20E07087206EF397206870074082A
:1002B800F2000310720C0139F300F30EF30D070876
:1002C8007306DF39730687007408F20002300310E2
:1002D800F20CFF3E031D6B2972080139F300F30E7F
:1002E800F30DF30D07087306BF397306870074080A
:1002F800F20003300310F20CFF3E031D7E29720842
:100308000139F300F30CF30C070873067F39730601
:1003180087008714871187155330F200F20B922952
:100328008312031387115330F200F20B992914300A
:10033800F3007930F200F20B9F29F30B9F29A429CF
:10034800080041308400533083120313BD000408B1
:10035800BE000830BF003D08840083130008C000B9
:10036800BD0A3E08840040088000BE0ABF0BAF29C2
:100378004130FF007F08F50001300A128A11062675
:100388000A128A11493084000830FF008313800163
:10039800840AFF0BCA294930FF007F08F5000030A6
:1003A8000A128A1106260A128A1101300A128A11C3
:1003B80033200A128A110130F5000030F6000130AE
:1003C800F7000030F8002B30FF007F08F9000A1210
:1003D8008A1181240A128A110230F5000030F600D1
:1003E8000130F7000030F8001630FF007F08F900F0
:1003F8000A128A1181240A128A110330F50000308A
:10040800F6000130F7000030F8000130FF007F08E7
:10041800F9000A128A1181240A128A110430F5009F
:100428000030F6000130F7000030F8002B30FF00F4
:100438007F08F9000A128A1181240A128A113330BE
:1004480083120313BF00BB30BE00DF30BD00BD0BFD
:100458002B2ABE0B2B2ABF0B2B2A01300A128A111A
:1004680033200A128A110130F5000030F6000130FD
:10047800F7000030F8008A30FF007F08F9000A1200
:100488008A1181240800831203133903031D6D2A7E
:100498000430F5000030F6000130F7000030F800B5
:1004A8001430FF007F08F9000A128A1181240A1209
:1004B8008A110130F5000030F6000130F7000030F5
:1004C800F8008A30FF007F08F9000A128A11812497
:1004D800080002303906031D922A0130F500003069
:1004E800F6000130F7000030F8001430FF007F08F4
:1004F800F9000A128A1181240A128A110230F500C1
:100508000030F6000130F7000030F8008A30FF00B4
:100518007F08F9000A128A1181240800033039067D
:10052800031DB72A0230F5000030F6000130F7004D
:100538000030F8001430FF007F08F9000A128A1111
:1005480081240A128A110330F5000030F6000130C8
:10055800F7000030F8008A30FF007F08F9000A121F
:100568008A118124080004303906031D080003306D
:10057800F5000030F6000130F7000030F8001430C4
:10058800FF007F08F9000A128A1181240A128A11D1
:100598000430F5000030F6000130F7000030F800B4
:1005A8008A30FF007F08F9000A128A1181240800A6
:1006000003308A000408840A82070034203420342E
:10061000203444344534203449344E34593445343C
:10062000433454344F34523445345334203420341A
:10063000203420340034503452344F344234413466
:1006400044344F34523420344134553454344F34CC
:100650004D344F345434523449345A3420340034F5
:100660003D343D343D343D343D343D343D343D3402
:100670003D343D343D343D343D343D343D343D34F2
:100680003D343D343D343D3400344C3449344D34F4
:1006900050342E34203455344C3454345234413494
:1006A00053344F344E34493444344F34003450348E
:1006B00055344C3456344534523449345A34413428
:1006C000433449344F344E340034543445344D347B
:1006D0005034453452344134543455345234413416
:1006E0003A3400345434493445344D3450344F3462
:1006F0003A34003446344C3455344A344F340034A0
:10070000523450344D343A340034503457344D342C
:100710003A340034463455344734413400343E349E
:100720000034433400340130F5000030F60001306D
:10073000F7000030F8007B30FF007F08F9000A1254
:100740008A1181240A128A110230F5000030F60065
:100750000130F7000030F8008030FF007F08F9001A
:100760000A128A1181240A128A110330F50000301E
:10077000F6000130F7000030F8006D30FF007F0810
:10078000F9000A128A1181240A128A110330F50035
:100790000030F6000A30F7000030F8006B30FF0040
:1007A0007F08F9000A128A1181240A128A11043082
:1007B000F5000030F6000130F7000030F80060303E
:1007C000FF007F08F9000A128A1181240A128A1197
:1007D0000430F5000030F6001030F7000030F8006B
:1007E0000A128A11AC250A128A1101300A128A11E2
:1007F000ED200A128A110430F5000030F6001130A5
:10080000F7000030F8008C30FF007F08F9000A1272
:100810008A11812408008316031307128712071315
:100820008713871087110711831203130711C33031
:10083000F600CD30F500F50B1B2CF60B1B2CF70149
:1008400003300A128A1133200A128A112E30F60060
:100850007330F500F50B2A2CF60B2A2C0130FF0023
:100860007F08F70703307702031C202C33300A126D
:100870008A1133200A128A11A630F500F50B3E2C9E
:10088000000032300A128A1133200A128A112130F4
:10089000F6007630F500F50B4B2CF60B4B2C0000D8
:1008A00028300A128A1133200A128A11A630F50064
:1008B000F50B582C00000C300A128A1133200A1252
:1008C0008A11A630F500F50B632C000006300A12E1
:1008D0008A1133200A128A11A630F500F50B6E2C0E
:1008E000000001300A128A1133200A128A114130A5
:1008F000F600EE30F500F50B7B2CF60B7B2C0000A0
:100900000800A62C7708FF3E80380A128A1133208F
:100910000A128A11D42C77083F3E80380A128A11B5
:1009200033200A128A11D42C7708133E80380A1219
:100930008A1133200A128A11D42C7708533E80384A
:100940000A128A1133200A128A11D42C7608003A2E
:100950000319AB2CD42C7508013A0319822C033AE5
:1009600003198B2C013A0319942C073A03199D2C77
:10097000D42C790884000A128A1100230A128A11E1
:100980000A128A11ED200A128A110730831203130A
:10099000BC007C30BB00BB0BCB2CBC0BCB2C0000B9
:1009A0000130FF007F08F907790884000A128A11D4
:1009B00000230A128A11003A03190800B92C182DD5
:1009C0000A128A11A5218312031705140508E139BB
:1009D00014388500640083120313B701B70A0800B6
:1009E0000A128A11DD250A128A1183120313861C4A
:1009F0000A2D3903031D0A2D0230032D023039065A
:100A0000031D0C2D0330FF007F08B7000A128A1166
:100A1000B52608008618FE2C861C0800033039060F
:100A2000031D08000430032D0A128A114D26080008
:100A3000831203133708D100D2015208003A031978
:100A4000222D332D5108003A0319E02C013A0319E5
:100A5000F02C033A0319142D013A0319332D073AE8
:100A60000319332D332D08000130F5000030F60056
:100A70000330F7000030F8005230FF007F08F90023
:100A80000A128A1181240A128A110230F5000030FC
:100A9000F6000330F7000030F8008530FF007F08D3
:100AA000F9000A128A1181240A128A110330F50012
:100AB0000030F6000330F7000030F8007530FF001A
:100AC0007F08F9000A128A1181240A128A1104305F
:100AD000F5000030F6000330F7000030F800403039
:100AE000FF007F08F9000A128A118124080083128E
:100AF00003130C1C982D7A087B040319882D3808E1
:100B0000031D882D0130FA020030031CFB03FB0299
:100B10005B085C040319922D0130DB020030031CDA
:100B2000DC03DC02FF308F0005308E0010140C1047
:100B30007A087B040319A02D5B085C04031DA52D16
:100B40000A128A1185260A128A1171088A00700E0B
:100B50008300FE0E7E0E0900C92D7708FF3E803807
:100B60000A128A113320080077083F3E80380A12A3
:100B70008A11332008007708133E80380A128A1140
:100B8000332008007708533E80380A128A11332038
:100B900008007608003A0319CE2DDC2D7508013ABD
:100BA0000319AD2D033A0319B42D013A0319BB2DD6
:100BB000073A0319C22DDC2D0800640083120313C9
:100BC00038080319EB2D0A128A1134250A128A11EA
:100BD00083120313B8018619F02D3908031D08008C
:100BE0000130FF007F08B907053039020318FB2DDB
:100BF0003908031DFD2DB901B90A0A128A114722CD
:100C00000A128A110A128A11B5260800F70077081D
:100C1000F60002300310F60DFF3E031D0A2E0310EE
:100C2000760D403E0A128A1133200A128A11F80109
:100C300078087507F60076088400831300080A1206
:100C40008A11ED200A128A110130FF007F08F8078F
:100C50000830780203180800182E0A128A119F26FD
:100C60000A128A110A128A11EB260A128A110A1232
:100C70008A110B240A128A110A128A116B260A128F
:100C80008A11831603130C14831203130C140A1213
:100C90008A11DF240A128A11472E522E0A128A1153
:100CA00093230800831203133608BD00BE013E08DB
:100CB000003A03195C2E6A2E3D08003A03194E2EA5
:100CC000013A03196A2E033A03196A2E013A0319ED
:100CD0006A2E6A2E080083160317891183120313E4
:100CE0001013101590101008CF3910389000101400
:100CF000FF308F0005308E000B178B178316031300
:100D00000C10831203130C1408007A087B04031DD3
:100D1000912E83120313B801B80AE830FA000330A9
:100D2000FB00831203135B085C04031D08006400CE
:100D3000883083120313DB001330DC0008008316B5
:100D40000313851283120313850186018701FF3087
:100D5000831603138600870183160317091289116E
:100D6000091109108910081208004130F300EE3013
:100D7000F200F20BB92EF30BB92E0000831203130D
:100D8000061C8618B52E0619B52E861D0800B52E30
:100D90007E088A007F088200C8260A128A11800015
:100DA000840A04087D0603190034FF0A0319FE0AA9
:100DB000CC2E0634093409340634003400340034AF
:100DC00000348834133464008001840A0406031953
:100DD00000340406E42E83120313B701B6010800A1
:040DE000E8340334BC
:04400E00E22CFF3F62
:00000001FF
