:020000040000FA
:100000000A128A1110280800FE00030EF0000A08E8
:10001000F100831203137F08F2000A128A150028E8
:100020000A128A1113288313C530FD001530FE0013
:100030003030FF00BD3084000A168A114E250A12A6
:100040008A117030FD001530FE001D30FF006C304D
:1000500084000A168A114E250A128A110A168A117C
:1000600017250A128A11F8000A168A1118250A1291
:100070008A11F900A0308400BD300A168A112825A3
:100080000A128A11643084006C300A168A112825FD
:10009000FA0183010A168A11732E83120313B70023
:1000A0002A30FF007F08B0000130A907FF30290780
:1000B00084000A128A110A270A128A11FF007F0897
:1000C000B60036080319072A2530360603197428A6
:1000D0003608FF00370884007F0883138000013052
:1000E000FF007F08B7075428B401B501B3017D288C
:1000F00033150130FF007F08A907290884000A1280
:100100008A110A270A128A11AC00AD012D08003AA3
:1001100003198B2890282C08303A03197828902846
:10012000290884000A128A110A270A128A110A125F
:100130008A11F2260A128A11031CDF288312031384
:10014000B401B5010A3083120313A3000030A400E8
:100150003508A6003408A5000A168A11B9250A1226
:100160008A11831203132408B5002308B400290858
:1001700084000A128A110A270A128A11D03EAC00A2
:10018000FF3003180030AD002C08B4070318B50A7F
:100190002D08B5070130FF007F08A9072908840052
:1001A0000A128A110A270A128A110A128A11F226E1
:1001B0000A128A11031CDF28A228331701290130F3
:1001C00083120313A907FF30290784000A128A113A
:1001D0000A270A128A11B600AC00AD012D08003AB8
:1001E0000319F32854282C08003A0319072A643A03
:1001F000031901290D3A031901291C3A0319DD28B5
:100200005428331B1B293008840083130008B100D5
:10021000840A0008B2000230FF007F08B007B21F56
:1002200027290330FF007F08B304B109B209B10ADE
:100230000319B20A27293008840083130008B1008B
:10024000840A0008B2000230FF007F08B007B60140
:10025000B60A3608AC002C07013E84000A128A1147
:100260000A270A128A11AD000A128A110A270A12F5
:100270008A11AE002E083202031D40292D083102DA
:10028000031C4A290130FF007F08B60705303606F7
:10029000031D292934083504031958293308033963
:1002A00003195829FF30B4070318B50AFF30B50702
:1002B0003508803A803C031D5F2934083602031854
:1002C0006D29831203133608AC00AD012C08B4026B
:1002D0002D08031CB503B502712983120313B40161
:1002E000B501331D982933080339031982292D30AC
:1002F000FF00370884007F08831380000130FF006F
:100300007F08B707340835040319C0293030FF00CF
:10031000370884007F08831380000130FF007F08C6
:10032000B707FF30B4070318B50AFF30B5078229B5
:10033000340835040319B1292030FF003708840040
:100340007F08831380000130FF007F08B707FF306C
:10035000B4070318B50AFF30B50734083504031D88
:100360009C29330803390319C0292D30FF003708B1
:1003700084007F08831380000130FF007F08B707E7
:100380003608FF007F08AF00FF30FF007F08AF078F
:100390002F0A031954280A30A3000030A4002F08A4
:1003A000AC002C07013E84000A128A110A270A12A7
:1003B0008A11F3000A128A110A270A128A11F4001C
:1003C0003208F6003108F5000A128A11C2270A1213
:1003D0008A11740883120313A6007308A5000A1675
:1003E0008A11FF260A128A11831203132308303E52
:1003F000FF007F08B6003608FF00370884007F083A
:10040000831380000130FF007F08B707C429370835
:100410008400831380010800152B0A128A15012419
:1004200083160313B801B80A08000A128A112C2691
:100430000230FF007F0883160313B8000800023063
:100440006406031D292A0A168A115B250A128A11DD
:100450003C2A03306406031D332A0A168A114125FB
:100460000A128A113C2A04306406031D3C2A0A162B
:100470008A1138250A128A1183120313861D4E2A07
:100480006708031D452A0130462A0030FF007F0817
:10049000E7000A168A1125260A128A118316031309
:1004A0003A080319562AB801B80ABA01831203138D
:1004B000061C08000330FF007F0883160313B800F2
:1004C0000A168A1125260A128A1183120313660856
:1004D000031D6C2A01306D2A0030FF007F08E60002
:1004E000080002306406031D7B2A0A128A110320C9
:1004F0000A128A118E2A03306406031D852A0A1601
:100500008A1116250A128A118E2A04306406031DE8
:100510008E2A0A168A1119250A128A1183160313C4
:1005200039080319972A0430FF007F08B8008312A6
:100530000313061D080083160313B8010A128A1557
:10054000932008000A168A11B5270A128A1183120D
:1005500003136908031DE72A6808031DE72A6608D4
:10056000031DB42A0130B52A0030FF007F08E600E1
:1005700083160313C50183120313851603308312F8
:100580000313E3008A30E2005530E100E10BC62A94
:10059000E20BC62AE30BC62A83120313851203302B
:1005A00083120313E3008A30E2005530E100E10BCF
:1005B000D72AE20BD72AE30BD72A0130FF007F08A6
:1005C00083160313C50703304502031CBB2A83129D
:1005D00066080319F22A0330FF007F08831603130D
:1005E000B80008000530FF007F0883160313B80029
:1005F000080083160313AE01AF0183120313EA014F
:10060000E901E80183160313BB0183120313EB0115
:10061000061201300A128A15462783120313E501D8
:10062000E50A83160313B80108008316031338087C
:1006300083120313E100E2016208003A0319212B3F
:10064000352B6108003A03190D2A013A0319152ABE
:10065000033A03191F2A013A0319712A073A0319A9
:10066000A22A013A0319F92A352B08008312031331
:10067000DD01DE01DB01DC0100300A168A116C2786
:100680000A128A11740883120313A4007308A300CA
:100690000A168A1100260A128A11831203132308EC
:1006A000AA002408AB002508AC000030A700A03049
:1006B000A8004030A9000A128A1159250A128A118D
:1006C000831203132708B9002808BA002908BB00C1
:1006D000C030B6007F30B7004430B8000A128A1527
:1006E0008E260A128A11831203133608D6003708A1
:1006F000D7003808D8005608AA005708AB00580899
:10070000AC004030A7001C30A8004630A9000A12F7
:100710008A1159250A128A11831203132708B90076
:100720002808BA002908BB000030B600A030B70086
:100730004030B8000A128A158E260A128A118312D6
:1007400003133608C5003708C6003808C7000A1268
:100750008A15FC220A128A11831203134608E0004C
:100760004508DF001030F3002730F4006008F60081
:100770005F08F5000A128A11C2270A128A1174084A
:1007800083120313A4007308A3001030A5002730C0
:10079000A6000A168A11B9250A128A1183120313B8
:1007A0002408DE002308DD00E830F3000330F40005
:1007B0005D085F02F5005E08031C5E0A6002F60039
:1007C0000A128A11C2270A128A11740883120313AB
:1007D000A4007308A300E830A5000330A6000A16A1
:1007E0008A11B9250A128A11831203132408DC0026
:1007F0002308DB006430F3000030F4005B09D20012
:100800005C09D300D20A0319D30A5D085202D4004E
:100810005E08031C5E0A5302D5005F085407F5000A
:1008200060080318600A5507F6000A128A11C227E9
:100830000A128A11740883120313A4007308A30018
:100840006430A5000030A6000A168A11B9250A12E4
:100850008A11831203132408DA002308D9005B08E5
:100860005907D2005C0803185C0A5A07D3005D08D8
:100870005207DF005E0803185E0A5307E0006008B5
:1008800083160313AF00831203135F088316031349
:10089000AE002E082F04031D522C3C30AE00003059
:1008A000AF00080027302F02113003192E02031C5D
:1008B00008001030AE002730AF0008008312031389
:1008C00067080319DA2C02300A168A116C270A12FB
:1008D0008A11740883120313A4007308A3000A1674
:1008E0008A1100260A128A11831203132308AA0010
:1008F0002408AB002508AC000030A700A030A800F9
:100900004030A9000A128A1159250A128A1183124D
:1009100003132708B9002808BA002908BB00C03013
:10092000B6007F30B7004430B8000A128A158E2610
:100930000A128A11831203133608D2003708D30033
:100940003808D4005208AA005308AB005408AC0081
:100950000030A7006C30A8004230A9000A128A11AA
:1009600059250A128A11831203132708B90028088F
:10097000BA002908BB000030B600A030B7004030F4
:10098000B8000A128A158E260A128A1183120313DE
:100990003608C5003708C6003808C7000A128A158D
:1009A000FC220A128A11831203134508FF007F08F4
:1009B000E900532D6708031D532D02300A168A11D2
:1009C0006C270A128A11740883120313A400730897
:1009D000A3000A168A1100260A128A118312031331
:1009E0002308AA002408AB002508AC000030A700AB
:1009F000A030A8004030A9000A128A1159250A1215
:100A00008A11831203132708B9002808BA0029089D
:100A1000BB00C030B6007F30B7004430B8000A12C7
:100A20008A158E260A128A11831203133608D20001
:100A30003708D3003808D4005208AA005308AB0086
:100A40005408AC000030A7006C30A8004230A90068
:100A50000A128A1159250A128A11831203132708D0
:100A6000B9002808BA002908BB000030B600A03041
:100A7000B7004030B8000A128A158E260A128A1171
:100A8000831203133608C5003708C6003808C700AC
:100A90000A128A15FC220A128A11831203134508CE
:100AA000FF007F08E8006808031D0800E801E80A65
:100AB0000800831203132708AD002808AE00290898
:100AC000AF0003102E0D2F0DFF007F08B00030087F
:100AD000031D712D0030A7000030A8000030A900D0
:100AE00008002A08AD002B08AE002C08AF00031048
:100AF0002E0D2F0DFF007F08B5003508031D872D33
:100B00000030A7000030A8000030A9000800350818
:100B10007B3EFF007F08B0072708AD002808AE0025
:100B20002908AF0010300310AF0CAE0CAD0CFF3E27
:100B3000031D932D2D08FF007F08B5002A08AD0086
:100B40002B08AE002C08AF0010300310AF0CAE0C19
:100B5000AD0CFF3E031DA52D2D08FF007F08B50637
:100B60008030FF007F08B505A817AB17FF30AA0536
:100B7000FF30AB050030AC050030B1000030B200F2
:100B80000030B3000730FF007F08B400271CD62DCB
:100B90002A08B1072B08031103182B0A031DB207FB
:100BA0002C08031103182C0A031DB307013003108E
:100BB000A90CA80CA70CFF3E031DD72D0130031074
:100BC000AA0DAB0DAC0DFF3E031DDF2D0130B402AD
:100BD000031DC62D0930FF007F08B400271CFE2D21
:100BE0002A08B1072B08031103182B0A031DB207AB
:100BF0002C08031103182C0A031DB307013003103E
:100C0000A90CA80CA70CFF3E031DFF2D01300310FB
:100C1000B30CB20CB10CFF3E031D072E0130B40221
:100C2000031DEE2D3108F3003208F4003308F500FF
:100C30003008FF007F08F6003508FF007F08F70046
:100C40000A128A151422730883120313A70074086A
:100C5000A8007508A9000800AA30FF007F088312C9
:100C60000313A900831603132F0883120313AB0089
:100C7000831603132E0883120313AA003A300A12B4
:100C80008A114D200A128A11013083120313A00029
:100C90000030A1000530A2000030A3003A30A400CB
:100CA0000030A5000A128A15AD210A128A11A5305A
:100CB000FF007F0883120313A9006A08B800B90176
:100CC0003808AA003908AB003A300A128A114D20C0
:100CD0000A128A11023083120313A0000030A1000F
:100CE0000530A2000030A3003A30A4000030A50077
:100CF0000A128A15AD210A128A11A530FF007F0859
:100D000083120313A9006908B800B9013808AA00C2
:100D10003908AB003A300A128A114D200A128A11A2
:100D2000033083120313A0000030A1000830A2009A
:100D30000030A3003A30A4000030A5000A128A1542
:100D4000AD210A128A11A530FF007F088312031318
:100D5000A9006808B800B9013808AA003908AB0032
:100D60003A300A128A114D200A128A110330831276
:100D70000313A0000030A1000B30A2000030A3003C
:100D80003A30A4000030A5000A128A15AD210A12DB
:100D90008A11A530FF007F0883120313A900831670
:100DA00003133B0883120313B800B9013808AA00E3
:100DB0003908AB003A300A128A114D200A128A1102
:100DC000043083120313A0000030A1000D30A200F4
:100DD0000030A3003A30A4000030A5000A128A15A2
:100DE000AD210800F400F3013A3074020318FE2E1E
:100DF00030307402031CFE2EF301F30A730C08005A
:100E0000FF1B0A2F83137F1883170008840A031916
:100E1000FF0A080007308A000408840A82070034A9
:100E2000013400340A34003464340034E8340334C8
:100E300010342734203420342034443445342034D2
:100E400049344E3459344534433454344F34523495
:100E5000453453342034203420342034003450348A
:100E600052344F344234413444344F3452342034B9
:100E70004134553454344F344D344F345434523457
:100E800049345A34203400343D343D343D343D340B
:100E90003D343D343D343D343D343D343D343D34CA
:100EA0003D343D343D343D343D343D343D343D34BA
:100EB00000344C3449344D3450342E3420345534BD
:100EC0004C3454345234413453344F344E34493416
:100ED00044344F340034503472346F3463346534E6
:100EE00073346F34203444346534743465346E3470
:100EF000693464346F340034503455344C345634CF
:100F00004534523449345A344134433449344F34EB
:100F10004E340034543445344D3450344534523416
:100F2000413454345534523441343A340034543416
:100F3000493445344D3450344F343A340034463417
:100F40004C3455344A344F340034523450344D34D8
:100F50003A340034503457344D343A340034463443
:100F60005534473441340034253430343234643419
:100F70000034253430343534753400343E34003494
:100F80004334003483120313A101A20173087404D3
:100F90000319FB2FA001A00AF41BDA2F0130031064
:100FA000F30DF40DFF3E031DCF2F0130FF007F082E
:100FB000A007CC2F01300310A10DA20DFF3E031D91
:100FC000DB2F74087602031DE72F73087502031CDC
:100FD000F02F7308F5027408031CF603F6022114BF
:100FE00001300310F40CF30CFF3E031DF12F013010
:100FF000A002031DDA2F2208F4002108F3000800E4
:101000000C1C2C287808790403190F287A08031D72
:101010000F280130F8020030031CF903F9026E08B2
:101020006F04031919280130EE020030031CEF038E
:10103000EF026C086D040319262866080319262898
:101040000130EC020030031CED03ED02FF308F0095
:1010500005308E0010140C10780879040319382814
:101060006E086F04031938286C086D04031D3D28B1
:101070000A168A1133270A128A157208831203137B
:10108000FF0071088A00700E8300FE0E7E0E0900BC
:10109000013083120313A0000030A1000330A2002E
:1010A0000030A3006D30A4008030A5000A128A151C
:1010B000AD210A128A15023083120313A0000030FA
:1010C000A1000330A2000030A300A030A4008030B3
:1010D000A5000A128A15AD210A128A15033083125F
:1010E0000313A0000030A1000330A2000030A300D1
:1010F0009030A4008030A5000A128A15AD210A1292
:101100008A15043083120313A0000030A1000330BD
:10111000A2000030A3004A30A4008030A5000A12CB
:101120008A15AD2108000A168A1125260A128A1589
:10113000831203136608031D9F280130A028003086
:10114000FF007F08E60006120A168A116E250A12B1
:101150008A1583120313A901851603308312031322
:10116000A8008A30A7005530A600A60BB528A70B0B
:10117000B528A80BB52883120313851203308312F8
:101180000313A8008A30A7005530A600A60BC62876
:10119000A70BC628A80BC6280130FF007F088312C2
:1011A0000313A90703302902031CAC281F30831244
:1011B0000313A8007130A7001D30A600A60BDE287F
:1011C000A70BDE28A80BDE28E528080028290A122C
:1011D0008A152A2583120313E401E40A08000A167B
:1011E0008A114C260A128A1583120313861C0929B8
:1011F0006B03031D09290230022902306B06031D0F
:101200000B290330FF007F08E4000A168A11252607
:1012100008008618FD28861C080003306B06031D95
:101220000800043002290A128A110C220A128A15B7
:10123000831203136508031908000530FF007F08B7
:10124000E40008001329B80183120313E501EA281A
:1012500083120313640883160313C600C7014708EB
:10126000003A0319342948294608003A0319E728A7
:10127000013A0319EF28033A03191329013A031914
:101280002229073A03192229013A03192329482957
:10129000080003300A168A116C270A128A1574088E
:1012A00083120313A4007308A3000A168A110026F0
:1012B0000A128A15831203132308AA002408AB001C
:1012C0002508AC000030A700A030A8004030A900DD
:1012D0000A128A1159250A128A1583120313270844
:1012E000B9002808BA002908BB00C030B6007F301A
:1012F000B7004430B8000A128A158E260A128A15E1
:10130000831203133608D2003708D3003808D400FC
:101310005208AA005308AB005408AC000030A700E4
:10132000C830A8004230A9000A128A1159250A12B1
:101330008A15831203132708C5002808C600290848
:10134000C7000A128A15FC22831203134508FF0006
:101350007F0883160313BB000800D2292208FF3E32
:1013600080380A128A1546270A128A15052A220889
:101370003F3E80380A128A1546270A128A15052A26
:101380002208133E80380A128A1546270A128A1547
:10139000052A2208533E80380A128A1546270A1267
:1013A0008A15052A831203132108003A0319D92943
:1013B000052A2008013A0319AE29033A0319B7296F
:1013C000013A0319C029073A0319C929052A250832
:1013D000FF00240884000A128A1100270A128A15C5
:1013E0000A128A15D6250A128A150730F7007D30B1
:1013F000F600F60BF929F70BF929013083120313D4
:10140000A4070318A50A0030A507831203132508B3
:10141000FF00240884000A128A1100270A128A1584
:10142000003A03190800E729760803191C2A7508F1
:1014300074047304031D2F2A0030F3000030F400FD
:101440000030F50008000130FF007F08F60701308A
:101450000310F50CF40CF30CFF3E031D282AFE309C
:10146000750503194A2A232A0130FF007F08F60771
:101470000130F307003003180130F407003003187F
:101480000130F50701300310F50CF40CF30CFF3EAE
:10149000031D432AFF30750503195D2A342A0230E3
:1014A0007602031C5F2A0130F60201300310F30DAF
:1014B000F40DF50DFF3E031D562AF41F4F2A761832
:1014C000672AFF30F3057F30F405FF30F505031080
:1014D000F60C760883120313A000A101A2011030BC
:1014E0000310A00DA10DA20DFF3E031D702A2008C0
:1014F000F3042108F4042208F5047708031908000E
:10150000F5170800831603130712871207138713B2
:10151000871087110711831203130711C330F700D7
:10152000CD30F600F60B922AF70B922A83120313A2
:10153000A00103300A128A1546270A128A152E3096
:10154000F7007330F600F60BA32AF70BA32A01303D
:10155000FF007F0883120313A00703302002031C3F
:10156000992A33300A128A1546270A128A15A6309C
:10157000F600F60BB92A000032300A128A15462707
:101580000A128A152130F7007630F600F60BC62ACB
:10159000F70BC62A000028300A128A1546270A12BD
:1015A0008A15A630F600F60BD32A00000C300A127A
:1015B0008A1546270A128A15A630F600F60BDE2A8F
:1015C000000006300A128A1546270A128A15A6302C
:1015D000F600F60BE92A000001300A128A154627A8
:1015E0000A128A154130F700EE30F600F60BF62AA3
:1015F000F70BF62A00000800831203134508C90000
:101600004608CA004708CB0003104A0D4B0DFF00E7
:101610007F08D1005108031D162B0030C800003090
:10162000C7000030C6000030C50008004508C900EA
:101630004608CA004708CB0017300310CB0CCA0C71
:10164000C90CFF3E031D1D2B4908FF007F08CC007D
:10165000C617FF30C505FF30C6050030C705450871
:10166000CD004608CE004708CF00D0018E30D10211
:10167000D11F4F2B5108803A8F3E031C0D2B013098
:101680000310D00CCF0CCE0CCD0CFF3E031D402B15
:101690000130FF007F08D1070319622B3F2B183060
:1016A000510203180D2B51080319622B0130C90098
:1016B0000310CD0DCE0DCF0DD00DC90B582B013021
:1016C000D102532B4C080319702BCD09CE09CF0939
:1016D000D009CD0A0319CE0A0319CF0A0319D00A7B
:1016E0005008C8004F08C7004E08C6004D08C50086
:1016F000080001300A168A116C270A128A1574082C
:1017000083120313A4007308A3000A168A1100268B
:101710000A128A15831203132308AA002408AB00B7
:101720002508AC000030A700A030A8004030A90078
:101730000A128A1159250A128A15831203132708DF
:10174000B9002808BA002908BB00C030B6007F30B5
:10175000B7004430B8000A128A158E260A128A157C
:10176000831203133608D2003708D3003808D40098
:101770005208AA005308AB005408AC000030A70080
:10178000C830A8004230A9000A128A1159250A124D
:101790008A15831203132708B9002808BA002908FC
:1017A000BB000030B600A030B7004030B8000A12CD
:1017B0008A158E260A128A15831203133608C5006D
:1017C0003708C6003808C7000A128A15FC220A1218
:1017D0008A15831203134508FF007F08EA00603072
:1017E0006A02031CF82B5F30FF007F08EA00080044
:1017F00005306A02031808000530FF007F08EA0080
:10180000080001300A128A1546270A128A1501308B
:1018100083120313A0000030A1000130A2000030A9
:10182000A3009630A4008030A5000A128A15AD21CD
:101830000A128A15023083120313A0000030A1009F
:101840000130A2000030A3009B30A4008030A5002E
:101850000A128A15AD210A128A1503308312031366
:10186000A0000030A1000130A2000030A3008830A9
:10187000A4008030A5000A128A15AD210A128A152B
:10188000033083120313A0000030A1000A30A2002D
:101890000030A3008630A4008030A5000A128A150B
:1018A000AD210A128A15043083120313A000003000
:1018B000A1000130A2000030A3007B30A4008030E2
:1018C000A5000A128A15AD210A128A150430831266
:1018D0000313A0000030A1001030A2000030A300CC
:1018E0000A168A11CC260A128A1501300A128A15A4
:1018F000D6250A128A15043083120313A000003083
:10190000A1001130A2000030A300B130A40080304B
:10191000A5000A128A15AD210800831203136B0378
:10192000031DB52C0430A0000030A1000130A2003E
:101930000030A3001E30A4008030A5000A128A15D2
:10194000AD210A128A15013083120313A000003062
:10195000A1000130A2000030A300AF30A40080300D
:10196000A5000A128A15AD21080002306B06031D7E
:10197000DC2C0130A0000030A1000130A2000030BA
:10198000A3001E30A4008030A5000A128A15AD21E4
:101990000A128A15023083120313A0000030A1003E
:1019A0000130A2000030A300AF30A4008030A500B9
:1019B0000A128A15AD21080003306B06031D032DA2
:1019C0000230A0000030A1000130A2000030A300CE
:1019D0001E30A4008030A5000A128A15AD210A121B
:1019E0008A15033083120313A0000030A1000130D8
:1019F000A2000030A300AF30A4008030A5000A127E
:101A00008A15AD21080004306B06031D0800033061
:101A1000A0000030A1000130A2000030A3001E3061
:101A2000A4008030A5000A128A15AD210A128A1579
:101A3000043083120313A0000030A1000130A20083
:101A40000030A300AF30A4008030A5000A128A1530
:101A5000AD2108002A308400BD3083120313A60094
:101A60000408A7000830A800260884008313000893
:101A7000A900A60A2708840029088000A70AA80B45
:101A8000342D2A30FF007F08F60001300A168A1133
:101A90009F260A128A15323084000830FF00831313
:101AA0008001840AFF0B4F2D3230FF007F08F600C3
:101AB00000300A168A119F260A128A1501300A126E
:101AC0008A1546270A128A15013083120313A000D3
:101AD0000030A1000130A2000030A3003530A40086
:101AE0008030A5000A128A15AD210A128A1502302B
:101AF00083120313A0000030A1000130A2000030C7
:101B0000A3002030A4008030A5000A128A15AD2160
:101B10000A128A15033083120313A0000030A100BB
:101B20000130A2000030A3000B30A4008030A500DB
:101B30000A128A15AD210A128A1504308312031382
:101B4000A0000030A1000130A2000030A300353019
:101B5000A4008030A5000A128A15AD210A128A1548
:101B6000333083120313A800BB30A700DF30A60078
:101B7000A60BB82DA70BB82DA80BB82D01300A1253
:101B80008A1546270A128A15013083120313A00012
:101B90000030A1000130A2000030A300AF30A4004B
:101BA0008030A5000A128A15AD210800F5008312C5
:101BB000031307128712071387137508F300043005
:101BC0000310F30CFF3E031DE02D73080139F400F0
:101BD000F40E07087406EF39740687007508F300E1
:101BE00005300310F30CFF3E031DF12D730801397E
:101BF000F400F40EF40D07087406DF39740687004C
:101C00007508F30006300310F30CFF3E031D032E8E
:101C100073080139F400F40EF40DF40D070874068E
:101C2000BF39740687007508F30007300310F30C02
:101C3000FF3E031D162E73080139F400F40CF40C5A
:101C4000070874067F397406870087148711871583
:101C50001830F300F30B2A2E2D2E83120313871155
:101C60001830F300F30B322E352E831203130712B4
:101C700087120713871375080139F300F30E07085D
:101C80007306EF39730687007508F3000310730CB1
:101C90000139F400F40EF40D07087406DF397406F8
:101CA00087007508F30002300310F30CFF3E031D9C
:101CB000542E73080139F400F40EF40DF40D0708E6
:101CC0007406BF39740687007508F30003300310EB
:101CD000F30CFF3E031D672E73080139F400F40C6A
:101CE000F40C070874067F3974068700871487117F
:101CF00087155330F300F30B7B2E831203138711E8
:101D00005330F300F30B822E1430F4007930F300DB
:101D1000F30B882EF40B882E8D2E080083120313EC
:101D20003908BC003A08BD003B08BE0003103D0D59
:101D30003E0DFF007F08C3004308031DA62E0030A0
:101D4000B6000030B7000030B80008003608BC000C
:101D50003708BD003808BE0003103D0D3E0DFF00E2
:101D60007F08C4004408031DBC2E0030B6000030BC
:101D7000B7000030B80008000030C0000030C100DB
:101D80000030C20089304407BC003C08C302390857
:101D9000BC003A08BD003B08BE0010300310BE0C6A
:101DA000BD0CBC0CFF3E031DCE2E3C08FF007F087F
:101DB000C4003608BC003708BD003808BE0010302B
:101DC0000310BE0CBD0CBC0CFF3E031DE02E3C08F6
:101DD000FF007F08C4068030FF007F08C405BA17E3
:101DE000FF30B905FF30BA050030BB05B717FF302B
:101DF000B605FF30B7050030B8051830FF007F0882
:101E0000BF0001300310C00DC10DC20DFF3E031D08
:101E1000022F38083B02031D132F37083A02031D17
:101E2000132F36083902031C202F3608B902370851
:101E3000031C370FBA023808031C380ABB024014CF
:101E400001300310B90DBA0DBB0DFF3E031D212F4C
:101E50000130BF02031D012F4008F3004108F400C8
:101E60004208F5004308FF007F08F6004408FF0021
:101E70007F08F7000A128A151422730883120313CD
:101E8000B6007408B7007508B8000800F5008312A2
:101E9000031307128712071387137508F300043022
:101EA0000310F30CFF3E031D502F73080139F4009B
:101EB000F40E07087406EF39740687007508F300FE
:101EC00005300310F30CFF3E031D612F7308013929
:101ED000F400F40EF40D07087406DF397406870069
:101EE0007508F30006300310F30CFF3E031D732F3B
:101EF00073080139F400F40EF40DF40D07087406AC
:101F0000BF39740687007508F30007300310F30C1F
:101F1000FF3E031D862F73080139F400F40CF40C06
:101F2000070874067F3974068700871087118715A4
:101F30001830F300F30B9A2F9D2F83120313871190
:101F40001830F300F30BA22FA52F831203130712EF
:101F500087120713871375080139F300F30E07087A
:101F60007306EF39730687007508F3000310730CCE
:101F70000139F400F40EF40D07087406DF39740615
:101F800087007508F30002300310F30CFF3E031DB9
:101F9000C42F73080139F400F40EF40DF40D070892
:101FA0007406BF39740687007508F3000330031008
:101FB000F30CFF3E031DD72F73080139F400F40C16
:101FC000F40C070874067F397406870087108711A0
:101FD00087151830F300F30BEB2FEE2F831203134A
:101FE00087111830F300F30BF32FF62F1430F400A1
:101FF0007930F300F30BFA2FF40BFA2FFF2F0800C0
:102A2C000800E8340334831203130616080010342C
:102A3C002734D034073483120313E40183160313B1
:102A4C00B801080064008001840A040603190034EC
:102A5C000406292D063409340934063400340034B4
:102A6C00003400340A128A115E240A168A110A12E2
:102A7C008A15492108000A128A115E240A168A1145
:102A8C000A128A15492108007E088A007F088200F4
:102A9C004A250A168A118000840A04087D06031947
:102AAC000034FF0A0319FE0A4E2D0A128A1136232E
:102ABC000A168A110A128A1579230A168A110A1221
:102ACC008A115E240A168A110A128A1549210800F5
:102ADC0001300A128A1546270A168A11023083120F
:102AEC000313A0000030A1000330A2000030A300AB
:102AFC005C30A4008030A5000A128A15AD210800B4
:102B0C008316031385128312031385018601870133
:102B1C00FF308316031386008701831603170912EF
:102B2C008911091109108910081283160313061252
:102B3C000800831603178911831203131013101541
:102B4C0090101008CF39103890001014FF308F00FF
:102B5C0005308E000B178B17831603130C10831282
:102B6C0003130C14080083120313A701A801231CE0
:102B7C00C52D2508A7070318A80A2608A8070130A1
:102B8C000310A50DA60DFF3E031DC62D013003102D
:102B9C00A40CA30CFF3E031DCD2D23082404031D00
:102BAC00BD2D2808A4002708A300080083160313D2
:102BBC000514831603170814831603138514831640
:102BCC0003178814831603130515831603170815AA
:102BDC0083160313851583160317881583120313A5
:102BEC001F083F3980389F00831603139F171F124D
:102BFC009F12080083120313A601A41F0C2EA30915
:102C0C00A409A30A0319A40AA601A60A2308F3001F
:102C1C002408F400F5018E30FF007F08F60026082A
:102C2C00FF007F08F7000A128A151422730883121A
:102C3C000313A3007408A4007508A50008008312F0
:102C4C00031385160230F5004530F400A930F3006B
:102C5C00F30B2E2EF40B2E2EF50B2E2E352E83125F
:102C6C000313851283120313061C462E4130F40005
:102C7C00EE30F300F30B402EF40B402E0000382EF8
:102C8C00861C06193C2E861D08003C2E64007A0812
:102C9C000319562E0A128A1548200A168A11FA01AF
:102CAC008312031386195D2E6B08031D0800013077
:102CBC00FF007F08EB0705306B020318682E6B08CA
:102CCC00031D6A2EEB01EB0A0A128A158D240A16D3
:102CDC008A110A168A11252608000A168A118625D9
:102CEC000A168A110A168A1121250A168A110A1245
:102CFC008A1582220A168A110A168A119F250A162B
:102D0C008A110A168A11DC250A168A1183160313F6
:102D1C000C14831203130C148312031705140508E7
:102D2C00E139143885000A128A15E6200A168A1130
:102D3C00992E83120313A0002008F7000230031011
:102D4C00F70DFF3E031DA52E0310770D403E0A1212
:102D5C008A1546270A168A1183120313A10121082A
:102D6C007607F70077088400831300080A128A1587
:102D7C00D6250A168A110130FF007F08831203132F
:102D8C00A1070830210203180800B52EE92E2208ED
:102D9C00FF3E80380A128A154627080022083F3E5B
:102DAC0080380A128A15462708002208133E8038FC
:102DBC000A128A15462708002208533E80380A1248
:102DCC008A1546270800831203132108003A0319B9
:102DDC00F02EFE2E2008013A0319CD2E033A0319CA
:102DEC00D42E013A0319DB2E073A0319E22EFE2EDC
:102DFC000800831203132308240403192E2FF70150
:102E0C00F70AA41B152F01300310A30DA40DFF3ED0
:102E1C00031D0A2F0130FF007F08F707072F240836
:102E2C002602031D1B2F23082502031C232F230816
:102E3C00A5022408031CA603A60201300310A40C4F
:102E4C00A30CFF3E031D242F0130F702031D152F89
:102E5C002608A4002508A300080078087904031D9F
:102E6C003D2FFA01FA0AE830F8000330F90083121A
:102E7C0003136E086F04031D4E2F64008316031397
:102E8C00BA01BA0AD03083120313EE000730EF00F8
:102E9C006C086D04031D08006808031D5F2F69088A
:102EAC000319612F0130E9023B30FF007F08E80075
:102EBC00612F0130E80283160313B901B90A1030EF
:102ECC0083120313EC002730ED0008008312031368
:102EDC00A000C330FF007F089F052008F5000130DB
:102EEC000310F50DFF3E031D762F0310750DFF002B
:102EFC007F089F041F147430F500F50B832F00001E
:102F0C00831203139F149F18892F1E08F500F601D6
:102F1C007508A1007608A2002208F6002108F50029
:102F2C007508F600F5017508A1007608A200831655
:102F3C0003131E08F500F601750883120313A10490
:102F4C007608A2041F107430F500F50BAB2F0000AF
:102F5C00831203132208F4002108F3000800A530A3
:102F6C00FF007F0883120313A9006908B800B90198
:102F7C003808AA003908AB003A300A128A114D20E1
:102F8C000A168A11033083120313A0000030A1002B
:102F9C000830A2000030A3003A30A4000030A50095
:102FAC000A128A15AD210A168A11A530FF007F0876
:102FBC0083120313A9006808B800B9013808AA00E5
:102FCC003908AB003A300A128A114D200A168A11C0
:102FDC00033083120313A0000030A1000B30A200B9
:102FEC000030A3003A30A4000030A5000A128A1564
:042FFC00AD210800FB
:04400E00E22CFF3F62
:00000001FF
