:020000040000FA
:060000000A128A1110280B
:10000800FE00030EF0000A08F100831203137F08B4
:10001800F2000A128A156D2D0A128A111328831309
:10002800EE30FD001330FE006C30FF00DC30840041
:100038000A168A115F230A128A11A0308400C5307B
:100048000A128A150120F601F701F801F901830166
:100058000A128A11F22DB9002C30FF007F08B20075
:100068000130AB07FF302B0784000A128A110A27D8
:100078000A128A11FF007F08B80038080319DB2923
:1000880025303806031954283808FF003908840039
:100098007F08831380000130FF007F08B9073428E8
:1000A800B601B701B5015D2835150130FF007F089D
:1000B800AB072B0884000A128A110A270A128A1130
:1000C800AE00AF012F08003A03196B2870282E08DC
:1000D800303A0319582870282B0884000A128A110C
:1000E8000A270A128A110A168A113E230A128A114D
:1000F800031CB928B601B7010A30A7000030A800D0
:100108003708AA003608A9000A168A1118240A1204
:100118008A112808B7002708B6002B0884000A129D
:100128008A110A270A128A11D03EAE00FF3003183E
:100138000030AF002E08B6070318B70A2F08B70714
:100148000130FF007F08AB072B0884000A128A11D0
:100158000A270A128A110A168A113E230A128A11DC
:10016800031CB92880283517D9280130AB07FF3080
:100178002B0784000A128A110A270A128A11B8006A
:10018800AE00AF012F08003A0319CB2834282E08F7
:10019800003A0319DB29643A0319D9280D3A0319DF
:1001A800D9281C3A0319B7283428351BF3283208F4
:1001B800840083130008B300840A0008B4000230E6
:1001C800FF007F08B207B41FFF280330FF007F0835
:1001D800B504B309B409B30A0319B40AFF283208ED
:1001E800840083130008B300840A0008B4000230B6
:1001F800FF007F08B207B801B80A3808AE002E071A
:10020800013E84000A128A110A270A128A11AF00D5
:100218000A128A110A270A128A11B0003008340219
:10022800031D18292F083302031C22290130FF005F
:100238007F08B80705303806031D0129360837043A
:10024800031930293508033903193029FF30B60757
:100258000318B70AFF30B7073708803A803C031DF8
:10026800372936083802031845298312031338083A
:10027800AE00AF012E08B6022F08031CB703B70261
:10028800492983120313B601B701351D70293508B2
:10029800033903195A292D30FF00390884007F08D3
:1002A800831380000130FF007F08B9073608370440
:1002B800031998293030FF00390884007F08831318
:1002C80080000130FF007F08B907FF30B607031828
:1002D800B70AFF30B7075A2936083704031989299E
:1002E8002030FF00390884007F0883138000013024
:1002F800FF007F08B907FF30B6070318B70AFF30B9
:10030800B70736083704031D74293508033903195C
:1003180098292D30FF00390884007F088313800056
:100328000130FF007F08B9073808FF007F08B100D7
:10033800FF30FF007F08B107310A031934280A305B
:10034800A7000030A8003108AE002E07013E840047
:100358000A128A110A270A128A11A0000A128A119F
:100368000A270A128A11A1003408A3003308A20040
:100378000A168A11FC240A128A112108AA002008E8
:10038800A9000A168A1197240A128A112708303EF2
:10039800FF007F08B8003808FF00390884007F088C
:1003A800831380000130FF007F08B9079C293908B2
:1003B80084008313800108008316D801D901D6016F
:1003C800D7013708D3003608D20000300A168A1140
:1003D8000C260A128A117508A9007408A8000A16C2
:1003E8008A11F7230A128A112808AF002908B000D9
:1003F8002A08B1000030AC00A030AD004030AE009B
:100408000A128A15BA240A128A112C08BE002D086D
:10041800BF002E08C000C030BB007F30BC00443095
:10042800BD000A128A15E0220A128A113B088316B7
:10043800CF0083123C088316D00083123D08831630
:10044800D1004F088312AF00831650088312B00002
:10045800831651088312B1004030AC001C30AD0047
:100468004630AE000A128A15BA240A128A112C08DC
:10047800BE002D08BF002E08C0000030BB00A03011
:10048800BC004030BD000A128A15E0220A128A1107
:100498003B08CA003C08CB003D08CC000A128A156C
:1004A80061200A128A114B088316DB0083124A085E
:1004B8008316DA0010308312A0002730A1008316BB
:1004C8005B088312A30083165A088312A2000A1637
:1004D8008A11FC240A128A112108A8002008A70002
:1004E8001030A9002730AA000A168A1118240A1207
:1004F8008A1128088316D900831227088316D80082
:10050800E8308312A0000330A100831658085A026D
:100518008312A20083165908031C590A5B0283122E
:10052800A3000A168A11FC240A128A112108A800BD
:100538002008A700E830A9000330AA000A168A118B
:1005480018240A128A1128088316D700831227084C
:100558008316D60064308312A0000030A1008316F1
:1005680056098312D700831657098312D800D70A71
:100578000319D80A8316580883125702D90083161C
:100588005908031C590A83125802DA0083165A08BC
:1005980083125907A20083165B0803185B0A8312AB
:1005A8005A07A3000A168A11FC240A128A11210884
:1005B800A8002008A7006430A9000030AA000A1685
:1005C8008A1118240A128A1128088316D500831262
:1005D80027088316D400560854078312D7008316B9
:1005E80057080318570A55078312D8008316580866
:1005F800831257078316DA0059080318590A831219
:1006080058078316DB005B08B7005A08B60036089F
:100618003704031D132B3C30B60000301D2B273048
:100628003702113003193602031C1E2B1030B60096
:100638002730B70053083706031D242B5208360607
:1006480003190800B330FF007F088312AB0083163C
:1006580037088312AD00831636088312AC00C53004
:100668000A128A112F200A128A110130A2000030C2
:10067800A3000530A4000030A500C530A600003056
:10068800A7000A168A11BB260800AA002A03031D20
:100698009C2B0230A2000030A3000130A4000030DF
:1006A800A5000A168A1166240A128A1100300A1651
:1006B8008A11C4250A128A11033083120313A20077
:1006C8000030A3000130A4000030A5000A168A11EA
:1006D80066240A128A1100300A168A11C4250A12E1
:1006E8008A11043083120313A2000030A3000130E2
:1006F800A4000030A5000A168A1166240A128A117D
:1007080000300A168A11C4250A128A110130831290
:100718000313A2000030A3000130A4000030A5009C
:10072800C230A6008030A7000A168A11BB2608002E
:1007380002302A06031DEF2B0130A2000030A3006F
:100748000130A4000030A5000A168A1166240A1296
:100758008A1100300A168A11C4250A128A11033038
:1007680083120313A2000030A3000130A40000305C
:10077800A5000A168A1166240A128A1100300A1680
:100788008A11C4250A128A11043083120313A200A5
:100798000030A3000130A4000030A5000A168A1119
:1007A80066240A128A1100300A168A11C4250A1210
:1007B8008A11023083120313A2000030A300013013
:1007C800A4000030A500C230A6008030A7000A1699
:1007D8008A11BB26080003302A06031D422C01306B
:1007E800A2000030A3000130A4000030A5000A16C2
:1007F8008A1166240A128A1100300A168A11C42541
:100808000A128A11023083120313A2000030A300D7
:100818000130A4000030A5000A168A1166240A12C5
:100828008A1100300A168A11C4250A128A11043066
:1008380083120313A2000030A3000130A40000308B
:10084800A5000A168A1166240A128A1100300A16AF
:100858008A11C4250A128A11033083120313A200D5
:100868000030A3000130A4000030A500C230A6006B
:100878008030A7000A168A11BB26080004302A0611
:10088800031D952C0130A2000030A3000130A40004
:100898000030A5000A168A1166240A128A1100304F
:1008A8000A168A11C4250A128A1103308312031307
:1008B800A2000030A3000130A4000030A5000A16F1
:1008C8008A1166240A128A1100300A168A11C42570
:1008D8000A128A11023083120313A2000030A30007
:1008E8000130A4000030A5000A168A1166240A12F5
:1008F8008A1100300A168A11C4250A128A11043096
:1009080083120313A2000030A3000130A4000030BA
:10091800A500C230A6008030A7000A168A11BB269F
:10092800080005302A06031D080001300A168A113E
:1009380038250A128A11013083120313A2000030ED
:10094800A3000130A4000030A500C230A60080300A
:10095800A7000A168A11BB26080083164003031D48
:10096800242D4408FF007F088312E30002300A1692
:100978008A110C260A128A117508A9007408A800A1
:100988000A168A11F7230A128A112808AF002908C3
:10099800B0002A08B1000030AC00A030AD004030F3
:1009A800AE000A128A15BA240A128A112C08BE004F
:1009B8002D08BF002E08C000C030BB007F30BC002F
:1009C8004430BD000A128A15E0220A128A113B0837
:1009D800E5003C08E6003D08E7006508AF0066084A
:1009E800B0006708B1000030AC006C30AD00423098
:1009F800AE000A128A15BA240A128A112C08BE00FF
:100A08002D08BF002E08C0000030BB00A030BC007D
:100A18004030BD000A128A15E0220A128A113B08EA
:100A2800CA003C08CB003D08CC000A128A15612098
:100A38000A128A114A08FF007F088316C400942D01
:100A48003F03031D942D7808FF007F088312E400FC
:100A580002300A168A110C260A128A117508A90092
:100A68007408A8000A168A11F7230A128A1128089E
:100A7800AF002908B0002A08B1000030AC00A0304F
:100A8800AD004030AE000A128A15BA240A128A1143
:100A98002C08BE002D08BF002E08C000C030BB00C7
:100AA8007F30BC004430BD000A128A15E0220A12C9
:100AB8008A113B08E5003C08E6003D08E7006508A8
:100AC800AF006608B0006708B1000030AC006C30B9
:100AD800AD004230AE000A128A15BA240A128A11F1
:100AE8002C08BE002D08BF002E08C0000030BB0037
:100AF800A030BC004030BD000A128A15E0220A125C
:100B08008A113B08CA003C08CB003D08CC000A12F9
:100B18008A1561200A128A114A08FF007F08F80026
:100B28007808031D992DF801F80A831644088312E2
:100B380063060319A32D831640030319AC2D780807
:100B4800831264060319080083163F03031D080077
:100B5800AE30FF007F088312AB008316440883126F
:100B6800D700D8015708AC005808AD0059300A1210
:100B78008A112F200A128A110330A2000030A30024
:100B88000830A4000030A5005930A6000030A700A6
:100B98000A168A11BB260A128A11AE30FF007F0896
:100BA800AB007808D700D8015708AC005808AD004A
:100BB80059300A128A112F200A128A110330A20012
:100BC8000030A3000B30A4000030A5005930A60067
:100BD8000030A7000A168A11BB2608008316851262
:100BE8008312850186018701FF30831686008701FD
:100BF800031709128911091109108910081289129D
:100C080003138612831286120A128A1558210A12B1
:100C18008A110A168A11DB230A128A110A168A1106
:100C2800A9230A128A1190308400DC30EC000408F1
:100C3800ED000830EE006C08840083130008EF0014
:100C4800EC0A6D08840083176F088000ED0AEE0B2C
:100C58001F2E9030FF007F08A20001300A128A116F
:100C6800D5270A128A11983084000830FF008317AC
:100C78008001840AFF0B3B2E9830FF007F08A200FA
:100C880000300A128A11D5270A128A1101300A1671
:100C98008A1138250A128A11013083120313A2001F
:100CA8000030A3000130A4000030A5003530A600B4
:100CB8008030A7000A168A11BB260A128A11023050
:100CC800A2000030A3000130A4000030A5002030AD
:100CD800A6008030A7000A168A11BB260A128A11BC
:100CE8000330A2000030A3000130A4000030A500AA
:100CF8000B30A6008030A7000A168A11BB260A12FC
:100D08008A110430A2000030A3000130A400003092
:100D1800A5003530A6008030A7000A168A11BB2628
:100D28000A128A11333083120313EE00BB30ED0030
:100D3800DF30EC00EC0B9E2EED0B9E2EEE0B9E2E64
:100D480001300A168A1138250A128A1183120317EC
:100D580005140508E1391438850064008316031367
:100D68000C1483120C14F601F70183160317A00163
:100D7800A00A831203138618C82EA0300A128A15F7
:100D880033260A128A11BD2E0A168A1139240A122C
:100D98008A1101300A168A1138250A128A11831617
:100DA80003172008FF007F08F7000A128A15DC20C5
:100DB8000A128A11E52E0A128A1578230A128A1154
:100DC800B72E83160317200883120313EC00ED01D6
:100DD8006D08003A0319F12EB72E6C08013A031971
:100DE800DF2E033A0319B72E013A0319B72EB72E8F
:060DF8000A128A11102806
:100E0000FF1B0A2F83137F1883170008840A031916
:100E1000FF0A080007308A000408840A82070034A9
:100E2000013400340A34003464340034E8340334C8
:100E300010342734203420342034443445342034D2
:100E400049344E3459344534433454344F34523495
:100E5000453453342034203420342034003450348A
:100E600052344F344234413444344F3452342034B9
:100E70004134553454344F344D344F345434523457
:100E800049345A34203400343D343D343D343D340B
:100E90003D343D343D343D343D343D343D343D34CA
:100EA0003D343D343D343D343D343D343D343D34BA
:100EB00000345034523455344534423441342034B3
:100EC00046344C3455344A344F34203449344E344B
:100ED00059342E3400344C3449344D3450342E348B
:100EE000203455344C3454345234413453344F3418
:100EF0004E34493444344F3400344D344F34443448
:100F00004F3420344134553454344F344D3441340B
:100F10005434493443344F3400345034523455340B
:100F20004534423441342034503455344C345634F2
:100F3000453452342E340034543445344D34503416
:100F400045345234413454345534523441343A34B3
:100F50000034503452345534453442344134203412
:100F600046345534473441340034543449344534DC
:100F70004D3450344F343A34003425343034323424
:100F8000643400342534303435347534003452340C
:100F900050344D343A340034503457344D343A34AC
:100FA00000343E34003443340034A4002408A30049
:100FB00002300310A30DFF3E031DD92F0310230D94
:100FC000403E0A168A1138250A128A118312031329
:100FD000A50125082207A300230884008317000821
:100FE0000A168A11C4250A128A110130FF007F08EF
:100FF00083120313A5070830250203180800E92F00
:1010020064008001840A04060319003404060228DD
:10101200E8006808840083130003031D2128770376
:1010220003191B280330770603191B2802307706A1
:10103200031D21280A128A11E0210A128A154E285C
:101042006808840002300006031D34287703031960
:101052002E2803307706031D34280A128A1512241B
:101062000A128A154E286808840003300006031D00
:1010720043287608031D43280A128A11B1240A1252
:101082008A154E286808840004300006031D4E2885
:101092000A128A155A220A128A150130FF00831297
:1010A200680884007F08831380076808840005307D
:1010B2000006031D0800680884008001800A0800F9
:1010C2004A08CE004B08CF004C08D00003104F0D49
:1010D200500DFF007F08D6005608031D7928003006
:1010E200CD000030CC000030CB000030CA00080038
:1010F2004A08CE004B08CF004C08D000173003102E
:10110200D00CCF0CCE0CFF3E031D80284E08FF00F2
:101112007F08D100CB17FF30CA05FF30CB05003066
:10112200CC054A08D2004B08D3004C08D400D501A4
:101132008E30D602D61FB2285608803A8F3E031C44
:10114200702801300310D50CD40CD30CD20CFF3E06
:10115200031DA3280130FF007F08D6070319C52805
:10116200A228183056020318702856080319C528F9
:101172000130CE000310D20DD30DD40DD50DCE0B00
:10118200BB280130D602B62851080319D328D20948
:10119200D309D409D509D20A0319D30A0319D40AE7
:1011A2000319D50A5508CD005408CC005308CB00CA
:1011B2005208CA000800013083120313A200003053
:1011C200A3000130A4000030A500B830A600803092
:1011D200A7000A168A11BB260A128A150230A2003B
:1011E2000030A3000130A4000030A500BD30A600ED
:1011F2008030A7000A168A11BB260A128A1503300C
:10120200A2000030A3000130A4000030A500A630E7
:10121200A6008030A7000A168A11BB260A128A1578
:101222000330A2000030A3000A30A4000030A50061
:101232009830A6008030A7000A168A11BB260A122F
:101242008A150430A2000030A3000130A40000304F
:10125200A5008D30A6008030A7000A168A11BB2691
:101262000A128A150430A2000030A3001030A40034
:101272000030A5000A168A1166240A128A15013066
:101282000A168A11C4250A128A150430831203131E
:10129200A2000030A3001130A4000030A500C43029
:1012A200A6008030A7000A168A11BB260800A330C8
:1012B20083120313A3005430A200A20B5E29A30BD6
:1012C2005E29000083120313A40103300A168A1157
:1012D20038250A128A152E3083120313A3007230A6
:1012E200A200A20B7229A30B722900000130FF0099
:1012F2007F0883120313A40703302402031C662908
:1013020033300A168A1138250A128A15A53083123B
:101312000313A200A20B8B298E2932300A168A11DE
:1013220038250A128A15213083120313A30075305F
:10133200A200A20B9A29A30B9A299F2928300A16E8
:101342008A1138250A128A15A53083120313A200C6
:10135200A20BA929AC290C300A168A1138250A12C7
:101362008A15A53083120313A200A20BB629B9294C
:1013720006300A168A1138250A128A15A5308312F8
:101382000313A200A20BC329C62901300A168A112F
:1013920038250A128A15413083120313A300ED3057
:1013A200A200A20BD229A30BD229D72908008316A7
:1013B2004103031D252AAE30FF007F088312AB00D4
:1013C200831644088312BA00BB013A08AC003B08FA
:1013D200AD003D300A128A112F200A128A150330FD
:1013E200A2000030A3000830A4000030A5003D3068
:1013F200A6000030A7000A168A11BB260A128A1517
:10140200AE30FF007F08AB007808BA00BB013A0893
:10141200AC003B08AD003D300A128A112F200A129F
:101422008A150330A2000030A3000B30A400003064
:10143200A5003D30A6000030A7000A168A11BB267F
:101442000A128A158316C1014408031D0800780890
:10145200031D0800C201C20A8312C70185160330A8
:1014620083120313BC008A30BB005530BA00BA0B9A
:10147200382ABB0B382ABC0B382A83120313851275
:10148200033083120313BC008A30BB005530BA000C
:10149200BA0B492ABB0B492ABC0B492A0130FF006F
:1014A2007F0883120313C70703304702031808009B
:1014B2002F2A83164308FF007F088312E6000330B9
:1014C2000A168A110C260A128A157508A9007408D0
:1014D200A8000A168A11F7230A128A152808AF00F3
:1014E2002908B0002A08B1000030AC00A030AD00DD
:1014F2004030AE000A128A15BA240A128A152C0844
:10150200BE002D08BF002E08C000C030BB007F30D7
:10151200BC004430BD000A128A15E0220A128A1564
:101522003B08E3003C08E4003D08E5006308AF0027
:101532006408B0006508B1000030AC00C830AD00EE
:101542004230AE000A128A15BA240A128A152C08F1
:10155200CA002D08CB002E08CC000A128A15612081
:101562000A128A154A08FF007F088316C30043083F
:101572008312660603190800AE30FF007F08AB0035
:10158200831643088312D700D8015708AC005808C5
:10159200AD0059300A128A112F200A128A1504301E
:1015A200A2000030A3000D30A4000030A500593085
:1015B200A6000030A7000A168A11BB2608003E08C2
:1015C200C1003F08C2004008C3000310420D430D92
:1015D200FF007F08C8004808031DF62A0030BB0040
:1015E2000030BC000030BD0008003B08C1003C08D0
:1015F200C2003D08C3000310420D430DFF007F08E7
:10160200C9004908031D0C2B0030BB000030BC0090
:101612000030BD0008000030C5000030C6000030B8
:10162200C70089304907C1004108C8024008FF00CD
:101632007F08C9003D08FF007F08C9068030FF000F
:101642007F08C905BF17FF30BE05FF30BF05003058
:10165200C005BC17FF30BB05FF30BC050030BD051F
:101662001830FF007F08C40001300310C50DC60DFD
:10167200C70DFF3E031D362B3D084002031D472BBD
:101682003C083F02031D472B3B083E02031C542B20
:101692003B08BE023C08031C3C0FBF023D08031C72
:1016A2003D0AC002451401300310BE0DBF0DC00D2E
:1016B200FF3E031D552B0130C402031D352B450887
:1016C200A0004608A1004708A2004808FF007F08C2
:1016D200A3004908FF007F08A4000A168A112327E5
:1016E2002008BB002108BC002208BD000800EB0155
:1016F200EB0AF601F8018316BF01BF0AC00183128B
:10170200061C922B0A168A1139240A128A157608A7
:10171200031D8D2B01308E2B0030FF007F08F60059
:10172200C62B061DC62B0A168A1139240A128A15DF
:101732000A168A1130230A128A157608031DA32B72
:101742000130A42B0030FF007F08F600F801F80AF0
:10175200C62B6400DF2B6B300A128A1509200A128D
:101762008A158316BD01BA01DF2B0A168A117E255E
:101772000A128A158316BC01B42B0A128A15D821C3
:101782000A128A158316BB01B42B831603133A0877
:101792008312E900EA016A08003A0319D12BDF2B10
:1017A2006908003A0319AA2B013A0319AC2B033A30
:1017B2000319B62B013A0319BE2BDF2B8316031331
:1017C2004203031DED2B7603031DED2B0A168A112E
:1017D20030230A128A150A2C8312861D802B0A16C0
:1017E2008A1139240A128A15831603134008031D2D
:1017F200FC2B0130FD2B0030FF007F08C0003F08AA
:10180200031D052C0130062C0030FF007F08BF00AD
:10181200802B8316C201F60101300A168A1138257F
:1018220008007908FF007F08E6007703031D8D2C6E
:1018320001300A168A110C260A128A157508A900A7
:101842007408A8000A168A11F7230A128A152808B2
:10185200AF002908B0002A08B1000030AC00A03067
:10186200AD004030AE000A128A15BA240A128A1557
:101872002C08BE002D08BF002E08C000C030BB00DF
:101882007F30BC004430BD000A128A15E0220A12E1
:101892008A153B08E3003C08E4003D08E5006308C4
:1018A200AF006408B0006508B1000030AC00C83079
:1018B200AD004230AE000A128A15BA240A128A1505
:1018C2002C08BE002D08BF002E08C0000030BB004F
:1018D200A030BC004030BD000A128A15E0220A1274
:1018E2008A153B08CA003C08CB003D08CC000A120E
:1018F2008A1561200A128A154A08FF007F08F9003A
:1019020060307902031C872C5F30922C05307902FB
:101912000318952C0530922C03307706031D952C65
:101922006330FF007F08F900790866060319080092
:10193200AE30FF007F08AB007908D700D801570806
:10194200AC005808AD0059300A128A112F200A1231
:101952008A150230A2000030A3000530A400003036
:10196200A5005930A6000030A7000A168A11BB262E
:1019720008002C08B2002D08B3002E08B400031092
:10198200330D340DFF007F08B5003508031DD02C40
:101992000030AC000030AD000030AE0008002F086F
:1019A200B2003008B3003108B4000310330D340D17
:1019B200FF007F08BA003A08031DE62C0030AC0095
:1019C2000030AD000030AE0008003A087B3EFF0058
:1019D2007F08B5072E08FF007F08BA003108FF0014
:1019E2007F08BA068030FF007F08BA05AD17B0172E
:1019F200FF30AF05FF30B0050030B1050030B60052
:101A02000030B7000030B8000730FF007F08B9008F
:101A12002C1C192D2F08B607300803110318300AA1
:101A2200031DB707310803110318310A031DB80754
:101A320001300310AE0CAD0CAC0CFF3E031D1A2D91
:101A420001300310AF0DB00DB10DFF3E031D222D6D
:101A52000130B902031D092D0930FF007F08B900CA
:101A62002C1C412D2F08B607300803110318300A29
:101A7200031DB707310803110318310A031DB80704
:101A820001300310AE0CAD0CAC0CFF3E031D422D19
:101A920001300310B80CB70CB60CFF3E031D4A2DE3
:101AA2000130B902031D312D3608A0003708A1000C
:101AB2003808A2003508FF007F08A3003A08FF009B
:101AC2007F08A4000A168A1123272008AC002108E7
:101AD200AD002208AE000800F3010C1CEE2D8316A7
:101AE2003808031D762D0130772D0030FF007F0866
:101AF200B80038080319802D83128616822D8312AE
:101B0200861283166A086B040319902D7608031D4A
:101B1200902D0130EA020030031CEB03EB0268084F
:101B2200690403199D2D7603031D9D2D0130E802E2
:101B32000030031CE903E902660867040319AA2DB1
:101B42007603031DAA2D0130E6020030031CE703D1
:101B5200E7026C086D040319B72D7603031DB72D38
:101B62000130EC020030031CED03ED026408650451
:101B72000319C42D7708031DC42D0130E40200307F
:101B8200031CE503E5023E080319D52D2F08330691
:101B9200031DCD2D2E0832060319D52D0130B207B3
:101BA2000318B30A0030B30731083306031DDB2DD7
:101BB200300832060319E52D2F083306031DE32DE5
:101BC2002E083206031DE72DF301F30AFF308312BC
:101BD2008F0005308E0010140C1083166A086B04F7
:101BE2000319FF2D640865040319FF2D68086904B1
:101BF2000319FF2D66086704031D042E0A168A11B5
:101C0200C9240A128A15730803190F2E3E080319F4
:101C12000F2E0A168A1192230A128A1583166C084D
:101C22006D04031D292E7808031D212E4408031973
:101C3200232E0130C4023B30FF007F08F800232E20
:101C42000130F8021030EC002730ED00C101C10A6A
:101C520072088312FF0071088A00700E8300FE0E64
:101C62007E0E0900AF006400831203132F08840064
:101C720083170008FF007F08AE002F0884000003CE
:101C8200031D8E2E8316390803198E2E01308312FE
:101C9200A2000030A3000330A4000030A5007E3073
:101CA200A6008030A7000A168A11BB260A128A15DE
:101CB2000230A2000030A3000330A4000030A500CF
:101CC2009A30A6008030A7000A168A11BB260A1293
:101CD2008A150330A2000030A3000330A4000030B4
:101CE200A5004A30A6008030A7000A168A11BB263A
:101CF2000A128A150430A2000030A3000330A400A7
:101D02000030A5005C30A6008030A7000A168A11B8
:101D1200BB260A128A158316B90183122F08840082
:101D2200053083170006031DAF2E831639080319E9
:101D3200AF2E01308312A2000030A3000330A400B2
:101D42000030A5006E30A6008030A7000A168A1166
:101D5200BB260A128A158316B901BC2E83122F08DC
:101D6200840006300006031DBC2E01300A168A11BB
:101D720038250A128A1583120313861DCE2E0A16DF
:101D82008A1139240A128A150130FF0003132F0821
:101D920084007F0883178007D92E2F08840006301D
:101DA20083170006031DD92E2F0884008001800AA4
:101DB2002F08840000082E06031DE42E2F0884003D
:101DC2000003031D08002F08840000080A128A116C
:101DD20049230A128A15033083120313AD008A3095
:101DE200AC005530AB00AB0BF42EAC0BF42EAD0BAC
:101DF200F42E08004A08D0004B08D1004C08D2004B
:101E02000310510D520DFF007F08D5004D08D00080
:101E12004E08D1004F08D2000310510D520DFF00A1
:101E22007F08D40055080319222F540855020318BD
:101E3200292F5408D0005508D00219305002031C33
:101E4200292F4D08CA004E08CB004F08CC000800CD
:101E5200540803190800550854020318382F55086E
:101E6200D0005408D002193050020318080006307E
:101E7200FF007F08D300CC1BD317CF1B5317CB1700
:101E8200FF30CA05FF30CB050030CC05CE17FF303E
:101E9200CD05FF30CE050030CF055408550203189A
:101EA200782F01300310CD0DCE0DCF0DFF3E031D57
:101EB200532F0130D402540855060319732F0130F1
:101EC200D302530807390319732F522F013003101D
:101ED200CC0CCB0CCA0CFF3E031D682F0130FF0057
:101EE2007F08D507550854060319A12F672F5508F7
:101EF20054020318A12F01300310CA0DCB0DCC0DD3
:101F0200FF3E031D7D2F0130D502540855060319EB
:101F12009D2F0130D3025308073903199D2F7C2FBF
:101F220001300310CF0CCE0CCD0CFF3E031D922FBF
:101F32000130FF007F08D40755085406031D912F76
:101F4200D31FB32FFF30CA06FF30CB06FF30CC06BB
:101F52000130CA07003003180130CB0700300318E4
:101F62000130CC07531FC52FFF30CD06FF30CE0600
:101F7200FF30CF060130CD07003003180130CE0705
:101F8200003003180130CF07D3014A08CD074B08B0
:101F9200031103184B0A031DCE074C080311031843
:101FA2004C0A031DCF07CF1FE82FFF30CD06FF30AD
:101FB200CE06FF30CF060130CD07003003180130C6
:101FC200CE07003003180130CF07D301D30A4D08E2
:101FD200A0004E08A1004F08A2005508FF007F088C
:101FE200A3005308FF007F08A4000A168A112327C2
:0E1FF2002008CA002108CB002208CC000800FD
:1026600083160313BE010030A8000030A90000301B
:10267000AA00B201B301831206120800F500F401AA
:102680003A30750203184A2B30307502031C4A2B6E
:10269000F401F40A740C080087151030F400F40BF0
:1026A0004F2B00008312031387111030F400F40B3A
:1026B000572B000008007E088A007F0882005B23F9
:1026C0000A168A118000840A04087D060319003462
:1026D000FF0A0319FE0A5F2B063409340934063455
:1026E0000034003400340034BC34023490340134FB
:1026F000C8340034C8340034103427342808A0000B
:102700002908A100A2018E30FF007F08A300A401C8
:102710000A168A1123272008A8002108A9002208E8
:10272000AA00080031083306031D982B3008320632
:1027300083120319061283162F083306031DA22BDA
:102740002E083206031D0800B201B30183120616DB
:10275000080003178911831203131013101590102A
:102760001008CF39103890001014FF308F0005305A
:102770008E000B178B1783160C1083120C14080095
:10278000F40074088312AB00AC01AD012B08A0006B
:102790002C08A1002D08A2008E30FF007F08A300A6
:1027A000A4010A168A1123272008A8002108A900DD
:1027B0002208AA000800831603130514031708143F
:1027C000031385140317881403130515031708153D
:1027D0000313851503178815831203131F083F3948
:1027E00080389F0083169F171F129F120800AB01AD
:1027F000A91F012CA809A909A80A0319A90AAB0154
:10280000AB0A2808A0002908A100A2018E30FF0011
:102810007F08A3002B08FF007F08A4000A168A1176
:1028200023272008A8002108A9002208AA000800E0
:10283000F401F501271C222C2908F4070318F50AD6
:102840002A08F50701300310A90DAA0DFF3E031D4C
:10285000232C01300310A80CA70CFF3E031D2A2CCB
:1028600027082804031D1A2C7508A8007408A7005F
:102870000800031705100313851602308312031393
:10288000A2004530A100A930A000A00B452CA10B4F
:10289000452CA20B452C83120313851283120313BC
:1028A000061C5E2CC33083120313A100CC30A000A1
:1028B000A00B582CA10B582C00004E2C861C8619FE
:1028C000522C0619522C031705140800832C2408D7
:1028D000FF3E80380A168A113825080024083F3E3A
:1028E00080380A168A11382508002408133E8038DB
:1028F0000A168A11382508002408533E80380A1623
:102900008A11382508002308003A0319882C962CD0
:102910002208013A0319672C033A03196E2C013A75
:102920000319752C073A03197C2C962C08002708EC
:1029300028040319C42CF401F40AA81BAB2C0130A1
:102940000310A70DA80DFF3E031DA02C0130FF00B2
:102950007F08F4079D2C28082A02031DB12C2708A4
:102960002902031CB92C2708A9022808031CAA0362
:10297000AA0201300310A80CA70CFF3E031DBA2CBD
:102980000130F402031DAB2C2A08A8002908A70077
:1029900008006A086B04031DD52CC830EA0000301B
:1029A000EB00BD01BD0ABA01BA0A64086504031D43
:1029B000DF2CBC30E4000230E500B901B90A680838
:1029C0006904031DED2C9030E8000130E900BC01E2
:1029D000BC0A0230FF007F08BA0066086704031DC6
:1029E00008009030E6000130E700BB01BB0A03306D
:1029F000FF007F08BA000800A501A60120082104F5
:102A00000319332DA401A40AA11B122D01300310B8
:102A1000A00DA10DFF3E031D072D0130FF007F0813
:102A2000A407042D01300310A50DA60DFF3E031DC4
:102A3000132D21082302031D1F2D20082202031C31
:102A4000282D2008A2022108031CA303A302251499
:102A500001300310A10CA00CFF3E031D292D0130F5
:102A6000A402031D122D2608A1002508A0000800BD
:102A7000F500831603138701831287017508F03967
:102A8000FF007F0887040A168A114C230A168A1150
:102A9000523083120313A000A00B4C2D00008312B0
:102AA000031387017508A00003300310A00DFF3E3B
:102AB000031D552D0310200DF039FF007F088704FA
:102AC0000A168A114C230A168A11523083120313F4
:102AD000A000A00B692D0000F030FF007F088316D6
:102AE00003138705213083120313A1007530A00062
:102AF000A00B782DA10B782D7D2D080083163708AB
:102B00008312A900831636088312A8000A168A11B8
:102B10007E230A168A112808BE002908BF002A0849
:102B2000C0000030BB007030BC004230BD000A1253
:102B30008A15E0220A168A113B08CA003C08CB001D
:102B40003D08CC000A128A1561200A168A114B082A
:102B5000DB004A08DA005B08D8005A08D7000A16DA
:102B60008A118F270A168A1179080A168A11C0233A
:102B70000A168A112808D7002908D8002A08D9007F
:102B80000A168A1156260800F500831603138701DA
:102B9000831287017508F039FF007F0887048714C6
:102BA0000A168A114C230A168A1152308312031313
:102BB000A000A00BD92D0000831203138701750814
:102BC000A00003300310A00DFF3E031DE22D0310F3
:102BD000200DF039FF007F08870487140A168A1138
:102BE0004C230A168A11523083120313A000A00B43
:102BF000F72D0000F030FF007F08831603138705D0
:102C0000213083120313A1007530A000A00B062E03
:102C1000A10B062E0B2E08008312A200C330FF006A
:102C20007F089F052208A00001300310A00DFF3E81
:102C3000031D152E0310200DFF007F089F041F1495
:102C4000733083120313A000A00B242E272E8312AF
:102C500003139F149F182A2E1E08A000A10120080C
:102C6000A3002108A4002408A1002308A000200834
:102C7000A100A0012008A3002108A40083161E08BB
:102C80008312A000A1012008A3042108A4041F109E
:102C9000733083120313A000A00B4C2E4F2E83120F
:102CA00003132408F5002308F40008008316BE016E
:102CB000BE0A00308312BB00C830BC004230BD00E9
:102CC00083162B088312AC0083162C088312AD00E8
:102CD00083162D088312AE005708AF005808B000C5
:102CE0005908B1000A128A15BA240A168A112C084A
:102CF000BE002D08BF002E08C0000A128A15E0226F
:102D00000A168A113B088316A80083123C08831612
:102D1000A90083123D088316AA0028088312BE006A
:102D2000831629088312BF0083162A088312C00065
:102D3000B730BB00D130BC003830BD000A128A1554
:102D4000E0220A168A113B08CA003C08CB003D0865
:102D5000CC000A128A1561204B088316B100831239
:102D60004A088316B000320833048312031906168A
:102D7000831210140800E02E2408FF3E80380A1643
:102D80008A1138250A168A11142F24083F3E8038EC
:102D90000A168A1138250A168A11142F2408133EA0
:102DA00080380A168A1138250A168A11142F240829
:102DB000533E80380A168A1138250A168A11142FB4
:102DC0002308003A0319E52E142F2208013A0319AB
:102DD000BC2E033A0319C52E013A0319CE2E073A29
:102DE0000319D72E142F2708FF00260884000A1283
:102DF0008A1100270A168A110A168A11C4250A1692
:102E00008A11073083120313A9007C30A800A80B95
:102E1000072FA90B072F0000013083120313A60709
:102E20000318A70A0030A707831203132708FF001F
:102E3000260884000A128A1100270A168A11003A0D
:102E400003190800F32E230803192B2F220821044D
:102E50002004031D3E2F0030A0000030A1000030F0
:102E6000A20008000130FF007F08A3070130031013
:102E7000A20CA10CA00CFF3E031D372FFE30220533
:102E80000319592F322F0130FF007F08A3070130AB
:102E9000A007003003180130A107003003180130EB
:102EA000A20701300310A20CA10CA00CFF3E031DD1
:102EB000522FFF30220503196C2F432F02302302BB
:102EC000031C6E2F0130A30201300310A00DA10DD1
:102ED000A20DFF3E031D652FA11F5E2F2318762F25
:102EE000FF30A0057F30A105FF30A2050310A30C21
:102EF0002308A500A601A70110300310A50DA60DFB
:102F0000A70DFF3E031D7D2F2508A0042608A10460
:102F10002708A204240803190800A2170800831632
:102F200006128312061258088316B500831257083A
:102F30008316B400D7308312CA00A330CB00BB3055
:102F4000CC005808A9005708A8000A168A117E2349
:102F50000A168A112808BB002908BC002A08BD00EF
:102F60000030BE008030BF003F30C0000A128A151A
:102F7000E0220A168A113B08CD003C08CE003D082D
:102F8000CF000A128A15FB260A168A114A088316F0
:102F9000AB0083124B088316AC0083124C088316D7
:102FA000AD002B088312BE0083162C088312BF00CD
:102FB00083162D088312C000B730BB00D130BC008F
:102FC0003830BD000A128A15E0220A168A113B0821
:102FD000CA003C08CB003D08CC000A128A156120CB
:102FE0004B088316AF0083124A088316AE000030E8
:102FF000A8000030A9000030AA00B201B301080007
:04400E00E22CFF3F62
:00000001FF
