:020000040000FA
:060000000A128A1110280B
:10000800FE00030EF0000A08F100831203137F08B4
:10001800F2000A168A11D92E0A128A11132883139C
:10002800C330FD001330FE00B130FF00BB30840048
:100038000A168A11DD230A128A116F30FD00043076
:10004800FE00FC30FF006B3084000A168A11DD23A5
:100058000A128A110A128A1501200A128A11F80056
:100068000A128A1502200A128A11F900A0308400A7
:10007800BB300A168A11A9230A128A11613084003A
:100088006B300A168A11A923FA0183010A168A110C
:10009800EE2C83120313B9002B30FF007F08B20047
:1000A8002A08AE002908AD00A90A0319AA0A2E08D1
:1000B800FF002D0884000A128A1100250A128A11ED
:1000C800FF007F08B80038080319272A25303806AA
:1000D80003197A283808FF00390884007F08831339
:1000E80080000130FF007F08B9075428B601B70126
:1000F800B501852835150130A9070318AA0A00306B
:10010800AA072A08FF00290884000A128A11002574
:100118000A128A11AD00AE012E08003A031995287B
:100128009A282D08303A03197E289A282A08FF00B1
:10013800290884000A128A1100250A128A110A164F
:100148008A11CB230A128A11031CF1288312031384
:10015800B601B7010A3083120313A3000030A400CC
:100168003708A6003608A5000A168A112E240A1296
:100178008A11831203132408B7002308B6002A083B
:10018800FF00290884000A128A1100250A128A1120
:10019800D03EAD00FF3003180030AE002D08B60782
:1001A8000318B70A2E08B7070130A9070318AA0AC7
:1001B8000030AA072A08FF00290884000A128A11B9
:1001C80000250A128A110A168A11CB230A128A11EB
:1001D800031CF128AE2835171929831203132A089E
:1001E800AE002908AD00A90A0319AA0A2E08FF00C3
:1001F8002D0884000A128A1100250A128A11B800F3
:10020800AF00B0013008003A03190B2954282F0811
:10021800003A0319272A643A031919290D3A0319D0
:1002280019291C3A0319EF285428351B3329320899
:10023800840083130008B300840A0008B400023065
:10024800FF007F08B207B41F3F290330FF007F0873
:10025800B504B309B409B30A0319B40A3F2932082B
:10026800840083130008B300840A0008B400023035
:10027800FF007F08B207B801B80A3808AD002D079B
:10028800123E840085300318013EFF000A128A11CD
:1002980000250A128A11AE000A128A1100250A12D4
:1002A8008A11AF002F083402031D5C292E0833027F
:1002B800031C66290130FF007F08B807053038069F
:1002C800031D4129360837040319742935080339F1
:1002D80003197429FF30B6070318B70AFF30B707A8
:1002E8003708803A803C031D7B29360838020318FA
:1002F8008929831203133808AD00AE012D08B60210
:100308002E08031CB703B7028D2983120313B60105
:10031800B701351DB4293508033903199E292D3035
:10032800FF00390884007F08831380000130FF0034
:100338007F08B907360837040319DC293030FF0075
:10034800390884007F08831380000130FF007F088C
:10035800B907FF30B6070318B70AFF30B7079E2959
:10036800360837040319CD292030FF0039088400E6
:100378007F08831380000130FF007F08B907FF3032
:10038800B6070318B70AFF30B70736083704031D46
:10039800B829350803390319DC292D30FF0039083D
:1003A80084007F08831380000130FF007F08B907AD
:1003B8003808FF007F08B100FF30FF007F08B10751
:1003C800310A031954280A30A3000030A400310868
:1003D800AD002D07123E840085300318013EFF0052
:1003E8000A128A1100250A128A11F3000A128A11C8
:1003F80000250A128A11F4003408F6003308F500C3
:100408000A168A119B260A128A117408831203138A
:10041800A6007308A5000A168A117A250A128A11FD
:10042800831203132308303EFF007F08B800380802
:10043800FF00390884007F08831380000130FF0023
:100448007F08B907E0293908840083138001080070
:1004580083120313DD01DE01DB01DC0100300A1623
:100468008A1121270A128A11740883120313A4001F
:100478007308A3000A168A1175240A128A118312B6
:1004880003132308AA002408AB002508AC00003099
:10049800A700A030A8004030A9000A128A11052739
:1004A8000A128A11831203132708B9002808BA0010
:1004B8002908BB00C030B6007F30B7004430B80010
:1004C8000A128A15CC250A128A11831203133608D8
:1004D800D6003708D7003808D8005608AA005708A9
:1004E800AB005808AC004030A7001C30A8004630CC
:1004F800A9000A128A1105270A128A118312031306
:100508002708B9002808BA002908BB000030B6003F
:10051800A030B7004030B8000A128A15CC250A125C
:100528008A11831203133608C5003708C600380835
:10053800C7000A128A15D7220A128A1183120313D6
:100548004608E0004508DF001030F3002730F400CB
:100558006008F6005F08F5000A168A119B260A1241
:100568008A11740883120313A4007308A3001030BF
:10057800A5002730A6000A168A112E240A128A110D
:10058800831203132408DE002308DD00E830F3009B
:100598000330F4005D085F02F5005E08031C5E0A84
:1005A8006002F6000A168A119B260A128A1174083C
:1005B80083120313A4007308A300E830A5000330D6
:1005C800A6000A168A112E240A128A11831203130E
:1005D8002408DC002308DB006430F3000030F4005A
:1005E8005B09D2005C09D300D20A0319D30A5D085B
:1005F8005202D4005E08031C5E0A5302D5005F084D
:100608005407F50060080318600A5507F6000A1633
:100618008A119B260A128A11740883120313A400F4
:100628007308A3006430A5000030A6000A168A11DA
:100638002E240A128A11831203132408DA002308CD
:10064800D9005B085907D2005C0803185C0A5A07EE
:10065800D3005D085207DF005E0803185E0A5307DF
:10066800E000600883160313AF00831203135F08CA
:1006780083160313AE002E082F04031D482B3C30AD
:10068800AE000030AF00080027302F0211300319E8
:100698002E02031C08001030AE002730AF000800FF
:1006A800402C0230831203136106031D612B0A16C6
:1006B8008A115F260A128A11742B03306106031D02
:1006C8006B2B0A168A1123260A128A11742B0430FE
:1006D8006106031D742B0A168A11E7250A128A116E
:1006E8000A128A15DC2383160313B801B80A080016
:1006F8000A128A153E270230FF007F08831603136B
:10070800B80008000230831203136106031D922B00
:100718000A168A11EA230A128A11A52B03306106E8
:10072800031D9C2B0A168A11C2230A128A11A52BB3
:1007380004306106031DA52B0A168A11B9230A1273
:100748008A1183120313861DB72B6408031DAE2B71
:100758000130AF2B0030FF007F08E4000A128A1135
:10076800D8270A128A117A080319BF2B8316031394
:10077800B801B80AFA0183120313061C08000330F3
:10078800FF007F0883160313B8000A128A11D827BE
:100798000A128A11831203136308031DD52B013033
:1007A800D62B0030FF007F08E300080002308312D8
:1007B80003136106031DE62B0A128A11FF270A128A
:1007C8008A11F92B03306106031DF02B0A168A11D2
:1007D8009E230A128A11F92B04306106031DF92B96
:1007E8000A168A119A230A128A11831603133908E2
:1007F8000319022C0430FF007F08B800831203138A
:10080800061D080083160313B8010A128A151D2055
:1008180008000A168A116A270A128A110A128A150A
:1008280070200A128A118312031363080319232CF8
:100838000330FF007F0883160313B8000800053053
:10084800FF007F0883160313B8000800AE01AF014C
:1008580083120313E901E801E701E601EA01061240
:1008680001300A128A15842683120313E201E20A70
:1008780083160313B8010800831603133808C3004E
:10088800C4014408003A03194A2C5E2C4308003A74
:100898000319552B013A03197C2B033A0319862BAC
:1008A800013A0319DA2B073A03190D2C013A0319F7
:1008B8002A2C5E2C0800831203136A03031D872C5D
:1008C8000430A0000030A1000130A2000030A300D5
:1008D8002F30A4008530A5000A128A1588210A1233
:1008E8008A11013083120313A0000030A1000130E7
:1008F800A2000030A3000630A4008630A5000A122A
:100908008A158821080002306A06031DAE2C0130C2
:10091800A0000030A1000130A2000030A3002F3059
:10092800A4008530A5000A128A1588210A128A11A6
:10093800023083120313A0000030A1000130A2008E
:100948000030A3000630A4008630A5000A128A15DC
:100958008821080003306A06031DD52C0230A00048
:100968000030A1000130A2000030A3002F30A40005
:100978008530A5000A128A1588210A128A110330C7
:1009880083120313A0000030A1000130A200003040
:10099800A3000630A4008630A5000A128A15882113
:1009A800080004306A06031D08000330A000003068
:1009B800A1000130A2000030A3002F30A400853030
:1009C800A5000A128A1588210A128A110430831296
:1009D8000313A0000030A1000130A2000030A300E2
:1009E8000630A4008630A5000A128A15882108005E
:1009F80010342734D0340734FF1B0A2D83137F1893
:100A080083170008840A0319FF0A08007F087F3942
:100A18008A000408840A0319FF0A8200013400349A
:100A28000A34003464340034E8340334103427348E
:100A3800203420342034203420342034203420340E
:100A480020342034203420342034203420342034FE
:100A5800203420342034203400342034203420340E
:100A680044344534203449344E34593445344334BD
:100A780054344F34523445345334203420342034E1
:100A880020340034503452344F34423441344434E6
:100A98004F34523420344134553454344F344D3467
:100AA8004F345434523449345A34203400343D34A9
:100AB8003D343D343D343D343D343D343D343D34A6
:100AC8003D343D343D343D343D343D343D343D3496
:100AD8003D343D343D3400342034503472346F3466
:100AE8006334653473346F342034463469346E3477
:100AF80061346C3469347A34613464346F3400346A
:100B08002034203420342034503455344C34563476
:100B18004534523449345A344134433449344F34D7
:100B28004E3400344C3449344D3450342E3420344F
:100B380055344C3454345234413453344F344E3495
:100B4800493444344F3400342034203420342034A1
:100B58004D346F3464346F34203450347234753407
:100B68006534623461343A340034503472346F344A
:100B78006334653473346F342034443465347434E6
:100B880065346E34693464346F3400345434453415
:100B98004D3450344534523441345434553452343D
:100BA80041343A340034203420342034203446345C
:100BB8004C3455344A344F340034203420342034F3
:100BC800203446345534473441340034543449349D
:100BD80045344D3450344F343A3400345234503460
:100BE8004D343A340034503457344D343A340034A8
:100BF80025343034323464340034253430343534D8
:100C0800753400343E340034433400348312031303
:100C180064080319862E02300A168A1121270A123F
:100C28008A11740883120313A4007308A3000A1618
:100C38008A1175240A128A11831203132308AA0041
:100C48002408AB002508AC000030A700A030A8009D
:100C58004030A9000A128A1105270A128A11831244
:100C680003132708B9002808BA002908BB00C030B8
:100C7800B6007F30B7004430B8000A128A15CC2578
:100C88000A128A11831203133608D2003708D300D8
:100C98003808D4005208AA005308AB005408AC0026
:100CA8000030A7006C30A8004230A9000A128A114F
:100CB80005270A128A11831203132708B900280886
:100CC800BA002908BB000030B600A030B700403099
:100CD800B8000A128A15CC250A128A118312031346
:100CE8003608C5003708C6003808C7000A128A1532
:100CF800D7220A128A11831203134508FF007F08BE
:100D0800E800FF2E6408031DFF2E02300A168A1120
:100D180021270A128A11740883120313A400730886
:100D2800A3000A168A1175240A128A118312031362
:100D38002308AA002408AB002508AC000030A7004F
:100D4800A030A8004030A9000A128A1105270A120B
:100D58008A11831203132708B9002808BA00290842
:100D6800BB00C030B6007F30B7004430B8000A126C
:100D78008A15CC250A128A11831203133608D20069
:100D88003708D3003808D4005208AA005308AB002B
:100D98005408AC000030A7006C30A8004230A9000D
:100DA8000A128A1105270A128A11831203132708C7
:100DB800B9002808BA002908BB000030B600A030E6
:100DC800B7004030B8000A128A15CC250A128A11D9
:100DD800831203133608C5003708C6003808C70051
:100DE8000A128A15D7220A128A1183120313450898
:100DF800FF007F08E7006708031D0800E701E70A0E
:100E08000800831203132708AD002808AE0029083C
:100E1800AF0003102E0D2F0DFF007F08B000300823
:100E2800031D1D2F0030A7000030A8000030A900C6
:100E380008002A08AD002B08AE002C08AF000310EC
:100E48002E0D2F0DFF007F08B5003508031D332F29
:100E58000030A7000030A8000030A90008003508BD
:100E68007B3EFF007F08B0072708AD002808AE00CA
:100E78002908AF0010300310AF0CAE0CAD0CFF3ECC
:100E8800031D3F2F2D08FF007F08B5002A08AD007D
:100E98002B08AE002C08AF0010300310AF0CAE0CBE
:100EA800AD0CFF3E031D512F2D08FF007F08B5062E
:100EB8008030FF007F08B505A817AB17FF30AA05DB
:100EC800FF30AB050030AC050030B1000030B20097
:100ED8000030B3000730FF007F08B400271C822FC2
:100EE8002A08B1072B08031103182B0A031DB207A0
:100EF8002C08031103182C0A031DB3070130031033
:100F0800A90CA80CA70CFF3E031D832F013003106A
:100F1800AA0DAB0DAC0DFF3E031D8B2F0130B402A3
:100F2800031D722F0930FF007F08B400271CAA2F69
:100F38002A08B1072B08031103182B0A031DB2074F
:100F48002C08031103182C0A031DB30701300310E2
:100F5800A90CA80CA70CFF3E031DAB2F01300310F2
:100F6800B30CB20CB10CFF3E031DB32F0130B40219
:100F7800031D9A2F3108F3003208F4003308F500F6
:100F88003008FF007F08F6003508FF007F08F700EB
:100F98000A128A15EF21730883120313A700740835
:100FA800A8007508A90008008312031385160230EB
:100FB800F5004530F400A930F300F30BE12FF40BF2
:100FC800E12FF50BE12FE82F83120313851283120B
:100FD8000313061CF92F4130F400EE30F300F30B35
:100FE800F32FF40BF32F0000EB2F861C0619EF2FBD
:080FF800861D0800EF2F080020
:10100200E834033483160317891183120313101370
:10101200101590101008CF39103890001014FF30BE
:101022008F0005308E000B178B17831603130C10DD
:10103200831203130C1408000A128A11D8270A1209
:101042008A15831203136308031D292801302A28F5
:101052000030FF007F08E30006120A168A11FD2302
:101062000A128A1583120313A9018516033083120B
:101072000313A8008A30A7005530A600A60B3F280C
:10108200A70B3F28A80B3F288312031385120330B6
:1010920083120313A8008A30A7005530A600A60BBE
:1010A2005028A70B5028A80B50280130FF007F08BA
:1010B20083120313A90703302902031C36281F30A9
:1010C20083120313A8007130A7001D30A600A60BDF
:1010D2006828A70B6828A80B68286F2808008312C5
:1010E20003136808031D08006708031D08000A1699
:1010F2008A11C3240A128A15831203136308031D7B
:101102008428013085280030FF007F08E300A90110
:101112008516033083120313A8008A30A7005530C6
:10112200A600A60B9228A70B9228A80B922883123E
:1011320003138512033083120313A8008A30A70019
:101142005530A600A60BA328A70BA328A80BA328FB
:101152000130FF007F0883120313A907033029021D
:10116200031C89281F3083120313A8007130A700C3
:101172001D30A600A60BBB28A70BBB28A80BBB28BB
:10118200C228080003300A168A1121270A128A157A
:10119200740883120313A4007308A3000A168A11A9
:1011A20075240A128A15831203132308AA0024083D
:1011B200AB002508AC000030A700A030A8004030EA
:1011C200A9000A128A1105270A128A15831203132B
:1011D2002708B9002808BA002908BB00C030B600A9
:1011E2007F30B7004430B8000A128A15CC250A12A3
:1011F2008A15831203133608D2003708D300380841
:10120200D4005208AA005308AB005408AC000030C6
:10121200A700C830A8004230A9000A128A11052787
:101222000A128A15831203132708C5002808C6006C
:101232002908C7000A128A15D72283120313450808
:10124200FF007F08E600080067290A128A15682451
:1012520083120313E101E10A08000A168A119A2493
:101262000A128A1583120313861C48296A03031D76
:1012720048290230412902306A06031D4A290330F7
:10128200FF007F08E1000A128A11D8270800861899
:101292003C29861C080003306A06031D080004303E
:1012A20041290A128A1154230A128A15831203133E
:1012B2006208031908000530FF007F08E1000800FA
:1012C2005229B80183120313E2012929831203135D
:1012D200610883160313C500C6014608003A0319C4
:1012E200732987294508003A03192629013A031967
:1012F2002E29033A03195229013A03196129073A9F
:1013020003196129013A0319622987290800AD29C5
:101312002208FF3E80380A128A1584260A128A158C
:10132200E02922083F3E80380A128A1584260A12D2
:101332008A15E0292208133E80380A128A1584266B
:101342000A128A15E0292208533E80380A128A15A9
:1013520084260A128A15E029831203132108003A0F
:101362000319B429E0292008013A03198929033A0B
:1013720003199229013A03199B29073A0319A4294F
:10138200E0292508FF00240884000A128A1100259A
:101392000A128A150A128A1514250A128A150730AA
:1013A200F7007D30F600F60BD429F70BD429013073
:1013B20083120313A4070318A50A0030A50783129A
:1013C20003132508FF00240884000A128A1100254D
:1013D2000A128A15003A03190800C229760803196D
:1013E200F729750874047304031D0A2A0030F300F8
:1013F2000030F4000030F50008000130FF007F08E3
:10140200F60701300310F50CF40CF30CFF3E031D3C
:10141200032AFE3075050319252AFE290130FF0033
:101422007F08F6070130F307003003180130F40794
:10143200003003180130F50701300310F50CF40CED
:10144200F30CFF3E031D1E2AFF3075050319382ACF
:101452000F2A02307602031C3A2A0130F6020130CA
:101462000310F30DF40DF50DFF3E031D312AF41F99
:101472002A2A7618422AFF30F3057F30F405FF301E
:10148200F5050310F60C760883120313A000A101E0
:10149200A20110300310A00DA10DA20DFF3E031DED
:1014A2004B2A2008F3042108F4042208F5047708E3
:1014B20003190800F5170800831603130712871291
:1014C200071387138710871107118312031307115C
:1014D200C330F700CD30F600F60B6D2AF70B6D2AFC
:1014E20083120313A00103300A128A1584260A12FA
:1014F2008A152E30F7007330F600F60B7E2AF70BB2
:101502007E2A0130FF007F0883120313A0070330F5
:101512002002031C742A33300A128A1584260A1206
:101522008A15A630F600F60B942A000032300A1211
:101532008A1584260A128A152130F7007630F600C1
:10154200F60BA12AF70BA12A000028300A128A15ED
:1015520084260A128A15A630F600F60BAE2A00007F
:101562000C300A128A1584260A128A15A630F60051
:10157200F60BB92A000006300A128A1584260A12CE
:101582008A15A630F600F60BC42A000001300A12B2
:101592008A1584260A128A154130F700EE30F600C9
:1015A200F60BD12AF70BD12A00000800831203138D
:1015B2004508C9004608CA004708CB0003104A0D77
:1015C2004B0DFF007F08D1005108031DF12A0030A6
:1015D200C8000030C7000030C6000030C500080057
:1015E2004508C9004608CA004708CB001730031057
:1015F200CB0CCA0CC90CFF3E031DF82A4908FF0098
:101602007F08CC00C617FF30C505FF30C605003085
:10161200C7054508CD004608CE004708CF00D001D7
:101622008E30D102D11F2A2B5108803A8F3E031CE3
:10163200E82A01300310D00CCF0CCE0CCD0CFF3EAB
:10164200031D1B2B0130FF007F08D10703193D2B1F
:101652001A2B183051020318E82A510803193D2B9E
:101662000130C9000310CD0DCE0DCF0DD00DC90B29
:10167200332B0130D1022E2B4C0803194B2BCD09F1
:10168200CE09CF09D009CD0A0319CE0A0319CF0A10
:101692000319D00A5008C8004F08C7004E08C600F8
:1016A2004D08C500080001300A168A1121270A12C6
:1016B2008A15740883120313A4007308A3000A1680
:1016C2008A1175240A128A15831203132308AA00A9
:1016D2002408AB002508AC000030A700A030A80009
:1016E2004030A9000A128A1105270A128A158312AC
:1016F20003132708B9002808BA002908BB00C03024
:10170200B6007F30B7004430B8000A128A15CC25E3
:101712000A128A15831203133608D2003708D3003F
:101722003808D4005208AA005308AB005408AC0091
:101732000030A700C830A8004230A9000A128A115E
:1017420005270A128A15831203132708B9002808ED
:10175200BA002908BB000030B600A030B700403004
:10176200B8000A128A15CC250A128A1583120313AD
:101772003608C5003708C6003808C7000A128A159D
:10178200D7220A128A15831203134508FF007F0825
:10179200E90060306902031CD32B5F30FF007F0831
:1017A200E900080005306902031808000530FF004F
:1017B2007F08E900080001300A128A1584260A12FD
:1017C2008A15013083120313A0000030A1000130FA
:1017D200A2000030A300F230A4008530A5000A1256
:1017E2008A1588210A128A15023083120313A00077
:1017F2000030A1000130A2000030A300F730A400A5
:101802008530A5000A128A1588210A128A1503302A
:1018120083120313A0000030A1000130A2000030A7
:10182200A300EA30A4008530A5000A128A15882197
:101832000A128A15033083120313A0000030A1009C
:101842000A30A2000030A300D530A4008530A500E4
:101852000A128A1588210A128A1504308312031388
:10186200A0000030A1000130A2000030A300CA3065
:10187200A4008530A5000A128A1588210A128A1549
:10188200043083120313A0000030A1001030A20024
:101892000030A3000A168A1147250A128A15013060
:1018A2000A128A1514250A128A15043083120313A8
:1018B200A0000030A1001130A2000030A3000830C7
:1018C200A4008630A5000A128A15882108002A3051
:1018D2008400BB3083120313A6000408A70008305B
:1018E200A8002608840083130008A900A60A270876
:1018F200840029088000A70AA80B722C2A30FF0056
:101902007F08F60001300A168A111A250A128A1572
:10191200323084000830FF0083138001840AFF0BF9
:101922008D2C3230FF007F08F60000300A168A1133
:101932001A250A128A1501300A128A1584260A12F9
:101942008A15013083120313A0000030A100013078
:10195200A2000030A3005B30A4008530A5000A126B
:101962008A1588210A128A15023083120313A000F5
:101972000030A1000130A2000030A3004630A400D4
:101982008530A5000A128A1588210A128A150330A9
:1019920083120313A0000030A1000130A200003026
:1019A200A3003130A4008530A5000A128A158821CF
:1019B2000A128A15043083120313A0000030A1001A
:1019C2000130A2000030A3005B30A4008530A500E6
:1019D2000A128A1588210A128A15333083120313D8
:1019E200A800BB30A700DF30A600A60BF62CA70B81
:1019F200F62CA80BF62C01300A128A1584260A123C
:101A02008A15013083120313A0000030A1000130B7
:101A1200A2000030A3000630A4008630A5000A12FE
:101A22008A1588210800F500831203130712871212
:101A3200071387137508F30004300310F30CFF3EFD
:101A4200031D1E2D73080139F400F40E07087406F5
:101A5200EF39740687007508F30005300310F30CA4
:101A6200FF3E031D2F2D73080139F400F40EF40D0F
:101A720007087406DF39740687007508F30006301C
:101A82000310F30CFF3E031D412D73080139F400CE
:101A9200F40EF40DF40D07087406BF3974068700BE
:101AA2007508F30007300310F30CFF3E031D542D9D
:101AB20073080139F400F40CF40C070874067F393A
:101AC200740687008714871187151830F300F30B0B
:101AD200682D6B2D8312031387111830F300F30B5B
:101AE200702D732D831203130712871207138713A6
:101AF20075080139F300F30E07087306EF39730610
:101B020087007508F3000310730C0139F400F40E1A
:101B1200F40D07087406DF39740687007508F300B0
:101B220002300310F30CFF3E031D922D730801399E
:101B3200F400F40EF40DF40D07087406BF397406B0
:101B420087007508F30003300310F30CFF3E031DFA
:101B5200A52D73080139F400F40CF40C070874067F
:101B62007F39740687008714871187155330F30075
:101B7200F30BB92D8312031387115330F300F30BC8
:101B8200C02D1430F4007930F300F30BC62DF40BA2
:101B9200C62DCB2D0800831203133908BC003A0866
:101BA200BD003B08BE0003103D0D3E0DFF007F0847
:101BB200C3004308031DE42D0030B6000030B70017
:101BC2000030B80008003608BC003708BD003808ED
:101BD200BE0003103D0D3E0DFF007F08C400440807
:101BE200031DFA2D0030B6000030B7000030B800F7
:101BF20008000030C0000030C1000030C20089304F
:101C02004407BC003C08C3023908BC003A08BD00C6
:101C12003B08BE0010300310BE0CBD0CBC0CFF3ED6
:101C2200031D0C2E3C08FF007F08C4003608BC00D0
:101C32003708BD003808BE0010300310BE0CBD0CC2
:101C4200BC0CFF3E031D1E2E3C08FF007F08C4068D
:101C52008030FF007F08C405BA17FF30B905FF3096
:101C6200BA050030BB05B717FF30B605FF30B70520
:101C72000030B8051830FF007F08BF0001300310A4
:101C8200C00DC10DC20DFF3E031D402E38083B02A0
:101C9200031D512E37083A02031D512E3608390210
:101CA200031C5E2E3608B9023708031C370FBA022E
:101CB2003808031C380ABB02401401300310B90D66
:101CC200BA0DBB0DFF3E031D5F2E0130BF02031D87
:101CD2003F2E4008F3004108F4004208F500430893
:101CE200FF007F08F6004408FF007F08F7000A1291
:101CF2008A15EF21730883120313B6007408B70024
:101D02007508B8000800F500831203130712871242
:101D1200071387137508F30004300310F30CFF3E1A
:101D2200031D8E2E73080139F400F40E07087406A1
:101D3200EF39740687007508F30005300310F30CC1
:101D4200FF3E031D9F2E73080139F400F40EF40DBB
:101D520007087406DF39740687007508F300063039
:101D62000310F30CFF3E031DB12E73080139F4007A
:101D7200F40EF40DF40D07087406BF3974068700DB
:101D82007508F30007300310F30CFF3E031DC42E49
:101D920073080139F400F40CF40C070874067F3957
:101DA200740687008710871187151830F300F30B2C
:101DB200D82EDB2E8312031387111830F300F30B96
:101DC200E02EE32E831203130712871207138713E1
:101DD20075080139F300F30E07087306EF3973062D
:101DE20087007508F3000310730C0139F400F40E38
:101DF200F40D07087406DF39740687007508F300CE
:101E020002300310F30CFF3E031D022F7308013949
:101E1200F400F40EF40DF40D07087406BF397406CD
:101E220087007508F30003300310F30CFF3E031D17
:101E3200152F73080139F400F40CF40C070874062A
:101E42007F39740687008710871187151830F300D1
:101E5200F30B292F2C2F8312031387111830F30051
:101E6200F30B312F342F1430F4007930F300F30BDD
:101E7200382FF40B382F3D2F080001308312031343
:101E8200A9008630AA00831603132F0883120313B6
:101E9200AC00831603132E0883120313AB003C30ED
:101EA2000A128A114D200A128A1501308312031375
:101EB200A0000030A1000530A2000030A3003C3099
:101EC200A4000030A5000A128A1588210A128A1578
:101ED200FC3083120313A9008530AA006908BA00F6
:101EE200BB013A08AB003B08AC003C300A128A1135
:101EF2004D200A128A15023083120313A00000300B
:101F0200A1000530A2000030A3003C30A400003044
:101F1200A5000A128A1588210A128A15FC3083123A
:101F22000313A9008530AA006808BA00BB013A0869
:101F3200AB003B08AC003C300A128A114D200A1259
:101F42008A15033083120313A0000030A100083069
:101F5200A2000030A3003C30A4000030A5000A1209
:101F62008A1588210A128A15FC3083120313A900EC
:101F72008530AA006708BA00BB013A08AB003B08EB
:101F8200AC003C300A128A114D200A128A15033025
:101F920083120313A0000030A1000B30A200003016
:101FA200A3003C30A4000030A5000A128A15882143
:101FB2000A128A15FC3083120313A9008530AA0085
:101FC2006608BA00BB013A08AB003B08AC003C30E3
:101FD2000A128A114D200A128A1504308312031341
:101FE200A0000030A1000D30A2000030A3003C3060
:0E1FF200A4000030A5000A128A1588210800FC
:1027340083120313061608008312031306120800FB
:1027440083120313E10183160313B8010800640024
:102754008001840A0406031900340406AA2B0634F3
:1027640009340934063400340034003400340A12C5
:102774008A110A260A168A110A128A15C320080029
:102784000A128A110A260A168A110A128A15C32005
:102794000800F400F3013A3074020318D72B3030E8
:1027A4007402031CD72BF301F30A730C08007E0890
:1027B4008A007F088200D9230A168A118000840ABD
:1027C40004087D0603190034FF0A0319FE0ADD2BF1
:1027D4000A128A112C220A168A110A128A15542303
:1027E4000A168A110A128A110A260A168A110A126C
:1027F4008A15C320080001300A128A1584260A1695
:102804008A11023083120313A0000030A1000330A8
:10281400A2000030A300B930A4008530A5000A123C
:102824008A15882108008316031385128312031363
:10283400850186018701FF30831603138600870113
:102844008316031709128911091109108910081236
:10285400831603130612080083120313A701A801A9
:10286400231C3A2C2508A7070318A80A2608A8073A
:1028740001300310A50DA60DFF3E031D3B2C0130B6
:102884000310A40CA30CFF3E031D422C23082404B4
:10289400031D322C2808A4002708A300080083166F
:1028A40003130514831603170814831603138514DE
:1028B4008316031788148316031305158316031749
:1028C40008158316031385158316031788158312B9
:1028D40003131F083F3980389F00831603139F1783
:1028E4001F129F12080083120313A601A41F812C38
:1028F400A309A409A30A0319A40AA601A60A230882
:10290400F3002408F400F5018E30FF007F08F60080
:102914002608FF007F08F7000A128A15EF217308C2
:1029240083120313A3007408A4007508A50008000B
:1029340064008312031365080319A82C0A168A116C
:10294400B5270A168A1183120313E5018619AD2CE3
:102954006A08031D08000130FF007F08EA070530FC
:102964006A020318B82C6A08031DBA2CEA01EA0AA1
:102974000A128A115F240A168A110A128A11D827A8
:10298400080001300A128A1584260A168A110130B9
:1029940083120313A0000030A1000130A200003014
:1029A400A3001C30A4008530A5000A128A158821D2
:1029B4000A168A11023083120313A0000030A1000A
:1029C4000130A2000030A3007030A4008530A500BF
:1029D4000A128A15882108000A168A1115240A1673
:1029E4008A110A168A11A2230A168A110A128A1552
:1029F4005D220A168A110A128A1503200A168A1100
:102A04000A168A1151240A168A11831603130C1408
:102A1400831203130C148312031705140508E139F8
:102A2400143885000A128A1525210A168A11142DD4
:102A340083120313A0002008F70002300310F70DDF
:102A4400FF3E031D202D0310770D403E0A128A1508
:102A540084260A168A1183120313A101210876071A
:102A6400F70077088400831300080A128A151425D6
:102A74000A168A110130FF007F0883120313A1078D
:102A84000830210203180800302D642D2208FF3E6F
:102A940080380A128A158426080022083F3E8038AE
:102AA4000A128A15842608002208133E80380A1266
:102AB4008A15842608002208533E80380A128A1593
:102AC40084260800831203132108003A03196B2D8E
:102AD400792D2008013A0319482D033A03194F2D83
:102AE400013A0319562D073A03195D2D792D080073
:102AF40083120313230824040319A92DF701F70AE9
:102B0400A41B902D01300310A30DA40DFF3E031D43
:102B1400852D0130FF007F08F707822D2408260247
:102B2400031D962D23082502031C9E2D2308A502B0
:102B34002408031CA603A60201300310A40CA30C52
:102B4400FF3E031D9F2D0130F702031D902D260823
:102B5400A4002508A300080078087904031DBA2DF1
:102B640083120313E501E50AE830F8000330F900A5
:102B7400831203136D086E04031DC92D6400FA014A
:102B8400FA0AD03083120313ED000730EE006B080D
:102B94006C04031D08006708031DDA2D6808031977
:102BA400DC2D0130E8023B30FF007F08E700DC2D1C
:102BB4000130E70283160313B901B90A10308312F6
:102BC4000313EB002730EC00080001300A128A15C9
:102BD40084260A168A11023083120313A0000030DF
:102BE400A1000130A2000030A300A830A400853069
:102BF400A5000A128A1588210A168A110330831245
:102C04000313A0000030A1000130A2000030A30093
:102C1400D730A4008530A5000A128A1588210A1627
:102C24008A11273083120313A8000D30A700253022
:102C3400A600A60B1B2EA70B1B2EA80B1B2E222EA9
:102C4400080001300A128A1584260A168A110230F5
:102C540083120313A0000030A1000130A200003051
:102C6400A300A830A4008530A5000A128A15882183
:102C74000A168A11033083120313A0000030A10046
:102C84000130A2000030A300E130A4008530A5008B
:102C94000A128A1588210A168A112730831203130F
:102CA400A8000D30A7002530A600A60B572EA70BB1
:102CB400572EA80B572E5E2E080001300A128A15D3
:102CC40084260A168A11023083120313A0000030EE
:102CD400A1000130A2000030A300A830A400853078
:102CE400A5000A128A1588210A168A110330831254
:102CF4000313A0000030A1000130A2000030A300A3
:102D04008430A4008530A5000A128A1588210A1689
:102D14008A11273083120313A8000D30A700253031
:102D2400A600A60B932EA70B932EA80B932E9A2ED8
:102D3400080083120313A101A20173087404031988
:102D4400D42EA001A00AF41BB32E01300310F30DFE
:102D5400F40DFF3E031DA82E0130FF007F08A007DD
:102D6400A52E01300310A10DA20DFF3E031DB42EAC
:102D740074087602031DC02E73087502031CC92E45
:102D84007308F5027408031CF603F60221140130DB
:102D94000310F40CF30CFF3E031DCA2E0130A002F5
:102DA400031DB32E2208F4002108F30008000C1CB4
:102DB400052F780879040319E82E6508031DE82E09
:102DC4000130F8020030031CF903F9026D086E04A7
:102DD4000319F22E0130ED020030031CEE03EE0263
:102DE4006B086C040319FF2E63080319FF2E0130CE
:102DF400EB020030031CEC03EC02FF308F000530C3
:102E04008E0010140C10780879040319112F6D0822
:102E14006E040319112F6B086C04031D162F0A1678
:102E24008A11AE250A168A11720883120313FF0051
:102E340071088A00700E8300FE0E7E0E0900831254
:102E44000313A000C330FF007F089F052008F5008E
:102E540001300310F50DFF3E031D2B2F0310750DDC
:102E6400FF007F089F041F147430F500F50B382F02
:102E74000000831203139F149F183E2F1E08F500B1
:102E8400F6017508A1007608A2002208F6002108C0
:102E9400F5007508F600F5017508A1007608A20092
:102EA400831603131E08F500F60175088312031335
:102EB400A1047608A2041F107430F500F50B602FEE
:102EC4000000831203132208F4002108F300080011
:102ED400FC3083120313A9008530AA006808BA00E5
:102EE400BB013A08AB003B08AC003C300A128A1123
:102EF4004D200A168A11033083120313A0000030F8
:102F0400A1000830A2000030A3003C30A40000302F
:102F1400A5000A128A1588210A168A11FC30831228
:102F24000313A9008530AA006708BA00BB013A0858
:102F3400AB003B08AC003C300A128A114D200A1643
:102F44008A11033083120313A0000030A1000B3058
:102F5400A2000030A3003C30A4000030A5000A12F7
:102F64008A1588210800013083120313A000003061
:102F7400A1000330A2000030A3008830A4008530F3
:102F8400A5000A128A1588210A168A1102308312B2
:102F94000313A0000030A1000330A2000030A300FE
:102FA400E530A4008530A5000A128A1588210A1686
:102FB4008A11033083120313A0000030A1000330F0
:102FC400A2000030A300DB30A4008530A5000A1263
:102FD4008A1588210A168A11043083120313A0006B
:102FE4000030A1000330A2000030A3009630A400FA
:0C2FF4008530A5000A128A15882108000B
:04400E00E22CFF3F62
:00000001FF
