:10000000BCC30000EBC30000E9C30000E7C300006D
:10001000E5C30000E3C30000E1C30000DFC300004C
:10002000DDC30000DBC30000D9C30000D7C300005C
:10003000D5C30000D3C30000D1C30000CFC300006C
:10004000CDC30000CBC30000C9C30000C7C300007C
:100050000C948B19C3C30000C1C300000C94221878
:10006000BDC300000C94EC170C94C217B7C300007A
:10007000B5C30000B3C30000B1C30000AFC30000AC
:10008000ADC30000ABC30000A9C30000A7C30000BC
:10009000A5C30000A3C30000A1C300000C946C180A
:1000A0009DC300009BC3000099C3000097C30000DC
:1000B00095C3000093C3000091C300008FC30000EC
:1000C0008DC300008BC3000089C3000087C30000FC
:1000D00085C3000083C3000081C300007FC300000C
:1000E0007DC3000000000000003E5B4F5B3E3E6BA6
:1000F0004F6B3E1C3E7C3E1C183C7E3C181C577DC2
:10010000571C1C5E7F5E1C00183C1800FFE7C3E70D
:10011000FF0018241800FFE7DBE7FF30483A060E1F
:100120002629792926407F050507407F05253F5A66
:100130003CE73C5A7F3E1C1C08081C1C3E7F1422D6
:100140007F22145F5F005F5F06097F017F00668981
:10015000956A606060606094A2FFA29408047E04C7
:100160000810207E201008082A1C08081C2A0808ED
:100170001E101010100C1E0C1E0C30383E383006AD
:100180000E3E0E06000000000000005F00000007A9
:10019000000700147F147F14242A7F2A12231308D7
:1001A000646236495620500008070300001C2241B3
:1001B000000041221C002A1C7F1C2A08083E080857
:1001C0000080703000080808080800006060002007
:1001D000100804023E5149453E00427F40007249EA
:1001E0004949462141494D331814127F102745458E
:1001F00045393C4A494931412111090736494949A4
:1002000036464949291E0000140000004034000011
:10021000000814224114141414140041221408027A
:10022000015909063E415D594E7C1211127C7F49ED
:100230004949363E414141227F4141413E7F494942
:1002400049417F090909013E414151737F0808086E
:100250007F00417F41002040413F017F081422413F
:100260007F404040407F021C027F7F0408107F3E99
:100270004141413E7F090909063E4151215E7F0906
:10028000192946264949493203017F01033F40406D
:10029000403F1F2040201F3F4038403F6314081458
:1002A0006303047804036159494D43007F41414190
:1002B0000204081020004141417F04020102044071
:1002C00040404040000307080020545478407F28F5
:1002D0004444383844444428384444287F385454EB
:1002E000541800087E090218A4A49C787F0804040E
:1002F0007800447D40002040403D007F10284400AD
:1003000000417F40007C047804787C08040478383D
:1003100044444438FC1824241818242418FC7C086D
:10032000040408485454542404043F44243C4040EA
:10033000207C1C2040201C3C4030403C442810289D
:10034000444C9090907C4464544C440008364100E6
:100350000000770000004136080002010204023C60
:100360002623263C1EA1A161123A4040207A38542F
:1003700054555921555579412254547842215554A8
:10038000784020545579400C1E52721239555555FB
:1003900059395454545939555454580000457C41E6
:1003A0000002457D420001457C407D1211127DF026
:1003B000282528F07C545545002054547C547C0A50
:1003C000097F4932494949323A4444443A324A4819
:1003D00048303A4141217A3A42402078009DA0A01D
:1003E0007D3D4242423D3D4040403D3C24FF24246F
:1003F000487E4943662B2FFC2F2BFF0929F620C08E
:10040000887E090320545479410000447D413048DE
:10041000484A32384040227A007A0A0A727D0D1921
:10042000317D2629292F28262929292630484D4083
:1004300020380808080808080808382F10C8ACBA7F
:100440002F102834FA00007B000008142A142222FE
:10045000142A14085500550055AA55AA55AAFF5547
:10046000FF55FF000000FF00101010FF00141414CF
:10047000FF001010FF00FF1010F010F0141414FC17
:10048000001414F700FF0000FF00FF1414F404FC34
:10049000141417101F10101F101F1414141F001015
:1004A0001010F0000000001F101010101F1010108E
:1004B00010F010000000FF1010101010101010109D
:1004C000FF10000000FF140000FF00FF00001F10DD
:1004D000170000FC04F414141710171414F404F497
:1004E0000000FF00F714141414141414F700F71488
:1004F0001414171410101F101F141414F4141010D7
:10050000F010F000001F101F0000001F140000007A
:10051000FC140000F010F01010FF10FF141414FF72
:10052000141010101F00000000F010FFFFFFFFFF6D
:10053000F0F0F0F0F0FFFFFF0000000000FFFF0F01
:100540000F0F0F0F3844443844FC4A4A4A347E02A5
:10055000020606027E027E02635549416338444426
:100560003C04407E201E2006027E020299A5E7A5DB
:10057000991C2A492A1C4C7201724C304A4D4D304C
:100580003048784830BC625A463D3E494949007E71
:100590000101017E2A2A2A2A2A44445F4444405108
:1005A0004A444040444A51400000FF0103E080FFBC
:1005B000000008086B6B083612362436060F090F48
:1005C00006000018180000001010003040FF010164
:1005D000001F01011E00191D1712003C3C3C3C008D
:1005E0000000000000002100240027002A002D0048
:1005F0003000330001010000040107010A0100007E
:100600002200250028002B002E00310034000201BA
:100610000000050108010B01000020002300260056
:1006200029002C002F003200000100000301060108
:100630000901050505050705080808080202020268
:100640000A0A08080404040401010101010101016E
:100650000303030303030303040707070C0C0C0C39
:100660000C0C0C0C02020202060606060606060622
:100670000B0B0B0B0B0B0B0B0102102020080810AF
:100680002040102040800201020108040201010202
:1006900004081020408080402010080402018004DB
:1006A0000201804020100804020108040201010236
:1006B000040810204080010204081020408000003F
:1006C0000A0B02090C0D0E080703040100000000CC
:1006D000000000000000000000000000000000001A
:1006E00000000000000000000000121110000000D7
:1006F00000000000000000000000000000000000FA
:100700000000000011007F96290001007F9628005C
:100710003A0155F603010100CF03008130ED046476
:10072000031281E803851078CB05392C003402F7D9
:100730000120EA020000B00100B102001BB4010078
:10074000C00121C10111C5023F3CC701B5360148B6
:10075000F20100260101E00F0F26240B0E0954A818
:10076000460C17090F0700E10F00191B0410072A98
:10077000473903060630380FB61911241FBECFEFD4
:10078000D1E2DEBFCDBF00E00CBF1BE0A0E0B2E0D5
:10079000E6EFF3E400E00BBF02C007900D92AE3726
:1007A000B107D9F72CE0AEE7BBE001C01D92A73E30
:1007B000B207E1F713E0CDEBD3E000E006C02197EC
:1007C0000109802FFE010E94ED21CC3BD10780E082
:1007D0000807A9F70E946D1A0C94F92111CC08950D
:1007E000AF92BF92CF92DF92EF92FF920F931F933F
:1007F000CF93DF936C017B018B01040F151FEB017D
:100800005E01AE18BF08C017D10759F06991D60133
:10081000ED91FC910190F081E02DC6011995892B95
:1008200079F7C501DF91CF911F910F91FF90EF9064
:10083000DF90CF90BF90AF900895FC01538D448D11
:10084000252F30E0842F90E0821B930B541710F07B
:10085000CF96089501970895FC01918D828D981788
:1008600061F0A28DAE0FBF2FB11D5D968C91928D60
:100870009F5F9F73928F90E008958FEF9FEF089591
:10088000FC01918D828D981731F0828DE80FF11D5A
:10089000858D90E008958FEF9FEF0895FC01918D75
:1008A000228D892F90E0805C9F4F821B91098F736E
:1008B000992708958BE09CE0F1DF21E0892B09F472
:1008C00020E0822F0895FC01A48DA80FB92FB11D3F
:1008D000A35ABF4F2C91848D90E001968F73992776
:1008E000848FA689B7892C93A089B1898C91837054
:1008F00080648C93938D848D981306C00288F3894D
:10090000E02D80818F7D80830895EF92FF920F9379
:100910001F93CF93DF93EC0181E0888F9B8D8C8DAB
:1009200098131AC0E889F989808185FF15C09FB79F
:10093000F894EE89FF896083E889F9898081837062
:10094000806480839FBF81E090E0DF91CF911F9111
:100950000F91FF90EF900895F62E0B8D10E00F5F32
:100960001F4F0F731127E02E8C8D8E110BC00FB609
:1009700007FCFACFE889F989808185FFF5CFCE01A0
:10098000A2DFF2CFEB8DEC0FFD2FF11DE35AFF4FED
:10099000F0829FB7F8940B8FEA89FB89808180628F
:1009A000D0CFCF93DF93EC01888D8823B1F0AA8953
:1009B000BB89E889F9898C9185FD03C0808186FD1A
:1009C0000CC00FB607FCF7CF8C9185FFF2CF80816A
:1009D00085FFEDCFCE0177DFEACFDF91CF9108958C
:1009E00080E090E0892B21F065DF81110E940000FA
:1009F00080E090E0892B49F080E090E0892B29F09D
:100A00000E94000081110E94000080E090E0892B8C
:100A100049F080E090E0892B29F00E9400008111CC
:100A20000E94000080E090E0892B49F080E090E097
:100A3000892B29F00E94000081110C940000089578
:100A40008150823108F05AC0E82FF0E08827E45D39
:100A5000FA4F8F4F0C94ED214C0550053E0544058F
:100A600048057E05530559055D05630567056B055A
:100A7000710575057E0579057F05830580918000E8
:100A80008F77809380000895809180008F7DF9CFCB
:100A900080918000877FF5CF84B58F7784BD0895DE
:100AA00084B58F7DFBCF8091B0008F778093B000AD
:100AB00008958091B0008F7DF9CF809190008F775D
:100AC000809390000895809190008F7DF9CF809160
:100AD0009000877FF5CF8091A0008F778093A00052
:100AE00008958091A0008F7DF9CF8091A000877F2D
:100AF000F5CF809120018F77809320010895809118
:100B000020018F7DF9CF80912001877FF5CFCF9392
:100B1000DF93282F30E0F901E254F94F8491F90175
:100B2000E858F94FD491F901EE5CF94FC491CC2308
:100B300099F0811185DFEC2FF0E0EE0FFF1FE85EEA
:100B4000F94FA591B491EC91ED2381E090E009F487
:100B500080E0DF91CF91089580E090E0FACF1F937D
:100B6000CF93DF93282F30E0F901E254F94F8491BD
:100B7000F901E858F94FD491F901EE5CF94FC491AD
:100B8000CC23A1F0162F81115BDFEC2FF0E0EE0FEC
:100B9000FF1FE250FA4FA591B4918FB7F894EC91F2
:100BA000111108C0D095DE23DC938FBFDF91CF9168
:100BB0001F910895DE2BF8CFCF93DF9390E0FC01D7
:100BC000E858F94F24918E5C994FFC018491882359
:100BD000C9F090E0880F991FFC01EC51FA4FA591E4
:100BE000B491FC01E250FA4FC591D49161110DC04E
:100BF0009FB7F8948C91209582238C938881282329
:100C000028839FBFDF91CF910895623051F49FB741
:100C1000F8943C91822F809583238C93E8812E2B2E
:100C2000EFCF8FB7F894EC912E2B2C938FBFEACF98
:100C30003FB7F8948091FF0B9091000CA091010CAC
:100C4000B091020C26B5A89B05C02F3F19F0019664
:100C5000A11DB11D3FBFBA2FA92F982F8827BC0116
:100C6000CD01620F711D811D911D42E0660F771F3E
:100C7000881F991F4A95D1F708958F929F92AF923E
:100C8000BF92CF92DF92EF92FF926B017C01D0DF97
:100C90004B015C01C114D104E104F104B1F0C8DFDF
:100CA000681979098A099B09683E73408105910595
:100CB00088F321E0C21AD108E108F10888EE880E15
:100CC00083E0981EA11CB11CE5CFFF90EF90DF9050
:100CD000CF90BF90AF909F908F9008952091B00BD0
:100CE000260F3327331F21323105ECF42091D40B2A
:100CF000FC0190E080E0243069F082E00895A0914A
:100D0000B00B2191AC014057544FA40FB52FB11D2A
:100D10002C930196861798F38091B00B680F60931F
:100D2000B00B80E0089581E008958FEF9FEF089564
:100D30008FEF9FEF08958091890B90E091958195B9
:100D400091090895CF93DF93CB01EA01642FC6DFA9
:100D5000CE01DF91CF910895CF93DF931F92CDB74E
:100D6000DEB7698361E0CE010196B8DF81E090E0F3
:100D70000F90DF91CF9108950895FC016370668B09
:100D80008481958126813781613039F0633029F083
:100D900091878087338722870895318720879387BB
:100DA000828708952F923F924F925F926F927F9227
:100DB0008F929F92AF92BF92CF92DF92EF92FF926B
:100DC0000F931F93CF93DF93CDB7DEB76A970FB61C
:100DD000F894DEBF0FBECDBF9A8F898F7A83698367
:100DE0004A01D22E18870F833701BC2CDC0159969B
:100DF0002D913C915A972115310509F015C118968E
:100E00008D919C911997681779070CF0D7C11A96A4
:100E10008D919C91481759070CF0D0C14C2C512C46
:100E2000B6E0CB9E600D711D11247C876B87161672
:100E300017060CF0C3C1EA2DF0E0FA87E98793E0CA
:100E4000EE0FFF1F9A95E1F7F88BEF87CF01840F24
:100E5000951F181619060CF0B1C1A98DBA8D5896B8
:100E60008C91811104C0BFEABD1508F4D394A98DFB
:100E7000BA8DED91FC9111970284F385E02DCD019F
:100E80001995B5E0DB9EC0011124E981FA81FC834C
:100E9000EB83312C212C9C012C513F4F388F2F8B11
:100EA0004A2D50E05E8B4D8BEF89F88DE20DF31DDE
:100EB00044919E828D82D12CC12C69817A81620DF0
:100EC000731D7A8B698B842F90E09C8B8B8BE98DC3
:100ED000FA8DA081B18140FF82C0F1E0BF126FC0E6
:100EE000AF126DC01C96ED91FC912F813885A40145
:100EF0004C0D5D1D69897A89898D9A8D1995EB89CB
:100F0000FC89F595E7954E2F5FEFC51AD50A6D81DF
:100F10007E818D899E89680F791F7E836D8398E01D
:100F2000C916D10481F6AFEF2A1A3A0AEB81FC8187
:100F3000E40DF51DFC83EB83F5E02F16310409F079
:100F4000B3CF2F81388526153705B9F0A98DBA8D15
:100F5000ED91FC91B1E0BB1257C0AB1255C0698155
:100F60007A816B5F7F4F0088F189E02D830128E053
:100F700030E0A401898D9A8D1995A98DBA8DED91D6
:100F8000FC9111970688F789E02DCD016A960FB67E
:100F9000F894DEBF0FBECDBFDF91CF911F910F91AF
:100FA000FF90EF90DF90CF90BF90AF909F908F9089
:100FB0007F906F905F904F903F902F9019941E9666
:100FC000ED91FC91EF80F88409851A8592014D819D
:100FD0005E816B817C81898D9A8D199590CF2F814F
:100FE00038852615370509F48ACF31E0B31207C0DA
:100FF000A31205C01C96ED91FC91930178CF1E962B
:10100000ED91FC917301E0CF6B857C8564197509C6
:101010000684F785E02D73010F8518899201A401DC
:10102000898D9A8D1995A9CFF901349694913297AB
:1010300045915491D91AB7E0DB9E400D511D112402
:10104000F901259134913C8B2B8BFA01259034903A
:10105000FA013296749031963491398B32966490BD
:101060003196449041E04C1518F04A1508F07FC0C5
:10107000662D062C000C770B7C836B83842D042C4F
:10108000000C990B9E838D83A98DBA8DED91FC91F7
:1010900011970284F385E02DCD011995512CD12CA7
:1010A000C12CEA2DF0E0FA87E9872B2D30E03C8750
:1010B0002B87A401440D511D47FC5A95588F4F8B27
:1010C00069817A81660D711D67FC7A957E876D87CF
:1010D0007989C71608F051CF2C2D30E04D815E8103
:1010E000420F531FA985BA854A9FC0014B9F900D9F
:1010F0005A9F900D1124FC01E80DF91DF88BEF8724
:10110000852D612C4F89588D420F531F5E8B4D8B5F
:10111000671408F050C044244394480E877041F48B
:10112000C1010196EB89FC89E20DF31DD4901C01ED
:10113000D7FE19C0A98DBA8DED91FC91662D70E096
:10114000B1E0BB1219C0AB1217C02D853E85620FEE
:10115000731F0484F585E02D2F8138854D895E89C4
:10116000898D9A8D1995DD0C6394842DD1CF1E82C3
:101170001D821C821B8288CF4B815C81640F751F8E
:10118000AB85BC856A9FC0016B9F900D7A9F900DC7
:10119000112469817A81680F791F0684F785E02D13
:1011A000EF80F88409851A859D014F855889898DBE
:1011B0009A8D1995D8CF570CC3948ACF6A960FB6DB
:1011C000F894DEBF0FBECDBFDF91CF911F910F917D
:1011D000FF90EF90DF90CF90BF90AF909F908F9057
:1011E0007F906F905F904F903F902F9008958F92D7
:1011F0009F92AF92CF92EF92FF920F931F93CF9354
:10120000DF93EC01262F898D9A8D009709F050C04D
:101210006A30D1F41D861C868D8948E0849F900138
:1012200011248E859F85820F931F9F878E8781E073
:1012300090E0DF91CF911F910F91FF90EF90CF90B1
:10124000AF909F908F9008956D3089F3CC88AD88D2
:101250008F898823C1F08C859D8536E0C39E800DE3
:10126000911D1124488559854817590764F44E8506
:101270005F851D861C8638E0A39EC0011124840F63
:10128000951F9F878E87EA88FB88088919894E8574
:101290005F856C857D85CE0185DD2C898C859D855E
:1012A00046E0249F800D911D11249D878C87BFCF20
:1012B0006A3069F41D861C86FC013896E4912D89FC
:1012C0008E859F85E29F800D911D1124AECF6D30DC
:1012D00009F4ADCFFC0134963491631708F4A7CF1D
:1012E0003296E491E61708F4A2CFFC01329685907D
:1012F0009490462F431B342F47E0349F800C911C61
:101300001124F401329634913196E4913323A1F102
:10131000EE2391F1CC88F4013596E491AD884F89A4
:10132000442301F10E2E000CFF0BE30FF11DCE9EA6
:10133000A001CF9E500D11246C857D85460F571F4F
:1013400068857985641775076CF44E855F851D8601
:101350001C86FC013896E491AE9E400D511D11246F
:101360005F874E87EA88FB88088919894E855F85E3
:101370006C857D85CE0116DDF4013496E4912C89CF
:101380008C859D85E29F800D911D11248ECF6F92DB
:101390007F928F929F92AF92BF92CF92DF92EF9205
:1013A000FF920F931F93CF93DF93EC016B015A01D0
:1013B00039014801E881F9810284F385E02D19950E
:1013C000E881F9810288F389E02D87019301A50165
:1013D000B601CE011995A501480D591D415051097D
:1013E000E881F9810288F389E02D9301B601CE01ED
:1013F0001995E881F9810088F189E02D9401A50112
:10140000B601CE011995C60CD71CB6016150710901
:10141000E881F9810088F189E02D9401A501CE01D0
:101420001995E881F9810688F789E02DCE01DF91D1
:10143000CF911F910F91FF90EF90DF90CF90BF90D1
:10144000AF909F908F907F906F9019946F927F9242
:101450008F929F92AF92BF92CF92DF92EF92FF92C4
:101460000F931F93CF93DF935C01EB016A01490156
:1014700038018701DC01ED91FC916217730719F5C2
:10148000641675062CF0962D872D3A01C92ED82E9C
:101490009601261937092F5F3F4F048CF58DE02DFB
:1014A000A301BE01C5011995DF91CF911F910F9145
:1014B000FF90EF90DF90CF90BF90AF909F908F9074
:1014C0007F906F9008954615570591F426173707BA
:1014D00024F0892D4B01C22FD82F9E0128193909DC
:1014E0002F5F3F4F068CF78DE02DA601B401DACFB8
:1014F0000284F385E02D1995D501ED91FC910488C6
:10150000F589E02D83019401A601BE01C50119955D
:10151000D501ED91FC910688F789E02DC501DF9199
:10152000CF911F910F91FF90EF90DF90CF90BF90E0
:10153000AF909F908F907F906F901994EF92FF9251
:101540000F931F93DC011A960D911C911B9718960F
:101550002D913C911997ED91FC9100A0F1A1E02D06
:101560007B0150E040E070E060E019951F910F9121
:10157000FF90EF9008954F925F926F927F928F92BB
:101580009F92AF92BF92CF92DF92EF92FF920F9312
:101590001F93CF93DF936C012B015A01390148014E
:1015A000DC01ED91FC910284F385E02D1995E201B7
:1015B000640C751CD601ED91FC91C615D7055CF441
:1015C0000088F189E02D87019401A501BE01C601C3
:1015D00019952196EFCF0688F789E02DC601DF9196
:1015E000CF911F910F91FF90EF90DF90CF90BF9020
:1015F000AF909F908F907F906F905F904F901994D5
:101600008F929F92AF92BF92CF92DF92EF92FF9212
:101610000F931F93CF93DF93EC015B014A016901A4
:10162000E881F9810284F385E02D199595012C0D4F
:101630003D1D21503109E881F9810488F589E02DAB
:1016400078018401A401B501CE011995E881F981E1
:101650000688F789E02DCE01DF91CF911F910F9180
:10166000FF90EF90DF90CF90BF90AF909F908F90C2
:1016700019948F929F92AF92BF92CF92DF92EF9286
:10168000FF920F931F93CF93DF93EC015B014A010D
:1016900069017801E881F9810284F385E02D1995CB
:1016A000C80CD91C860101501109E881F981048810
:1016B000F589E02D9501A401B501CE011995E881C8
:1016C000F9810688F789E02DCE01DF91CF911F9136
:1016D0000F91FF90EF90DF90CF90BF90AF909F90D1
:1016E0008F901994EF92FF920F931F93DC01ED916D
:1016F000FC9100A0F1A1E02D19951F910F91FF9091
:10170000EF9008950F931F93DC01ED91FC91068CEF
:10171000F78DE02D19951F910F9108950F931F9349
:10172000DC01ED91FC91048CF58DE02D19951F9154
:101730000F9108952F923F924F925F926F927F92F6
:101740008F929F92AF92BF92CF92DF92EF92FF92D1
:101750000F931F93CF93DF93CDB7DEB72C970FB6C0
:10176000F894DEBF0FBECDBF3C017C836B835C87EA
:101770004B871801270181E090E05C01A41AB50AAB
:10178000CA01919581959109AC01440F551F5A8367
:101790004983C80101969E838D83F12CE12C882416
:1017A0008394912C922F91709F8322702887AB0194
:1017B0004F5F5F4F5A8749878B859C85E816F906EE
:1017C0000CF076C0CB84DC84B7FC0CC06C0191E0DB
:1017D000C91AD10849815A814E5F5F4F5A834983A4
:1017E000A40EB51E5FEFE51AF50A82E0880E911C83
:1017F000A80CB91CCE14DF0454F19F81992391F0F9
:101800009601220F331F4D815E81240F351F820107
:101810004B815C814C195D09B701660D771D82EB28
:101820009CE07CDF5885552391F09601220F331FF1
:101830008D819E81280F391F82014B815C814C195B
:101840005D09B3016E197F0982EB9CE067DF4B8570
:101850005C854C155D0549F15F81552389F0940144
:1018600022503109220D331D820149855A854E19B6
:101870005F096B857C85660D771D82EB9CE04EDFF2
:101880008885882391F0940122503109220D331D5F
:10189000B3014B855C85641B750B820149855A85B4
:1018A0004E195F0982EB9CE039DFDC86CB8684CF62
:1018B0002C960FB6F894DEBF0FBECDBFDF91CF914F
:1018C0001F910F91FF90EF90DF90CF90BF90AF905E
:1018D0009F908F907F906F905F904F903F902F9050
:1018E00008952F923F924F925F926F927F928F92C4
:1018F0009F92AF92BF92CF92DF92EF92FF920F939F
:101900001F93CF93DF9300D01F92CDB7DEB71C019A
:101910002B015A0169014701421753070CF05BC0C4
:101920005A8349839A0157FD5AC089819A819595B6
:1019300087959A83898329813A813C832B83021777
:10194000130714F41C830B836B807C80660C771C5C
:101950008B819C81820D931D9A8389839501261921
:10196000370974018601A201BC0182EB9CE0BADE5A
:10197000C618D70891E0C91AD1082B813C81420EC4
:10198000531EA20CB31CC501821B930B860121E0E0
:101990004B815C81B2010197CDDE22E04B815C81FD
:1019A000B20189819A81C6DE0F900F900F900F903F
:1019B000DF91CF911F910F91FF90EF90DF90CF902B
:1019C000BF90AF909F908F907F906F905F904F905F
:1019D0003F902F9008953A83298337FFA6CF2F5F3A
:1019E0003F4F3A832983A1CFEF92FF920F931F932A
:1019F000EBE5F2E025E030E03183208328EC30E0B5
:101A0000358324839383828377836683E090AE0C4F
:101A1000F090AF0CF186E086048510E09B01281B56
:101A2000390B43EC50E0BC0185E090E05ADF1F9198
:101A30000F91FF90EF900895EF92FF920F931F93F5
:101A4000EBE5F2E025E030E03183208328EC30E064
:101A5000358324839383828377836683E090B00CFD
:101A6000F090B10CF186E086048510E09B01281B04
:101A7000390B43EC50E0BC0185E090E032DF1F9170
:101A80000F91FF90EF900895AF92BF92CF92DF92A7
:101A9000EF92FF920F931F93CF93DF936C015B0143
:101AA000EA0179019A01220F331F2F5F3F4FAB01EB
:101AB0004C1B5D0B8701B60182EB9CE02FDE10E032
:101AC00000E023E0AE01B501C60134DEDF91CF9125
:101AD0001F910F91FF90EF90DF90CF90BF90AF904C
:101AE0000895DC01ED91FC910084F185E02D1994BD
:101AF0002F923F924F925F926F927F928F929F921E
:101B0000AF92BF92CF92DF92EF92FF920F931F930B
:101B1000CF93DF9300D000D0CDB7DEB73C016A0190
:101B20003E832D83FC82EB825801A41AB50AB7FECE
:101B300003C0B194A194B1088D809E80861A970A43
:101B400097FE03C09194819491088A149B045CF0E1
:101B5000902F812F0D811E819D838E839C2D8D2D35
:101B60006B01692F782F0C151D055CF09D818E810E
:101B70007E836D83692F782F902F812F8601C92E48
:101B8000D82E1601201A310A2B012D813E81421ACE
:101B9000530A57FE03C0519441945108710137FE16
:101BA00003C03FEFE31AF30AF594E7948D819E8119
:101BB000861797075CF5A1E0B0E0BA83A983C01649
:101BC000D1064CF1D301ED91FC910484F585E02D13
:101BD0002B813C81A8016D817E818A149B041CF0BD
:101BE0004D815E81B801C3011995E418F508F7FE2F
:101BF0000AC02D813E8189819A81280F391F3E8339
:101C00002D83E20CF31C0F5F1F4FD9CF2FEF3FEF57
:101C10003A832983D4CF26960FB6F894DEBF0FBE41
:101C2000CDBFDF91CF911F910F91FF90EF90DF908B
:101C3000CF90BF90AF909F908F907F906F905F906C
:101C40004F903F902F9008950F931F93CF93DF9362
:101C5000EC018B01FE0184913196649122968F37BD
:101C600091F470E090E080E008D860E070E06E5F92
:101C70007F4F061B170B1016110664F3DF91CF91EF
:101C80001F910F9108958B988A98909102019778EF
:101C900090930201A5989EB1977C9EB94091020154
:101CA00090E09C0155E0220F331F5A95E1F7207612
:101CB000242B209302014EB19C01220F331F220FCF
:101CC000331F2073242B2EB944B39C01220F331FE2
:101CD0002072242B24BB4EB19C0135952795359558
:101CE00027952870242B2EB920910201A3E0959509
:101CF0008795AA95E1F78871822B809302018998D4
:101D0000899A50E040E0461708F045C0FE01E40F14
:101D1000F51FE4918A9A80910201877880930201ED
:101D2000A5988EB1877C8EB9709102018E2F90E0BC
:101D30009C01E5E0220F331FEA95E1F72076272B7F
:101D4000209302017EB19C01220F331F220F331F0B
:101D50002073272B2EB974B39C01220F331F2072DE
:101D6000272B24BB7EB19C0135952795359527956A
:101D70002870272B2EB9E091020123E095958795D5
:101D80002A95E1F788718E2B809302018998899AB0
:101D90004F5F5F4FB8CFC60FD11D8B9A67CF8B981F
:101DA0008A9820910201277820930201A5982EB1EC
:101DB000277C2EB970910201292F30E0F901A5E0AE
:101DC000EE0FFF1FAA95E1F7E076E72BE093020103
:101DD0007EB1F901EE0FFF1FEE0FFF1FE073E72B3F
:101DE000EEB974B3F901EE0FFF1FE072E72BE4BB0D
:101DF0007EB1F901F595E795F595E795E870E72B44
:101E0000EEB970910201E3E035952795EA95E1F787
:101E10002871272B209302018998899A2091020129
:101E2000277820930201A5982EB1277C2EB97091B6
:101E300002019C01F5E0880F991FFA95E1F7807681
:101E4000872B809302017EB1C901880F991F880FEB
:101E5000991F8073872B8EB974B3C901880F991F9E
:101E60008072872B84BB7EB1C90195958795959526
:101E700087958870872B8EB980910201F3E03595A4
:101E80002795FA95E1F72871282B2093020189986C
:101E9000899A8A9AFA01615008F43EC08191909122
:101EA0000201977890930201A5989EB1977C9EB904
:101EB0004091020190E09C0155E0220F331F5A959A
:101EC000E1F72076242B209302014EB19C01220FD2
:101ED000331F220F331F2073242B2EB944B39C01D0
:101EE000220F331F2072242B24BB4EB19C01359549
:101EF0002795359527952870242B2EB9209102011E
:101F000033E0959587953A95E1F78871822B809318
:101F100002018998899ABFCF8B9A08958B988A98E5
:101F2000E2E0F1E0208127782083A5982EB1277C7C
:101F30002EB9A081292F30E0A901B5E0440F551F2B
:101F4000BA95E1F740764A2B4083AEB1A901440F20
:101F5000551F440F551F40734A2B4EB9A4B3A90116
:101F6000440F551F40724A2B44BBAEB1A901559591
:101F700047955595479548704A2B4EB9408153E097
:101F8000359527955A95E1F72871242B2083899858
:101F9000899A208127782083A5982EB1277C2EB995
:101FA00040819C01A5E0880F991FAA95E1F78076F2
:101FB000842B80834EB1C901880F991F880F991F08
:101FC0008073842B8EB944B3C901880F991F807226
:101FD000842B84BB4EB1C9019595879595958795BE
:101FE0008870842B8EB98081B3E035952795BA959A
:101FF000E1F72871282B20838998899A8A9A808111
:1020000087788083A5988EB1877C8EB94081872F91
:1020100090E09C0155E0220F331F5A95E1F720769E
:10202000242B20834EB19C01220F331F220F331F1C
:102030002073242B2EB944B39C01220F331F20722E
:10204000242B24BB4EB19C013595279535952795BA
:102050002870242B2EB92081A3E095958795AA9509
:10206000E1F78871822B80838998899A80818778AB
:102070008083A5988EB1877C8EB94081CB019B016E
:10208000B5E0220F331FBA95E1F72076242B208389
:102090004EB19B01220F331F220F331F2073242BBD
:1020A0002EB944B39B01220F331F2072242B24BB73
:1020B0004EB19C0135952795359527952870242B91
:1020C0002EB92081A3E095958795AA95E1F78871AF
:1020D000822B80838998899A8B9A08950F931F93F6
:1020E000CF93DF93EC018B01FE0185919491FE016A
:1020F00032962496659174918F3F980771F490E021
:1021000080E00E943D06045011091016110664F388
:10211000DF91CF911F910F91089500DFF4CFFC0163
:10212000262F358D868D82958170982F9627692F61
:1021300070E072A361A330FF0BC0821306C080E27F
:1021400090E050E040E060E02ACE81E290E0F9CFFC
:10215000878D90A1833927E7920741F058F48435A1
:1021600021E0920791F080329445B9F4626081E0F9
:1021700094E012C0863223E99207C1F3893025EB3F
:102180009207A1F38532924941F4660F771F660FDB
:10219000771F636187E090E0C1CE81E690E0FCCFDD
:1021A0008F929F92AF92BF92CF92DF92EF92FF9267
:1021B0000F931F93CF93DF9300D01F92CDB7DEB75D
:1021C0007C014B015A016901FC01878D90A1873286
:1021D000F3E99F0709F03EC0F7018689823089F54F
:1021E000F0E2AF0EB11C005E1F4FF701858D80FF3E
:1021F00048C085A599828A82DB82CC82AE014F5F7E
:102200005F4F64E090E0CBDDF70181A9B982AA823B
:102210001B830C83AE014F5F5F4F64E090E0BFDD36
:102220000F900F900F900F90DF91CF911F910F9112
:10223000FF90EF90DF90CF90BF90AF909F908F90E6
:102240000895833091F620E2820E911C80E2C80E40
:10225000D11CCBCF8632954141F6F701868980FFAC
:10226000C4CFC801841B950B19F40F5F1F4FBDCF5E
:102270006217730709F0B9CF6B01C80ED91E8A0126
:10228000B4CFB40187A190A549DEB501F70181A5BE
:1022900092A544DEC814D90421F40A151B0509F4DB
:1022A000BFCFF701858D85FF08C0868980FF1AC0E2
:1022B000102F0027A02AB12A8501B401F70185A5B6
:1022C00096A52CDEB501F70181A992A927DEB601FA
:1022D000F70187A590A922DEB801F70183A994A987
:1022E0001DDE9ECFDC2CCC248C289D286401E5CFFC
:1022F000AF92BF92CF92DF92EF92FF920F931F9314
:10230000CF93DF93EC018091050C882349F0C7013E
:10231000880F991F8E739927E1ECEE22E82AF92A9B
:1023200037FF05C0620F731F319521953109260FC4
:10233000371F77FF02C070E060E088859985281715
:1023400039070CF4C9016C01C61AD70A17FF05C07A
:10235000400F511F119501951109040F151F57FFCB
:1023600002C050E040E02A853B85021713070CF4B9
:1023700098015901A41AB50A8901015011099C015B
:1023800021503109CE010CDF8B988A985BA54CA5B2
:1023900080910201877880930201A5988EB1877C95
:1023A0008EB960910201842F90E09C01F5E0220F2C
:1023B000331FFA95E1F72076262B209302016EB1A8
:1023C0009C01220F331F220F331F2073262B2EB99F
:1023D00064B39C01220F331F2072262B24BB6EB1E5
:1023E0009C0135952795359527952870262B2EB974
:1023F0002091020103E0959587950A95E1F7887190
:10240000822B809302018998899A809102018778B2
:1024100080930201A5988EB1877C8EB960910201EC
:10242000852F942F9C0145E0220F331F4A95E1F739
:102430002076262B209302014EB19C01220F331FE0
:10244000220F331F2073242B2EB944B39C01220F7B
:10245000331F2072242B24BB4EB19C013595279548
:10246000359527952870242B2EB920910201E3E0A1
:1024700095958795EA95E1F78871822B8093020103
:102480008998899A8A9ACA14DB042CF09A2D8B2D8C
:102490005601C92ED82E8F2D99279C0145E0220F79
:1024A000331F4A95E1F72076AC01440F551F440FC6
:1024B000551F342F3073AC01440F551F4072BC01BF
:1024C0007595679575956795562F5870F3E09595B6
:1024D0008795FA95E1F78871B701A5E0660F771F38
:1024E000AA95E1F7962F9076B701660F771F660FD2
:1024F000771F6073F701EE0FFF1F7E2F7072D701F9
:10250000B595A795B595A795A870E3E0F594E794E0
:10251000EA95E1F7EE2DE871EE2E1C141D040CF087
:1025200043C0F501B0910201B778B0930201A598BC
:10253000BEB1B77CBEB9B0910201B22BB09302011B
:10254000BEB1B32BBEB9B4B3B42BB4BBBEB1B52BC3
:10255000BEB9B0910201B82BB09302018998899A53
:10256000B0910201B778B0930201A598BEB1B77CD3
:10257000BEB9B0910201B92BB0930201BEB1B62B26
:10258000BEB9B4B3B72BB4BBBEB1BA2BBEB9B09110
:102590000201BE29B09302018998899A319711F6F8
:1025A000E1E0CE1AD108B9CF8B9A8D8D80FF08C09B
:1025B0008F8D98A18632954189F48E8980FF0EC057
:1025C0000A851B850150110928853985215031095B
:1025D00050E040E070E060E0CE01E2DDDF91CF91BD
:1025E0001F910F91FF90EF90DF90CF90BF90AF9031
:1025F0000895EF92FF920F931F93CF93DF937C0187
:10260000E90177FD28C057FD26C0FC018085918532
:102610006817790704F58285938548175907DCF414
:102620008091050C882341F0C901880F991F8E7392
:102630009927C17CC82BD92B8A019B01C701B0DD2A
:10264000BE01F70183A594A5DF91CF911F910F9152
:10265000FF90EF9063CCDF91CF911F910F91FF908E
:10266000EF900895EF92FF920F931F93CF93DF9314
:1026700000D000D000D01F92CDB7DEB77C01862FEE
:102680008370F701868B962F917060FFEBC02681D7
:102690003781F70131872087992309F4E6C0248127
:1026A0003581F70133872287823009F4E3C0833014
:1026B00009F4E2C0813009F4DBC088E48A87F701BD
:1026C000258D368D30FF03C08A8580588A8731FF7B
:1026D00004C08A8590E489278A8733FF04C08A85ED
:1026E00098E089278A87F701878D90A120FFF4C0A1
:1026F0008431F8E69F0709F0C1C09A85892F887256
:102700008A871F82892F85958074282F2260892FC0
:1027100090E09595879580729927822B88878BE327
:102720008987AE01495F5F4F63E086EB90E037DB5E
:102730002AE230E0F70130A727A38BE290E092A7CE
:1027400081A74CE250E054A743A736A725A730AB9A
:1027500027A792AB81AB94AB83ABAE01465F5F4FD3
:1027600061E086E390E01BDB8A8590E0F70194A3AB
:1027700083A3F701868980FF1CC0858D968D92FD0D
:1027800018C087A190A521A532A530A727A392A79D
:1027900081A785A596A521A932A936A725A792AB21
:1027A00081AB87A590A923A934A930AB27A794AB07
:1027B00083ABF7010285138501501109208531850E
:1027C0002150310950E040E070E060E0C701E8DCF2
:1027D000F70166817781878D90A110E000E020E00D
:1027E0008732F3E99F0769F4F7012689225010E048
:1027F00000E0223010F400E210E020E230E0201B84
:10280000310BF701458D40FF20C119820A837B837C
:102810006C831D822E83AE014F5F5F4F66E083E3C2
:1028200090E0BDDA19820A83AE014F5F5F4F62E02C
:1028300087E390E0B4DAF701858D80FF06C050E0B1
:1028400040E060E083E190E0AADA2A960FB6F894BF
:10285000DEBF0FBECDBFDF91CF911F910F91FF90D3
:10286000EF9008952481358114CF2681378119CFC7
:1028700088E224CF88E922CF88EF20CF833629E170
:10288000920749F0813834E9930729F08131E5E175
:102890009E0709F04DCF2A8527FF02C021602A87B5
:1028A0002A8526FF02C022602A878336F9E19F0726
:1028B00021F48A858F738A873BCF813824E9920778
:1028C00019F48A858F72F7CF8131954109F030CFA5
:1028D0008A858F7E806CEFCF2A85622F022E000CB6
:1028E000770B8339F7E79F0761F008F041C0843523
:1028F000E1E09E0709F468C08032F4E59F0709F023
:1029000040C020E032E0F70130A727A321E032E009
:1029100032A721A722E032E034A723A720E132E04A
:1029200036A725A721E132E030AB27A722E132E02C
:1029300032AB21AB23E132E034AB23AB66277078B6
:102940008632F3E99F0709F47DC08032944509F48B
:1029500079C080E09AE6682B792B80E094E0DEDA9B
:102960006A85F4E06F9FB00111246627717054C02E
:10297000863223E9920729F2893035EB930709F46F
:10298000C0CF80E290E0F70190A787A381E290E0BA
:1029900092A781A782E290E094A783A780E590E0C8
:1029A00096A785A781E590E090AB87A782E590E0A8
:1029B00092AB81AB83E590E094AB83AB66277078F4
:1029C000776280E690E0CBCF87E390E0F70196A7AF
:1029D00085A786E390E090AB87A789E390E092AB70
:1029E00081AB88E390E094AB83AB80E290E090A76A
:1029F00087A381E290E092A781A782E290E094A76A
:102A000083A7662772706862F4E02F9FC0011124CB
:102A100088279170682B792B81E090E07FDA8A8596
:102A2000682F70E07595679575956795687077273D
:102A300083FD70616063F70174A363A383E090E09A
:102A40006DDA97CE80E095E386CF8339F7E79F076D
:102A5000B9F1E0F4803234E5930791F18338E7E788
:102A60009E0721F184359140E1F4600F711F6150A0
:102A7000710981E390E052DAB80182E390E04EDA26
:102A800070E060E083E390E049DADFCE863223E94C
:102A90009207B1F0893035EB930791F08532924976
:102AA00021F3F70161A172A1626003C0F70161A186
:102AB00072A181E690E032DAB8018AE690E0E4CFD4
:102AC000F70161A172A1626081E094E027DAB801A8
:102AD00084E094E0D9CFEF92FF920F931F93DC0133
:102AE000ED91FC9100A0F1A1E02D7801890121E098
:102AF00030E019951F910F91FF90EF900895089580
:102B000090E080E008958091880B882349F08091BF
:102B10000302882329F080910302815080930302ED
:102B200080910202882329F08091020281508093D3
:102B3000020280910102882329F0809101028150D4
:102B40008093010280910002882329F08091000285
:102B500081508093000280910102811106C082E0C1
:102B60008093010281E08093080C0895AF92BF9298
:102B7000CF92DF92EF92FF920F931F93CF93DF9349
:102B8000EAEAFCE02481358184EBC82E82E0D82E6D
:102B9000D60117963C932E93169792EAE92E92E06F
:102BA000F92ED70117963C932E9316978BEA92E055
:102BB000DC0117963C932E93169709E912E0D80191
:102BC00017963C932E93169760E972E0DB011796F7
:102BD0003C932E93169747E852E0DA0117963C9300
:102BE0002E931697CEE7D2E03F832E83A5E7AA2E39
:102BF000A2E0BA2ED50117963C932E931697228108
:102C00003381D60115963C932E931497D7011596D0
:102C10003C932E931497DC0115963C932E931497B6
:102C200086819781F80195838483DB0115963C9317
:102C30002E931497FA01358324833D832C83D50189
:102C400015963C932E93149790937302809372027F
:102C50009093640280936302909359028093580288
:102C600090934D0280934C029093430280934202D2
:102C7000909339028093380290932F0280932E0212
:102C8000DF91CF911F910F91FF90EF90DF90CF9048
:102C9000BF90AF900895EF92FF920F931F93DC01C6
:102CA0001A960D911C911B9718962D913C9119978E
:102CB000ED91FC9100A0F1A1E02D7B0150E040E0FE
:102CC00070E060E019951F910F91FF90EF900895CB
:102CD000EF92FF920F931F93DC01ED91FC9100A006
:102CE000F1A1E02D780101E010E019951F910F91FD
:102CF000FF90EF9008958F929F92AF92BF920F93A3
:102D00001F93CF93DF93CDB7DEB7A1970FB6F8949B
:102D1000DEBF0FBECDBF19A2423008F44AE08E01DB
:102D20000F5D1F4F842E912CB12CA12CA501940175
:102D30000E94CB21E62FB901CA01EA3044F5E05DDB
:102D4000D801EE938D01232B242B252B79F790E0CE
:102D500080E0109769F0FD0101900020E9F73197BC
:102D6000AF014A1B5B0BBD0182EB9CE00E94F003AC
:102D7000A1960FB6F894DEBF0FBECDBFDF91CF9105
:102D80001F910F91BF90AF909F908F900895E95C35
:102D9000D7CFFC0101900020E9F73197AF01481B24
:102DA000590BBC0182EB9CE00C94F003EF92FF9274
:102DB0000F939093C30C8093C20C7093C50C6093D7
:102DC000C40C5093BF0C4093BE0C3093C10C2093A5
:102DD000C00C011101C001E00093C60C0093C70CA8
:102DE000C7010F91FF90EF90D4CFEF92FF920F9316
:102DF0008091A90C843008F045C02091B602309132
:102E0000B7024091B4025091B5026091BA0270913C
:102E1000BB0281E0E82E83E0F82E0091BC02809195
:102E2000B8029091B902C2DF2091A4023091A502AC
:102E30004091A2025091A3026091A8027091A90250
:102E400094EFE92E92E0F92E0091AA028091A60259
:102E50009091A702ABDF2091AD023091AE0240917C
:102E6000AB025091AC026091B1027091B202E5EEFA
:102E7000EE2EE2E0FE2E0091B3028091AF0290911F
:102E8000B00294DF0F91FF90EF900895BC0190E0A5
:102E900080E04AE030CF1F93CF93DF9385ED80939E
:102EA000BC0080918C0B90918D0BA0918E0BB091FA
:102EB0008F0B0796A11DB11D23E0B695A795979599
:102EC00087952A95D1F72091BC0024FD03C010926C
:102ED000D40B52C040918C0B50918D0B60918E0B96
:102EE00070918F0B452B462B472B69F30097A1055B
:102EF000B10541F025E32A95F1F700000197A109FA
:102F0000B109E1CF80918B0BC1E0C0938A0B88237C
:102F100099F1D091B8001091BA008091BC008A7BE1
:102F20008093BC0060E084E10E94AF0560E085E131
:102F30000E94AF051092D40BC093D60B1092D50B04
:102F400061E084E10E94AF0561E085E10E94AF0588
:102F50008091B9008E7F8093B9008091B9008D7FF8
:102F60008093B90088E48093B80085E48093BC0026
:102F70001093BA00D093B800DF91CF911F910895BC
:102F80000E94F5211F920F920FB60F9211240BB6DB
:102F90000F922F933F934F935F936F937F938F93F2
:102FA0009F93AF93BF93EF93FF938BE09CE00E94BE
:102FB0006304FF91EF91BF91AF919F918F917F91AA
:102FC0006F915F914F913F912F910F900BBE0F909A
:102FD0000FBE0F901F9018951F920F920FB60F9271
:102FE00011240BB60F922F938F939F93EF93FF9320
:102FF000E0911B0CF0911C0C8081E091210CF09170
:10300000220C82FD1DC090818091240C8F5F8F73F4
:103010002091250C821741F0E091240CF0E0E55F4F
:10302000F34F958F8093240CFF91EF919F918F9197
:103030002F910F900BBE0F900FBE0F901F90189501
:103040008081F2CF1F920F920FB60F9211242F930F
:103050003F938F939F93AF93BF938091FB0B90917E
:10306000FC0BA091FD0BB091FE0B3091FA0B23E00D
:10307000230F2D3758F50196A11DB11D2093FA0B92
:103080008093FB0B9093FC0BA093FD0BB093FE0B76
:103090008091FF0B9091000CA091010CB091020C5B
:1030A0000196A11DB11D8093FF0B9093000CA0937E
:1030B000010CB093020CBF91AF919F918F913F9102
:1030C0002F910F900FBE0F901F90189526E8230F99
:1030D0000296A11DB11DD2CF1F920F920FB60F9273
:1030E00011240BB60F922F933F934F935F936F93DF
:1030F0007F938F939F93AF93BF93EF93FF938091B1
:10310000B900887F803609F44CC008F03FC088328F
:1031100009F4A6C028F5803109F49AC0C8F48823C0
:1031200009F4F6C0883009F493C0FF91EF91BF9184
:10313000AF919F918F917F916F915F914F913F914F
:103140002F910F900BBE0F900FBE0F901F901895F0
:10315000883109F485C0803241F78093D30B14C0C5
:10316000803409F49AC040F48033B9F38833E9F627
:103170008093D30B85ECADC0803509F482C08835CF
:1031800009F493C0883489F686DECFCF883909F4F4
:103190008AC038F5883729F050F4883611F0803726
:1031A00021F683E08093D40B1092D20B55C088385F
:1031B00009F479C0803919F0803809F0B6CF8091D0
:1031C000D20B803208F06FC0E091D20B81E08E0FFD
:1031D0008093D20B8091BB00F0E0EE54F44F8083DB
:1031E0003BC0803B39F0D0F4803A09F477C0883A8C
:1031F00009F09BCF84E08093D40B1092B10B109216
:10320000B00BF0E0E0E019958091B00B81110FC098
:1032100081E08093B00B1092900B09C0803C09F4C0
:10322000A9CF883C09F4A6CF883B09F07ECFE09176
:10323000B10B81E08E0F8093B10BF0E0E057F44FBB
:1032400080818093BB009091B10B8091B00B29C01D
:103250008091F90B8093BB0085EC8093BC0065CF17
:103260009091F80B8091F70B981758F5E091F80BB7
:1032700081E08E0F8093F80BF0E0E952F44F8081EB
:10328000E9CFE091F80B81E08E0F8093F80B8091ED
:10329000BB00F0E0E952F44F80839091F80B8091ED
:1032A000F70B9817C8F285E8D8CFE091F80B81E0CA
:1032B0008E0F8093F80B8091BB00F0E0E952F44F41
:1032C00080838091D60B81115FCF81E08093D50BF5
:1032D00084EA8093BC001092D40B27CF85EC8093B6
:1032E000BC001092D40B8091D20B803230F4E0916C
:1032F000D20BF0E0EE54F44F10826091D20B70E0EC
:1033000082EB9BE0F0E0E0E019951092D20B0DCF3C
:103310001092D30B39CF1F920F920FB60F92112438
:103320000BB60F922F933F934F935F936F937F93BF
:103330008F939F93AF93BF93EF93FF93E091030C11
:10334000F091040C1995FF91EF91BF91AF919F916E
:103350008F917F916F915F914F913F912F910F903E
:103360000BBE0F900FBE0F901F901895EBE0FCE086
:103370001382128288EE93E0A0E0B0E0848395830C
:10338000A683B78389E39BE09183808385EC90E0FB
:103390009587848784EC90E09787868780EC90E01F
:1033A000918B808B81EC90E0938B828B82EC90E010
:1033B000958B848B86EC90E0978B868B118E128E8A
:1033C000138E148EE2EBFCE01382128220EF30E0C9
:1033D0003583248380E491E0978386833187208737
:1033E00093878287168A158614861786168681E04B
:1033F000858B848B2FEF3FEF338B228B318B208B90
:10340000878B108E128E118E8BE49BE091838083CC
:10341000EAEAFCE042815381A4EBB2E015965C93AA
:103420004E9314972481358117963C932E931697CB
:10343000ABEAB2E015965C934E93149717963C93C3
:103440002E931697A2EAB2E015965C934E931497CA
:1034500017963C932E93169786819781E9E9F2E0BF
:103460009583848337832683E0E9F2E055834483A0
:1034700037832683E7E8F2E0558344833783268346
:10348000EEE7F2E05583448337832683E5E7F2E0F5
:10349000558344833783268390937302809372020B
:1034A0009093640280936302909359028093580230
:1034B00090934D0280934C0290934302809342027A
:1034C000909339028093380290932F0280932E02BA
:1034D0008091A90C8093A80C0895CF93DF93CDB76A
:1034E000DEB7A8970FB6F894DEBF0FBECDBF7894B5
:1034F00084B5826084BD84B5816084BD85B58260F9
:1035000085BD85B5816085BD80916E0081608093A9
:103510006E00109281008091810082608093810012
:103520008091810081608093810080918000816022
:10353000809380008091B10084608093B10080917D
:10354000B00081608093B000809191008260809390
:103550009100809191008160809391008091900012
:103560008160809390008091A10082608093A1008F
:103570008091A10081608093A1008091A000816072
:103580008093A0008091210182608093210180912D
:1035900021018160809321018091200181608093CD
:1035A000200180917A00846080937A0080917A0073
:1035B000826080937A0080917A00816080937A00A3
:1035C00080917A00806880937A001092C100E09127
:1035D0001B0CF0911C0C82E08083E091170CF091A1
:1035E000180C1082E091190CF0911A0C8FEC80836A
:1035F0001092230CE0911F0CF091200C86E0808348
:10360000E0911D0CF0911E0C808180618083E0911F
:103610001D0CF0911E0C808188608083E0911D0C50
:10362000F0911E0C808180688083E0911D0CF091E8
:103630001E0C80818F7D808314B813BA10920A010A
:103640001AB811B8279A999A989A80910A018068B5
:1036500080930A0180910A01806480930A0160E0EE
:1036600083E10E94DC0560E086E10E94DC0562E007
:1036700087E10E94DC05A19AA09A80910B018068E5
:1036800080930B0180910B01806480930B012FEFDD
:1036900037EA81E6215030408040E1F700C0000069
:1036A000A198A09880910B018F7780930B01809156
:1036B0000B018F7B80930B0180E18093810010923E
:1036C000800088E99AE3909387008093860082E1E6
:1036D0008093810083E895E19093040C8093030C20
:1036E00081E080936F0010920A0C1092090C1092E6
:1036F000070C1092060C80910101886780930101EC
:103700009D9A8DB188638DB9809A819A829A839AA5
:10371000849A8B9A889A899A8C9A62E370E080E006
:1037200090E00E943D068C9864E670E080E090E0B6
:103730000E943D068C9A64E670E080E090E00E9472
:103740003D0670E060E080EB90E00E948E0F1092EA
:10375000CE0C1092CD0C81E493E99093D20C80931F
:10376000D10C83E194E09093D00C8093CF0C109215
:10377000D40C1092D30C69E070E08AE097E00E94CC
:10378000240E65E670E083E197E00E94240E66E077
:1037900070E084E097E00E94240E60E082EB9CE001
:1037A0000E94321360E082EB9CE00E948F108091B7
:1037B000D10C9091D20C8838944909F0DAC110925A
:1037C000050C20EE3FEF50E040E070E060E082EB5F
:1037D0009CE00E94F912E090DD0CF090DE0C8091EC
:1037E000CF0C80FF03C09EE2E92EF12C8091D10C1A
:1037F0009091D20C8230964119F48EE2E82EF12C91
:1038000010E000E030E020E050E040E070E060E0F8
:1038100082EB9CE00E94D0108091CF0C80FD10C004
:1038200070E060E08091D90C9091DA0C0E948E0FCC
:1038300070E060E08091DB0C9091DC0C0E948E0FB8
:103840008B988A9880910201877880930201A598CD
:103850008EB1877C8EB9409102018F2D90E09C0142
:1038600005E0220F331F0A95E1F72076242B2093E1
:1038700002014EB19C01220F331F220F331F207310
:10388000242B2EB944B39C01220F331F2072242B0A
:1038900024BB4EB19C013595279535952795287009
:1038A000242B2EB920910201E3E095958795EA95A6
:1038B000E1F78871822B809302018998899A80911F
:1038C0000201877880930201A5988EB1877C8EB91A
:1038D00040910201C7019701F5E0220F331FFA95CD
:1038E000E1F72076242B209302014EB19701220F9D
:1038F000331F220F331F2073242B2EB944B397019B
:10390000220F331F2072242B24BB4EB19701359513
:103910002795359527952870242B2EB920910201E3
:1039200003E0959587950A95E1F78871822B80933E
:1039300002018998899A8A9A8091010187788093F7
:1039400001019D988DB1877C8DB94091CF0C50912C
:10395000D00C8091D10C9091D20C46FD13C0889A66
:10396000889888988898209100012CB122B32CB1B6
:1039700020910001889A40FD05C08938F2E19F0737
:1039800009F064C18131954161F4889A88988898DA
:103990008898809100018CB182B38CB18091000134
:1039A000889ABA0164707727889A88988898889846
:1039B00044FF6EC1209100018CB1F2B3ECB1909143
:1039C000000130E055E0359527955A95E1F72370D1
:1039D000869586958C70822B2F2F26952071822BB1
:1039E000A4E0EA9F900111242072822BE8E09E9FC0
:1039F00090011124207C822B889A889A8898889834
:103A00008898209100019CB1A2B3FCB1E091000123
:103A100030E0B5E035952795BA95E1F72370969596
:103A200096959C70922B2A2F26952071922BA4E0BC
:103A3000FA9F900111242072922BF8E0EF9F9001E1
:103A40001124207C922B889A889A88988898889844
:103A500020910001ECB0A2B3FCB1E091000130E094
:103A600015E0359527951A95E1F72370E694E694CD
:103A70003E2D3C70E32EE22A2A2F26952071E22A61
:103A8000A4E0FA9F900111242072E22AF8E0EF9F4F
:103A900090011124207C2E29889AE92FF0E0672BD1
:103AA00009F4E1C0E22EF12CFE2CEE24EE2428EFE6
:103AB000F22203E0EE0FFF1F0A95E1F7E07EF770B8
:103AC000EE2AFF2A869586958695E82A8091050C30
:103AD000882399F0C70155E0969587955A95E1F7A7
:103AE000807299279701369527952F713327822B5E
:103AF000932BF0ECEF22E82AF92A889A8B9A80918E
:103B000001018867809301019D9A8DB188638DB909
:103B100040FD14C00091BC0C1091BD0C0150110966
:103B20002091BA0C3091BB0C2150310950E040E09B
:103B300070E060E082EB9CE00E94D0102FE1E21682
:103B40002FEFF206B1F486E08983AE014F5F5F4F3D
:103B500061E08AE390E00E94CF0E8091CF0C9091BB
:103B6000D00C8F7E9093D00C8093CF0C81E080930B
:103B7000050C61E082EB9CE00E94321370E060E093
:103B800082EB9CE088D881E08093A90C88E0EDEB83
:103B9000F2E0DE01919601900D928A95E1F788E0BE
:103BA000E5ECF2E0DE01599601900D928A95E1F77D
:103BB00088E0EDECF2E0DE01519601900D928A95DD
:103BC000E1F788E0E5EDF2E0DE01199601900D9253
:103BD0008A95E1F788E0EDEDF2E0DE0111960190C3
:103BE0000D928A95E1F78091A90C813009F0C4C04B
:103BF00088E0FE01B196AAEABCE001900D928A9598
:103C0000E1F70E94B615CC24C394D12C82E0782E23
:103C1000A12C98EFB92E6624639422ED422E512CEC
:103C200032E0232E312C8091090C90910A0C8230C5
:103C3000910509F4D7C008F0C0C0009709F4CDC0C1
:103C4000019709F4C5C00E94F004EDCF889A8898C6
:103C500088988898209100012CB122B32CB1209132
:103C60000001889A8FCEE82EF12CFE2CEE24EE2453
:103C700038EFF322B3E0EE0FFF1FBA95E1F7E07ED5
:103C8000F770EE2AFF2A269526952695E22A1ECF62
:103C9000909100010CB112B3BCB1A0910001889ABF
:103CA000889A88988898889820910001ECB1E2B2AF
:103CB000DCB08091000130E0F5E035952795FA956C
:103CC000E1F723703327F0E0F595E795F595E79553
:103CD000EC70FF272E2B3F2BF12CF594E794E0E1BD
:103CE000EE22FF24E22AF32AF4E0DF9E9001112461
:103CF00020723327E22AF32A28E0829FF001112460
:103D0000E07CFF27EE2AFF2A889A892F90E0F5E0D1
:103D100095958795FA95E1F78370069506950C7051
:103D2000802B16951071812B94E0B99F900111247E
:103D30002072822BE8E0AE9FD0011124A07C8A2B58
:103D4000F82A43FF03C0FE24EF24FE24672B09F466
:103D5000BDCEC701807E97709701232F332726950C
:103D600026952695822B932BFE2CEE24FF0CFF0C20
:103D7000FF0CE82AF92AAACE8091A90C823021F4FE
:103D800088E0FE01719637CF8091A90C833021F431
:103D900088E0FE0139962FCF8091A90C843021F460
:103DA00088E0FE01319627CF8091A90C853009F07B
:103DB00028CF88E0FE0179961ECF8330910509F463
:103DC000BDC2049709F03FCF85B1805885B913C0B3
:103DD0008091080C882309F436CF30920A0C209287
:103DE000090C31CF8091060C9091070C009741F09F
:103DF000019709F4DDC1D0920A0CC092090C23CFBF
:103E00006091AA0C7091AB0C82EB9CE00E944B1667
:103E100040916A0250916B02609168027091690250
:103E2000E0907202F090730200916E0210916F02A6
:103E3000041B150B20916C0230916D02261B370B71
:103E400082EB9CE00E94C709609144027091450298
:103E500000914C0210914D0220914802309149028C
:103E6000261B370B409146025091470282EB9CE0A3
:103E70000E94681660913A0270913B0200914202E2
:103E80001091430220913E0230913F02261B370BD6
:103E900040913C0250913D0282EB9CE00E946816EA
:103EA0006091300270913102009138021091390214
:103EB0002091340230913502261B370B409132029B
:103EC0005091330282EB9CE00E94681640915002B0
:103ED0005091510260914E0270914F02E090580251
:103EE000F09059020091540210915502041B150BD9
:103EF0002091520230915302261B370B82EB9CE03B
:103F00000E94C709609126027091270200912E023B
:103F100010912F0220912A0230912B02261B370B81
:103F2000409128025091290282EB9CE00E94681681
:103F300020919B0230919C024091990250919A02EB
:103F400060919F027091A00290E3E92E93E0F92E18
:103F50000091A10280919D0290919E020E94D6162E
:103F60008091AE0C9091AF0C2091AC0C3091AD0CC7
:103F70003093C30C2093C20C9093C50C8093C40C57
:103F80008EE690E09093BF0C8093BE0CEFE0F0E0E3
:103F9000F093C10CE093C00C7092C60C7092C70CE9
:103FA00083E190E00E94461783E79BE00E94C916D8
:103FB0008BE090E00E94461783E79BE00E94C916C1
:103FC00085EE97E00E94461785E79BE00E94C916A0
:103FD00086E190E00E9446178CE79BE00E94C9169C
:103FE00086E190E00E944617209192023091930260
:103FF00040919002509191026091960270919702C7
:10400000E8E2EE2EE3E0FE2E009198028091940209
:10401000909195020E94D6162091890230918A02D1
:10402000409187025091880260918D0270918E02BA
:10403000F0E2EF2EF3E0FF2E00918F0280918B02D1
:1040400090918C020E94D6162091800230918102BC
:1040500040917E0250917F026091840270918502AE
:10406000A8E1EA2EA3E0FA2E009186028091820256
:10407000909183020E94D6162091770230917802A7
:10408000409175025091760260917B0270917C02A2
:10409000B0E1EB2EB3E0FB2E00917D02809179021E
:1040A00090917A020E94D616B0922302A092220228
:1040B000B0921B02A0921A02B0921302A0921202B6
:1040C000B0920B02A0920A0240912002509121026C
:1040D00060911E0270911F0220E038EF80911C0257
:1040E00090911D020E94440D20911A0230911B02F2
:1040F00040911802509119026091160270911702B6
:1041000080911402909115020E94440D2091120298
:1041100030911302409110025091110260910E02F1
:1041200070910F0280910C0290910D020E94440D3B
:1041300020910A0230910B0240910802509109022D
:10414000609106027091070280910402909105022D
:104150000E94440D6092A90CF12CE12C1AE0812EF2
:10416000912C10E000E0F701E00FF11FEE0FFF1FB0
:10417000EB5CFC4F25913491B801665F7F4FA40141
:1041800082EB9CE00E94710D0F5F1F4F0031110503
:1041900051F7FFEF8F1A9F0A20E1E20EF11CE114A4
:1041A00031E0F306F1F6D092070CC092060C23CE54
:1041B00083E080932502609224029091A90C809163
:1041C000A80C981739F18091A90C8093A80C8091C4
:1041D000A90C813009F073C066E970E08DE790E0CA
:1041E0000E94F40C64EB70E08BE990E00E94F40C08
:1041F00068E770E08FE590E00E941C0D80916302FB
:10420000909164029093BB028093BA020E94F516CB
:104210000E94B615EAE0F0E0F093BF0CE093BE0C0C
:104220005092C10C4092C00C8091AE0C9091AF0C9A
:104230002091AC0C3091AD0C3093C30C2093C20C88
:104240009093C50C8093C40C6091A90C70E090E031
:1042500080E04AE00E947B1686E10E948705182FC5
:1042600024E630E03093BF0C2093BE0C5092C10C7A
:104270004092C00C88E79BE00E94C916612F70E055
:1042800090E080E04AE00E947B1683E10E9487056F
:10429000182F82E390E09093BF0C8093BE0C509255
:1042A000C10C4092C00C8BE79BE00E94C916612FA5
:1042B00070E090E080E04AE00E947B169CCD809107
:1042C000A90C8230D9F468E770E08FE590E00E9495
:1042D000F40C64EB70E08BE990E00E94F40C66E96A
:1042E00070E08DE790E00E941C0D80916302909138
:1042F00064029093A9028093A80288CF8091A90CB0
:10430000833009F087CF66E970E08DE790E00E9486
:10431000F40C68E770E08FE590E00E94F40C64EB29
:1043200070E08BE990E00E941C0D809163029091F7
:1043300064029093B2028093B10268CF86E10E943A
:104340008705019799F483E10E948705892B71F411
:104350008091A90C8F5F8093A90C9091A90C8091FA
:104360002502891788F48093A90C45CD86E10E9427
:104370008705892B91F783E10E948705892B69F7CF
:104380008091A90C8150E7CF9091A90C80912402D3
:10439000981748F330CDA1E21A2EAA1BBB1BFD01D2
:1043A0000DC0AA1FBB1FEE1FFF1FA217B307E40714
:1043B000F50720F0A21BB30BE40BF50B661F771F6C
:1043C000881F991F1A9469F760957095809590954C
:1043D0009B01AC01BD01CF010895EE0FFF1F881FA7
:1043E0008BBF0790F691E02D199481E090E0F8944E
:0643F00000C0F894FFCFAD
:1043F600020121010E016200030000000E015300BC
:10440600030000000E014400030000000E01350009
:104416000300000001FFD2006E003601000000001C
:104426000500C800C8000000000005005000C800D4
:104436000000000006002400390100000000D20040
:104446002E003601E600000000000005005F00C8EF
:104456000078000000000014010001003F01EF0099
:104466000000000000D7005F000000000001D70038
:1044760050000000000001D70041000000000001CC
:10448600D700320000000000010A003C00000000D6
:1044960000020A00820000000000020A00A00000DC
:1044A600000000020A00640000000000020000E0B4
:1044B600030000FFFF0000E0FF0000A0FD9FFC00DE
:1044C600009FFC00001F00FFFFFF070000FFFF1F0B
:1044D60000FF0700005468656D6520736574746994
:1044E6006E6773005274632073657474696E6773C4
:1044F6000052656C61792073657474696E67730028
:1045060052656C6179343A0052656C6179333A00D0
:1045160052656C6179323A0052656C6179313A00C4
:10452600486F6D65000000000000000000C0F3A0A9
:10453600FBC0FB00FC00FC00FCE0FBC0FB00C30072
:10454600000000000000000000000000C3C0FBE007
:10455600FB00FC00FC00FCC0FBA0FBC0F30000005D
:10456600000000000000000000000043FC68F4E0CA
:10457600EAE0FB21FC21FCC0FB60F300EB01F40048
:104586000000000000000000000000E1F300EB6006
:10459600F3C0FB21FC21FCE0FB00EB89F464FC008A
:1045A60000000000000000000000C320F342EB44BE
:1045B600FCE7FC08FDA7FC61F3E0EA60F300001DE0
:1045C600CFBFEF7EDF7ABE5695B8A5000040F3E078
:1045D600EA81F3A7FC08FDE7FC44FC42EB40F3E06C
:1045E600C20000000000004092C0FBE2F3C7FC8C52
:1045F600FDAEFD4DFD62F3C0EA40F30000C7A31611
:10460600BEB5EE73E6D0CDCEA4F19C08AC60D34027
:10461600F3C0EA83F34DFDAEFD8CFDC7FCE2F3C0AB
:10462600FB000000000000E0FB42FC08FDAEFD11AF
:10463600FE0CF501EBC1E2A3E361FC45FD2CFEB0E7
:10464600FEB0FE6DFE4CFE4BFE8FFE2CFE45FD823F
:10465600FCA3E3C0E221EB2DF511FEAEFD08FD4201
:10466600FCE0F30000000020FCC6FC8DFDB0FD2739
:10467600F4C0EA24DB8B8B29E54DFE2CFEEAFD2DEA
:10468600FEA8FD45FD45FD0CFE90FE90FEB1FE2DFB
:10469600FE07E58A9303DBC0EA48F4D0FD8DFDC62C
:1046A600FC20FC0000000021FCC8FC68F421EBC1E2
:1046B600EAEAC30FBDABF5EBFD25FD06FD68ECA7E9
:1046C600DB28AB2993099328ABA8D368ECADFD880A
:1046D600FD0DFE89F5EEBCC9CBC1EA21EB88F4C815
:1046E600FC21FC0000E079A0F320F3C0EA21EBE412
:1046F600E30EC5ABFD27FDA3FCA3EB08A34F535464
:104706004C1665576D576D165D544C4F53E89AC657
:10471600E3ACFDCDFDE6FCCCC4E3EB01EBC0EA4126
:10472600F3A0F30000E07920F300EB60F3A0B220E1
:10473600FC49FDA5FC22F404D32D5B1665BB9EDB6C
:10474600AEDBAE399EB685397E1876398616650D8E
:1047560053E5CA44F442F463FC20FC00CB60F3004A
:10476600EB40F300000000A0AAE0810000C0AAA56B
:10477600FC65F4C1F3A3C2B0537A96BBC67DDF3D98
:10478600CF1CBF9AA63996598E397EF86D92543948
:1047960086B04B83BAA1F3E1F301FC40CB000000E5
:1047A60082A0AA00000000000000000000E0FB88D4
:1047B600F460F3A1DA6F5BBBA6BEEFBEEF7EDF5DF2
:1047C600CF1CBFDBAEBA9E7A8E397E187618761865
:1047D600765A86904B61D260F360F3E0FB000000EE
:1047E600000000000000000000000080A245FC61FF
:1047F600F3C0EA89725A967DDFBEEFBEEF7EDF5DBB
:10480600CF1CBFFBAEBBA69A96557D397E397E3945
:104816007E397E3A8E8962A0E2C4F3A1F320C300FA
:104826000000000000000000000000C0F306F48253
:10483600F362CAF56C38A67EDF9EDF7EDF5DD73D6C
:10484600C71CBFFCAEBBA63996B374598659865AA7
:10485600865A86146DF66422BA62EB00EBE0FB0022
:104866000000000000000000000000C0FB06F4A4E9
:10487600EB46829B9E5DCF5DD7BEEF9EE75DCF3D4B
:10488600C71CBFFCAEDBA6717CB7859A8E9A8E9A42
:104896008E9A8E7A8E9B964772C0EA00EB80F30062
:1048A600000000000000000000000024F4E6F3E130
:1048B600E26D731CB73DC75DCF5DCF5DCF3DC73C95
:1048C600BF1CBFFCB6D79DAE6BBB96BB96BB96BB5B
:1048D6009EBB9EBB9EDCA68F6B80E222EB61F30043
:1048E600000000000000000000000025F401EB407D
:1048F600DAB37C1CB73DC73DC75DC73DC73DC73D65
:10490600BF1CBF1CB7517CB37CDBA6DCA6DCA6FCB7
:10491600A6FCA6FCA6FCA6D47461DA64EB21EB60C7
:104926009A0000000000000000007AC3F3A0EA40ED
:10493600DAF584F89DDBBE3DC73DC73DC73DC73DA3
:10494600BF3CBF9695D384FCAE1CAF1CAF1CB71CF6
:10495600B71CB79AA6D795167561D2E1EA01EB6046
:104966009A00000000000000000000A3F3A0EA6027
:10497600DAF4847AAEFCBE5DC75DC75DC75DC73D30
:10498600C73DBF969DF48C18A63DBF3DBF3DBF3DBC
:10499600BF3DBFFCB69AAE157D41DAE2EA01E3609F
:1049A6009A0000000000000000000082F344EBE3E0
:1049B600E2508C1CB73DC75DCF5DCF5DCF5DCF5D4F
:1049C600C75DC75DC75DC7759D559D3DC75DC75D25
:1049D600C75DC75DC73DB7727CA2DAC2E2E0E200FE
:1049E6000000000000000000000000A1F3A7EB0497
:1049F600EBE9923DBF3DBF5DCF7DCF7DD77DD77DB6
:104A0600D77ED77ED77ED77ED7BBC6559D1CC77EA1
:104A1600D77ECF5DC75EBF0B83C2E281E2E0E200D4
:104A26000000000000000000000000A0F366EB2478
:104A3600E322C27BA65DCF5DCF5DCF7ED79EDF9E94
:104A4600DF9EDF9EDF9EDF9EDF9EDF9EDFF7AD18D7
:104A5600AE7ECF3DC79BA664B261E220E240EB008A
:104A66000000000000000000000000C0B243EBE4BC
:104A7600E240DACD93F8A53DCF7ED77ED77ED79E8E
:104A8600DF9EDF9EDF9EDF9EDF9EDF9ED79ED7BB2B
:104A9600BE18AE18AEEF8382DA20E220DA20CB0011
:104AA6000000000000000000000000000080F3820B
:104AB600E282E201CAB79D9EDF9EE7BEE7BEE7BE81
:104AC600E7BEE7BEE7BEE7BFE7BFE7BFE7BFE7BFB3
:104AD600E7BFDF979564C200DA00DAC0E2000000A3
:104AE6000000000000000000000000000000C3E11C
:104AF600EA82E261E223BA39AEDFEFDFEFDFEFDF12
:104B0600EFDFEFDFEFDFEFDFEFDFEFDFEF7EE7DF98
:104B1600EF5AAE86B221DAE0D900D220D3000000E7
:104B2600000000000000000000000000000000A0DF
:104B3600F361E200DAE0D923BA55A5F8ADDFF7FF55
:104B4600FFFFF73DE7BAD6FFF7FFF7FFF759B6764F
:104B56009D86B221DAE0D9C0D120E3000000000032
:104B6600000000000000000000000000000000003F
:104B76000080F3E0D9C0D9E0D902D24AA3D8AD7EED
:104B8600D7DFEF3CDF9ACEDFEF7ED7F8A56B9B64CD
:104B9600D201DAC0D9A0D1E0E20000000000000096
:104BA60000000000000000000000000000000000FF
:104BB60000000080EB00DAE0D9E0D921DA22D2A6A3
:104BC600BA6BABEDA3EDA38BA3E7B263D262DAE0D7
:104BD600D9E0D9C0D100DB208A0000000000000027
:104BE60000000000000000000000000000000000BF
:104BF600000000EDC4138DE3CA81DAA2E2A2E2A2AC
:104C0600E2C3E204E324E3E3E2A2E2A2E2C2E28236
:104C1600DA82C2B28C0ECD00000000000000000057
:104C2600000000000000000000000000000000007E
:104C360000028A2CFDCFDC65CB80EB21E322DB432F
:104C4600E383E383E383E383E363E302DBE1DA20E5
:104C5600E324CBAFD44DFD429A00000000000000D3
:104C6600000000000000000000000000000000003E
:104C76000004B36DFD40E280DA00000000E0BA6097
:104C8600E340E341E341E320E340E3E0BAE08100AF
:104C96000040CA40E26DFD65C30000000000000050
:104CA60000000000000000000000000000000000FE
:104CB60000EAB328F4E0A18028000000000000000C
:104CC60000401080188018601800000000000000E6
:104CD600008028E0A128F48BCC0000000000000032
:104CE60000000000000000000000000000000000BE
:104CF6000005114619210000000000000000000018
:104D0600000000000000000000000000000000009D
:104D160000000021004619251100000000000000D7
:104D26000000000000000000008504F0031D04D10F
:104D3600044E042C04400400000000F708F0038031
:104D4600157F15F912EF03710D720B8E0B820B781E
:104D56000DEF0332138F106B15681678114B16265C
:0E4D66000AC7092F00202000423A00413A00FF
:020000023000CC
:10E000000D9489F10D94B2F10D94B2F10D94B2F129
:10E010000D94B2F10D94B2F10D94B2F10D94B2F1F0
:10E020000D94B2F10D94B2F10D94B2F10D94B2F1E0
:10E030000D94B2F10D94B2F10D94B2F10D94B2F1D0
:10E040000D94B2F10D94B2F10D94B2F10D94B2F1C0
:10E050000D94B2F10D94B2F10D94B2F10D94B2F1B0
:10E060000D94B2F10D94B2F10D94B2F10D94B2F1A0
:10E070000D94B2F10D94B2F10D94B2F10D94B2F190
:10E080000D94B2F10D94B2F10D94B2F10D94B2F180
:10E090000D94B2F10D94B2F10D94B2F10D94B2F170
:10E0A0000D94B2F10D94B2F10D94B2F10D94B2F160
:10E0B0000D94B2F10D94B2F10D94B2F10D94B2F150
:10E0C0000D94B2F10D94B2F10D94B2F10D94B2F140
:10E0D0000D94B2F10D94B2F10D94B2F10D94B2F130
:10E0E0000D94B2F141546D656761323536300041AF
:10E0F000726475696E6F206578706C6F72657220DE
:10E1000073746B3530305632206279204D4C530099
:10E11000426F6F746C6F616465723E004875683F52
:10E1200000436F6D70696C6564206F6E203D200048
:10E130004350552054797065202020203D20005FF9
:10E140005F4156525F415243485F5F3D2000415658
:10E1500052204C696243205665723D20004743437C
:10E160002056657273696F6E203D20004350552024
:10E1700049442020202020203D20004C6F7720663D
:10E18000757365202020203D20004869676820665F
:10E190007573652020203D200045787420667573D6
:10E1A00065202020203D20004C6F636B2066757336
:10E1B000652020203D20004D617220203720323024
:10E1C000313300312E362E3800342E332E350056A2
:10E1D00023202020414444522020206F7020636F70
:10E1E00064652020202020696E73747275637469E1
:10E1F0006F6E2061646472202020496E74657272B3
:10E20000757074006E6F20766563746F7200726A49
:10E210006D702020006A6D70200057686174207056
:10E220006F72743A00506F7274206E6F7420737541
:10E2300070706F72746564004D7573742062652030
:10E2400061206C6574746572002000577269747483
:10E25000696E672045450052656164696E672045B7
:10E26000450045452065727220636E743D00504F35
:10E27000525400303D5A65726F2061646472003FF1
:10E280003D43505520737461747300403D454550C3
:10E29000524F4D207465737400423D426C696E6B41
:10E2A000204C454400453D44756D70204545505215
:10E2B0004F4D00463D44756D7020464C415348001B
:10E2C000483D48656C70004C3D4C69737420492F83
:10E2D0004F20506F72747300513D51756974005234
:10E2E0003D44756D702052414D00563D73686F7707
:10E2F00020696E7465727275707420566563746FF0
:10E30000727300593D506F727420626C696E6B00BD
:10E310002A0011241FBECFEFD1E2DEBFCDBF01E046
:10E320000CBF12E0A0E0B2E0EEE1FDEF03E00BBFB6
:10E3300002C007900D92A030B107D9F712E0A0E01B
:10E34000B2E001C01D92AE30B107E1F70F9460F367
:10E350000D948DFE01E20EBF0FEF0DBF11241FBE05
:10E360000D9460F30D9400F020E030E040ED57E0B4
:10E3700005C0FA013197F1F72F5F3F4F2817390792
:10E38000C0F308959C01260F311DC901A0E0B0E043
:10E390002F5F3F4FABBFFC018791882361F08093D3
:10E3A000C6008091C00086FFFCCF8091C0008064D1
:10E3B0008093C000EACF08958DE08093C6008091DD
:10E3C000C00086FFFCCF8091C00080648093C000B5
:10E3D0008AE08093C6008091C00086FFFCCF8091C8
:10E3E000C00080648093C00008950F94C2F10F9420
:10E3F000DCF10895FC019081992359F09093C600B7
:10E400008091C00086FFFCCF8091C0008064809323
:10E41000C0003196992379F70895282F982F929567
:10E420009F70892F805D8A3308F0895F8093C600D2
:10E430008091C00086FFFCCF8091C00080648093F3
:10E44000C000822F8F70982F905D9A3308F0995FEB
:10E450009093C6008091C00086FFFCCF8091C000E1
:10E4600080648093C00008959C01FB01853691056E
:10E470001CF46330710594F0C90164E670E00F94F8
:10E480002EFE605D7F4F6093C6008091C00086FFC6
:10E49000FCCF8091C00080648093C0002B30310598
:10E4A00014F43297B4F0C90164E670E00F942EFEC4
:10E4B0006AE070E00F942EFE605D7F4F6093C600AF
:10E4C0008091C00086FFFCCF8091C0008064809363
:10E4D000C000C9016AE070E00F942EFEC0968093E0
:10E4E000C6008091C00086FFFCCF8091C000806490
:10E4F0008093C00008951F93182F8EE692EE60E07F
:10E500000F94C2F11093C6008091C00086FFFCCF2B
:10E510008091C00080648093C0000F94DCF11F9153
:10E5200008952F923F924F925F926F927F928F92B7
:10E530009F92AF92BF92CF92DF92EF92FF920F9392
:10E540001F93DF93CF93CDB7DEB762970FB6F894E2
:10E55000DEBF0FBECDBF382E622ECA01DB015C01CB
:10E560006D01772420E2222E2E010894411C511CBB
:10E570008BC081E0A81680E0B80681E0C80680E084
:10E58000D80628F0C601AA27BB270F940DF2BB2797
:10E59000AD2D9C2D8B2D0F940DF28A2D0F940DF225
:10E5A0002092C6008091C00086FFFCCF8091C00001
:10E5B00080648093C0009DE29093C6008091C0006B
:10E5C00086FFFCCF8091C00080648093C0002092C1
:10E5D000C6008091C00086FFFCCF8091C00080649F
:10E5E0008093C00019828601750188249924A1E0D6
:10E5F0003A1651F03A1620F0B2E03B1661F409C029
:10E600000BBFF701779007C0C7010F9477FE782EF4
:10E6100002C0F7017080872D0F940DF22092C60082
:10E620008091C00086FFFCCF8091C0008064809301
:10E63000C000872D8052F401EF70F0708F3520F408
:10E64000E40DF51D708204C0E40DF51D8EE280839B
:10E650000894E11CF11C011D111D0894811C911CE2
:10E6600090E18916910409F0C2CF80E190E0A0E02A
:10E67000B0E0A80EB91ECA1EDB1E198AC2010F9493
:10E68000FAF10F94DCF16A94662009F072CF629679
:10E690000FB6F894DEBF0FBECDBFCF91DF911F91B3
:10E6A0000F91FF90EF90DF90CF90BF90AF909F9031
:10E6B0008F907F906F905F904F903F902F90089534
:10E6C0002F923F924F925F926F927F928F929F9282
:10E6D000AF92BF92CF92DF92EF92FF920F931F9370
:10E6E000DF93CF93CDB7DEB7CD53D1400FB6F894BB
:10E6F000DEBF0FBECDBF01E20EBF0FEF0DBF94B75F
:10E70000F894A89514BE80916000886180936000A1
:10E7100010926000789493FF05C0E0910002F091A0
:10E7200001021995279A2F9A8091C00082608093E8
:10E73000C00080E18093C40088E18093C1000000A4
:10E74000EE24FF24870144E0A42EB12CCC24DD2448
:10E7500024C0C5010197F1F70894E11CF11C011DCB
:10E76000111D21E2E2162EE4F20620E0020720E06D
:10E77000120718F031E0C32ED12CC801B70127ECE5
:10E780003BE140E050E00F9441FE611571058105C9
:10E79000910519F485B1805885B98091C00087FD35
:10E7A00003C0C114D104A9F2A6014F5F5F4FC25E3E
:10E7B000DE4F59834883CE51D140C25EDE4F8881FF
:10E7C0009981CE51D140019711F00D9410FEC05D9A
:10E7D000DE4F19821882C053D14060E0C15DDE4F28
:10E7E0001882CF52D14088249924C35DDE4F19820C
:10E7F0001882CD52D140C05EDE4F188219821A8233
:10E800001B82C052D140CE5CDE4F188219821A8220
:10E810001B82C253D140EE24FF2487010BBFF701B6
:10E8200007911691C45CDE4F19830883CC53D14005
:10E830000D940BFEC25EDE4F28813981CE51D1404E
:10E840002130310509F52091C600C25EDE4F1982E4
:10E850001882CE51D14022C02F5F3F4F4F4F5F4FA4
:10E86000213082E138078AE7480780E0580780F0C6
:10E87000C45CDE4FE881F981CC53D140EF5FFF4F9C
:10E8800019F0EE27FF27099420E030E040E050E047
:10E890008091C00087FFE0CF2091C600C35DDE4FAE
:10E8A00048815981CD52D1404F5F5F4FC35DDE4FEC
:10E8B00059834883CD52D140213209F063C64A3092
:10E8C000510508F05FC60894811C911C53E0851621
:10E8D000910409F059C600E010E018C081E280936D
:10E8E000C6008091C00086FFFCCF8091C00080648C
:10E8F0008093C0002F5F3F4F2931310579F70F9486
:10E90000DCF10F5F1F4F0530110519F020E030E0FA
:10E91000E5CF10920A0210920B0210920C02109294
:10E920000D02109206021092070210920802109235
:10E930000902109202021092030210920402109235
:10E9400005028FEE90EE60E00F94F5F180E191EE1C
:10E9500060E00F94C2F18091C00087FFFCCF9091DE
:10E96000C600903608F09F759032B8F09093C600BC
:10E970008091C00086FFFCCF8091C00080648093AE
:10E98000C000A0E2A093C6008091C00086FFFCCF2B
:10E990008091C00080648093C000983409F4D7C18E
:10E9A0009934B8F4923409F459C1933458F490333B
:10E9B00019F1903308F4E3C59F33A1F1903409F0C5
:10E9C000DEC5BDC0953409F470C1963409F0D7C5D1
:10E9D00098C1923509F42BC2933538F49C3409F46C
:10E9E000F5C1913509F0CBC518C2963509F445C279
:10E9F000993509F0C4C567C483E792EE62E00F94CD
:10EA0000F5F110920602109207021092080210927D
:10EA1000090210920A0210920B0210920C0210923C
:10EA20000D0213C18FE792EE62E00F94F5F18FEEC5
:10EA300090EE60E00F94F5F181E291EE60E00F94CA
:10EA4000C2F187EB91EE60E00F94F5F180E391EE77
:10EA500060E00F94C2F184EE90EE60E00F94F5F167
:10EA60008FE391EE60E00F94C2F186E090E061E008
:10EA700070E00F9434F20F94DCF18DE591EE60E0DC
:10EA80000F94C2F189EC91EE60E00F94F5F18EE401
:10EA900091EE60E00F94C2F183EC91EE60E00F9490
:10EAA000F5F18CE691EE60E00F94C2F18EE10F94E7
:10EAB0000DF288E90F940DF281E00F940DF20F949E
:10EAC000DCF18BE791EE60E00F94C2F119E0E0E039
:10EAD000F0E010935700E4918E2F0F940DF20F94F5
:10EAE000DCF18AE891EE60E00F94C2F1E3E0F0E03F
:10EAF00010935700E4918E2F0F940DF20F94DCF1D8
:10EB000089E991EE60E00F94C2F1E2E0F0E0109349
:10EB10005700E4918E2F0F940DF20F94DCF188EAE8
:10EB200091EE60E00F94C2F1E1E0F0E01093570045
:10EB30001491812F0F940DF20F94DCF107CF8BE825
:10EB400092EE62E00F94F5F18BE492EE60E00F94A8
:10EB5000F5F10F94DCF100E010E019C0C8016F2D51
:10EB60000F947FFEFF2031F489E492EE60E00F9471
:10EB7000C2F10BC0F092C6008091C00086FFFCCFAE
:10EB80008091C00080648093C0000F5F1F4FC80158
:10EB900081519F41A0E0B0E0ABBFFC01F790BAE229
:10EBA000FB1621F0E2E000301E07C1F60F94DCF105
:10EBB0000F94DCF187E592EE60E00F94F5F10F948D
:10EBC000DCF1CC24DD2400E010E01EC0C8010F946D
:10EBD00077FEF82E882331F489E492EE60E00F94FA
:10EBE000C2F10BC08093C6008091C00086FFFCCFAD
:10EBF0008091C00080648093C000FE1419F00894D6
:10EC0000C11CD11C0F5F1F4FC80181519F41A0E063
:10EC1000B0E0ABBFFC01E790FAE2EF1621F022E092
:10EC20000030120799F60F94DCF10F94DCF182E6C4
:10EC300092EE60E00F94C2F1C60161E070E00F94C3
:10EC400034F20F94DCF10F94DCF110920202109276
:10EC50000302109204021092050278CE89E992EE26
:10EC600062E00F94F5F1279A2F9A16C02F9880E052
:10EC700090E0E0EDF7E03197F1F7019684369105E9
:10EC8000C1F72F9A80E090E0E0EDF7E03197F1F7DF
:10EC9000019684369105C1F78091C00087FFE6CFC9
:10ECA0008091C00087FFFCCF64C485EA92EE62E0E9
:10ECB0000F94F5F140910202509103026091040219
:10ECC0007091050281E020E10F9491F2809102029F
:10ECD00090910302A0910402B091050280509F4FD1
:10ECE000AF4FBF4F8093020290930302A0930402A0
:10ECF000B093050280509041A040B04008F426CE69
:10ED0000A4CF83EB92EE62E00F94F5F140910602FE
:10ED100050910702609108027091090280E020E1A1
:10ED20000F9491F28091060290910702A09108023F
:10ED3000B091090280509F4FAF4FBF4F80930602A2
:10ED400090930702A0930802B0930902FFCD80ECD4
:10ED500092EE62E00F94F5F183E792EE60E00F949B
