:10000000F2C2000021C300001FC300001DC3000096
:100010001BC3000019C3000017C3000015C3000074
:1000200013C3000011C300000FC300000DC3000084
:100030000C94EE1109C3000007C3000005C30000C3
:1000400003C3000001C30000FFC20000FDC20000A6
:10005000FBC20000F9C20000F7C20000CEC70000DA
:10006000F3C2000094C7000069C70000EDC20000A1
:10007000EBC20000E9C20000E7C20000E5C20000D8
:10008000E3C20000E1C20000DFC20000DDC20000E8
:10009000DBC20000D9C20000D7C20000D5C20000F8
:1000A000D3C20000D1C20000CFC20000CDC2000008
:1000B000CBC20000C9C20000C7C20000C5C2000018
:1000C000C3C20000C1C20000BFC20000BDC2000028
:1000D000BBC20000B9C20000B7C20000B5C2000038
:1000E000B3C2000000002100240027002A002D00D8
:1000F0003000330001010000040107010A01000083
:100100002200250028002B002E00310034000201BF
:100110000000050108010B01050505050705080894
:100120000808020202020A0A080804040404010181
:100130000101010101010303030303030303040796
:1001400007070C0C0C0C0C0C0C0C0202020206062D
:100150000606060606060B0B0B0B0B0B0B0B010220
:1001600010202008081020401020408002010201C9
:100170000804020101020408102040808040201081
:1001800008040201800402018040201008040201DA
:100190000804020101020408102040800102040842
:1001A0001020408000000A0B02090C0D0E08070306
:1001B000040100000000000000000000000000003A
:1001C000000000000000000000000000000000002F
:1001D00012111000000000000000000000000000EC
:1001E00000000000000000000000CF93DF9300D06B
:1001F00000D000D01F92CDB7DEB7E0917B02F09126
:100200007C021081F12CE12C112329F00580F6816C
:10021000E02DE080F1800E9441090E9437096C01C5
:1002200080916E0290916F02C816D90608F07BC0CB
:100230000E94850ED0926F02C0926E020E94680BDF
:1002400000919602109197021A86198680E0680143
:10025000B1E1CB0ED11C0FB6F8940F92F801F28CDD
:10026000FF2009F43CC1448D4423C1F050E0868155
:100270009781840F951F9783868324813581821708
:10028000930720F08081918197838683D801169609
:100290006D917C91CE0101960E94EC14FA94F801C4
:1002A000F28E8085882331F0C80108963BD78111F2
:1002B0000E94A20A0F900FBED980D7FCC1CF0C813B
:1002C0001D81F80182859385892B21F0C801029652
:1002D0000E949209CCD77C0180916E0290916F02AE
:1002E000E816F90610F40E94850EF0926F02E09273
:1002F0006E02F9E0FD1508F4A3CFED2DDD0CFF0B28
:10030000D80152969C918827E757FE4F8F4F0C9447
:10031000E4143402340234026A02560264023402E3
:1003200034026A025602D0926F02C0926E0211230A
:1003300091F1CE14DF04B0F10E94680BE0917B02D2
:10034000F0917C020580F681E02D06811781C801BD
:100350000296E8D7D80152968C91529782FF17C027
:100360001C966D917C916E0D7F1D9701A601C801B1
:100370000E94EC09882321F0B701C8010E945F0E9A
:10038000D8015096ED91FC91C801199559CF8E7FF7
:10039000F801828BF5CFE0917902F0917A028081A9
:1003A00061E0811160E000919602109197020FB612
:1003B000F8940F92F801858D8F3F09F4158ED801BE
:1003C0005E968C915E978F3F11F45E961C920F9013
:1003D0000FBEF801828D81113EC00288F389E02DA5
:1003E000A0916202B09163021F96FC93EE931E9758
:1003F000A0916202B09163028481958151969C9391
:100400008E9350978091620290916302A481B5818E
:100410000C9613969C938E93129780916202909102
:1004200063020C9695838483E0916202F0916302EB
:10043000C8014196958B848BD80151968C91519728
:100440008F5F51968C93C7018C199D09662311F01B
:100450008FEF9FEFEAD7C80125D70E94680B811163
:10046000EFCE0E94A20AECCE9160F801928BCA8076
:10047000DB80648575856C0D7D1D9601A701C80123
:10048000ABD7882309F4DCCED8015096ED91FC91CE
:10049000C8011995F801828982FFD2CE64857585DD
:1004A0006C0D7D1DC8010E945F0ECACE9160F801DF
:1004B000928B6A817B81758764876E0D7F1D9701A2
:1004C000A701C80189D7BCCE91FD04C0C8010E9414
:1004D000A010B6CE9E7FD80152969C93B1CE2985AE
:1004E0003A85232B19F40F900FBE87CE811109C0D6
:1004F00080919A028E8380919802909199029887B8
:100500008F830F900FBEBDD60FB6F8940F92D8010F
:100510005D968C915D978F3F11F45D961C92F8016A
:10052000868D8F3F09F4168E0F900FBEBE01675F58
:100530007F4FCE010696C3D581111FC0C801A7D633
:100540008823B1F0E984FA846091620270916302B9
:10055000645F7F4FC6010AD761E0C70166D7C80153
:10056000A1D60E94680B811101C0ECD781E073CE47
:10057000C80198D60E94680BF9CFC80193D60E9493
:10058000680BC80184D6882389F337CE80916A022C
:10059000811108C08091CC02823008F0D3D7D6D226
:1005A00054D1F4CF0FB6F8940F92E091AD02F091D0
:1005B000AE02C681D781CE010296B4D68091F302F5
:1005C00081508093F30280916A02815080936A0285
:1005D0000F900FBE8F89988D0E94A010CE010E94AF
:1005E000A010D4CFF01111241FBECFEFD1E2DEBF97
:1005F000CDBF00E00CBF12E0A0E0B2E0ECEFF9E20A
:1006000000E00BBF02C007900D92A236B107D9F7E8
:1006100023E0A2E6B2E001C01D92AB3DB207E1F7D4
:1006200012E0C3EFD2E000E006C021970109802F5D
:10063000FE010E94E414C23FD10780E00807A9F739
:100640000E942F120C94FC14DBCCAF92BF92CF927D
:10065000DF92EF92FF920F931F93CF93DF936C0182
:100660007B018B01040F151FEB015E01AE18BF0863
:10067000C017D10759F06991D601ED91FC91019015
:10068000F081E02DC6011995892B79F7C501DF911D
:10069000CF911F910F91FF90EF90DF90CF90BF907F
:1006A000AF900895FC01538D448D252F30E0842FA9
:1006B00090E0821B930B541710F0CF96089501978A
:1006C0000895FC01918D828D981761F0A28DAE0F77
:1006D000BF2FB11D5D968C91928D9F5F9F73928FFE
:1006E00090E008958FEF9FEF0895FC01918D828D2A
:1006F000981731F0828DE80FF11D858D90E00895F7
:100700008FEF9FEF0895FC01918D228D892F90E04E
:10071000805C9F4F821B91098F739927089584EF06
:1007200092E0F1DF21E0892B09F420E0822F089587
:10073000FC01A48DA80FB92FB11DA35ABF4F2C9156
:10074000848D90E001968F739927848FA689B7894D
:100750002C93A089B1898C91837080648C93938D44
:10076000848D981306C00288F389E02D80818F7DE7
:1007700080830895EF92FF920F931F93CF93DF939F
:10078000EC0181E0888F9B8D8C8D98131AC0E889CD
:10079000F989808185FF15C09FB7F894EE89FF899C
:1007A0006083E889F98980818370806480839FBF3A
:1007B00081E090E0DF91CF911F910F91FF90EF903A
:1007C0000895F62E0B8D10E00F5F1F4F0F7311274A
:1007D000E02E8C8D8E110BC00FB607FCFACFE88986
:1007E000F989808185FFF5CFCE01A2DFF2CFEB8DB5
:1007F000EC0FFD2FF11DE35AFF4FF0829FB7F894E5
:100800000B8FEA89FB8980818062D0CFCF93DF9301
:10081000EC01888D8823B1F0AA89BB89E889F98920
:100820008C9185FD03C0808186FD0CC00FB607FC4E
:10083000F7CF8C9185FFF2CF808185FFEDCFCE0180
:1008400077DFEACFDF91CF91089580E090E0892BA8
:1008500021F065DF81110E94000080E090E0892B8B
:1008600049F080E090E0892B29F00E94000081117E
:100870000E94000080E090E0892B49F080E090E049
:10088000892B29F00E94000081110E94000080E065
:1008900090E0892B49F080E090E0892B29F00E94BC
:1008A000000081110C9400000895282F30E0F90118
:1008B000EC55FE4F9491F901E25AFE4F4491285EA7
:1008C0003E4FF9012491222309F435C0992311F1F7
:1008D00091509231F8F4E92FF0E08827ED58FB4F62
:1008E0008F4F0C94E414A404A80485049C04A00471
:1008F0008A04AB04B104B504BB04BF04C304C90437
:10090000CD048A04D104D704DB04809180008F7762
:1009100080938000E22FF0E0EE0FFF1FE250FF4FC8
:10092000A591B4918FB7F894EC91611148C04095AE
:100930004E234C938FBF0895809180008F7DE8CF28
:1009400080918000877FE4CF84B58F7784BDE2CF2C
:1009500084B58F7DFBCF8091B0008F778093B000FE
:10096000D9CF8091B0008F7DF9CF809190008F77A3
:1009700080939000CFCF809190008F7DF9CF8091B0
:100980009000877FF5CF8091A0008F778093A000A3
:10099000C1CF8091A0008F7DF9CF8091A000877F8B
:1009A000F5CF809120018F7780932001B3CF809184
:1009B00020018F7DF9CF80912001877FF5CF4E2BCD
:1009C000B8CF3FB7F8948091750290917602A091CC
:1009D0007702B091780226B5A89B05C02F3F19F089
:1009E0000196A11DB11D3FBFBA2FA92F982F8827AF
:1009F000BC01CD01620F711D811D911D42E0660F8A
:100A0000771F881F991F4A95D1F708952FB7F8943B
:100A100060917102709172028091730290917402E0
:100A20002FBF08951F93CF93DF9300D01F92CDB7B0
:100A3000DEB784EF92E045DE84EF92E042DE10E024
:100A40008A3371F0E1E0F0E0EC0FFD1FE10FF11DE2
:100A500017FDFA9580831F5F84EF92E032DEF0CFBE
:100A6000CE0101960E949D14182F84EF92E029DE9A
:100A70008053990B8230910518F4682F812F15DF70
:100A800084EF92E01EDE8A3011F08D30C9F784EFDA
:100A900092E02BDE8A3019F484EF92E012DE0F90A0
:100AA0000F900F900F90DF91CF911F910895FC014F
:100AB00001900020E9F73197AF01481B590BBC01A9
:100AC00084EF92E0C2CD8F929F92AF92BF920F932C
:100AD0001F93CF93DF93CDB7DEB7A1970FB6F894EE
:100AE000DEBF0FBECDBF19A2423008F44AE08E012E
:100AF0000F5D1F4F842E912CB12CA12CA5019401C8
:100B00000E94C214E62FB901CA01EA30ECF4E05D9C
:100B1000D801EE938D01232B242B252B79F790E020
:100B200080E0109711F0CD01C2DFA1960FB6F894C6
:100B3000DEBF0FBECDBFDF91CF911F910F91BF9050
:100B4000AF909F908F900895E95CE2CF8F929F9233
:100B5000AF92BF92CF92DF92EF92FF9257DF672B57
:100B6000682B692B09F4DCC051DFC0906602D0907D
:100B70006702E0906802F09069026C157D058E05B1
:100B80009F0508F4DDC0C0906602D0906702E09037
:100B90006802F09069029B01AC012C193D094E09D5
:100BA0005F0969017A013AEFC316D104E104F10447
:100BB00008F4BDC060936602709367028093680278
:100BC0009093690284EF91E0A0E0B0E080939F03EE
:100BD0009093A003A093A103B093A2031092A30348
:100BE0001092A4031092A5031092A603809197037C
:100BF00090919803A0919903B0919A0380939B03DD
:100C000090939C03A0939D03B0939E03FFDE60939B
:100C10009703709398038093990390939A0384EFBA
:100C200092E063DD843609F4FDDEF0DE6093930329
:100C3000709394038093950390939603E7DE6B0182
:100C40007C0189E192E033DF4AE061E070E080E01E
:100C500090E039DF80E292E02ADF4AE0C701B60186
:100C600032DF82E292E023DF809197039091980334
:100C7000A0919903B0919A03A7019601281B390B03
:100C80004A0B5B0BCA01B9014AE01DDF82E292E028
:100C90000EDF609197037091980380919903909172
:100CA0009A03C0909B03D0909C03E0909D03F0902A
:100CB0009E036C197D098E099F094AE004DF84E2D6
:100CC00092E0F5DEA3DE4AE0FEDE86E292E0EFDEB1
:100CD0008DE292E0ECDE9ADE6B017C014B015C015F
:100CE00035E0830E911CA11CB11C90DE6C157D05B6
:100CF0008E059F0528F086169706A806B906A8F760
:100D000084EF92E0F2DC843609F48CDE7FDE6093BF
:100D10009703709398038093990390939A0307C065
:100D200075DE623071058105910508F01DCFFF90D9
:100D3000EF90DF90CF90BF90AF909F908F900895ED
:100D400060936602709367028093680290936902D1
:100D50001ACFEBE6F1E02491E5E2F1E084918823FB
:100D600099F090E0880F991FFC01EC51FF4FA5917D
:100D7000B491FC01E250FF4F859194918FB7F894A4
:100D8000EC91E22BEC938FBF60E08DE08EDD61E0B3
:100D90008DE08BDD62D660E08DE087DD5ED6F7CF3B
:100DA0008F929F92AF92BF92CF92DF92EF92FF927B
:100DB0000F931F931092D3031092D4031092D50374
:100DC0001092D603109293031092940310929503FD
:100DD000109296031BDE6B017C014B015C0128EB3A
:100DE000820E2BE0921EA11CB11C10DE6C157D053D
:100DF0008E059F0528F086169706A806B906A8F75F
:100E0000E0DD4B015C0188EEC82E83E0D82EE12C9A
:100E1000F12CD7DD681979098A099B09683E73406E
:100E200081059105B0F381E0C81AD108E108F10805
:100E300028EE820E23E0921EA11CB11CC114D10425
:100E4000E104F10431F7E0910403F091050382E03D
:100E50008083E0910003F09101031082E09102038E
:100E6000F091030380E1808310920C03E09108036A
:100E7000F091090386E08083E0910603F091070377
:100E8000808180618083E0910603F0910703808177
:100E900088608083E0910603F09107038081806879
:100EA0008083E0910603F091070380818F7D80832A
:100EB000ADDD6093930370939403809395039093B7
:100EC000960380E392E0F3DDA1DD6B017C014B0131
:100ED0005C018AE0880E911CA11CB11C97DD6C1589
:100EE0007D058E059F0528F086169706A806B9068B
:100EF000A8F781E08093A70389DD60939303709343
:100F00009403809395039093960381E492E0CFDD60
:100F100010E000E021E040E850E068E472E089EA97
:100F200096E00E94C9101F910F91FF90EF90DF9003
:100F3000CF90BF90AF909F908F9008951F920F9287
:100F40000FB60F9211240BB60F922F933F934F932E
:100F50005F936F937F938F939F93AF93BF93EF9321
:100F6000FF9384EF92E0E4DBFF91EF91BF91AF91AB
:100F70009F918F917F916F915F914F913F912F91B1
:100F80000F900BBE0F900FBE0F901F9018951F92E1
:100F90000F920FB60F9211240BB60F922F938F93CF
:100FA0009F93EF93FF93E0910403F09105038081F9
:100FB000E0910A03F0910B0382FD1DC090818091A6
:100FC0000D038F5F8F7320910E03821741F0E09124
:100FD0000D03F0E0EC50FD4F958F80930D03FF91D2
:100FE000EF919F918F912F910F900BBE0F900FBE9D
:100FF0000F901F9018958081F2CF1F920F920FB61D
:101000000F9211242F933F938F939F93AF93BF938E
:101010008091710290917202A0917302B09174025A
:101020003091700223E0230F2D3758F50196A11D52
:10103000B11D209370028093710290937202A0936D
:101040007302B09374028091750290917602A09120
:101050007702B09178020196A11DB11D80937502AF
:1010600090937602A0937702B0937802BF91AF91EC
:101070009F918F913F912F910F900FBE0F901F90D6
:10108000189526E8230F0296A11DB11DD2CFE0913D
:101090009D02F0919E028081811107C08FEF9FEF2A
:1010A00090939202809391020895E0919D02F091B5
:1010B0009E020580F681E02D80819181F1CFFC01B7
:1010C000DB010FB6F8940F9240919802509199026B
:1010D0002D913C9111972F3F320711F1818192811F
:1010E00060919A027081761749F04817590730F0DD
:1010F0001D921C9281E00F900FBE0895481B590B62
:1011000042175307A8F7241B350B2D933C9380916E
:101110009A028083809198029091990292838183B0
:1011200080E0E9CFCF93DF93DC011596ED91FC9140
:101130000680F781E02DA489B58986859785208969
:101140003189EC013D832C83C089D1899B838A83BB
:10115000CF010C9611962D913C91129728173907C3
:1011600021F41296DC93CE931197158A148A2C9150
:1011700021502C9320919502211157C0A285B3854F
:101180008481958126813781EC013D832C83C68142
:10119000D7819B838A83CF01029611962D913C9132
:1011A00012972817390721F41296DC93CE931197E2
:1011B000138612862C9121502C93C6892091F0021F
:1011C0002C1710F4C093F00229E02C9FE0011124A9
:1011D000C453DD4F0980DA81C02DD583C4834C818F
:1011E0005D8157834683AC81BD8113969C938E931A
:1011F00012979D838C83A689A29FD0011124A453AA
:10120000BD4FB387A2878C918F5F8C93A0916202B0
:10121000B0916302968956968C91891730F581E0DA
:1012200080936D02DF91CF910895A091B202B091A9
:10123000B302B787A68714962D913C911597318BF1
:10124000208B1496CD91DC9115979B838A831596FC
:101250009C938E93149781EB92E0958B848B809175
:10126000B1028F5F8093B102D1CF80E0DBCF0FB6A8
:10127000F8940F9280919802909199020F900FBE6E
:101280000895809195028F5F8093950208950FB61F
:10129000F8940F92FC01928D0F900FBE81E0911196
:1012A00080E00895EF92FF920F931F93CF93DF9307
:1012B000EC010FB6F8940F921E8D7C0181E1E80ECF
:1012C000F11C01E01116D4F08FEF8E8F0F900FBE3E
:1012D0000FB6F8940F921D8D7E0188E0E80EF11C88
:1012E00001E01116ACF08FEF8D8F0F900FBEDF91E4
:1012F000CF911F910F91FF90EF90089589898823D6
:1013000019F3C7010FDF811100936D021150DACF7D
:101310008885882341F3C70105DF811100936D02A1
:101320001150DFCFCF93DF93FC01A085B18582817F
:10133000938124813581EC013D832C83C481D58147
:101340009B838A8311968D919C9112978E179F078C
:1013500021F41296DC93CE931197118610868C910E
:1013600081508C938C91DF91CF9108950F931F93AF
:10137000CF93DF938C01FB0180819181D80113967B
:101380008F3F9807F1F4E801AF81B88512968D91EF
:101390009C91139793838283EC01FD83EC83B58347
:1013A000A4831396FC93EE93129711870087F8019C
:1013B00080818F5F8083DF91CF911F910F9108957E
:1013C000D90112962D913C911397E90148815981D9
:1013D00084179507A8F7DACFFC017383628391879E
:1013E00080874617570788F0421B530B84859585E5
:1013F00048175907C0F4BF016E5F7F4F8091790293
:1014000090917A02B3DF80E008954217530718F4F1
:101410006217730740F4BF016E5F7F4F80917B02BC
:1014200090917C02EFCF81E00895FF920F931F937C
:10143000CF93DF93EC01F62E009198021091990260
:10144000809162029091630202966CDFCF3FDC07CD
:10145000E9F5FF20D9F1E091A002F091A102A0915D
:101460006202B09163021596FC93EE931497A091DB
:101470006202B09163028481958117969C938E934A
:1014800016978091620290916302A481B5810296C1
:1014900013969C938E9312978091620290916302AF
:1014A000029695838483E0916202F09163028FE952
:1014B00092E09387828780919F028F5F80939F0243
:1014C000DF91CF911F910F91FF900895C00FD11F11
:1014D000E0916202F0916302D383C2836091620261
:1014E00070916302C017D10760F480919B029091C4
:1014F0009C026E5F7F4FDF91CF911F910F91FF9004
:1015000035CF80919D0290919E026E5F7F4F2EDFBE
:101510008091910290919202C817D90788F6D093D2
:101520009202C0939102CCCFFC01039692838183F7
:101530002FEF3FEF348323839683858390878783C0
:10154000108208950F920FB6F8940F920BB60F9277
:101550000CB60F921F9211242F923F924F925F92DE
:101560006F927F928F929F92AF92BF92CF92DF92B3
:10157000EF92FF920F931F932F933F934F935F939D
:101580006F937F938F939F93AF93BF93CF93DF938B
:10159000EF93FF93A0916202B09163020DB60D929A
:1015A0000EB60D9280919502882321F081E0809300
:1015B0006D025FC010926D02A0916202B091630251
:1015C000E0916202F09163022D913C918789908DA8
:1015D00082179307A8F08091620290916302809134
:1015E000620290916302279A2F9A2FEF87EA91E681
:1015F000215080409040E1F700C000001F9AF5CFD5
:101600002091F00289E001C02150422F50E0849FD8
:10161000F001859FF00D1124E453FD4F9081992333
:1016200099F3A181B28112960D90BC91A02DB28345
:10163000A183289FC001112481539D4FA817B9078A
:1016400029F412968D919C919283818389E0849FE5
:10165000F001859FF00D1124E453FD4F0180F281CC
:10166000E02D86819781909363028093620220939C
:10167000F002A0916202B0916302CD91CDBFDD91E5
:10168000DEBFFF91EF91DF91CF91BF91AF919F911D
:101690008F917F916F915F914F913F912F911F910A
:1016A0000F91FF90EF90DF90CF90BF90AF909F9001
:1016B0008F907F906F905F904F903F902F901F90F2
:1016C0000F900CBE0F900BBE0F900FBE0F900895A1
:1016D0008F929F92BF92CF92DF92EF92FF920F93E1
:1016E0001F93CF93DF930FB6F8940F9280919502DA
:1016F00081508093950280919502882379F080E053
:101700000F900FBEDF91CF911F910F91FF90EF903F
:10171000DF90CF90BF909F908F9008958091F302BB
:10172000882369F3E090B602F090B702F0E0E0E0C1
:1017300039E041E08091B10281115CC0EF2B09F0EA
:10174000A6DCE0906B02F0906C02E114F10409F465
:101750007CC189E0D82ECC24C3940FEF1FEF809179
:101760009502811160C1C0919802D09199024E01F9
:101770008FEF881A980A90929902809298028114A9
:101780009104B1F480919D0290919E0220919B0260
:1017900030919C0230939E0220939D0290939C0274
:1017A00080939B0280919A028F5F80939A026FDCF4
:1017B0008091910290919202B12C8816990608F0BE
:1017C00026C1E0916202F0916302E689DE9EF0019B
:1017D0001124E453FD4F8081823010F0BB24B39478
:1017E00080916D02811103C0BB2009F425C1C09214
:1017F0006D0222C1D7011696ED91FC91A489B5899D
:101800006685778580899189EB019D838C838089AA
:101810009189EC017B836A83BF01645F7F4F1196DE
:101820000D911C9112970617170721F412969C939D
:101830008E931197158A148A8C9181508C93A2856E
:10184000B3858481958166817781EC017D836C838A
:1018500066817781EB019B838A83CF010296119683
:101860000D911C9112970817190721F412967C9379
:101870006E931197138612862C9121502C93A68972
:101880002091F0022A1710F4A093F0023A9FD001A1
:101890001124A453BD4F11960D90BC91A02DB5837A
:1018A000A48314966D917C91159777836683149623
:1018B0006D917C911597EB019B838A8315969C9380
:1018C0008E9314979689939FD0011124A453BD4FF2
:1018D000B387A2878C918F5F8C93A0916202B091A5
:1018E000630256968C91981708F424CF40936D02AA
:1018F00021CFE0919D02F0919E020580F681E02DBE
:101900000680F781E02D828193818816990628F45C
:10191000909392028093910254CFC285D3858481A3
:10192000958126813781DC0115963C932E9314977F
:1019300026813781D90113969C938E931297CF01FC
:10194000029649815A814817590711F43A8329832D
:1019500013861286288121502883A489B58910977F
:10196000F9F02685378540895189E9015D834C83EB
:1019700040895189EA013B832A8311966D917C91BC
:1019800012979F01245F3F4F6217730721F412964D
:101990005C934E931197158A148A2C9121502C93A5
:1019A000A6892091F0022A1710F4A093F002DA9E83
:1019B000D0011124A453BD4F11960D90BC91A02DC0
:1019C000B583A48314962D913C9115973783268374
:1019D00014962D913C911597E9019B838A83159666
:1019E0009C938E93149796899D9DD0011124A453A6
:1019F000BD4FB387A2878C918F5F8C93E091620279
:101A0000F09163028689981710F0BB24B394E0919B
:101A10009D02F0919E02808181116BCF1093920202
:101A200000939102CECE80916B0290916C02019650
:101A300090936C0280936B02D1E0ED1AF10809F0EB
:101A40008ECE10926C0210926B0280916D028823F0
:101A500009F455CE77DD81E053CE13DC60E08FE1F1
:101A600090E0E3DC35DE811101C06CCD0895AF92CA
:101A7000BF92CF92DF92EF92FF920F931F93CF937B
:101A8000DF9300D01F921F92CDB7DEB78C017B0190
:101A90001D821C8280E0680198E0C90ED11C0FB63F
:101AA000F8940F92D8015A962C915A975B969C9174
:101AB0005B97291708F0ACC05A96DC905A975C9651
:101AC0004C915C9741118AC08D919C91892B11F0AA
:101AD00080E00AC0F801E480F580E114F10429F502
:101AE00080E0F80115821482D394D8015A96DC92D2
:101AF0005A9751969C91992319F0C801419612DB8F
:101B0000811120DD0F900FBE81E00F900F900F909C
:101B10000F900F90DF91CF911F910F91FF90EF9059
:101B2000DF90CF90BF90AF900895D70192968C919F
:101B30009297815092968C93929756962C915697A5
:101B400091969C91291761F28111CACF5701B2E099
:101B5000AB0EB11CC501E6DBF70181A1868B482FD6
:101B600050E024E030E0241B350B3587248790912A
:101B7000F002981710F48093F00289E0849FD0015E
:101B8000859FB00D1124A453BD4F11960D90BC91AB
:101B9000A02DF701B583A48314962D913C91159740
:101BA000378326831496ED91FC911597B382A28218
:101BB0001596BC92AE921497D7015696EC91569713
:101BC000E89FF0011124E453FD4F1B96FC93EE9324
:101BD0001A9780818F5F808381E083CF50E0B701C7
:101BE00012968D919C91F8D6F801848D22813381D3
:101BF000820F932F911D93838283248135818217D5
:101C0000930708F465CF808191819383828360CFAD
:101C10002C813D81232B21F40F900FBE80E075CFE6
:101C2000811109C080919A028983809198029091D4
:101C300099029B838A830F900FBE23DB0FB6F89423
:101C40000F92F801858D8F3F09F4158ED8015E96AD
:101C50008C915E978F3F11F45E961C920F900FBE91
:101C6000BE016C5F7F4FCE01019629DA811123C03E
:101C70000FB6F8940F92F801928D838D0F900FBEDE
:101C8000981315C0AC80BD806091620270916302B0
:101C9000645F7F4FC6016ADB61E0C501C6DBC80136
:101CA00001DB16DD811101C04DDC81E0F8CEC801F9
:101CB000F9DA0EDDFACFC801F5DA0ADDAFCFCF933E
:101CC000DF9300D01F921F92CDB7DEB79C018091A9
:101CD0009602909197020097B1F019827B836A83F4
:101CE0003D832C832091F202BE016F5F7F4F211153
:101CF00020919502BCDE0F900F900F900F900F90E7
:101D0000DF91CF91089580E0F6CFEF92FF920F938D
:101D10001F93CF93DF93E0917B02F0917C0280814F
:101D2000811113C08091790290917A0290937C0284
:101D300080937B02F0937A02E0937902DF91CF9156
:101D40001F910F91FF90EF9008950580F681E02D8F
:101D500000811181C681D7817E0182E0E80EF11CED
:101D6000C701E0DAE889F989CE0119958A8982FFED
:101D7000D2CF8C859D85800F911F0817190758F4C5
:101D80009B838A83D987C887B70180917B02909112
:101D90007C02ECDAC0CFB801CE0191DFBCCF0F924C
:101DA0000FB6F8940F920BB60F920CB60F921F92CB
:101DB00011242F923F924F925F926F927F928F9257
:101DC0009F92AF92BF92CF92DF92EF92FF920F93CA
:101DD0001F932F933F934F935F936F937F938F93B3
:101DE0009F93AF93BF93CF93DF93EF93FF93A09114
:101DF0006202B09163020DB60D920EB60D9213BE43
:101E0000809195028111F9C0809198029091990278
:101E100001969093990280939802009781F5209102
:101E20009D0230919E0240919B0250919C025093E2
:101E30009E0240939D0230939C0220939B0220912E
:101E40009A022F5F20939A02E0919D02F0919E02E8
:101E50002081211107C02FEF3FEF30939202209392
:101E600091020DC0E0919D02F0919E020580F681E5
:101E7000E02D2081318130939202209391022091B4
:101E80009102309192028217930710F420E0A1C0D2
:101E900020E039E0D32EE0919D02F0919E02308146
:101EA000311107C08FEF9FEF9093920280939102C0
:101EB00090C0E0919D02F0919E020580F681E02D98
:101EC0000680F781E02D428153818417950728F41D
:101ED00050939202409391027CC0A285B3854481C5
:101EE000558166817781EA017D836C836681778184
:101EF000EB015B834A83AF014E5F5F4F11960D91FB
:101F00001C9112970417150721F412967C936E9377
:101F10001197138612863C9131503C93A489B58960
:101F20001097F9F06685778500891189EB011D838B
:101F30000C8300891189E8017B836A831196ED90F7
:101F4000FC901297BF01645F7F4FE616F70621F4FD
:101F500012961C930E931197158A148A3C91315056
:101F60003C93A6893091F0023A1710F4A093F00246
:101F7000DA9ED0011124A453BD4F11960D90BC914F
:101F8000A02DB583A48314966D917C9115977783CA
:101F9000668314966D917C911597EB015B834A8360
:101FA00015965C934E93149746894D9DD00111244C
:101FB000A453BD4FB387A2873C913F5F3C93E09110
:101FC0006202F09163023689431708F464CF21E07E
:101FD00062CFE0916202F0916302E689D9E0ED9F61
:101FE000F0011124E453FD4F8081823008F021E09C
:101FF00080916D0281110EC00AC080916B02909198
:102000006C02019690936C0280936B026AC022234B
:1020100009F467C080919502882321F081E08093C4
:102020006D025FC010926D02A0916202B0916302D6
:10203000E0916202F09163022D913C918789908D2D
:1020400082179307A8F080916202909163028091B9
:10205000620290916302279A2F9A2FEF87EA91E606
:10206000215080409040E1F700C000001F9AF5CF5A
:102070002091F00289E001C02150422F50E0849F5E
:10208000F001859FF00D1124E453FD4F90819923B9
:1020900099F3A181B28112960D90BC91A02DB283CB
:1020A000A183289FC001112481539D4FA817B90710
:1020B00029F412968D919C919283818389E0849F6B
:1020C000F001859FF00D1124E453FD4F0180F28152
:1020D000E02D868197819093630280936202209322
:1020E000F002A0916202B0916302CD91CDBFDD916B
:1020F000DEBFFF91EF91DF91CF91BF91AF919F91A3
:102100008F917F916F915F914F913F912F911F918F
:102110000F91FF90EF90DF90CF90BF90AF909F9086
:102120008F907F906F905F904F903F902F901F9077
:102130000F900CBE0F900BBE0F900FBE0F90089526
:10214000CF93DF93009739F0EC019BD8CE016CD38D
:10215000DF91CF91BDCADF91CF910895CF93DF93E7
:10216000EC018FD8CE01C4D2EC01B2DA209769F429
:10217000279A2F9A2FEF80E792E0215080409040DD
:10218000E1F700C000001F9AF5CFCE01DF91CF919B
:1021900008957F928F929F92AF92BF92CF92DF92DB
:1021A000EF92FF920F931F93CF93DF93982EA92E58
:1021B000762E872E7A01B22ECA01D0DF6C01892BD0
:1021C00009F4EBC088E290E0C9DFEC01892B09F447
:1021D000E2C0D88ECF8AA70165EA70E0C60105D4B7
:1021E00081E0E81AF108EF89F88DEE0DFF1D672DEB
:1021F000782DCE0149969B01285F3F4FDB014D9121
:10220000BD01DC014D93CD01AB0141505109DA0113
:102210004C91442319F06217730781F718A2BE8A04
:10222000B9A21AA21B861A861D8A1C8AD987C8875A
:1022300084E090E08B1991099D878C87DB8BCA8B9A
:1022400084E09E012D5D3F4FD9011D928A95E9F7EB
:102250001FA29082DF011197AC9211971C921197E7
:102260001C92119780E88C9311971C9211971C92E5
:1022700011971C9257971C9211971C92B697F9834D
:10228000E8830115110519F0F801D183C0830FB659
:10229000F8940F928091F3028F5F8093F302809104
:1022A000620290916302892B09F086C0D093630289
:1022B000C09362028091F302813039F58CEC92E098
:1022C00033D985ED92E030D98EED92E02DD987EEAD
:1022D00092E02AD983EC92E027D98AEB92E024D9C4
:1022E00081EB92E021D988EA92E01ED98FE992E051
:1022F0001BD983EC92E090939E0280939D028AEB1F
:1023000092E090939C0280939B028091F1028F5FF8
:102310008093F102AE898091F0028A1710F4A093A5
:10232000F00229E02A9FD0011124A453BD4F119639
:102330000D90BC91A02DBD83AC8314968D919C9182
:1023400015979F838E831496ED91FC911597CE017E
:1023500002969383828315969C938E931497EE89AD
:10236000E29FF0011124E453FD4FFB87EA8780814F
:102370008F5F80830F900FBE8091F202882349F017
:10238000E0916202F091630296898E89981708F4B1
:10239000D9D881E003C0C601D3DE8FEFDF91CF91A2
:1023A0001F910F91FF90EF90DF90CF90BF90AF9073
:1023B0009F908F907F9008958091F2028111A5CF18
:1023C000E0916202F091630296898E89891708F480
:1023D0009CCFD0936302C093620297CFE0DC189544
:1023E000E4EFF2E01382128288EE93E0A0E0B0E026
:1023F00084839583A683B7838BE092E09183808367
:1024000085EC90E09587848784EC90E097878687B9
:1024100080EC90E0918B808B81EC90E0938B828BB1
:1024200082EC90E0958B848B86EC90E0978B868B8A
:10243000118E128E138E148EE1E9F3E0168217824C
:1024400010861186128613861486158616861786C0
:10245000108A118A128A138A148A158A0895789428
:1024600084B5826084BD84B5816084BD85B5826099
:1024700085BD85B5816085BD80916E00816080934A
:102480006E001092810080918100826080938100B3
:1024900080918100816080938100809180008160C3
:1024A000809380008091B10084608093B10080911E
:1024B000B00081608093B000809191008260809331
:1024C00091008091910081608093910080919000B3
:1024D0008160809390008091A10082608093A10030
:1024E0008091A10081608093A1008091A000816013
:1024F0008093A000809121018260809321018091CE
:10250000210181608093210180912001816080936D
:10251000200180917A00846080937A0080917A0013
:10252000826080937A0080917A00816080937A0043
:1025300080917A00806880937A001092C100209187
:102540000502309106028FEF91E2821B930B90936C
:102550000202809301020E94D00603E912E020E00B
:1025600040EC50E064E572E086EC92E012DE8130EF
:1025700009F0B5C00FB6F8940F9280919602909131
:102580009702892B09F04EC086E892E00E94940AD7
:102590008DE792E00E94940A86E892E090937C0294
:1025A00080937B028DE792E090937A028093790288
:1025B00081E590E0D3DDEC01009781F14F9699839E
:1025C00088838AE08B8F85E08C8F0FB6F8940F920A
:1025D000888199812B8D4C8DBC01249F600D711DCC
:1025E00011247D836C831A8E9B838A832150330B45
:1025F000429FB001439F700D1124860F971F9F8348
:102600008E838FEF8D8F8E8FCE0108960E94940A55
:10261000CE0141960E94940A0F900FBED09397026C
:10262000C09396020F900FBE8091960290919702F0
:10263000892B09F454C00FE812E023E045E550E08F
:1026400069E572E085EF90E0A4DD813009F047C0D4
:10265000F8942FEF3FEF30939202209391028093F2
:10266000F2021092990210929802A89588E190ECDB
:102670000FB6F894A895809360000FBE9093600009
:10268000A0916202B0916302CD91CDBFDD91DEBF1A
:10269000FF91EF91DF91CF91BF91AF919F918F917A
:1026A0007F916F915F914F913F912F911F910F916A
:1026B000FF90EF90DF90CF90BF90AF909F908F9062
:1026C0007F906F905F904F903F902F901F900F9052
:1026D0000CBE0F900BBE0F900FBE0F90089580910F
:1026E00000020E94D0060E94A6050E942504FBCF8E
:1026F0000F931F93CF93DF938230910510F482E004
:1027000090E0E091D903F091DA0330E020E0B0E00E
:10271000A0E0309799F42115310509F44AC0281B2F
:10272000390B24303105D8F58A819B8161157105FB
:1027300089F1FB0193838283FE0111C040815181A5
:102740000281138148175907E0F04817590799F497
:10275000109761F012960C93129713961C93329671
:10276000CF01DF91CF911F910F9108950093D9036D
:102770001093DA03F4CF2115310551F042175307B6
:1027800038F0A901DB019A01BD01DF01F801C1CFD9
:10279000EF01F9CF9093DA038093D903CDCFFE01F7
:1027A000E20FF31F819391932250310939832883DB
:1027B000D7CF2091D7033091D803232B41F4209118
:1027C0000302309104023093D8032093D703209161
:1027D0000102309102022115310541F42DB73EB7B7
:1027E0004091050250910602241B350BE091D7035E
:1027F000F091D803E217F307A0F42E1B3F0B281724
:10280000390778F0AC014E5F5F4F2417350748F069
:102810004E0F5F1F5093D8034093D703819391933A
:102820009FCFF0E0E0E09CCFCF93DF930097E9F0FB
:10283000FC01329713821282A091D903B091DA037E
:10284000ED0130E020E01097A1F420813181820F6A
:10285000931F2091D7033091D8032817390709F027
:1028600061C0F093D803E093D703DF91CF9108952F
:10287000EA01CE17DF07E8F54A815B819E01411529
:102880005105B1F7E901FB83EA8349915991C40FDE
:10289000D51FEC17FD0761F4808191810296840FAA
:1028A000951FE90199838883828193819B838A8321
:1028B000F0E0E0E012968D919C9113970097B9F5A6
:1028C0002D913C911197CD010296820F931F20917B
:1028D000D7033091D8032817390739F6309751F5C7
:1028E0001092DA031092D903B093D803A093D703C0
:1028F000BCCFD383C28340815181840F951FC817F9
:10290000D90761F44E5F5F4F88819981480F591F45
:10291000518340838A819B81938382832115310572
:1029200009F0B0CFF093DA03E093D9039ECFFD0115
:10293000DC01C0CF13821282D7CFFC0188279927F0
:10294000E89421912032E9F3293010F02E30C8F3B9
:102950002B3239F02D3231F4689403C00BD0820F42
:10296000911D219120532A30C8F31EF49095819532
:102970009F4F08957AE0979F902D879F802D910D0E
:1029800011240895A1E21A2EAA1BBB1BFD010DC044
:10299000AA1FBB1FEE1FFF1FA217B307E407F5070F
:1029A00020F0A21BB30BE40BF50B661F771F881FEB
:1029B000991F1A9469F760957095809590959B0181
:1029C000AC01BD01CF010895EE0FFF1F881F8BBF23
:1029D0000790F691E02D1994FB01DC0102C00190F3
:1029E0000D9241505040D8F70895DC0101C06D931D
:0C29F00041505040E0F70895F894FFCFEC
:1029FC00030000DB03800000000000BA0325035233
:102A0C00030604830361037503564D4450455F0070
:102A1C003A323A007C005F564D445045000D0A0096
:102A2C00564D4450565F317C315F564D4450560ADA
:102A3C0000564D4450525F00426C696E6B20313031
:102A4C0030487A0049444C4500546D7220537663EB
:022A5C00000078
:020000023000CC
:10E000000D9489F10D94B2F10D94B2F10D94B2F129
:10E010000D94B2F10D94B2F10D94B2F10D94B2F1F0
:10E020000D94B2F10D94B2F10D94B2F10D94B2F1E0
:10E030000D94B2F10D94B2F10D94B2F10D94B2F1D0
:10E040000D94B2F10D94B2F10D94B2F10D94B2F1C0
:10E050000D94B2F10D94B2F10D94B2F10D94B2F1B0
:10E060000D94B2F10D94B2F10D94B2F10D94B2F1A0
:10E070000D94B2F10D94B2F10D94B2F10D94B2F190
:10E080000D94B2F10D94B2F10D94B2F10D94B2F180
:10E090000D94B2F10D94B2F10D94B2F10D94B2F170
:10E0A0000D94B2F10D94B2F10D94B2F10D94B2F160
:10E0B0000D94B2F10D94B2F10D94B2F10D94B2F150
:10E0C0000D94B2F10D94B2F10D94B2F10D94B2F140
:10E0D0000D94B2F10D94B2F10D94B2F10D94B2F130
:10E0E0000D94B2F141546D656761323536300041AF
:10E0F000726475696E6F206578706C6F72657220DE
:10E1000073746B3530305632206279204D4C530099
:10E11000426F6F746C6F616465723E004875683F52
:10E1200000436F6D70696C6564206F6E203D200048
:10E130004350552054797065202020203D20005FF9
:10E140005F4156525F415243485F5F3D2000415658
:10E1500052204C696243205665723D20004743437C
:10E160002056657273696F6E203D20004350552024
:10E1700049442020202020203D20004C6F7720663D
:10E18000757365202020203D20004869676820665F
:10E190007573652020203D200045787420667573D6
:10E1A00065202020203D20004C6F636B2066757336
:10E1B000652020203D20004D617220203720323024
:10E1C000313300312E362E3800342E332E350056A2
:10E1D00023202020414444522020206F7020636F70
:10E1E00064652020202020696E73747275637469E1
:10E1F0006F6E2061646472202020496E74657272B3
:10E20000757074006E6F20766563746F7200726A49
:10E210006D702020006A6D70200057686174207056
:10E220006F72743A00506F7274206E6F7420737541
:10E2300070706F72746564004D7573742062652030
:10E2400061206C6574746572002000577269747483
:10E25000696E672045450052656164696E672045B7
:10E26000450045452065727220636E743D00504F35
:10E27000525400303D5A65726F2061646472003FF1
:10E280003D43505520737461747300403D454550C3
:10E29000524F4D207465737400423D426C696E6B41
:10E2A000204C454400453D44756D70204545505215
:10E2B0004F4D00463D44756D7020464C415348001B
:10E2C000483D48656C70004C3D4C69737420492F83
:10E2D0004F20506F72747300513D51756974005234
:10E2E0003D44756D702052414D00563D73686F7707
:10E2F00020696E7465727275707420566563746FF0
:10E30000727300593D506F727420626C696E6B00BD
:10E310002A0011241FBECFEFD1E2DEBFCDBF01E046
:10E320000CBF12E0A0E0B2E0EEE1FDEF03E00BBFB6
:10E3300002C007900D92A030B107D9F712E0A0E01B
:10E34000B2E001C01D92AE30B107E1F70F9460F367
:10E350000D948DFE01E20EBF0FEF0DBF11241FBE05
:10E360000D9460F30D9400F020E030E040ED57E0B4
:10E3700005C0FA013197F1F72F5F3F4F2817390792
:10E38000C0F308959C01260F311DC901A0E0B0E043
:10E390002F5F3F4FABBFFC018791882361F08093D3
:10E3A000C6008091C00086FFFCCF8091C0008064D1
:10E3B0008093C000EACF08958DE08093C6008091DD
:10E3C000C00086FFFCCF8091C00080648093C000B5
:10E3D0008AE08093C6008091C00086FFFCCF8091C8
:10E3E000C00080648093C00008950F94C2F10F9420
:10E3F000DCF10895FC019081992359F09093C600B7
:10E400008091C00086FFFCCF8091C0008064809323
:10E41000C0003196992379F70895282F982F929567
:10E420009F70892F805D8A3308F0895F8093C600D2
:10E430008091C00086FFFCCF8091C00080648093F3
:10E44000C000822F8F70982F905D9A3308F0995FEB
:10E450009093C6008091C00086FFFCCF8091C000E1
:10E4600080648093C00008959C01FB01853691056E
:10E470001CF46330710594F0C90164E670E00F94F8
:10E480002EFE605D7F4F6093C6008091C00086FFC6
:10E49000FCCF8091C00080648093C0002B30310598
:10E4A00014F43297B4F0C90164E670E00F942EFEC4
:10E4B0006AE070E00F942EFE605D7F4F6093C600AF
:10E4C0008091C00086FFFCCF8091C0008064809363
:10E4D000C000C9016AE070E00F942EFEC0968093E0
:10E4E000C6008091C00086FFFCCF8091C000806490
:10E4F0008093C00008951F93182F8EE692EE60E07F
:10E500000F94C2F11093C6008091C00086FFFCCF2B
:10E510008091C00080648093C0000F94DCF11F9153
:10E5200008952F923F924F925F926F927F928F92B7
:10E530009F92AF92BF92CF92DF92EF92FF920F9392
:10E540001F93DF93CF93CDB7DEB762970FB6F894E2
:10E55000DEBF0FBECDBF382E622ECA01DB015C01CB
:10E560006D01772420E2222E2E010894411C511CBB
:10E570008BC081E0A81680E0B80681E0C80680E084
:10E58000D80628F0C601AA27BB270F940DF2BB2797
:10E59000AD2D9C2D8B2D0F940DF28A2D0F940DF225
:10E5A0002092C6008091C00086FFFCCF8091C00001
:10E5B00080648093C0009DE29093C6008091C0006B
:10E5C00086FFFCCF8091C00080648093C0002092C1
:10E5D000C6008091C00086FFFCCF8091C00080649F
:10E5E0008093C00019828601750188249924A1E0D6
:10E5F0003A1651F03A1620F0B2E03B1661F409C029
:10E600000BBFF701779007C0C7010F9477FE782EF4
:10E6100002C0F7017080872D0F940DF22092C60082
:10E620008091C00086FFFCCF8091C0008064809301
:10E63000C000872D8052F401EF70F0708F3520F408
:10E64000E40DF51D708204C0E40DF51D8EE280839B
:10E650000894E11CF11C011D111D0894811C911CE2
:10E6600090E18916910409F0C2CF80E190E0A0E02A
:10E67000B0E0A80EB91ECA1EDB1E198AC2010F9493
:10E68000FAF10F94DCF16A94662009F072CF629679
:10E690000FB6F894DEBF0FBECDBFCF91DF911F91B3
:10E6A0000F91FF90EF90DF90CF90BF90AF909F9031
:10E6B0008F907F906F905F904F903F902F90089534
:10E6C0002F923F924F925F926F927F928F929F9282
:10E6D000AF92BF92CF92DF92EF92FF920F931F9370
:10E6E000DF93CF93CDB7DEB7CD53D1400FB6F894BB
:10E6F000DEBF0FBECDBF01E20EBF0FEF0DBF94B75F
:10E70000F894A89514BE80916000886180936000A1
:10E7100010926000789493FF05C0E0910002F091A0
:10E7200001021995279A2F9A8091C00082608093E8
:10E73000C00080E18093C40088E18093C1000000A4
:10E74000EE24FF24870144E0A42EB12CCC24DD2448
:10E7500024C0C5010197F1F70894E11CF11C011DCB
:10E76000111D21E2E2162EE4F20620E0020720E06D
:10E77000120718F031E0C32ED12CC801B70127ECE5
:10E780003BE140E050E00F9441FE611571058105C9
:10E79000910519F485B1805885B98091C00087FD35
:10E7A00003C0C114D104A9F2A6014F5F5F4FC25E3E
:10E7B000DE4F59834883CE51D140C25EDE4F8881FF
:10E7C0009981CE51D140019711F00D9410FEC05D9A
:10E7D000DE4F19821882C053D14060E0C15DDE4F28
:10E7E0001882CF52D14088249924C35DDE4F19820C
:10E7F0001882CD52D140C05EDE4F188219821A8233
:10E800001B82C052D140CE5CDE4F188219821A8220
:10E810001B82C253D140EE24FF2487010BBFF701B6
:10E8200007911691C45CDE4F19830883CC53D14005
:10E830000D940BFEC25EDE4F28813981CE51D1404E
:10E840002130310509F52091C600C25EDE4F1982E4
:10E850001882CE51D14022C02F5F3F4F4F4F5F4FA4
:10E86000213082E138078AE7480780E0580780F0C6
:10E87000C45CDE4FE881F981CC53D140EF5FFF4F9C
:10E8800019F0EE27FF27099420E030E040E050E047
:10E890008091C00087FFE0CF2091C600C35DDE4FAE
:10E8A00048815981CD52D1404F5F5F4FC35DDE4FEC
:10E8B00059834883CD52D140213209F063C64A3092
:10E8C000510508F05FC60894811C911C53E0851621
:10E8D000910409F059C600E010E018C081E280936D
:10E8E000C6008091C00086FFFCCF8091C00080648C
:10E8F0008093C0002F5F3F4F2931310579F70F9486
:10E90000DCF10F5F1F4F0530110519F020E030E0FA
:10E91000E5CF10920A0210920B0210920C02109294
:10E920000D02109206021092070210920802109235
:10E930000902109202021092030210920402109235
:10E9400005028FEE90EE60E00F94F5F180E191EE1C
:10E9500060E00F94C2F18091C00087FFFCCF9091DE
:10E96000C600903608F09F759032B8F09093C600BC
:10E970008091C00086FFFCCF8091C00080648093AE
:10E98000C000A0E2A093C6008091C00086FFFCCF2B
:10E990008091C00080648093C000983409F4D7C18E
:10E9A0009934B8F4923409F459C1933458F490333B
:10E9B00019F1903308F4E3C59F33A1F1903409F0C5
:10E9C000DEC5BDC0953409F470C1963409F0D7C5D1
:10E9D00098C1923509F42BC2933538F49C3409F46C
:10E9E000F5C1913509F0CBC518C2963509F445C279
:10E9F000993509F0C4C567C483E792EE62E00F94CD
:10EA0000F5F110920602109207021092080210927D
:10EA1000090210920A0210920B0210920C0210923C
:10EA20000D0213C18FE792EE62E00F94F5F18FEEC5
:10EA300090EE60E00F94F5F181E291EE60E00F94CA
:10EA4000C2F187EB91EE60E00F94F5F180E391EE77
:10EA500060E00F94C2F184EE90EE60E00F94F5F167
:10EA60008FE391EE60E00F94C2F186E090E061E008
:10EA700070E00F9434F20F94DCF18DE591EE60E0DC
:10EA80000F94C2F189EC91EE60E00F94F5F18EE401
:10EA900091EE60E00F94C2F183EC91EE60E00F9490
:10EAA000F5F18CE691EE60E00F94C2F18EE10F94E7
:10EAB0000DF288E90F940DF281E00F940DF20F949E
:10EAC000DCF18BE791EE60E00F94C2F119E0E0E039
:10EAD000F0E010935700E4918E2F0F940DF20F94F5
:10EAE000DCF18AE891EE60E00F94C2F1E3E0F0E03F
:10EAF00010935700E4918E2F0F940DF20F94DCF1D8
:10EB000089E991EE60E00F94C2F1E2E0F0E0109349
:10EB10005700E4918E2F0F940DF20F94DCF188EAE8
:10EB200091EE60E00F94C2F1E1E0F0E01093570045
:10EB30001491812F0F940DF20F94DCF107CF8BE825
:10EB400092EE62E00F94F5F18BE492EE60E00F94A8
:10EB5000F5F10F94DCF100E010E019C0C8016F2D51
:10EB60000F947FFEFF2031F489E492EE60E00F9471
:10EB7000C2F10BC0F092C6008091C00086FFFCCFAE
:10EB80008091C00080648093C0000F5F1F4FC80158
:10EB900081519F41A0E0B0E0ABBFFC01F790BAE229
:10EBA000FB1621F0E2E000301E07C1F60F94DCF105
:10EBB0000F94DCF187E592EE60E00F94F5F10F948D
:10EBC000DCF1CC24DD2400E010E01EC0C8010F946D
:10EBD00077FEF82E882331F489E492EE60E00F94FA
:10EBE000C2F10BC08093C6008091C00086FFFCCFAD
:10EBF0008091C00080648093C000FE1419F00894D6
:10EC0000C11CD11C0F5F1F4FC80181519F41A0E063
:10EC1000B0E0ABBFFC01E790FAE2EF1621F022E092
:10EC20000030120799F60F94DCF10F94DCF182E6C4
:10EC300092EE60E00F94C2F1C60161E070E00F94C3
:10EC400034F20F94DCF10F94DCF110920202109276
:10EC50000302109204021092050278CE89E992EE26
:10EC600062E00F94F5F1279A2F9A16C02F9880E052
:10EC700090E0E0EDF7E03197F1F7019684369105E9
:10EC8000C1F72F9A80E090E0E0EDF7E03197F1F7DF
:10EC9000019684369105C1F78091C00087FFE6CFC9
:10ECA0008091C00087FFFCCF64C485EA92EE62E0E9
:10ECB0000F94F5F140910202509103026091040219
:10ECC0007091050281E020E10F9491F2809102029F
:10ECD00090910302A0910402B091050280509F4FD1
:10ECE000AF4FBF4F8093020290930302A0930402A0
:10ECF000B093050280509041A040B04008F426CE69
:10ED0000A4CF83EB92EE62E00F94F5F140910602FE
:10ED100050910702609108027091090280E020E1A1
:10ED20000F9491F28091060290910702A09108023F
:10ED3000B091090280509F4FAF4FBF4F80930602A2
:10ED400090930702A0930802B0930902FFCD80ECD4
:10ED500092EE62E00F94F5F183E792EE60E00F949B
:10ED6000F5F18FE792EE60E00F94F5F18BE892EE0B
:10ED700060E00F94F5F189E992EE60E00F94F5F10F
:10ED800085EA92EE60E00F94F5F183EB92EE60E09D
:10ED90000F94F5F180EC92EE60E00F94F5F187ECC2
:10EDA00092EE60E00F94F5F188ED92EE60E00F9442
:10EDB000F5F18FED92EE60E00F94F5F18AEE92EEB0
:10EDC00060E00F94F5F183E093EEBDCD87EC92EE19
:10EDD00062E00F94F5F181E40F947BF282E40F94EA
:10EDE0007BF283E40F947BF284E40F947BF285E45E
:10EDF0000F947BF286E40F947BF287E40F947BF20E
:10EE000088E40F947BF28AE40F947BF28BE40F94F6
:10EE10007BF28CE40F947BF299CD88ED92EE62E068
:10EE20000F94F5F1772473948824992409C48FED05
:10EE300092EE62E00F94F5F140910A0250910B02BC
:10EE400060910C0270910D0282E020E10F9491F22A
:10EE500080910A0290910B02A0910C02B0910D02D8
:10EE600080509F4FAF4FBF4F80930A0290930B0289
:10EE7000A0930C02B0930D0269CD8AEE92EE62E08F
:10EE80000F94F5F184EE90EE60E00F94F5F18FECC5
:10EE900091EE60E00F94F5F1662477244301CC5D98
:10EEA000DE4F19821882C452D140D401C301B695F5
:10EEB000A79597958795CA5DDE4F88839983AA8326
:10EEC000BB83C652D140CC5DDE4FA881B981C4520C
:10EED000D1401196CC5DDE4FB983A883C452D14096
:10EEE000CD0162E070E00F9434F2B0E2B093C6005E
:10EEF0008091C00086FFFCCF8091C0008064809329
:10EF0000C000EDE2E093C6008091C00086FFFCCF18
:10EF10008091C00080648093C000F0E2F093C6004E
:10EF20008091C00086FFFCCF8091C00080648093F8
:10EF3000C000CA5DDE4FE880F9800A811B81C6529D
:10EF4000D140BB27A12F902F8F2D0F940DF2CA5DBA
:10EF5000DE4F8881C652D1400F940DF2B0E2FB2EF5
:10EF6000F092C6008091C00086FFFCCF8091C00067
:10EF700080648093C0000DE30093C6008091C000C0
:10EF800086FFFCCF8091C00080648093C00010E2B7
:10EF90001093C6008091C00086FFFCCF8091C00016
:10EFA00080648093C0008BBEF3012791C65DDE4F65
:10EFB0002883CA52D140A22EBB24CC24DD2408943D
:10EFC000611C711C811C911C8BBEF3018791282E42
:10EFD0003324442455240894611C711C811C911C09
:10EFE0008BBEF3013791C55DDE4F3883CB52D140E4
:10EFF0000894611C711C811C911C8BBEF30147910C
:10F00000C45DDE4F4883CC52D140ADEFEA2EAFEF66
:10F01000FA2EAFEF0A2FAFEF1A2F6E0C7F1C801E57
:10F02000911E142D032DF22CEE24EA0CFB1C0C1D5A
:10F030001D1D0F940DF220E22093C6008091C000A8
:10F0400086FFFCCF8091C00080648093C000C65DC5
:10F05000DE4F8881CA52D1400F940DF230E23093D6
:10F06000C6008091C00086FFFCCF8091C000806404
:10F070008093C000C45DDE4F8881CC52D1400F9494
:10F080000DF240E24093C6008091C00086FFFCCFA5
:10F090008091C00080648093C000C55DDE4F888190
:10F0A000CB52D1400F940DF250E25093C6008091A4
:10F0B000C00086FFFCCF8091C00080648093C000B8
:10F0C0008FEFE8168FEFF80680E0080780E018075A
:10F0D00031F484E092EE60E00F94C2F1DFC0D80119
:10F0E000C7018070907CA070B0708050904CA040A0
:10F0F000B040D1F52FEF3FE340E050E0E222F322B1
:10F1000004231523CA5DDE4FA880B980CA80DB8046
:10F11000C652D140AE0CBF1CC01ED11EAA0CBB1CD7
:10F12000CC1CDD1C8EE092EE60E00F94C2F1BB2798
:10F13000A12F902F8F2D0F940DF28E2D0F940DF285
:10F1400030E23093C6008091C00086FFFCCF8091F2
:10F15000C00080648093C0004EE34093C60080915D
:10F16000C00086FFFCCF87C08EE09EEFA0E0B0E03D
:10F17000E822F9220A231B239CE0E91694E9F90608
:10F1800090E0090790E0190709F088C0C45DDE4FE0
:10F19000A881CC52D140EA2EFF2400E010E0102FCD
:10F1A0000F2DFE2CEE24C55DDE4FB881CB52D14031
:10F1B000EB0EF11C011D111DD601C501817090706F
:10F1C000A070B070DC0199278827E80EF91E0A1F8D
:10F1D0001B1F20EF30E040E050E0A222B322C42207
:10F1E000D52241E1AA0CBB1CCC1CDD1C4A95D1F7F1
:10F1F000EA0CFB1C0C1D1D1D81E090E0A0E0B0E0BE
:10F20000282239224A225B2235E1220C331C441C7D
:10F21000551C3A95D1F7E20CF31C041D151D57013E
:10F220006801AA0CBB1CCC1CDD1C85E192EE60E0E1
:10F230000F94C2F1C801AA27BB270F940DF2BB2778
:10F24000A12F902F8F2D0F940DF28E2D0F940DF274
:10F2500090E29093C6008091C00086FFFCCF809121
:10F26000C00080648093C000AEE3A093C60080918C
:10F27000C00086FFFCCF8091C00080648093C000F6
:10F28000C601AA27BB270F940DF2BB27AD2D9C2DDD
:10F290008B2D0F940DF28A2D0F940DF20F94DCF14B
:10F2A000CC5DDE4FE881F981C452D140F99709F471
:10F2B0004DCBF4E0EF2EF12C012D112D6E0C7F1CA7
:10F2C000801E911EF2CD83E093EE62E00F94F5F183
:10F2D0008AE192EE60E00F94C2F18091C00087FF56
:10F2E000FCCF1091C6001F751093C6008091C0001E
:10F2F00086FFFCCF8091C00080648093C0000F9493
:10F30000DCF1812F81548A3108F036C1163409F4BA
:10F3100095C0173490F4133409F44EC0143430F40B
:10F320001134F1F0123409F01DC130C0143409F465
:10F3300059C0153409F016C16BC01A3409F4C4C0A1
:10F340001B3438F4173409F48FC0183409F00AC19B
:10F35000A1C01B3409F4D2C01C3409F003C1E8C0B9
:10F360008FEF81B90DC082B1809582B980E090E0C5
:10F37000E0EDF7E03197F1F70196883C9105C1F790
:10F380008091C00087FFEFCF12B8EFC08FEF84B934
:10F390000DC085B1809585B980E090E0E0EDF7E0A3
:10F3A0003197F1F70196883C9105C1F78091C00033
:10F3B00087FFEFCF15B8D9C08FEF87B90DC088B1DF
:10F3C000809588B980E090E0E0EDF7E03197F1F7C3
:10F3D0000196883C9105C1F78091C00087FFEFCF6F
:10F3E00018B8C3C08FEF8AB90DC08BB180958BB9A7
:10F3F00080E090E0E0EDF7E03197F1F70196883C8E
:10F400009105C1F78091C00087FFEFCF1BB8ADC059
:10F410008FEF8DB90DC08EB180958EB980E090E0F0
:10F42000E0EDF7E03197F1F70196883C9105C1F7DF
:10F430008091C00087FFEFCF1EB897C08FEF80BBD1
:10F440000DC081B3809581BB80E090E0E0EDF7E0F6
:10F450003197F1F70196883C9105C1F78091C00082
:10F4600087FFEFCF11BA81C08FEF83BB0DC084B38C
:10F47000809584BB80E090E0E0EDF7E03197F1F714
:10F480000196883C9105C1F78091C00087FFEFCFBE
:10F4900014BA6BC08FEF809301010FC080910201FD
:10F4A00080958093020180E090E0E0EDF7E03197F5
:10F4B000F1F70196883C9105C1F78091C00087FF64
:10F4C000EDCF1092020151C08FEF809304010FC065
:10F4D0008091050180958093050180E090E0E0ED4A
:10F4E000F7E03197F1F70196883C9105C1F78091DB
:10F4F000C00087FFEDCF1092050137C08FEF8093DA
:10F5000007010FC08091080180958093080180E079
:10F5100090E0E0EDF7E03197F1F70196883C910536
:10F52000C1F78091C00087FFEDCF109208011DC088
:10F530008FEF80930A010FC080910B01809580931B
:10F540000B0180E090E0E0EDF7E03197F1F70196F4
:10F55000883C9105C1F78091C00087FFEDCF1092E4
:10F560000B0103C085E292EEEEC98091C00087FFD7
:10F57000FCCF8091C600EAC988E392EEE4C98CE131
:10F5800091EEE1C988249924933011F1943028F444
:10F59000913089F09230B8F408C0953061F195301F
:10F5A000F0F0963009F048C043C02B3109F042C951
:10F5B00091E06BE13FC96227C15DDE4F2883CF52E6
:10F5C000D14092E037C9B22FA0E0622793E032C960
:10F5D000822F90E0A82BB92B622794E02BC92E3004
:10F5E00009F039C3622795E0C05DDE4F19821882A9
:10F5F000C053D1401FC9E1E0F0E0EC0FFD1FC05D3A
:10F60000DE4F08811981C053D140E00FF11F2083E4
:10F610000F5F1F4FC05DDE4F19830883C053D14079
:10F6200062270A171B0709F005C9D80196E002C92D
:10F63000261709F010C303C0973009F0FBC87724E0
:10F640009981933109F412C19431C8F4963009F4C8
:10F65000D8C0973050F4923009F406C1933009F4C1
:10F660006DC0913009F059C253C0913109F477C08F
:10F67000923108F0BBC0903109F04FC2F5C098310B
:10F6800009F487C0993150F4953109F4EFC09531F0
:10F6900008F4C6C1963109F040C2C2C19A3109F4DA
:10F6A0006CC09A3108F491C09B3109F45BC09D3164
:10F6B00009F033C29D81903359F48F81882311F46E
:10F6C0009EE11CC0813011F091E018C098E916C08D
:10F6D000892F807591F0903539F4E0E0F0E089E011
:10F6E0008093570094910AC0983539F4E3E0F0E034
:10F6F00089E080935700949101C090E01A821B82A8
:10F700008D818C831D829E831F8227E030E009C299
:10F710001A8288E08B8381E48C8386E58D8382E581
:10F720008E8389E48F8383E5888780E589878FE5E9
:10F730008A8782E38B872BE030E0F3C18A818139AD
:10F7400041F0823941F0803911F48FE005C080E04A
:10F7500003C082E001C08AE01A828B8344C0772410
:10F76000739482C08D81882311F48EE12CC0813086
:10F7700011F081E028C088E926C01A82E1E0F0E0BB
:10F7800089E08093570084918B831C8224E030E0D1
:10F79000C8C18B81803589F48C81883039F4E2E0EE
:10F7A000F0E089E08093570084910DC0E0E0F0E044
:10F7B00089E080935700849106C0E3E0F0E089E09F
:10F7C0008093570084911A82DFCF8D81836C99E0FA
:10F7D000E1E0F0E0082E90935700E89507B600FCB2
:10F7E000FDCF1A821B8223E030E09BC180EC8A832C
:10F7F000CE5CDE4F188219821A821B82C253D1401E
:10F800008EC18A8190E0A0E0B0E0582F44273327D2
:10F8100022278B8190E0A0E0B0E0DC0199278827C7
:10F82000282B392B4A2B5B2B8D8190E0A0E0B0E098
:10F83000282B392B4A2B5B2B8C8190E0A0E0B0E089
:10F84000BA2FA92F982F8827282B392B4A2B5B2BCF
:10F85000220F331F441F551FC05EDE4F288339839C
:10F860004A835B83C052D1401A8259C13A81C95C34
:10F87000DE4F3883C753D140CA5CDE4F1882C6536F
:10F88000D1408B81C82EDD24CA5CDE4F488159816E
:10F89000C653D140C42AD52A933109F082C0CE5C28
:10F8A000DE4F88819981AA81BB81C253D1408050AB
:10F8B000904CA340B04030F583E0CE5CDE4FE88052
:10F8C000F9800A811B81C253D140F70100935B008C
:10F8D00080935700E89507B600FCFDCFCE5CDE4F65
:10F8E000088119812A813B81C253D14000501F4FAA
:10F8F0002F4F3F4FCE5CDE4F088319832A833B8313
:10F90000C253D140C05EDE4F488159816A817B81FC
:10F91000C052D140DE011B9631E08C9111962C91A2
:10F9200011971296C75CDE4F2883C953D140C85C3B
:10F93000DE4F1882C853D14090E0C85CDE4FE881AA
:10F94000F981C853D1408E2B9F2B0C01FA01609393
:10F950005B0030935700E89511244E5F5F4F6F4F67
:10F960007F4F0EEFE02E0FEFF02ECE0CDF1CC114F8
:10F97000D10499F685E0C05EDE4F088119812A81A5
:10F980003B81C052D140F80120935B008093570027
:10F99000E89507B600FCFDCF81E180935700E8951C
:10F9A00035C0C05EDE4F88819981AA81BB81C0527B
:10F9B000D140B695A795979587957C018601ABE0D8
:10F9C000AA2EB12CAC0EBD1E0BC0D5016D915D01F0
:10F9D000C7010F947FFE0894E11CF11C01501040F8
:10F9E0000115110591F7A60160E070E0440F551F65
:10F9F000661F771FC05EDE4FE880F9800A811B8199
:10FA0000C052D1404E0D5F1D601F711F1A82C05E33
:10FA1000DE4F488359836A837B83C052D1407FC0C5
:10FA2000FA80C55CDE4FF882CB53D140C65CDE4F16
:10FA30001882CA53D1408B81C82EDD24C65CDE4FAC
:10FA400008811981CA53D140C02AD12A1A828981DA
:10FA5000BE016D5F7F4F843121F59601C05EDE4FA0
:10FA6000E880F9800A811B81C052D1400BBFF701A9
:10FA700087919691DB018C9311969C936E5F7F4FDB
:10FA8000D801C7010296A11DB11DC05EDE4F88835B
:10FA90009983AA83BB83C052D14022503040F1F6F3
:10FAA00036C0C05EDE4F288139814A815B81C052F9
:10FAB000D1400894C108D108760100E010E0089414
:10FAC000C11CD11C0894E11CF11C011D111DE20E8A
:10FAD000F31E041F151F21BDBB27A52F942F832FB5
:10FAE00082BD2F5F3F4F4F4F5F4FF89A80B5DB01CC
:10FAF0008D93BD012E153F054007510761F7C05E8C
:10FB0000DE4F288339834A835B83C052D1409601FC
:10FB10002D5F3F4FFB01108204C080EC8A8322E0FE
:10FB200030E08BE18093C6008091C00086FFFCCF5F
:10FB30008091C00080648093C000C15DDE4FF88179
:10FB4000CF52D140F093C6008091C00086FFFCCF19
:10FB50008091C00080648093C000432F3093C60022
:10FB60008091C00086FFFCCF8091C00080648093AC
:10FB7000C000922F2093C6008091C00086FFFCCF6A
:10FB80008091C00080648093C0008EE08093C600A6
:10FB90008091C00086FFFCCF8091C000806480937C
:10FBA000C00065E1C15DDE4FE880CF52D1406E25D7
:10FBB00069276427FE01319610C090819093C6009A
:10FBC0008091C00086FFFCCF31968091C000806498
:10FBD0008093C0006927215030402115310569F715
:10FBE0006093C6008091C00086FFFCCF8091C0006A
:10FBF00080648093C00085B1805885B9772081F4F6
:10FC0000C15DDE4F0881CF52D1400F5FC15DDE4F35
:10FC10000883CF52D14090E0A0E0B0E00D941AF4F8
:10FC200027982F9880E090E020ED37E0F901319798
:10FC3000F1F7019684369105C9F700008091C00064
:10FC40008D7F8093C00081E180935700E895EE2777
:10FC5000FF270994FFCF90E00D941AF497FB092E2B
:10FC600007260AD077FD04D02ED006D000201AF443
:10FC7000709561957F4F0895F6F7909581959F4F08
:10FC80000895A1E21A2EAA1BBB1BFD010DC0AA1FDD
:10FC9000BB1FEE1FFF1FA217B307E407F50720F0F5
:10FCA000A21BB30BE40BF50B661F771F881F991F70
:10FCB0001A9469F760957095809590959B01AC01B9
:10FCC000BD01CF010895AA1BBB1B51E107C0AA1FAC
:10FCD000BB1FA617B70710F0A61BB70B881F991FED
:10FCE0005A95A9F780959095BC01CD010895F99991
:10FCF000FECF92BD81BDF89A992780B50895262F31
:10FD0000F999FECF1FBA92BD81BD20BD0FB6F89400
:0EFD1000FA9AF99A0FBE01960895F894FFCF63
:040000033000E000E9
:00000001FF