:1000000023C3000052C3000050C300004EC30000D1
:100010004CC300004AC3000048C3000046C30000B0
:1000200044C3000042C3000040C300003EC30000C0
:100030000C94E4163AC3000038C3000036C3000035
:1000400034C3000032C3000030C300002EC30000E0
:100050002CC300002AC3000028C300000C94140C19
:1000600024C300000C94DE0B0C94B50B1EC30000DF
:100070001CC300001AC3000018C3000016C3000010
:1000800014C3000012C3000010C300000EC3000020
:100090000CC300000AC3000008C3000006C3000030
:1000A00004C3000002C3000000C30000FEC2000041
:1000B000FCC20000FAC20000F8C20000F6C2000054
:1000C000F4C20000F2C20000F0C20000EEC2000064
:1000D000ECC20000EAC20000E8C20000E6C2000074
:1000E000E4C20000000020002300260029002C00AC
:1000F0002F00320000010000030106010901000089
:100100000A0B02090C0D0E08070304010000000091
:1001100000000000000000000000000000000000DF
:10012000000000000000000000001211100000009C
:1001300000000000000000000000000000000000BF
:100140000000000000002200250028002B002E00E7
:100150003100340002010000050108010B0100001C
:100160002100240027002A002D0030003300010167
:100170000000040107010A01050505050705080837
:100180000808020202020A0A080804040404010121
:100190000101010101010303030303030303040736
:1001A00007070C0C0C0C0C0C0C0C020202020606CD
:1001B0000606060606060B0B0B0B0B0B0B0B0102C0
:1001C0001020200808102040102040800201020169
:1001D0000804020101020408102040808040201021
:1001E000080402018004020180402010080402017A
:1001F00008040201010204081020408001020408E2
:1002000010204080CF93DF9300D000D000D01F9209
:10021000CDB7DEB7E0919303F09194031081F12CF8
:10022000E12C112329F00580F681E02DE080F1809A
:100230000E94580D0E944E0D6C0180918F03909189
:100240009003C816D90608F07DC00E946314D092AE
:100250009003C0928F030E9450110091A00310914F
:10026000A1031A86198680E06801B1E1CB0ED11C8A
:100270000FB6F8940F92F801F28CFF2009F443C1F5
:10028000448D4423C1F050E086819781840F951FEF
:1002900097838683248135818217930720F080819C
:1002A000918197838683D80116966D917C91CE01BA
:1002B00001960E94B61AFA94F801F28E808588237E
:1002C00039F0C80108960E94A90C81110E948A1079
:1002D0000F900FBED980D7FCC0CF0C811D81F801D3
:1002E00082859385892B21F0C80102960E94A90D71
:1002F0000E944E0D7C0180918F0390919003E8162F
:10030000F90610F40E946314F0929003E0928F03B8
:10031000F9E0FD1508F4A1CFED2DDD0CFF0BD801A0
:1003200052969C918827E856FE4F8F4F0C94AE1A38
:100330004602460246027E026902780246024602F0
:100340007E026902D0929003C0928F03112399F12B
:10035000CE14DF04B8F10E945011E0919303F091A4
:1003600094030580F681E02D06811781C80102966D
:100370000E94A90DD80152968C91529782FF17C006
:100380001C966D917C916E0D7F1D9701A601C80191
:100390000E94030E882321F0B701C8010E943D147A
:1003A000D8015096ED91FC91C801199556CF8E7FDA
:1003B000F801828BF5CFE0919103F0919203808157
:1003C00061E0811160E00091A0031091A1030FB6DC
:1003D000F8940F92F801858D8F3F09F4158ED8019E
:1003E0005E968C915E978F3F11F45E961C920F90F3
:1003F0000FBEF801828D81113FC00288F389E02D84
:10040000A0913203B09133031F96FC93EE931E9795
:10041000A0913203B09133038481958151969C93CE
:100420008E9350978091320390913303A481B581CC
:100430000C9613969C938E93129780913203909111
:1004400033030C9695838483E0913203F091330358
:10045000C8014196958B848BD80151968C91519708
:100460008F5F51968C93C7018C199D09662311F0FB
:100470008FEF9FEF0E942C0EC8010E94690D0E9411
:1004800050118111EACE0E948A10E7CE9160F801E6
:10049000928BCA80DB80648575856C0D7D1D96010D
:1004A000A701C8010E94030E882309F4D6CED80103
:1004B0005096ED91FC91C8011995F801828982FF4F
:1004C000CCCE648575856C0D7D1DC8010E943D14E0
:1004D000C4CE9160F801928B6A817B8175876487B5
:1004E0006E0D7F1D9701A701C8010E94030EB5CEB6
:1004F00091FD04C0C8010E94BE14AFCE9E7FD801FA
:1005000052969C93AACE29853A85232B19F40F90F5
:100510000FBE80CE811109C08091A4038E8380918B
:10052000A2039091A30398878F830F900FBE0E9420
:10053000580D0FB6F8940F92D8015D968C915D9787
:100540008F3F11F45D961C92F801868D8F3F09F460
:10055000168E0F900FBEBE01675F7F4FCE010696CD
:100560000E94760C811125C0C8010E945E0D88236F
:10057000D1F0E984FA846091320370913303645FAF
:100580007F4FC6010E94CD0D61E0C7010E942C0E75
:10059000C8010E94690D0E945011811102C00E9481
:1005A0008A1081E065CEC8010E94690D0E94501139
:1005B000F8CFC8010E94690D0E945011C8010E9425
:1005C0005E0D882371F326CE80913C0381111AC001
:1005D0008091A503823010F00E948A1080913D0323
:1005E00090913E03A0913F03B09140030196A11D5D
:1005F000B11D80933D0390933E03A0933F03B093BE
:100600004003E2CF0FB6F8940F92E0914603F091C9
:100610004703C681D781CE0102960E94A90D809121
:10062000750381508093750380913C0381508093C2
:100630003C030F900FBE8F89988D0E94BE14CE018F
:100640000E94BE14C1CFE71611241FBECFEFD1E226
:10065000DEBFCDBF00E00CBF13E0A0E0B2E0E2EAF5
:10066000F5E300E00BBF02C007900D92A233B10783
:10067000D9F724E0A2E3B3E001C01D92A338B2078A
:10068000E1F713E0C4E2D3E000E006C021970109DE
:10069000802FFE010E94AE1AC332D10780E0080706
:1006A000A9F70E9431170C94CF1AAACC90E0FC0154
:1006B000E254FE4F249188589E4FFC018491882378
:1006C00099F090E0880F991FFC01E25AFE4FA59126
:1006D000B491FC01EC5BFE4F859194918FB7F89437
:1006E000EC91E22BEC938FBF0895AF92BF92CF9223
:1006F000DF92EF92FF920F931F93CF93DF936C01E2
:100700007B018B01040F151FEB015E01AE18BF08C2
:10071000C017D10759F06991D601ED91FC91019074
:10072000F081E02DC6011995892B79F7C501DF917C
:10073000CF911F910F91FF90EF90DF90CF90BF90DE
:10074000AF900895FC01538D448D252F30E0842F08
:1007500090E0821B930B541710F0CF9608950197E9
:100760000895FC01918D828D981761F0A28DAE0FD6
:10077000BF2FB11D5D968C91928D9F5F9F73928F5D
:1007800090E008958FEF9FEF0895FC01918D828D89
:10079000981731F0828DE80FF11D858D90E0089556
:1007A0008FEF9FEF0895FC01918D228D892F90E0AE
:1007B000805C9F4F821B91098F73992708958AEC63
:1007C00093E0F1DF21E0892B09F420E0822F0895E6
:1007D000FC01A48DA80FB92FB11DA35ABF4F2C91B6
:1007E000848D90E001968F739927848FA689B789AD
:1007F0002C93A089B1898C91837080648C93938DA4
:10080000848D981306C00288F389E02D80818F7D46
:1008100080830895EF92FF920F931F93CF93DF93FE
:10082000EC0181E0888F9B8D8C8D98131AC0E8892C
:10083000F989808185FF15C09FB7F894EE89FF89FB
:100840006083E889F98980818370806480839FBF99
:1008500081E090E0DF91CF911F910F91FF90EF9099
:100860000895F62E0B8D10E00F5F1F4F0F731127A9
:10087000E02E8C8D8E110BC00FB607FCFACFE889E5
:10088000F989808185FFF5CFCE01A2DFF2CFEB8D14
:10089000EC0FFD2FF11DE35AFF4FF0829FB7F89444
:1008A0000B8FEA89FB8980818062D0CFCF93DF9361
:1008B000EC01888D8823B1F0AA89BB89E889F98980
:1008C0008C9185FD03C0808186FD0CC00FB607FCAE
:1008D000F7CF8C9185FFF2CF808185FFEDCFCE01E0
:1008E00077DFEACFDF91CF91089580E090E0892B08
:1008F00021F065DF81110E94000080E090E0892BEB
:1009000049F080E090E0892B29F00E9400008111DD
:100910000E94000080E090E0892B49F080E090E0A8
:10092000892B29F00E94000081110E94000080E0C4
:1009300090E0892B49F080E090E0892B29F00E941B
:10094000000081110C94000008958150823108F05C
:100950005AC0E82FF0E08827EF54FB4F8F4F0C94DC
:10096000AE1AD104D504C304C904CD040305D804C8
:10097000DE04E204E804EC04F004F604FA040305DF
:10098000FE0404050805809180008F778093800025
:100990000895809180008F7DF9CF80918000877FBE
:1009A000F5CF84B58F7784BD089584B58F7DFBCF57
:1009B0008091B0008F778093B00008958091B0004F
:1009C0008F7DF9CF809190008F778093900008956C
:1009D000809190008F7DF9CF80919000877FF5CF37
:1009E0008091A0008F778093A00008958091A0004F
:1009F0008F7DF9CF8091A000877FF5CF8091200176
:100A00008F77809320010895809120018F7DF9CF09
:100A100080912001877FF5CF1F93CF93DF93282FFD
:100A200030E0F901E250FF4F8491F901E254FE4FAA
:100A3000D491F901E858FE4FC491CC23A1F0162FB0
:100A4000811183DFEC2FF0E0EE0FFF1FEC5BFE4F18
:100A5000A591B4918FB7F894EC91111108C0D0957D
:100A6000DE23DC938FBFDF91CF911F910895DE2BA2
:100A7000F8CF279A2F9A0895089590E080E008957E
:100A8000CF93DF93EC0160E08E81C6DF61E08E8161
:100A9000C3DF60E08E81C0DF8BE891E00197F1F762
:100AA000DF91CF910895CF92DF92EF92FF920F9353
:100AB0001F93CF93DF936C017C0187E0E80EF11C5C
:100AC000D0E0C0E0062F10E0B8010C2E02C07595F2
:100AD00067950A94E2F76170F70181917F019CDFCD
:100AE0002196C430D10581F7C601DF91CF911F91C6
:100AF0000F91FF90EF90DF90CF90C2CFCF92DF9217
:100B0000EF92FF920F931F93CF93DF93EC01F62E9A
:100B1000642F8C8181DF8D818F3F11F060E07CDF5D
:100B20000F2D10E08F8584FF23C06E0187E0C80E73
:100B3000D11CF12CE12CB8010E2C02C075956795E3
:100B40000A94E2F76170F60181916F0165DFFFEFB2
:100B5000EF1AFF0A88E0E816F10469F7CE01DF9189
:100B6000CF911F910F91FF90EF90DF90CF9088CFA2
:100B7000B80184E0759567958A95E1F7CE0193DF1A
:100B80006F2DCE01DF91CF911F910F91FF90EF90CC
:100B9000DF90CF9088CF40E0682F87E694E0AECF1B
:100BA000CF93DF93823029F49091760498609093EC
:100BB000760480937A0410927B0480E480937C0412
:100BC00080E180937D0480E580937E0480916B04B6
:100BD0006DDD80916C048F3F09F068DD80916D04BC
:100BE00065DDC7E6D4E09E01275634408091760447
:100BF00084FD09C084E090E021962817390734F479
:100C00008E8154DDF0CF88E090E0F6CF8BE39DE05D
:100C10000197F1F760E080916B04FEDE60E0809167
:100C20006D04FADE80916C048F3F11F060E0F4DE19
:100C30008091760484FD31C063E087E694E033DF81
:100C4000CBE4D6E4CE010197F1F763E087E694E0C8
:100C50002ADF2197F1F763E087E694E024DF83E55C
:100C600092E00197F1F762E087E694E01CDF809163
:100C70007604806290DF84E0809377048CE08BDFE1
:100C800081E089DF8BE39FE10197F1F782E08093B8
:100C9000780486E0DF91CF917ECF80627CDF8BE4A9
:100CA00096E40197F1F780917604806274DF83E522
:100CB00092E00197F1F78091760480626CDFD7CFE4
:100CC00041E01CDF81E090E00895FB0101900020ED
:100CD000E9F73197AF01461B570BDC01ED91FC9111
:100CE0000280F381E02D19948F929F92AF92BF9270
:100CF000EF92FF920F931F93CF93DF93CDB7DEB7A1
:100D0000A1970FB6F894DEBF0FBECDBF7C01FA01EC
:100D1000CB0119A2223008F42AE08E010F5D1F4F8B
:100D2000822E912CB12CA12CBF01A50194010E940F
:100D30008C1AF901CA016A3004F5605DD8016E931E
:100D40008D01232B242B252B79F790E080E0109741
:100D500019F0BD01C701B9DFA1960FB6F894DEBF47
:100D60000FBECDBFDF91CF911F910F91FF90EF90FC
:100D7000BF90AF909F908F900895695CDFCFCF9325
:100D8000DF93BC018AEC93E0A0DFEC0165E272E046
:100D90008AEC93E09ADF8C0F9D1FDF91CF9108952D
:100DA0007C0182E0FDDEE1E080917A048111E0E0E7
:100DB000E195F0E0E959FB4F84898068ECDEE114AD
:100DC000F10421F0B70187E694E07FDF8CE790E043
:100DD0000E94AD1481E0DFDE8BE39FE10197F1F724
:100DE000E1E080917A048111E0E0E195F0E0E959D9
:100DF000FB4F84898068CFDE40913D0350913E03D4
:100E000060913F03709140032AE087E694E06CDF35
:100E1000E0917A04E23008F040C0E150F0E0E95996
:100E2000FB4F84898068B7DEC0903803D0903903C7
:100E3000E0903A03F0903B03A7019601C701B60189
:100E40000E94881A68E272E081111AC046015701B7
:100E5000E894B7F82FEF3FEF4FE75FE7C501B40124
:100E60000E94881A81111BC02FEF3FEF4FE75FE709
:100E7000C501B4010E943F1918168CF46CE272E0AF
:100E800087E694E022DF64E372E087E694E01DDF0A
:100E900081E090E00E94AD14A3CFE1E0BFCF2FEF3F
:100EA0003FEF4FE75FE4C701B6010E94211A181611
:100EB0001CF460E372E0E4CF2FEF3FEF4FE75FEC0D
:100EC000C701B6010E943F1987FDF3CF20E030E053
:100ED000A901C701B6010E943F1987FF09C041E07F
:100EE0006DE287E694E00ADEF7FAF094F7F8F09402
:100EF0002AE037ED43EA5BE3C701B6010E94DB1845
:100F00004B015C010E9443196B017C010E946F1927
:100F10009B01AC01C501B4010E94DA184B015C01D0
:100F20002AE0B701A60187E694E0DEDE41E06EE24A
:100F300087E694E0E3DD20E030E040E251E4C501E3
:100F4000B4010E94251A4B015C010E9443196B01F8
:100F5000F12CE12C2AE0B701A60187E694E0C4DE7B
:100F6000C701B6010E946F199B01AC01C501B40114
:100F70000E94DA1820E030E040E251E40E94251A95
:100F80000E944319AB0170E060E02AE087E694E03C
:100F9000ABDE79CFC0E480917B00877F80937B00BC
:100FA000C0937C0080917A00806480937A00809165
:100FB0007A0086FDFCCF8091780060917900762FD1
:100FC000682F90E080E00E946F1920E030E040EA56
:100FD00050E40E94251A20E030E040E85AE30E94E5
:100FE000251A609338037093390380933A039093E2
:100FF0003B0386E090E00E94AD14CDCF4FD5EC01CD
:101000008DE054DB60E08DE007DD0BE011E09BEC50
:10101000E92E91E0F92E25E8C22E21E0D22EF8012A
:101020008491F701A490F601B49070E060E0BB20D9
:1010300091F081118ADCEB2DF0E0EE0FFF1FEC51F7
:10104000FF4FA591B4918C91A82291E080E009F422
:1010500090E0692F782FF1E06F278DE0DDDC28D557
:101060008091A2039091A3035E012FE1A20EB11C17
:101070008C179D0770F4AC16BD0618F48A159B05F5
:1010800058F00E945011811102C00E948A10E5019F
:10109000C6CFAC16BD0690F760E0F501E81BF90B72
:1010A000CF01DAD5EECFEF92FF920F93EAECF3E0A7
:1010B000A089B18982E08C93A485B5851C92A68510
:1010C000B7858FEC8C93108EA489B58986E08C93BC
:1010D000A289B3898C9180618C93A289B3898C9108
:1010E00088608C93A289B3898C9180688C930288E4
:1010F000F389E02D80818F7D8083F12CE12C02E04B
:1011000030E020E040E850E063E472E08EEF97E0EA
:101110000E94E71401E030E020E040E850E069E49C
:1011200072E084EB98E00E94E71486E3E82E83E007
:10113000F82E23E532E040E850E067E672E08AEC02
:1011400097E00E94E714F12CE12C2BE632E040E816
:1011500050E06CE772E080ED96E00E94E7140F919A
:10116000FF90EF900C941116CF93DF93CDB7DEB7BD
:1011700064970FB6F894DEBF0FBECDBF812CCE01B1
:1011800001966C0199E0992E21E4422E23E0522E23
:1011900034E0632E712C3324339440E8A42E43E0D2
:1011A000B42E8601080D111DD8018C918D3091F05F
:1011B0008AEC93E0F8DA892B41F08AEC93E0D1DAFB
:1011C000F80180838D3009F0839481E090E00E94E3
:1011D000AD14E7CF1C9260E872E0C6010E94C61A07
:1011E000892B09F0D4C087E292E0C9DD88E892E05B
:1011F000C6DD00913603109137030FB6F8940F92B5
:101200000115110521F40091320310913303780187
:10121000B2E0EB0EF11CC7019CD4F80184899589DA
:10122000892B19F0C8010C9694D4E0918103F091B8
:101230008203D8011596FC93EE93149784819581CF
:1012400017969C938E931697A481B5811396FC9262
:10125000EE921297F582E482F801B386A28680911D
:1012600080038F5F8093800387A1813009F417A2E8
:101270000F900FBE80919F03882331F00FB6F89432
:101280000F921CD30F900FBE8091320390913303C5
:101290000817190729F480919F03882349F03AD74A
:1012A000F6018E2F8C19881508F05CC21192F9CFC7
:1012B0009091800380917503981305C010923303B9
:1012C00010923203EDCF80919E03882319F0309263
:1012D0007603E6CF10927603A0913203B0913303E8
:1012E000E0913203F09133032D913C918789908DE9
:1012F00082179307A0F0809132039091330380917D
:10130000320390913303B5DBFFEF27EA81E6F1501A
:1013100020408040E1F700C000001F9AF5CF809187
:10132000C903282F30E0929EF001939EF00D112406
:10133000EB55FC4F9081992341F1A181B281129626
:101340000D90BC91A02DB283A183899DA001112491
:1013500048555C4FA417B50729F412964D915C913E
:1013600052834183929EF001939EF00D1124EB5520
:10137000FC4F0180F281E02D2681378130933303C9
:10138000209332038093C9038BCF8150CACF6DE97C
:1013900072E0C6010E94C61A892B09F410C164EAE2
:1013A00072E0C6010E94C61A892B09F495C06BEA47
:1013B00072E0C6010E94C61A892B09F468C067EB67
:1013C00072E0C6010E94C61A892BF1F063EC72E04C
:1013D000C6010E94C61A892B09F062CF87E292E00B
:1013E000CEDC8AEC92E0CBDC86E3E82E83E0F82EBC
:1013F00001E023E532E040E850E067E672E08AEC85
:1014000097E00E94E7144CCF87E292E0B8DC6EEDE3
:1014100072E08AEC93E059DC8AEC93E0C4D9892B22
:10142000D9F38AEC93E09DD9F82E682F8AEC93E0EB
:10143000F1D9009136031091370380ED8F0D843080
:1014400008F083E00FB6F8940F920115110521F40E
:101450000091320310913303F80121A1821709F49E
:101460007EC14091320350913303281708F016C112
:101470000417150751F0E0913203F0913303222451
:1014800023949689891708F00FC1212C0DC187E29A
:1014900092E075DC62EF72E08AEC93E016DCE0919A
:1014A0003603F09137030FB6F8940F92309721F47A
:1014B000E0913203F091330346890F900FBE50E064
:1014C00070E060E02AE08AEC93E00EDC65E272E016
:1014D0008AEC93E0FADBE4CE87E292E050DC89E02C
:1014E00093E04DDC00913603109137030FB6F8946A
:1014F0000F920115110521F400913203109133036D
:10150000780192E0E90EF11CC70123D3D80154966B
:101510008D919C91892B19F0C8010C961AD380915A
:101520005C038F5F80935C0380913203909133035F
:1015300008171907A1F5E0914203F0914303D80180
:101540001596FC93EE9314978481958117969C933E
:101550008E931697A481B5811396FC92EE92129702
:10156000F582E482F80153864286809141038F5FC1
:101570008093410380913C038F5F80933C030F90E5
:101580000FBE80919F03882309F48ACE8091320395
:10159000909133030817190709F082CE80CE80910D
:1015A0007503815080937503D80157968D919C9156
:1015B0000E94BE14C8010E94BE1480D1E0CF87E211
:1015C00092E0DDDB8DE193E0DADB009136031091F0
:1015D000370380913203909133030817190709F4F8
:1015E0005FCE0115110509F45BCE0FB6F8940F928A
:1015F000F801828593858058934009F0B0C0D801E6
:1016000054968D919C91B3E087379B0709F4A7C04E
:10161000892B09F0A4C07801E2E0EE0EF11CC701AD
:1016200098D2D8015696EC918091C9038E1710F488
:10163000E093C9039E9EF0011124EB55FC4F0180FD
:10164000F281E02DD8011596FC93EE9314978481D6
:10165000958117969C938E931697A481B5811396C6
:10166000FC92EE921297F582E482F8019689999D98
:10167000F0011124EB55FC4FD8011B96FC93EE931F
:101680001A9780818F5F8083E0913203F09133035A
:101690008689981708F463C03DD561C0222423943D
:1016A0000417150709F0F1CED80156969C9156976C
:1016B000291302C056968C93F80181A324853585A1
:1016C00037FD05C09301281B310935872487999D73
:1016D000C00111248B559C4FD8011A962D913C9135
:1016E00028173907D1F57801B2E0EB0EF11CC701DC
:1016F00030D2D8015696EC918091C9038E1710F420
:10170000E093C9039E9EF0011124EB55FC4F01802C
:10171000F281E02DD8011596FC93EE931497848105
:10172000958117969C938E931697A481B5811396F5
:10173000FC92EE921297F582E482D8015696EC91D3
:101740005697E99DF0011124EB55FC4F1B96FC9335
:10175000EE931A9780818F5F808321109DCF0F9029
:101760000FBE9ECDD7D4812C1CCD1F920F920FB6E9
:101770000F9211240BB60F922F933F934F935F93C9
:101780006F937F938F939F93AF93BF93EF93FF9349
:101790008AEC93E01DD8FF91EF91BF91AF919F919B
:1017A0008F917F916F915F914F913F912F910F900A
:1017B0000BBE0F900FBE0F901F9018951F920F92A7
:1017C0000FB60F9211240BB60F922F938F939F9306
:1017D000EF93FF93E091DA03F091DB038081E091D6
:1017E000E003F091E10382FD1DC090818091E3034D
:1017F0008F5F8F732091E403821741F0E091E30340
:10180000F0E0E653FC4F958F8093E303FF91EF9157
:101810009F918F912F910F900BBE0F900FBE0F9045
:101820001F9018958081F2CF1F920F920FB60F92E2
:1018300011242F933F938F939F93AF93BF938091E6
:101840009A0390919B03A0919C03B0919D033091CA
:10185000990323E0230F2D3758F50196A11DB11DE3
:101860002093990380939A0390939B03A0939C03E6
:10187000B0939D038091950390919603A091970357
:10188000B09198030196A11DB11D8093950390938B
:101890009603A0939703B0939803BF91AF919F9144
:1018A0008F913F912F910F900FBE0F901F90189521
:1018B00026E8230F0296A11DB11DD2CFE0918B0324
:1018C000F0918C038081811107C08FEF9FEF90937F
:1018D0008A03809389030895E0918B03F0918C0330
:1018E0000580F681E02D80819181F1CFFC01DB0143
:1018F0000FB6F8940F924091A2035091A3032D913B
:101900003C9111972F3F320711F1818192816091B3
:10191000A4037081761749F04817590730F01D92DB
:101920001C9281E00F900FBE0895481B590B42177F
:101930005307A8F7241B350B2D933C938091A403E8
:1019400080838091A2039091A3039283818380E09E
:10195000E9CFCF93DF93DC011596ED91FC910680E2
:10196000F781E02DA489B5898685978520893189FD
:10197000EC013D832C83C089D1899B838A83CF016D
:101980000C9611962D913C9112972817390721F446
:101990001296DC93CE931197158A148A2C912150BC
:1019A0002C9320919E03211157C0A285B385848179
:1019B000958126813781EC013D832C83C681D781B7
:1019C0009B838A83CF01029611962D913C911297A9
:1019D0002817390721F41296DC93CE9311971386BA
:1019E00012862C9121502C93C6892091C9032C1763
:1019F00010F4C093C90329E02C9FE0011124CB55BA
:101A0000DC4F0980DA81C02DD583C4834C815D8190
:101A100057834683AC81BD8113969C938E93129716
:101A20009D838C83A689A29FD0011124AB55BC4F06
:101A3000B387A2878C918F5F8C93A0913203B09172
:101A40003303968956968C91891730F581E08093FF
:101A50007603DF91CF910895A0917803B091790337
:101A6000B787A68714962D913C911597318B208BC3
:101A70001496CD91DC9115979B838A8315969C9340
:101A80008E93149787E793E0958B848B80917703EF
:101A90008F5F80937703D1CF80E0DBCF0FB6F894D0
:101AA0000F928091A2039091A3030F900FBE08950F
:101AB00080919E038F5F80939E0308950FB6F894E4
:101AC0000F92FC01928D0F900FBE81E0911180E08A
:101AD0000895EF92FF920F931F93CF93DF93EC0142
:101AE0000FB6F8940F921E8D7C0181E1E80EF11C77
:101AF00001E01116D4F08FEF8E8F0F900FBE0FB64E
:101B0000F8940F921D8D7E0188E0E80EF11C01E033
:101B10001116ACF08FEF8D8F0F900FBEDF91CF912C
:101B20001F910F91FF90EF9008958989882319F3F1
:101B3000C7010FDF8111009376031150DACF88853A
:101B4000882341F3C70105DF81110093760311500B
:101B5000DFCFCF93DF93FC01A085B1858281938194
:101B600024813581EC013D832C83C481D5819B8305
:101B70008A8311968D919C9112978E179F0721F45D
:101B80001296DC93CE931197118610868C9181501A
:101B90008C938C91DF91CF9108950F931F93CF93E6
:101BA000DF938C01FB0180819181D80113968F3FD7
:101BB0009807F1F4E801AF81B88512968D919C9158
:101BC000139793838283EC01FD83EC83B583A48315
:101BD0001396FC93EE93129711870087F80180818A
:101BE0008F5F8083DF91CF911F910F910895D9016D
:101BF00012962D913C911397E901488159818417E0
:101C00009507A8F7DACFFC017383628391878087F9
:101C10004617570788F0421B530B84859585481754
:101C20005907C0F4BF016E5F7F4F8091910390917F
:101C30009203B3DF80E008954217530718F4621748
:101C4000730740F4BF016E5F7F4F809193039091C3
:101C50009403EFCF81E00895FF920F931F93CF93EA
:101C6000DF93EC01F62E0091A2031091A303809163
:101C700032039091330302966CDFCF3FDC07E9F526
:101C8000FF20D9F1E0918103F0918203A09132030A
:101C9000B09133031596FC93EE931497A091320301
:101CA000B09133038481958117969C938E931697F8
:101CB0008091320390913303A481B58102961396EB
:101CC0009C938E93129780913203909133030296E6
:101CD00095838483E0913203F091330380E893E0AD
:101CE00093878287809180038F5F80938003DF9149
:101CF000CF911F910F91FF900895C00FD11FE091D8
:101D00003203F0913303D383C28360913203709125
:101D10003303C017D10760F480918D0390918E0337
:101D20006E5F7F4FDF91CF911F910F91FF9035CF65
:101D300080918B0390918C036E5F7F4F2EDF80919B
:101D4000890390918A03C817D90788F6D0938A032C
:101D5000C0938903CCCFFC010396928381832FEF3C
:101D60003FEF348323839683858390878783108214
:101D700008950F920FB6F8940F920BB60F920CB60F
:101D80000F921F9211242F923F924F925F926F9267
:101D90007F928F929F92AF92BF92CF92DF92EF92FB
:101DA000FF920F931F932F933F934F935F936F93E4
:101DB0007F938F939F93AF93BF93CF93DF93EF93D3
:101DC000FF93A0913203B09133030DB60D920EB67E
:101DD0000D9213BE80919E038111F9C08091A203E0
:101DE0009091A30301969093A3038093A20300977D
:101DF00081F520918B0330918C0340918D0350919C
:101E00008E0350938C0340938B0330938E03209367
:101E10008D032091A4032F5F2093A403E0918B03F3
:101E2000F0918C032081211107C02FEF3FEF3093F9
:101E30008A03209389030DC0E0918B03F0918C03FA
:101E40000580F681E02D2081318130938A03209333
:101E500089032091890330918A038217930710F434
:101E600020E0A1C020E039E0D32EE0918B03F09177
:101E70008C033081311107C08FEF9FEF90938A035D
:101E80008093890390C0E0918B03F0918C030580CF
:101E9000F681E02D0680F781E02D42815381841781
:101EA000950728F450938A03409389037CC0A28548
:101EB000B3854481558166817781EA017D836C8396
:101EC00066817781EB015B834A83AF014E5F5F4F91
:101ED00011960D911C9112970417150721F4129673
:101EE0007C936E931197138612863C9131503C93EC
:101EF000A489B5891097F9F06685778500891189DD
:101F0000EB011D830C8300891189E8017B836A83BF
:101F10001196ED90FC901297BF01645F7F4FE6161B
:101F2000F70621F412961C930E931197158A148AC2
:101F30003C9131503C93A6893091C9033A1710F473
:101F4000A093C903DA9ED0011124AB55BC4F119662
:101F50000D90BC91A02DB583A48314966D917C91B6
:101F600015977783668314966D917C911597EB0195
:101F70005B834A8315965C934E93149746894D9DD7
:101F8000D0011124AB55BC4FB387A2873C913F5F72
:101F90003C93E0913203F09133033689431708F400
:101FA00064CF21E062CFE0913203F0913303E68900
:101FB000D9E0ED9FF0011124EB55FC4F8081823078
:101FC00008F021E08091760381110EC00AC0809153
:101FD0007303909174030196909374038093730339
:101FE0006AC0222309F467C080919E03882321F0F0
:101FF00081E0809376035FC010927603A091320354
:10200000B0913303E0913203F09133032D913C9171
:102010008789908D82179307A8F080913203909161
:1020200033038091320390913303279A2F9A2FEF35
:1020300087EA91E6215080409040E1F700C000001F
:102040001F9AF5CF2091C90389E001C02150422F8A
:1020500050E0849FF001859FF00D1124EB55FC4F5B
:102060009081992399F3A181B28112960D90BC9130
:10207000A02DB283A183289FC001112488559C4FB5
:10208000A817B90729F412968D919C9192838183A8
:1020900089E0849FF001859FF00D1124EB55FC4FE2
:1020A0000180F281E02D86819781909333038093A4
:1020B00032032093C903A0913203B0913303CD9131
:1020C000CDBFDD91DEBFFF91EF91DF91CF91BF9149
:1020D000AF919F918F917F916F915F914F913F91C0
:1020E0002F911F910F91FF90EF90DF90CF90BF90B5
:1020F000AF909F908F907F906F905F904F903F90A8
:102100002F901F900F900CBE0F900BBE0F900FBE24
:102110000F9008950F920FB6F8940F920BB60F928E
:102120000CB60F921F9211242F923F924F925F9202
:102130006F927F928F929F92AF92BF92CF92DF92D7
:10214000EF92FF920F931F932F933F934F935F93C1
:102150006F937F938F939F93AF93BF93CF93DF93AF
:10216000EF93FF93A0913203B09133030DB60D921C
:102170000EB60D9280919E03882321F081E080931A
:1021800076035FC010927603A0913203B0913303BF
:10219000E0913203F09133032D913C918789908D2A
:1021A00082179307A8F080913203909133038091B6
:1021B000320390913303279A2F9A2FEF87EA91E603
:1021C000215080409040E1F700C000001F9AF5CFF9
:1021D0002091C90389E001C02150422F50E0849F23
:1021E000F001859FF00D1124EB55FC4F9081992350
:1021F00099F3A181B28112960D90BC91A02DB2836A
:10220000A183289FC001112488559C4FA817B907A6
:1022100029F412968D919C919283818389E0849F09
:10222000F001859FF00D1124EB55FC4F0180F281E8
:10223000E02D86819781909333038093320320931E
:10224000C903A0913203B0913303CD91CDBFDD918D
:10225000DEBFFF91EF91DF91CF91BF91AF919F9141
:102260008F917F916F915F914F913F912F911F912E
:102270000F91FF90EF90DF90CF90BF90AF909F9025
:102280008F907F906F905F904F903F902F901F9016
:102290000F900CBE0F900BBE0F900FBE0F900895C5
:1022A0008F929F92BF92CF92DF92EF92FF920F9305
:1022B0001F93CF93DF930FB6F8940F9280919E03F4
:1022C000815080939E0380919E03882379F080E063
:1022D0000F900FBEDF91CF911F910F91FF90EF9064
:1022E000DF90CF90BF909F908F900895809175035D
:1022F000882369F3E0907C03F0907D03F0E0E0E058
:1023000039E041E08091770381115CC0EF2B09F047
:10231000D5DAE0907303F0907403E114F10409F44A
:102320007CC189E0D82ECC24C3940FEF1FEF80919D
:102330009E03811160C1C091A203D091A3034E01FD
:102340008FEF881A980A9092A3038092A2038114B7
:102350009104B1F480918B0390918C0320918D03B3
:1023600030918E0330938C0320938B0390938E03D4
:1023700080938D038091A4038F5F8093A4039EDAE2
:102380008091890390918A03B12C8816990608F0F0
:1023900026C1E0913203F0913303E689DE9EF0011D
:1023A0001124EB55FC4F8081823010F0BB24B39494
:1023B00080917603811103C0BB2009F425C1C0922E
:1023C000760322C1D7011696ED91FC91A489B589B7
:1023D0006685778580899189EB019D838C838089CF
:1023E0009189EC017B836A83BF01645F7F4F119603
:1023F0000D911C9112970617170721F412969C93C2
:102400008E931197158A148A8C9181508C93A28592
:10241000B3858481958166817781EC017D836C83AE
:1024200066817781EB019B838A83CF0102961196A7
:102430000D911C9112970817190721F412967C939D
:102440006E931197138612862C9121502C93A68996
:102450002091C9032A1710F4A093C9033A9FD00111
:102460001124AB55BC4F11960D90BC91A02DB58396
:10247000A48314966D917C91159777836683149647
:102480006D917C911597EB019B838A8315969C93A4
:102490008E9314979689939FD0011124AB55BC4F0E
:1024A000B387A2878C918F5F8C93A0913203B091F8
:1024B000330356968C91981708F424CF40937603F3
:1024C00021CFE0918B03F0918C030580F681E02D04
:1024D0000680F781E02D828193818816990628F481
:1024E00090938A038093890354CFC285D3858481D6
:1024F000958126813781DC0115963C932E931497A4
:1025000026813781D90113969C938E931297CF0120
:10251000029649815A814817590711F43A83298351
:1025200013861286288121502883A489B5891097A3
:10253000F9F02685378540895189E9015D834C830F
:1025400040895189EA013B832A8311966D917C91E0
:1025500012979F01245F3F4F6217730721F4129671
:102560005C934E931197158A148A2C9121502C93C9
:10257000A6892091C9032A1710F4A093C903DA9EF3
:10258000D0011124AB55BC4F11960D90BC91A02DDC
:10259000B583A48314962D913C9115973783268398
:1025A00014962D913C911597E9019B838A8315968A
:1025B0009C938E93149796899D9DD0011124AB55C1
:1025C000BC4FB387A2878C918F5F8C93E0913203CD
:1025D000F09133038689981710F0BB24B394E091EF
:1025E0008B03F0918C03808181116BCF10938A0350
:1025F00000938903CECE809173039091740301966A
:102600009093740380937303D1E0ED1AF10809F0FD
:102610008ECE1092740310927303809176038823F8
:1026200009F455CE77DD81E053CEAF92BF92CF92C1
:10263000DF92EF92FF920F931F93CF93DF9300D01F
:102640001F921F92CDB7DEB78C017B011D821C82C9
:1026500080E0680198E0C90ED11C0FB6F8940F9283
:10266000D8015A962C915A975B969C915B972917A3
:1026700008F0ACC05A96DC905A975C964C915C97E7
:1026800041118AC08D919C91892B11F080E00AC084
:10269000F801E480F580E114F10429F580E0F80107
:1026A00015821482D394D8015A96DC925A97519687
:1026B0009C91992319F0C80141964BD981112ADDCB
:1026C0000F900FBE81E00F900F900F900F900F9022
:1026D000DF91CF911F910F91FF90EF90DF90CF90FE
:1026E000BF90AF900895D70192968C9192978150A8
:1026F00092968C93929756962C91569791969C9180
:10270000291761F28111CACF5701B2E0AB0EB11C9B
:10271000C5011FDAF70181A1868B482F50E024E024
:1027200030E0241B350B358724879091C903981717
:1027300010F48093C90389E0849FD001859FB00D78
:102740001124AB55BC4F11960D90BC91A02DF701F3
:10275000B583A48314962D913C91159737832683D6
:102760001496ED91FC911597B382A2821596BC92B6
:10277000AE921497D7015696EC915697E89FF001C8
:102780001124EB55FC4F1B96FC93EE931A97808116
:102790008F5F808381E083CF50E0B70112968D91E7
:1027A0009C91E4D6F801848D22813381820F932F8E
:1027B000911D93838283248135818217930708F4C6
:1027C00065CF808191819383828360CF2C813D810D
:1027D000232B21F40F900FBE80E075CF811109C02B
:1027E0008091A40389838091A2039091A3039B838A
:1027F0008A830F900FBE5CD90FB6F8940F92F80140
:10280000858D8F3F09F4158ED8015E968C915E9769
:102810008F3F11F45E961C920F900FBEBE016C5F4D
:102820007F4FCE01019662D8811123C00FB6F89474
:102830000F92F801928D838D0F900FBE981315C0E3
:10284000AC80BD806091320370913303645F7F4F31
:10285000C601A3D961E0C501FFD9C8013AD920DD7D
:10286000811101C057DC81E0F8CEC80132D918DDF2
:10287000FACFC8012ED914DDAFCFCF93DF9300D0AC
:102880001F921F92CDB7DEB79C018091A00390915B
:10289000A1030097B1F019827B836A833D832C8367
:1028A00020919F03BE016F5F7F4F211120919E03F6
:1028B000BCDE0F900F900F900F900F90DF91CF9193
:1028C000089580E0F6CFEF92FF920F931F93CF937E
:1028D000DF93E0919303F09194038081811113C001
:1028E000809191039091920390939403809393032A
:1028F000F0939203E0939103DF91CF911F910F9199
:10290000FF90EF9008950580F681E02D0081118100
:10291000C681D7817E0182E0E80EF11CC70119D97A
:10292000E889F989CE0119958A8982FFD2CF8C85F1
:102930009D85800F911F0817190758F49B838A8380
:10294000D987C887B701809193039091940325D9C3
:10295000C0CFB801CE0191DFBCCFCF93DF93EC01A4
:10296000892B21F4D7DBDF91CF910895A1D860E0C6
:10297000CE0172D995DC8823A9F3F5CFCF93DF93ED
:10298000009739F0EC0194D8CE018BD3DF91CF9131
:1029900087CCDF91CF910895CF93DF93EC0188D856
:1029A000CE01E3D2EC017CDC209769F40E9439056A
:1029B0002FEF80E792E0215080409040E1F700C087
:1029C00000001F9AF5CFCE01DF91CF9108955F925D
:1029D0006F927F928F929F92AF92BF92CF92DF922F
:1029E000EF92FF920F931F93CF93DF93782E892E50
:1029F000562E672E6A01922E132FCA01CDDF5C017D
:102A0000892B09F4EBC088E290E0C6DFEC01892B4A
:102A100009F4E2C0B88EAF8AA60165EA70E0C5018C
:102A2000AED581E0C81AD108EF89F88DEC0DFD1DF7
:102A3000652D762DCE0149969B01285F3F4FDB0126
:102A40004D91BD01DC014D93CD01AB0141505109C8
:102A5000DA014C91442319F06217730781F718A229
:102A60000E8B09A31AA21B861A861D8A1C8AD98777
:102A7000C88784E090E0801B91099D878C87DB8B61
:102A8000CA8B84E09E012D5D3F4FD9011D928A952E
:102A9000E9F71FA27082DF0111978C9211971C92A7
:102AA00011971C92119780E88C9311971C921197A3
:102AB0001C9211971C9257979C9211971C93B69752
:102AC000F983E883E114F10419F0F701D183C0839D
:102AD0000FB6F8940F92809175038F5F8093750302
:102AE0008091320390913303892B09F088C0D093F1
:102AF0003303C093320380917503813039F585EA41
:102B000093E029D98EEA93E026D987EB93E023D985
:102B100080EC93E020D983E593E01DD98AE493E02B
:102B20001AD987E793E017D981E493E014D980E8B4
:102B300093E011D983E593E090938C0380938B030A
:102B40008AE493E090938E0380938D0380915C03DD
:102B50008F5F80935C03AE898091C9038A1710F45C
:102B6000A093C90329E02A9FD0011124AB55BC4F83
:102B700011960D90BC91A02DBD83AC8314968D91C0
:102B80009C9115979F838E831496ED91FC911597D8
:102B9000CE0102969383828315969C938E9314970D
:102BA000EE89E29FF0011124EB55FC4FFB87EA8789
:102BB00080818F5F80830F900FBE80919F03882359
:102BC00049F0E0913203F091330396898E8998178A
:102BD00008F4A0DA81E003C0C501D0DE8FEFDF91F9
:102BE000CF911F910F91FF90EF90DF90CF90BF900A
:102BF000AF909F908F907F906F905F90089580919D
:102C00009F038111A3CFE0913203F09133039689A2
:102C10008E89891708F49ACFD0933303C093320377
:102C200095CFEF92FF920F93CF93DF9391E7E92E29
:102C300093E0F92E00E030E020E040EC50E066E365
:102C400072E084EE92E0C3DE813009F0B5C00FB6C9
:102C5000F8940F928091A0039091A103892B09F021
:102C60004AC086E693E077D88DE593E074D886E68F
:102C700093E090939403809393038DE593E0909376
:102C800092038093910381E590E086DEEC0100974A
:102C900071F14F96998388838AE08B8F85E08C8FC2
:102CA0000FB6F8940F92888199812B8D4C8DBC01C1
:102CB000249F600D711D11247D836C831A8E9B836C
:102CC0008A832150330B429FB001439F700D112422
:102CD000860F971F9F838E838FEF8D8F8E8FCE01F0
:102CE000089639D8CE01419636D80F900FBED093B2
:102CF000A103C093A0030F900FBE8091A0039091F9
:102D0000A103892B09F458C08FE6E82E83E0F82E42
:102D100003E030E020E045E550E06BE372E082E064
:102D200091E055DE813009F047C0F8942FEF3FEF76
:102D300030938A032093890380939F031092A30307
:102D40001092A203A89588E190EC0FB6F894A8958C
:102D5000809360000FBE90936000A0913203B09109
:102D60003303CD91CDBFDD91DEBFFF91EF91DF91B8
:102D7000CF91BF91AF919F918F917F916F915F9113
:102D80004F913F912F911F910F91FF90EF90DF9006
:102D9000CF90BF90AF909F908F907F906F905F90FB
:102DA0004F903F902F901F900F900CBE0F900BBE36
:102DB0000F900FBE0F90089580910002DF91CF9188
:102DC0000F91FF90EF9008950E94B90E1895EAECCC
:102DD000F3E01382128288EE93E0A0E0B0E08483F7
:102DE0009583A683B7838BE092E09183808385EC03
:102DF00090E09587848784EC90E09787868780ECC5
:102E000090E0918B808B81EC90E0938B828B82ECB5
:102E100090E0958B848B86EC90E0978B868B118E5F
:102E2000128E138E148EE7E6F4E0138212828DE187
:102E300092E09183808384E284838FEF858385E2AF
:102E4000868386E2878387E280878EE281878FE2AE
:102E500082871386148615861686178681E00C9461
:102E6000D005789484B5826084BD84B5816084BDCA
:102E700085B5826085BD85B5816085BD80916E0018
:102E8000816080936E001092810080918100826049
:102E90008093810080918100816080938100809186
:102EA00080008160809380008091B1008460809375
:102EB000B1008091B00081608093B000809191005A
:102EC0008260809391008091910081608093910055
:102ED000809190008160809390008091A100826039
:102EE0008093A1008091A10081608093A1008091D6
:102EF000A00081608093A000809121018260809376
:102F00002101809121018160809321018091200124
:102F100081608093200180917A00846080937A00A0
:102F200080917A00826080937A0080917A0081603B
:102F300080937A0080917A00806880937A00109262
:102F4000C10020910502309106028FEF91E2821BB1
:102F5000930B90930202809301020E94530861DE5A
:102F60000E9453080E947504FDCF0F931F93CF93C7
:102F7000DF938230910510F482E090E0E0918104CB
:102F8000F091820430E020E0B0E0A0E0309799F4C6
:102F90002115310509F44AC0281B390B24303105AD
:102FA000D8F58A819B816115710589F1FB019383B5
:102FB0008283FE0111C04081518102811381481733
:102FC0005907E0F04817590799F4109761F01296E5
:102FD0000C93129713961C933296CF01DF91CF91E9
:102FE0001F910F9108950093810410938204F4CFF0
:102FF0002115310551F04217530738F0A901DB01C3
:103000009A01BD01DF01F801C1CFEF01F9CF909323
:10301000820480938104CDCFFE01E20FF31F8193E0
:1030200091932250310939832883D7CF20917F048F
:1030300030918004232B41F420910302309104024B
:103040003093800420937F0420910102309102028A
:103050002115310541F42DB73EB74091050250913D
:103060000602241B350BE0917F04F0918004E217E7
:10307000F307A0F42E1B3F0B2817390778F0AC019B
:103080004E5F5F4F2417350748F04E0F5F1F509378
:10309000800440937F04819391939FCFF0E0E0E020
:1030A0009CCFCF93DF930097E9F0FC013297138216
:1030B0001282A0918104B0918204ED0130E020E001
:1030C0001097A1F420813181820F931F20917F04FA
:1030D000309180042817390709F061C0F09380040B
:1030E000E0937F04DF91CF910895EA01CE17DF07C7
:1030F000E8F54A815B819E0141155105B1F7E9016F
:10310000FB83EA8349915991C40FD51FEC17FD0742
:1031100061F4808191810296840F951FE901998362
:103120008883828193819B838A83F0E0E0E012961A
:103130008D919C9113970097B9F52D913C91119722
:10314000CD010296820F931F20917F04309180045D
:103150002817390739F6309751F5109282041092EA
:103160008104B0938004A0937F04BCCFD383C28337
:1031700040815181840F951FC817D90761F44E5FB4
:103180005F4F88819981480F591F518340838A81FD
:103190009B81938382832115310509F0B0CFF09391
:1031A0008204E09381049ECFFD01DC01C0CF138235
:1031B0001282D7CF5058BB27AA270ED008C1F9D00A
:1031C00030F0FED020F031F49F3F11F41EF4EEC039
:1031D0000EF4E095E7FBE4C0E92F0AD180F3BA17BB
:1031E000620773078407950718F071F49EF522C1F2
:1031F0000EF4E0950B2EBA2FA02D0B01B901900112
:103200000C01CA01A0011124FF27591B99F0593F55
:1032100050F4503E68F11A16F040A22F232F342F9D
:103220004427585FF3CF469537952795A795F040EB
:103230005395C9F77EF41F16BA0B620B730B840B00
:10324000BAF09150A1F0FF0FBB1F661F771F881FB8
:10325000C2F70EC0BA0F621F731F841F48F4879510
:1032600077956795B795F7959E3F08F0B3CF9395FF
:10327000880F08F09927EE0F9795879508956CD0E1
:1032800008F481E00895BCD088F09F5790F0B92FE2
:103290009927B751A0F0D1F0660F771F881F991FAB
:1032A0001AF0BA95C9F712C0B13081F0C3D0B1E0BD
:1032B0000895C0C0672F782F8827B85F39F0B93FCD
:1032C000CCF3869577956795B395D9F73EF49095AD
:1032D0008095709561957F4F8F4F9F4F0895E8942B
:1032E00009C097FB3EF490958095709561957F4F4E
:1032F0008F4F9F4F9923A9F0F92F96E9BB279395FC
:10330000F695879577956795B795F111F8CFFAF40B
:10331000BB0F11F460FF1BC06F5F7F4F8F4F9F4F3C
:1033200016C0882311F096E911C0772321F09EE89A
:10333000872F762F05C0662371F096E8862F70E000
:1033400060E02AF09A95660F771F881FDAF7880FDA
:103350009695879597F90895990F0008550FAA0B30
:10336000E0E8FEEF16161706E807F907C0F0121698
:103370001306E407F50798F0621B730B840B950B9B
:1033800039F40A2661F0232B242B252B21F40895F0
:103390000A2609F4A140A6958FEF811D811D08958D
:1033A00097F99F6780E870E060E008959FEF80ECF8
:1033B000089500240A94161617061806090608959B
:1033C00000240A9412161306140605060895092E01
:1033D0000394000C11F4882352F0BB0F40F4BF2B70
:1033E00011F460FF04C06F5F7F4F8F4F9F4F0895B0
:1033F00057FD9058440F551F59F05F3F71F04795A6
:10340000880F97FB991F61F09F3F79F0879508958A
:10341000121613061406551FF2CF4695F1DF08C0A9
:10342000161617061806991FF1CF869571056105C6
:1034300008940895E894BB2766277727CB0197F96E
:1034400008958ADF08F48FEF08950BD0C0CFB1DF65
:1034500028F0B6DF18F0952309F0A2CFA7CF1124EA
:10346000EACFC6DFA0F3959FD1F3950F50E0551F2B
:10347000629FF001729FBB27F00DB11D639FAA27C9
:10348000F00DB11DAA1F649F6627B00DA11D661F18
:10349000829F2227B00DA11D621F739FB00DA11D39
:1034A000621F839FA00D611D221F749F3327A00DF3
:1034B000611D231F849F600D211D822F762F6A2F8F
:1034C00011249F5750408AF0E1F088234AF0EE0F14
:1034D000FF1FBB1F661F771F881F91505040A9F721
:1034E0009E3F510570F05CCFA6CF5F3FECF3983E56
:1034F000DCF3869577956795B795F795E7959F5F88
:10350000C1F7FE2B880F911D9695879597F9089521
:1035100023DF880B990B0895A1E21A2EAA1BBB1B6F
:10352000FD010DC0AA1FBB1FEE1FFF1FA217B3078F
:10353000E407F50720F0A21BB30BE40BF50B661FA5
:10354000771F881F991F1A9469F760957095809569
:1035500090959B01AC01BD01CF010895EE0FFF1FB7
:10356000881F8BBF0790F691E02D1994FB01DC01B9
:1035700002C001900D9241505040D8F70895DC01EF
:1035800001C06D9341505040E0F70895FB01DC010C
:103590008D91019080190110D9F3990B0895F89439
:0235A000FFCF5B
:1035A20003000083048000000000000A047503A2E7
:1035B200035604D303B103C503000000006006757F
:1035C200033D053C050D0A006E616E00696E6600E2
:1035D2006F766600560049444C4500546D72205384
:1035E200766300426C696E6B005573655365726950
:1035F200616C005461736B20332069732072756EA5
:103602006E696E67200A00416463005461736B3413
:103612003A48656C6C6F576F726C64004C6364005F
:1036220053757370656E6400636D64203E2054614F
:10363200736B20332073757370656E64005265730B
:10364200756D650044656C657465004765745072FC
:10365200696F72697479005365745072696F726927
:1036620074790043726561746500636D64203E2065
:103672005461736B20332063726561746500636DFE
:1036820064203E205461736B20332076616C756533
:103692003A00636D64203E205461736B20332070C6
:1036A20072696F726974793A00636D64203E2054C6
:1036B20061736B20332064656C65746500636D64AF
:1036C200203E205461736B203320726573756D65E3
:0236D2000000F6
:00000001FF
